{
  "_format": "hh-sol-artifact-1",
  "contractName": "PermitCallee",
  "sourceName": "contracts/Gamma/external/callees/PermitCallee.sol",
  "abi": [
    {
      "inputs": [
        {
          "internalType": "address payable",
          "name": "_sender",
          "type": "address"
        },
        {
          "internalType": "bytes",
          "name": "_data",
          "type": "bytes"
        }
      ],
      "name": "callFunction",
      "outputs": [],
      "stateMutability": "nonpayable",
      "type": "function"
    }
  ],
  "bytecode": "0x608060405234801561001057600080fd5b506104cc806100206000396000f3fe608060405234801561001057600080fd5b506004361061002b5760003560e01c80639c23da5014610030575b600080fd5b61004a6004803603810190610045919061026e565b61004c565b005b6000806000806000806000808880602001905181019061006c91906101bc565b975097509750975097509750975097508773ffffffffffffffffffffffffffffffffffffffff1663d505accf888888888888886040518863ffffffff1660e01b81526004016100c197969594939291906102fe565b600060405180830381600087803b1580156100db57600080fd5b505af11580156100ef573d6000803e3d6000fd5b5050505050505050505050505050565b60008135905061010e8161043a565b92915050565b6000815190506101238161043a565b92915050565b60008151905061013881610451565b92915050565b600082601f83011261014f57600080fd5b813561016261015d8261039a565b61036d565b9150808252602083016020830185838301111561017e57600080fd5b61018983828461042b565b50505092915050565b6000815190506101a181610468565b92915050565b6000815190506101b68161047f565b92915050565b600080600080600080600080610100898b0312156101d957600080fd5b60006101e78b828c01610114565b98505060206101f88b828c01610114565b97505060406102098b828c01610114565b965050606061021a8b828c01610192565b955050608061022b8b828c01610192565b94505060a061023c8b828c016101a7565b93505060c061024d8b828c01610129565b92505060e061025e8b828c01610129565b9150509295985092959890939650565b6000806040838503121561028157600080fd5b600061028f858286016100ff565b925050602083013567ffffffffffffffff8111156102ac57600080fd5b6102b88582860161013e565b9150509250929050565b6102cb816103c6565b82525050565b6102da816103ea565b82525050565b6102e981610414565b82525050565b6102f88161041e565b82525050565b600060e082019050610313600083018a6102c2565b61032060208301896102c2565b61032d60408301886102e0565b61033a60608301876102e0565b61034760808301866102ef565b61035460a08301856102d1565b61036160c08301846102d1565b98975050505050505050565b6000604051905081810181811067ffffffffffffffff8211171561039057600080fd5b8060405250919050565b600067ffffffffffffffff8211156103b157600080fd5b601f19601f8301169050602081019050919050565b60006103d1826103f4565b9050919050565b60006103e3826103f4565b9050919050565b6000819050919050565b600073ffffffffffffffffffffffffffffffffffffffff82169050919050565b6000819050919050565b600060ff82169050919050565b82818337600083830152505050565b610443816103d8565b811461044e57600080fd5b50565b61045a816103ea565b811461046557600080fd5b50565b61047181610414565b811461047c57600080fd5b50565b6104888161041e565b811461049357600080fd5b5056fea26469706673582212209365520d9c2ddca64cb2f25705998b8b56553fda0c861e20a4edf81a89159ff064736f6c634300060a0033",
  "linkReferences": {},
  "deployedLinkReferences": {}
}