{
  "_format": "hh-sol-artifact-1",
  "contractName": "RibbonThetaVault",
  "sourceName": "contracts/RibbonThetaVault.sol",
  "abi": [
    {
      "inputs": [
        {
          "internalType": "address",
          "name": "_weth",
          "type": "address"
        },
        {
          "internalType": "address",
          "name": "_usdc",
          "type": "address"
        },
        {
          "internalType": "address",
          "name": "_oTokenFactory",
          "type": "address"
        },
        {
          "internalType": "address",
          "name": "_gammaController",
          "type": "address"
        },
        {
          "internalType": "address",
          "name": "_marginPool",
          "type": "address"
        },
        {
          "internalType": "address",
          "name": "_gnosisEasyAuction",
          "type": "address"
        },
        {
          "internalType": "address",
          "name": "_uniswapRouter",
          "type": "address"
        },
        {
          "internalType": "address",
          "name": "_uniswapFactory",
          "type": "address"
        }
      ],
      "stateMutability": "nonpayable",
      "type": "constructor"
    },
    {
      "anonymous": false,
      "inputs": [
        {
          "indexed": true,
          "internalType": "address",
          "name": "owner",
          "type": "address"
        },
        {
          "indexed": true,
          "internalType": "address",
          "name": "spender",
          "type": "address"
        },
        {
          "indexed": false,
          "internalType": "uint256",
          "name": "value",
          "type": "uint256"
        }
      ],
      "name": "Approval",
      "type": "event"
    },
    {
      "anonymous": false,
      "inputs": [
        {
          "indexed": false,
          "internalType": "uint256",
          "name": "auctionDuration",
          "type": "uint256"
        },
        {
          "indexed": false,
          "internalType": "uint256",
          "name": "newAuctionDuration",
          "type": "uint256"
        }
      ],
      "name": "AuctionDurationSet",
      "type": "event"
    },
    {
      "anonymous": false,
      "inputs": [
        {
          "indexed": false,
          "internalType": "uint256",
          "name": "oldCap",
          "type": "uint256"
        },
        {
          "indexed": false,
          "internalType": "uint256",
          "name": "newCap",
          "type": "uint256"
        }
      ],
      "name": "CapSet",
      "type": "event"
    },
    {
      "anonymous": false,
      "inputs": [
        {
          "indexed": true,
          "internalType": "address",
          "name": "options",
          "type": "address"
        },
        {
          "indexed": false,
          "internalType": "uint256",
          "name": "withdrawAmount",
          "type": "uint256"
        },
        {
          "indexed": true,
          "internalType": "address",
          "name": "manager",
          "type": "address"
        }
      ],
      "name": "CloseShort",
      "type": "event"
    },
    {
      "anonymous": false,
      "inputs": [
        {
          "indexed": false,
          "internalType": "uint256",
          "name": "performanceFee",
          "type": "uint256"
        },
        {
          "indexed": false,
          "internalType": "uint256",
          "name": "vaultFee",
          "type": "uint256"
        },
        {
          "indexed": false,
          "internalType": "uint256",
          "name": "round",
          "type": "uint256"
        },
        {
          "indexed": true,
          "internalType": "address",
          "name": "feeRecipient",
          "type": "address"
        }
      ],
      "name": "CollectVaultFees",
      "type": "event"
    },
    {
      "anonymous": false,
      "inputs": [
        {
          "indexed": true,
          "internalType": "address",
          "name": "account",
          "type": "address"
        },
        {
          "indexed": false,
          "internalType": "uint256",
          "name": "amount",
          "type": "uint256"
        },
        {
          "indexed": false,
          "internalType": "uint256",
          "name": "round",
          "type": "uint256"
        }
      ],
      "name": "Deposit",
      "type": "event"
    },
    {
      "anonymous": false,
      "inputs": [
        {
          "indexed": true,
          "internalType": "address",
          "name": "account",
          "type": "address"
        },
        {
          "indexed": false,
          "internalType": "uint256",
          "name": "shares",
          "type": "uint256"
        },
        {
          "indexed": false,
          "internalType": "uint256",
          "name": "round",
          "type": "uint256"
        }
      ],
      "name": "InitiateWithdraw",
      "type": "event"
    },
    {
      "anonymous": false,
      "inputs": [
        {
          "indexed": true,
          "internalType": "address",
          "name": "account",
          "type": "address"
        },
        {
          "indexed": false,
          "internalType": "uint256",
          "name": "amount",
          "type": "uint256"
        },
        {
          "indexed": false,
          "internalType": "uint256",
          "name": "round",
          "type": "uint256"
        }
      ],
      "name": "InstantWithdraw",
      "type": "event"
    },
    {
      "anonymous": false,
      "inputs": [
        {
          "indexed": false,
          "internalType": "uint256",
          "name": "managementFee",
          "type": "uint256"
        },
        {
          "indexed": false,
          "internalType": "uint256",
          "name": "newManagementFee",
          "type": "uint256"
        }
      ],
      "name": "ManagementFeeSet",
      "type": "event"
    },
    {
      "anonymous": false,
      "inputs": [
        {
          "indexed": false,
          "internalType": "uint256",
          "name": "strikePrice",
          "type": "uint256"
        },
        {
          "indexed": false,
          "internalType": "uint256",
          "name": "delta",
          "type": "uint256"
        }
      ],
      "name": "NewOptionStrikeSelected",
      "type": "event"
    },
    {
      "anonymous": false,
      "inputs": [
        {
          "indexed": true,
          "internalType": "address",
          "name": "options",
          "type": "address"
        },
        {
          "indexed": false,
          "internalType": "uint256",
          "name": "depositAmount",
          "type": "uint256"
        },
        {
          "indexed": true,
          "internalType": "address",
          "name": "manager",
          "type": "address"
        }
      ],
      "name": "OpenShort",
      "type": "event"
    },
    {
      "anonymous": false,
      "inputs": [
        {
          "indexed": true,
          "internalType": "address",
          "name": "previousOwner",
          "type": "address"
        },
        {
          "indexed": true,
          "internalType": "address",
          "name": "newOwner",
          "type": "address"
        }
      ],
      "name": "OwnershipTransferred",
      "type": "event"
    },
    {
      "anonymous": false,
      "inputs": [
        {
          "indexed": false,
          "internalType": "uint256",
          "name": "performanceFee",
          "type": "uint256"
        },
        {
          "indexed": false,
          "internalType": "uint256",
          "name": "newPerformanceFee",
          "type": "uint256"
        }
      ],
      "name": "PerformanceFeeSet",
      "type": "event"
    },
    {
      "anonymous": false,
      "inputs": [
        {
          "indexed": false,
          "internalType": "uint256",
          "name": "premiumDiscount",
          "type": "uint256"
        },
        {
          "indexed": false,
          "internalType": "uint256",
          "name": "newPremiumDiscount",
          "type": "uint256"
        }
      ],
      "name": "PremiumDiscountSet",
      "type": "event"
    },
    {
      "anonymous": false,
      "inputs": [
        {
          "indexed": true,
          "internalType": "address",
          "name": "account",
          "type": "address"
        },
        {
          "indexed": false,
          "internalType": "uint256",
          "name": "share",
          "type": "uint256"
        },
        {
          "indexed": false,
          "internalType": "uint256",
          "name": "round",
          "type": "uint256"
        }
      ],
      "name": "Redeem",
      "type": "event"
    },
    {
      "anonymous": false,
      "inputs": [
        {
          "indexed": true,
          "internalType": "address",
          "name": "from",
          "type": "address"
        },
        {
          "indexed": true,
          "internalType": "address",
          "name": "to",
          "type": "address"
        },
        {
          "indexed": false,
          "internalType": "uint256",
          "name": "value",
          "type": "uint256"
        }
      ],
      "name": "Transfer",
      "type": "event"
    },
    {
      "anonymous": false,
      "inputs": [
        {
          "indexed": true,
          "internalType": "address",
          "name": "account",
          "type": "address"
        },
        {
          "indexed": false,
          "internalType": "uint256",
          "name": "amount",
          "type": "uint256"
        },
        {
          "indexed": false,
          "internalType": "uint256",
          "name": "shares",
          "type": "uint256"
        }
      ],
      "name": "Withdraw",
      "type": "event"
    },
    {
      "inputs": [],
      "name": "DELAY",
      "outputs": [
        {
          "internalType": "uint256",
          "name": "",
          "type": "uint256"
        }
      ],
      "stateMutability": "view",
      "type": "function"
    },
    {
      "inputs": [],
      "name": "GAMMA_CONTROLLER",
      "outputs": [
        {
          "internalType": "address",
          "name": "",
          "type": "address"
        }
      ],
      "stateMutability": "view",
      "type": "function"
    },
    {
      "inputs": [],
      "name": "GNOSIS_EASY_AUCTION",
      "outputs": [
        {
          "internalType": "address",
          "name": "",
          "type": "address"
        }
      ],
      "stateMutability": "view",
      "type": "function"
    },
    {
      "inputs": [],
      "name": "MARGIN_POOL",
      "outputs": [
        {
          "internalType": "address",
          "name": "",
          "type": "address"
        }
      ],
      "stateMutability": "view",
      "type": "function"
    },
    {
      "inputs": [],
      "name": "OTOKEN_FACTORY",
      "outputs": [
        {
          "internalType": "address",
          "name": "",
          "type": "address"
        }
      ],
      "stateMutability": "view",
      "type": "function"
    },
    {
      "inputs": [],
      "name": "PERIOD",
      "outputs": [
        {
          "internalType": "uint256",
          "name": "",
          "type": "uint256"
        }
      ],
      "stateMutability": "view",
      "type": "function"
    },
    {
      "inputs": [],
      "name": "UNISWAP_FACTORY",
      "outputs": [
        {
          "internalType": "address",
          "name": "",
          "type": "address"
        }
      ],
      "stateMutability": "view",
      "type": "function"
    },
    {
      "inputs": [],
      "name": "UNISWAP_ROUTER",
      "outputs": [
        {
          "internalType": "address",
          "name": "",
          "type": "address"
        }
      ],
      "stateMutability": "view",
      "type": "function"
    },
    {
      "inputs": [],
      "name": "USDC",
      "outputs": [
        {
          "internalType": "address",
          "name": "",
          "type": "address"
        }
      ],
      "stateMutability": "view",
      "type": "function"
    },
    {
      "inputs": [],
      "name": "WETH",
      "outputs": [
        {
          "internalType": "address",
          "name": "",
          "type": "address"
        }
      ],
      "stateMutability": "view",
      "type": "function"
    },
    {
      "inputs": [
        {
          "internalType": "address",
          "name": "account",
          "type": "address"
        }
      ],
      "name": "accountVaultBalance",
      "outputs": [
        {
          "internalType": "uint256",
          "name": "",
          "type": "uint256"
        }
      ],
      "stateMutability": "view",
      "type": "function"
    },
    {
      "inputs": [
        {
          "internalType": "address",
          "name": "owner",
          "type": "address"
        },
        {
          "internalType": "address",
          "name": "spender",
          "type": "address"
        }
      ],
      "name": "allowance",
      "outputs": [
        {
          "internalType": "uint256",
          "name": "",
          "type": "uint256"
        }
      ],
      "stateMutability": "view",
      "type": "function"
    },
    {
      "inputs": [
        {
          "internalType": "address",
          "name": "spender",
          "type": "address"
        },
        {
          "internalType": "uint256",
          "name": "amount",
          "type": "uint256"
        }
      ],
      "name": "approve",
      "outputs": [
        {
          "internalType": "bool",
          "name": "",
          "type": "bool"
        }
      ],
      "stateMutability": "nonpayable",
      "type": "function"
    },
    {
      "inputs": [],
      "name": "auctionDuration",
      "outputs": [
        {
          "internalType": "uint256",
          "name": "",
          "type": "uint256"
        }
      ],
      "stateMutability": "view",
      "type": "function"
    },
    {
      "inputs": [
        {
          "internalType": "address",
          "name": "account",
          "type": "address"
        }
      ],
      "name": "balanceOf",
      "outputs": [
        {
          "internalType": "uint256",
          "name": "",
          "type": "uint256"
        }
      ],
      "stateMutability": "view",
      "type": "function"
    },
    {
      "inputs": [],
      "name": "burnRemainingOTokens",
      "outputs": [],
      "stateMutability": "nonpayable",
      "type": "function"
    },
    {
      "inputs": [],
      "name": "cap",
      "outputs": [
        {
          "internalType": "uint256",
          "name": "",
          "type": "uint256"
        }
      ],
      "stateMutability": "view",
      "type": "function"
    },
    {
      "inputs": [],
      "name": "commitAndClose",
      "outputs": [],
      "stateMutability": "nonpayable",
      "type": "function"
    },
    {
      "inputs": [],
      "name": "completeWithdraw",
      "outputs": [],
      "stateMutability": "nonpayable",
      "type": "function"
    },
    {
      "inputs": [],
      "name": "currentOption",
      "outputs": [
        {
          "internalType": "address",
          "name": "",
          "type": "address"
        }
      ],
      "stateMutability": "view",
      "type": "function"
    },
    {
      "inputs": [],
      "name": "currentOtokenPremium",
      "outputs": [
        {
          "internalType": "uint256",
          "name": "",
          "type": "uint256"
        }
      ],
      "stateMutability": "view",
      "type": "function"
    },
    {
      "inputs": [],
      "name": "decimals",
      "outputs": [
        {
          "internalType": "uint8",
          "name": "",
          "type": "uint8"
        }
      ],
      "stateMutability": "view",
      "type": "function"
    },
    {
      "inputs": [
        {
          "internalType": "address",
          "name": "spender",
          "type": "address"
        },
        {
          "internalType": "uint256",
          "name": "subtractedValue",
          "type": "uint256"
        }
      ],
      "name": "decreaseAllowance",
      "outputs": [
        {
          "internalType": "bool",
          "name": "",
          "type": "bool"
        }
      ],
      "stateMutability": "nonpayable",
      "type": "function"
    },
    {
      "inputs": [
        {
          "internalType": "uint256",
          "name": "amount",
          "type": "uint256"
        }
      ],
      "name": "deposit",
      "outputs": [],
      "stateMutability": "nonpayable",
      "type": "function"
    },
    {
      "inputs": [],
      "name": "depositETH",
      "outputs": [],
      "stateMutability": "payable",
      "type": "function"
    },
    {
      "inputs": [
        {
          "internalType": "uint256",
          "name": "amount",
          "type": "uint256"
        },
        {
          "internalType": "address",
          "name": "creditor",
          "type": "address"
        }
      ],
      "name": "depositFor",
      "outputs": [],
      "stateMutability": "nonpayable",
      "type": "function"
    },
    {
      "inputs": [
        {
          "internalType": "address",
          "name": "",
          "type": "address"
        }
      ],
      "name": "depositReceipts",
      "outputs": [
        {
          "internalType": "uint16",
          "name": "round",
          "type": "uint16"
        },
        {
          "internalType": "uint104",
          "name": "amount",
          "type": "uint104"
        },
        {
          "internalType": "uint128",
          "name": "unredeemedShares",
          "type": "uint128"
        }
      ],
      "stateMutability": "view",
      "type": "function"
    },
    {
      "inputs": [],
      "name": "feeRecipient",
      "outputs": [
        {
          "internalType": "address",
          "name": "",
          "type": "address"
        }
      ],
      "stateMutability": "view",
      "type": "function"
    },
    {
      "inputs": [
        {
          "internalType": "address",
          "name": "spender",
          "type": "address"
        },
        {
          "internalType": "uint256",
          "name": "addedValue",
          "type": "uint256"
        }
      ],
      "name": "increaseAllowance",
      "outputs": [
        {
          "internalType": "bool",
          "name": "",
          "type": "bool"
        }
      ],
      "stateMutability": "nonpayable",
      "type": "function"
    },
    {
      "inputs": [
        {
          "internalType": "uint256",
          "name": "numRounds",
          "type": "uint256"
        }
      ],
      "name": "initRounds",
      "outputs": [],
      "stateMutability": "nonpayable",
      "type": "function"
    },
    {
      "inputs": [
        {
          "components": [
            {
              "internalType": "address",
              "name": "_owner",
              "type": "address"
            },
            {
              "internalType": "address",
              "name": "_keeper",
              "type": "address"
            },
            {
              "internalType": "address",
              "name": "_feeRecipient",
              "type": "address"
            },
            {
              "internalType": "uint256",
              "name": "_managementFee",
              "type": "uint256"
            },
            {
              "internalType": "uint256",
              "name": "_performanceFee",
              "type": "uint256"
            },
            {
              "internalType": "string",
              "name": "_tokenName",
              "type": "string"
            },
            {
              "internalType": "string",
              "name": "_tokenSymbol",
              "type": "string"
            },
            {
              "internalType": "address",
              "name": "_optionsPremiumPricer",
              "type": "address"
            },
            {
              "internalType": "address",
              "name": "_strikeSelection",
              "type": "address"
            },
            {
              "internalType": "uint32",
              "name": "_premiumDiscount",
              "type": "uint32"
            },
            {
              "internalType": "uint256",
              "name": "_auctionDuration",
              "type": "uint256"
            },
            {
              "internalType": "bool",
              "name": "_isUsdcAuction",
              "type": "bool"
            },
            {
              "internalType": "bytes",
              "name": "_swapPath",
              "type": "bytes"
            }
          ],
          "internalType": "struct RibbonThetaVault.InitParams",
          "name": "_initParams",
          "type": "tuple"
        },
        {
          "components": [
            {
              "internalType": "bool",
              "name": "isPut",
              "type": "bool"
            },
            {
              "internalType": "uint8",
              "name": "decimals",
              "type": "uint8"
            },
            {
              "internalType": "address",
              "name": "asset",
              "type": "address"
            },
            {
              "internalType": "address",
              "name": "underlying",
              "type": "address"
            },
            {
              "internalType": "uint56",
              "name": "minimumSupply",
              "type": "uint56"
            },
            {
              "internalType": "uint104",
              "name": "cap",
              "type": "uint104"
            }
          ],
          "internalType": "struct Vault.VaultParams",
          "name": "_vaultParams",
          "type": "tuple"
        }
      ],
      "name": "initialize",
      "outputs": [],
      "stateMutability": "nonpayable",
      "type": "function"
    },
    {
      "inputs": [
        {
          "internalType": "uint256",
          "name": "numShares",
          "type": "uint256"
        }
      ],
      "name": "initiateWithdraw",
      "outputs": [],
      "stateMutability": "nonpayable",
      "type": "function"
    },
    {
      "inputs": [],
      "name": "isUsdcAuction",
      "outputs": [
        {
          "internalType": "bool",
          "name": "",
          "type": "bool"
        }
      ],
      "stateMutability": "view",
      "type": "function"
    },
    {
      "inputs": [],
      "name": "keeper",
      "outputs": [
        {
          "internalType": "address",
          "name": "",
          "type": "address"
        }
      ],
      "stateMutability": "view",
      "type": "function"
    },
    {
      "inputs": [],
      "name": "lastQueuedWithdrawAmount",
      "outputs": [
        {
          "internalType": "uint256",
          "name": "",
          "type": "uint256"
        }
      ],
      "stateMutability": "view",
      "type": "function"
    },
    {
      "inputs": [],
      "name": "lastStrikeOverrideRound",
      "outputs": [
        {
          "internalType": "uint16",
          "name": "",
          "type": "uint16"
        }
      ],
      "stateMutability": "view",
      "type": "function"
    },
    {
      "inputs": [],
      "name": "liquidityGauge",
      "outputs": [
        {
          "internalType": "address",
          "name": "",
          "type": "address"
        }
      ],
      "stateMutability": "view",
      "type": "function"
    },
    {
      "inputs": [],
      "name": "managementFee",
      "outputs": [
        {
          "internalType": "uint256",
          "name": "",
          "type": "uint256"
        }
      ],
      "stateMutability": "view",
      "type": "function"
    },
    {
      "inputs": [],
      "name": "maxRedeem",
      "outputs": [],
      "stateMutability": "nonpayable",
      "type": "function"
    },
    {
      "inputs": [],
      "name": "name",
      "outputs": [
        {
          "internalType": "string",
          "name": "",
          "type": "string"
        }
      ],
      "stateMutability": "view",
      "type": "function"
    },
    {
      "inputs": [],
      "name": "nextOption",
      "outputs": [
        {
          "internalType": "address",
          "name": "",
          "type": "address"
        }
      ],
      "stateMutability": "view",
      "type": "function"
    },
    {
      "inputs": [],
      "name": "nextOptionReadyAt",
      "outputs": [
        {
          "internalType": "uint256",
          "name": "",
          "type": "uint256"
        }
      ],
      "stateMutability": "view",
      "type": "function"
    },
    {
      "inputs": [],
      "name": "optionAuctionID",
      "outputs": [
        {
          "internalType": "uint256",
          "name": "",
          "type": "uint256"
        }
      ],
      "stateMutability": "view",
      "type": "function"
    },
    {
      "inputs": [],
      "name": "optionState",
      "outputs": [
        {
          "internalType": "address",
          "name": "nextOption",
          "type": "address"
        },
        {
          "internalType": "address",
          "name": "currentOption",
          "type": "address"
        },
        {
          "internalType": "uint32",
          "name": "nextOptionReadyAt",
          "type": "uint32"
        }
      ],
      "stateMutability": "view",
      "type": "function"
    },
    {
      "inputs": [],
      "name": "optionsPremiumPricer",
      "outputs": [
        {
          "internalType": "address",
          "name": "",
          "type": "address"
        }
      ],
      "stateMutability": "view",
      "type": "function"
    },
    {
      "inputs": [],
      "name": "overriddenStrikePrice",
      "outputs": [
        {
          "internalType": "uint256",
          "name": "",
          "type": "uint256"
        }
      ],
      "stateMutability": "view",
      "type": "function"
    },
    {
      "inputs": [],
      "name": "owner",
      "outputs": [
        {
          "internalType": "address",
          "name": "",
          "type": "address"
        }
      ],
      "stateMutability": "view",
      "type": "function"
    },
    {
      "inputs": [],
      "name": "performanceFee",
      "outputs": [
        {
          "internalType": "uint256",
          "name": "",
          "type": "uint256"
        }
      ],
      "stateMutability": "view",
      "type": "function"
    },
    {
      "inputs": [],
      "name": "premiumDiscount",
      "outputs": [
        {
          "internalType": "uint256",
          "name": "",
          "type": "uint256"
        }
      ],
      "stateMutability": "view",
      "type": "function"
    },
    {
      "inputs": [],
      "name": "pricePerShare",
      "outputs": [
        {
          "internalType": "uint256",
          "name": "",
          "type": "uint256"
        }
      ],
      "stateMutability": "view",
      "type": "function"
    },
    {
      "inputs": [
        {
          "internalType": "uint256",
          "name": "numShares",
          "type": "uint256"
        }
      ],
      "name": "redeem",
      "outputs": [],
      "stateMutability": "nonpayable",
      "type": "function"
    },
    {
      "inputs": [],
      "name": "renounceOwnership",
      "outputs": [],
      "stateMutability": "nonpayable",
      "type": "function"
    },
    {
      "inputs": [],
      "name": "rollToNextOption",
      "outputs": [],
      "stateMutability": "nonpayable",
      "type": "function"
    },
    {
      "inputs": [
        {
          "internalType": "uint256",
          "name": "",
          "type": "uint256"
        }
      ],
      "name": "roundPricePerShare",
      "outputs": [
        {
          "internalType": "uint256",
          "name": "",
          "type": "uint256"
        }
      ],
      "stateMutability": "view",
      "type": "function"
    },
    {
      "inputs": [
        {
          "internalType": "uint256",
          "name": "newAuctionDuration",
          "type": "uint256"
        }
      ],
      "name": "setAuctionDuration",
      "outputs": [],
      "stateMutability": "nonpayable",
      "type": "function"
    },
    {
      "inputs": [
        {
          "internalType": "uint256",
          "name": "newCap",
          "type": "uint256"
        }
      ],
      "name": "setCap",
      "outputs": [],
      "stateMutability": "nonpayable",
      "type": "function"
    },
    {
      "inputs": [
        {
          "internalType": "address",
          "name": "newFeeRecipient",
          "type": "address"
        }
      ],
      "name": "setFeeRecipient",
      "outputs": [],
      "stateMutability": "nonpayable",
      "type": "function"
    },
    {
      "inputs": [
        {
          "internalType": "address",
          "name": "newLiquidityGauge",
          "type": "address"
        }
      ],
      "name": "setLiquidityGauge",
      "outputs": [],
      "stateMutability": "nonpayable",
      "type": "function"
    },
    {
      "inputs": [
        {
          "internalType": "uint256",
          "name": "newManagementFee",
          "type": "uint256"
        }
      ],
      "name": "setManagementFee",
      "outputs": [],
      "stateMutability": "nonpayable",
      "type": "function"
    },
    {
      "inputs": [
        {
          "internalType": "address",
          "name": "newKeeper",
          "type": "address"
        }
      ],
      "name": "setNewKeeper",
      "outputs": [],
      "stateMutability": "nonpayable",
      "type": "function"
    },
    {
      "inputs": [
        {
          "internalType": "address",
          "name": "newOptionsPremiumPricer",
          "type": "address"
        }
      ],
      "name": "setOptionsPremiumPricer",
      "outputs": [],
      "stateMutability": "nonpayable",
      "type": "function"
    },
    {
      "inputs": [
        {
          "internalType": "uint256",
          "name": "newPerformanceFee",
          "type": "uint256"
        }
      ],
      "name": "setPerformanceFee",
      "outputs": [],
      "stateMutability": "nonpayable",
      "type": "function"
    },
    {
      "inputs": [
        {
          "internalType": "uint256",
          "name": "newPremiumDiscount",
          "type": "uint256"
        }
      ],
      "name": "setPremiumDiscount",
      "outputs": [],
      "stateMutability": "nonpayable",
      "type": "function"
    },
    {
      "inputs": [
        {
          "internalType": "uint128",
          "name": "strikePrice",
          "type": "uint128"
        }
      ],
      "name": "setStrikePrice",
      "outputs": [],
      "stateMutability": "nonpayable",
      "type": "function"
    },
    {
      "inputs": [
        {
          "internalType": "address",
          "name": "newStrikeSelection",
          "type": "address"
        }
      ],
      "name": "setStrikeSelection",
      "outputs": [],
      "stateMutability": "nonpayable",
      "type": "function"
    },
    {
      "inputs": [
        {
          "internalType": "bytes",
          "name": "newSwapPath",
          "type": "bytes"
        }
      ],
      "name": "setSwapPath",
      "outputs": [],
      "stateMutability": "nonpayable",
      "type": "function"
    },
    {
      "inputs": [
        {
          "internalType": "uint256",
          "name": "minAmountOut",
          "type": "uint256"
        }
      ],
      "name": "settleAuctionAndSwap",
      "outputs": [],
      "stateMutability": "nonpayable",
      "type": "function"
    },
    {
      "inputs": [
        {
          "internalType": "address",
          "name": "account",
          "type": "address"
        }
      ],
      "name": "shareBalances",
      "outputs": [
        {
          "internalType": "uint256",
          "name": "heldByAccount",
          "type": "uint256"
        },
        {
          "internalType": "uint256",
          "name": "heldByVault",
          "type": "uint256"
        }
      ],
      "stateMutability": "view",
      "type": "function"
    },
    {
      "inputs": [
        {
          "internalType": "address",
          "name": "account",
          "type": "address"
        }
      ],
      "name": "shares",
      "outputs": [
        {
          "internalType": "uint256",
          "name": "",
          "type": "uint256"
        }
      ],
      "stateMutability": "view",
      "type": "function"
    },
    {
      "inputs": [
        {
          "internalType": "uint256",
          "name": "numShares",
          "type": "uint256"
        }
      ],
      "name": "stake",
      "outputs": [],
      "stateMutability": "nonpayable",
      "type": "function"
    },
    {
      "inputs": [],
      "name": "startAuction",
      "outputs": [],
      "stateMutability": "nonpayable",
      "type": "function"
    },
    {
      "inputs": [],
      "name": "strikeSelection",
      "outputs": [
        {
          "internalType": "address",
          "name": "",
          "type": "address"
        }
      ],
      "stateMutability": "view",
      "type": "function"
    },
    {
      "inputs": [],
      "name": "swapPath",
      "outputs": [
        {
          "internalType": "bytes",
          "name": "",
          "type": "bytes"
        }
      ],
      "stateMutability": "view",
      "type": "function"
    },
    {
      "inputs": [],
      "name": "symbol",
      "outputs": [
        {
          "internalType": "string",
          "name": "",
          "type": "string"
        }
      ],
      "stateMutability": "view",
      "type": "function"
    },
    {
      "inputs": [],
      "name": "totalBalance",
      "outputs": [
        {
          "internalType": "uint256",
          "name": "",
          "type": "uint256"
        }
      ],
      "stateMutability": "view",
      "type": "function"
    },
    {
      "inputs": [],
      "name": "totalPending",
      "outputs": [
        {
          "internalType": "uint256",
          "name": "",
          "type": "uint256"
        }
      ],
      "stateMutability": "view",
      "type": "function"
    },
    {
      "inputs": [],
      "name": "totalSupply",
      "outputs": [
        {
          "internalType": "uint256",
          "name": "",
          "type": "uint256"
        }
      ],
      "stateMutability": "view",
      "type": "function"
    },
    {
      "inputs": [
        {
          "internalType": "address",
          "name": "to",
          "type": "address"
        },
        {
          "internalType": "uint256",
          "name": "amount",
          "type": "uint256"
        }
      ],
      "name": "transfer",
      "outputs": [
        {
          "internalType": "bool",
          "name": "",
          "type": "bool"
        }
      ],
      "stateMutability": "nonpayable",
      "type": "function"
    },
    {
      "inputs": [
        {
          "internalType": "address",
          "name": "from",
          "type": "address"
        },
        {
          "internalType": "address",
          "name": "to",
          "type": "address"
        },
        {
          "internalType": "uint256",
          "name": "amount",
          "type": "uint256"
        }
      ],
      "name": "transferFrom",
      "outputs": [
        {
          "internalType": "bool",
          "name": "",
          "type": "bool"
        }
      ],
      "stateMutability": "nonpayable",
      "type": "function"
    },
    {
      "inputs": [
        {
          "internalType": "address",
          "name": "newOwner",
          "type": "address"
        }
      ],
      "name": "transferOwnership",
      "outputs": [],
      "stateMutability": "nonpayable",
      "type": "function"
    },
    {
      "inputs": [],
      "name": "vaultParams",
      "outputs": [
        {
          "internalType": "bool",
          "name": "isPut",
          "type": "bool"
        },
        {
          "internalType": "uint8",
          "name": "decimals",
          "type": "uint8"
        },
        {
          "internalType": "address",
          "name": "asset",
          "type": "address"
        },
        {
          "internalType": "address",
          "name": "underlying",
          "type": "address"
        },
        {
          "internalType": "uint56",
          "name": "minimumSupply",
          "type": "uint56"
        },
        {
          "internalType": "uint104",
          "name": "cap",
          "type": "uint104"
        }
      ],
      "stateMutability": "view",
      "type": "function"
    },
    {
      "inputs": [],
      "name": "vaultState",
      "outputs": [
        {
          "internalType": "uint16",
          "name": "round",
          "type": "uint16"
        },
        {
          "internalType": "uint104",
          "name": "lockedAmount",
          "type": "uint104"
        },
        {
          "internalType": "uint104",
          "name": "lastLockedAmount",
          "type": "uint104"
        },
        {
          "internalType": "uint128",
          "name": "totalPending",
          "type": "uint128"
        },
        {
          "internalType": "uint128",
          "name": "queuedWithdrawShares",
          "type": "uint128"
        }
      ],
      "stateMutability": "view",
      "type": "function"
    },
    {
      "inputs": [
        {
          "internalType": "uint256",
          "name": "amount",
          "type": "uint256"
        }
      ],
      "name": "withdrawInstantly",
      "outputs": [],
      "stateMutability": "nonpayable",
      "type": "function"
    },
    {
      "inputs": [
        {
          "internalType": "address",
          "name": "",
          "type": "address"
        }
      ],
      "name": "withdrawals",
      "outputs": [
        {
          "internalType": "uint16",
          "name": "round",
          "type": "uint16"
        },
        {
          "internalType": "uint128",
          "name": "shares",
          "type": "uint128"
        }
      ],
      "stateMutability": "view",
      "type": "function"
    }
  ],
  "bytecode": "0x6101806040523480156200001257600080fd5b506040516200be923803806200be928339818101604052810190620000389190620005bf565b87878686868686600073ffffffffffffffffffffffffffffffffffffffff168773ffffffffffffffffffffffffffffffffffffffff161415620000b2576040517f08c379a0000000000000000000000000000000000000000000000000000000008152600401620000a990620007dc565b60405180910390fd5b600073ffffffffffffffffffffffffffffffffffffffff168673ffffffffffffffffffffffffffffffffffffffff16141562000125576040517f08c379a00000000000000000000000000000000000000000000000000000000081526004016200011c9062000886565b60405180910390fd5b600073ffffffffffffffffffffffffffffffffffffffff168373ffffffffffffffffffffffffffffffffffffffff16141562000198576040517f08c379a00000000000000000000000000000000000000000000000000000000081526004016200018f90620007fe565b60405180910390fd5b600073ffffffffffffffffffffffffffffffffffffffff168573ffffffffffffffffffffffffffffffffffffffff1614156200020b576040517f08c379a00000000000000000000000000000000000000000000000000000000081526004016200020290620007ba565b60405180910390fd5b600073ffffffffffffffffffffffffffffffffffffffff168473ffffffffffffffffffffffffffffffffffffffff1614156200027e576040517f08c379a0000000000000000000000000000000000000000000000000000000008152600401620002759062000864565b60405180910390fd5b600073ffffffffffffffffffffffffffffffffffffffff168273ffffffffffffffffffffffffffffffffffffffff161415620002f1576040517f08c379a0000000000000000000000000000000000000000000000000000000008152600401620002e89062000842565b60405180910390fd5b600073ffffffffffffffffffffffffffffffffffffffff168173ffffffffffffffffffffffffffffffffffffffff16141562000364576040517f08c379a00000000000000000000000000000000000000000000000000000000081526004016200035b90620008a8565b60405180910390fd5b8673ffffffffffffffffffffffffffffffffffffffff1660808173ffffffffffffffffffffffffffffffffffffffff1660601b815250508573ffffffffffffffffffffffffffffffffffffffff1660a08173ffffffffffffffffffffffffffffffffffffffff1660601b815250508473ffffffffffffffffffffffffffffffffffffffff1660c08173ffffffffffffffffffffffffffffffffffffffff1660601b815250508373ffffffffffffffffffffffffffffffffffffffff1660e08173ffffffffffffffffffffffffffffffffffffffff1660601b815250508273ffffffffffffffffffffffffffffffffffffffff166101008173ffffffffffffffffffffffffffffffffffffffff1660601b815250508173ffffffffffffffffffffffffffffffffffffffff166101208173ffffffffffffffffffffffffffffffffffffffff1660601b815250508073ffffffffffffffffffffffffffffffffffffffff166101408173ffffffffffffffffffffffffffffffffffffffff1660601b8152505050505050505050600073ffffffffffffffffffffffffffffffffffffffff168673ffffffffffffffffffffffffffffffffffffffff16141562000562576040517f08c379a0000000000000000000000000000000000000000000000000000000008152600401620005599062000820565b60405180910390fd5b8573ffffffffffffffffffffffffffffffffffffffff166101608173ffffffffffffffffffffffffffffffffffffffff1660601b81525050505050505050505062000a71565b600081519050620005b98162000a57565b92915050565b600080600080600080600080610100898b031215620005dd57600080fd5b6000620005ed8b828c01620005a8565b9850506020620006008b828c01620005a8565b9750506040620006138b828c01620005a8565b9650506060620006268b828c01620005a8565b9550506080620006398b828c01620005a8565b94505060a06200064c8b828c01620005a8565b93505060c06200065f8b828c01620005a8565b92505060e0620006728b828c01620005a8565b9150509295985092959890939650565b600062000691601183620008ca565b91506200069e826200090f565b602082019050919050565b6000620006b8600683620008ca565b9150620006c58262000938565b602082019050919050565b6000620006df601383620008ca565b9150620006ec8262000961565b602082019050919050565b600062000706600f83620008ca565b915062000713826200098a565b602082019050919050565b60006200072d600f83620008ca565b91506200073a82620009b3565b602082019050919050565b600062000754600c83620008ca565b91506200076182620009dc565b602082019050919050565b60006200077b600683620008ca565b9150620007888262000a05565b602082019050919050565b6000620007a2601083620008ca565b9150620007af8262000a2e565b602082019050919050565b60006020820190508181036000830152620007d58162000682565b9050919050565b60006020820190508181036000830152620007f781620006a9565b9050919050565b600060208201905081810360008301526200081981620006d0565b9050919050565b600060208201905081810360008301526200083b81620006f7565b9050919050565b600060208201905081810360008301526200085d816200071e565b9050919050565b600060208201905081810360008301526200087f8162000745565b9050919050565b60006020820190508181036000830152620008a1816200076c565b9050919050565b60006020820190508181036000830152620008c38162000793565b9050919050565b600082825260208201905092915050565b6000620008e882620008ef565b9050919050565b600073ffffffffffffffffffffffffffffffffffffffff82169050919050565b7f215f67616d6d61436f6e74726f6c6c6572000000000000000000000000000000600082015250565b7f215f776574680000000000000000000000000000000000000000000000000000600082015250565b7f215f676e6f7369734561737941756374696f6e00000000000000000000000000600082015250565b7f215f6f546f6b656e466163746f72790000000000000000000000000000000000600082015250565b7f215f756e6973776170526f757465720000000000000000000000000000000000600082015250565b7f215f6d617267696e506f6f6c0000000000000000000000000000000000000000600082015250565b7f215f757364630000000000000000000000000000000000000000000000000000600082015250565b7f215f756e6973776170466163746f727900000000000000000000000000000000600082015250565b62000a6281620008db565b811462000a6e57600080fd5b50565b60805160601c60a05160601c60c05160601c60e05160601c6101005160601c6101205160601c6101405160601c6101605160601c61b34162000b5160003960008181613ecf015261426701526000613b61015260008181613ae50152613e050152600081816123ff0152615f2501526000818161227a015261389201526000818161146801528181612145015281816138710152616a9f015260008181612b5c01528181613ac3015281816142a30152615fad01526000818161347c01528181614bd201528181614cd20152818161563a015261568e015261b3416000f3fe60806040526004361061049f5760003560e01c8063980db6f411610260578063ce7c2ac211610144578063e73c63d5116100c1578063f6326fb311610085578063f6326fb314611202578063f656ba511461120c578063f756fa211461124a578063f957a06714611261578063f9a0be681461128c578063fe56e232146112b75761049f565b8063e73c63d514611145578063e74b981b14611170578063ea00b1ca14611199578063f2fde38b146111b0578063f60f7645146111d95761049f565b8063db006a7511610108578063db006a751461105e578063db43e86214611087578063dc4e9bef146110b2578063dd62ed3e146110dd578063df5af13f1461111a5761049f565b8063ce7c2ac214610f79578063d13f1b3e14610fb6578063d164cc1514610fdf578063d5f2638214611008578063d8264920146110335761049f565b8063a6f7f5d6116101dd578063afa66264116101a1578063afa6626414610e8f578063b4d1d79514610eba578063b6b55f2514610ee5578063b9f8092b14610f0e578063be9d7d5714610f25578063c74c0fac14610f4e5761049f565b8063a6f7f5d614610da6578063a9059cbb14610dd1578063aced166114610e0e578063ad5c464814610e39578063ad7a672f14610e645761049f565b8063a285c9e811610224578063a285c9e814610cc1578063a2db9d8314610cec578063a457c2d714610d17578063a497e67414610d54578063a694fc3a14610d7d5761049f565b8063980db6f414610be757806399530b0614610c105780639be43daa14610c3b5780639fcc2d7514610c64578063a083ff1714610c945761049f565b8063503c70aa1161038757806370a082311161030457806387153eb1116102c857806387153eb114610ad35780638778878214610b1057806389a3027114610b3b5780638b10cc7c14610b665780638da5cb5b14610b9157806395d89b4114610bbc5761049f565b806370a08231146109ed578063715018a614610a2a5780637a9262a214610a415780637e108d5214610a7f57806383536ff314610aa85761049f565b806369b411701161034b57806369b41170146109405780636b64c7691461096b5780636c10f66c146109825780636f31ab34146109ad57806370897b23146109c45761049f565b8063503c70aa1461086b57806355489bb214610896578063600a2cfb146108bf578063650cce8a146108d65780636719b2ee146109015761049f565b8063313ce567116104205780633f23bb73116103e45780633f23bb731461075b5780633f90916a14610798578063432833a6146107c35780634603c0aa146107ee578063469048401461081757806347786d37146108425761049f565b8063313ce56714610674578063355274ea1461069f57806336efd16f146106ca57806339509351146106f35780633ec143d3146107305761049f565b80631a92f6c2116104675780631a92f6c21461058b57806323b872dd146105b65780632728f333146105f35780632775d01c1461062257806330630da41461064b5761049f565b8063048bf085146104a457806306fdde03146104cd578063095ea7b3146104f85780630cbf54c81461053557806318160ddd14610560575b600080fd5b3480156104b057600080fd5b506104cb60048036038101906104c69190617f22565b6112e0565b005b3480156104d957600080fd5b506104e26113a1565b6040516104ef9190619298565b60405180910390f35b34801561050457600080fd5b5061051f600480360381019061051a9190617fd6565b611433565b60405161052c91906191fa565b60405180910390f35b34801561054157600080fd5b5061054a611456565b6040516105579190619b5a565b60405180910390f35b34801561056c57600080fd5b5061057561145c565b6040516105829190619b5a565b60405180910390f35b34801561059757600080fd5b506105a0611466565b6040516105ad9190618f9e565b60405180910390f35b3480156105c257600080fd5b506105dd60048036038101906105d89190617f87565b61148a565b6040516105ea91906191fa565b60405180910390f35b3480156105ff57600080fd5b506106086114b9565b604051610619959493929190619aa7565b60405180910390f35b34801561062e57600080fd5b5061064960048036038101906106449190618189565b611555565b005b34801561065757600080fd5b50610672600480360381019061066d9190617f22565b611840565b005b34801561068057600080fd5b50610689611970565b6040516106969190619c35565b60405180910390f35b3480156106ab57600080fd5b506106b461198a565b6040516106c19190619b5a565b60405180910390f35b3480156106d657600080fd5b506106f160048036038101906106ec91906181db565b6119bf565b005b3480156106ff57600080fd5b5061071a60048036038101906107159190617fd6565b611af1565b60405161072791906191fa565b60405180910390f35b34801561073c57600080fd5b50610745611b9b565b6040516107529190619a8c565b60405180910390f35b34801561076757600080fd5b50610782600480360381019061077d9190617f22565b611baf565b60405161078f9190619b5a565b60405180910390f35b3480156107a457600080fd5b506107ad611c37565b6040516107ba9190619b5a565b60405180910390f35b3480156107cf57600080fd5b506107d8611c72565b6040516107e59190619b5a565b60405180910390f35b3480156107fa57600080fd5b5061081560048036038101906108109190617f22565b611c78565b005b34801561082357600080fd5b5061082c611da8565b6040516108399190618f9e565b60405180910390f35b34801561084e57600080fd5b5061086960048036038101906108649190618189565b611dce565b005b34801561087757600080fd5b50610880611f26565b60405161088d9190619b5a565b60405180910390f35b3480156108a257600080fd5b506108bd60048036038101906108b89190618160565b611f2c565b005b3480156108cb57600080fd5b506108d4612049565b005b3480156108e257600080fd5b506108eb612278565b6040516108f89190618f9e565b60405180910390f35b34801561090d57600080fd5b5061092860048036038101906109239190617f22565b61229c565b60405161093793929190619afa565b60405180910390f35b34801561094c57600080fd5b50610955612309565b6040516109629190619b5a565b60405180910390f35b34801561097757600080fd5b5061098061230e565b005b34801561098e57600080fd5b506109976123fd565b6040516109a49190618f9e565b60405180910390f35b3480156109b957600080fd5b506109c2612421565b005b3480156109d057600080fd5b506109eb60048036038101906109e69190618189565b612484565b005b3480156109f957600080fd5b50610a146004803603810190610a0f9190617f22565b612596565b604051610a219190619b5a565b60405180910390f35b348015610a3657600080fd5b50610a3f6125df565b005b348015610a4d57600080fd5b50610a686004803603810190610a639190617f22565b612667565b604051610a76929190619b31565b60405180910390f35b348015610a8b57600080fd5b50610aa66004803603810190610aa19190618189565b6126b5565b005b348015610ab457600080fd5b50610abd612b36565b604051610aca9190619b5a565b60405180910390f35b348015610adf57600080fd5b50610afa6004803603810190610af59190618189565b612b3c565b604051610b079190619b5a565b60405180910390f35b348015610b1c57600080fd5b50610b25612b54565b604051610b329190619b5a565b60405180910390f35b348015610b4757600080fd5b50610b50612b5a565b604051610b5d9190618f9e565b60405180910390f35b348015610b7257600080fd5b50610b7b612b7e565b604051610b889190618f9e565b60405180910390f35b348015610b9d57600080fd5b50610ba6612bab565b604051610bb39190618f9e565b60405180910390f35b348015610bc857600080fd5b50610bd1612bd5565b604051610bde9190619298565b60405180910390f35b348015610bf357600080fd5b50610c0e6004803603810190610c0991906180c7565b612c67565b005b348015610c1c57600080fd5b50610c25612d91565b604051610c329190619b5a565b60405180910390f35b348015610c4757600080fd5b50610c626004803603810190610c5d9190618189565b612dfa565b005b348015610c7057600080fd5b50610c79612f51565b604051610c8b96959493929190619215565b60405180910390f35b348015610ca057600080fd5b50610ca9613001565b604051610cb89392919061914e565b60405180910390f35b348015610ccd57600080fd5b50610cd6613069565b604051610ce39190619b5a565b60405180910390f35b348015610cf857600080fd5b50610d0161308c565b604051610d0e9190618f9e565b60405180910390f35b348015610d2357600080fd5b50610d3e6004803603810190610d399190617fd6565b6130b9565b604051610d4b91906191fa565b60405180910390f35b348015610d6057600080fd5b50610d7b6004803603810190610d769190618189565b6131a3565b005b348015610d8957600080fd5b50610da46004803603810190610d9f9190618189565b6132a9565b005b348015610db257600080fd5b50610dbb61342b565b604051610dc89190619b5a565b60405180910390f35b348015610ddd57600080fd5b50610df86004803603810190610df39190617fd6565b613431565b604051610e0591906191fa565b60405180910390f35b348015610e1a57600080fd5b50610e23613454565b604051610e309190618f9e565b60405180910390f35b348015610e4557600080fd5b50610e4e61347a565b604051610e5b9190618f9e565b60405180910390f35b348015610e7057600080fd5b50610e7961349e565b604051610e869190619b5a565b60405180910390f35b348015610e9b57600080fd5b50610ea4613592565b604051610eb19190618f9e565b60405180910390f35b348015610ec657600080fd5b50610ecf6135b8565b604051610edc9190619b5a565b60405180910390f35b348015610ef157600080fd5b50610f0c6004803603810190610f079190618189565b6135bf565b005b348015610f1a57600080fd5b50610f236136b6565b005b348015610f3157600080fd5b50610f4c6004803603810190610f479190618189565b613937565b005b348015610f5a57600080fd5b50610f63613b5f565b604051610f709190618f9e565b60405180910390f35b348015610f8557600080fd5b50610fa06004803603810190610f9b9190617f22565b613b83565b604051610fad9190619b5a565b60405180910390f35b348015610fc257600080fd5b50610fdd6004803603810190610fd89190618189565b613bb1565b005b348015610feb57600080fd5b5061100660048036038101906110019190617f22565b613ccd565b005b34801561101457600080fd5b5061101d613dfd565b60405161102a9190619b5a565b60405180910390f35b34801561103f57600080fd5b50611048613e03565b6040516110559190618f9e565b60405180910390f35b34801561106a57600080fd5b5061108560048036038101906110809190618189565b613e27565b005b34801561109357600080fd5b5061109c613ecd565b6040516110a99190618f9e565b60405180910390f35b3480156110be57600080fd5b506110c7613ef1565b6040516110d491906191fa565b60405180910390f35b3480156110e957600080fd5b5061110460048036038101906110ff9190617f4b565b613f04565b6040516111119190619b5a565b60405180910390f35b34801561112657600080fd5b5061112f613f8b565b60405161113c9190619276565b60405180910390f35b34801561115157600080fd5b5061115a614019565b6040516111679190619b5a565b60405180910390f35b34801561117c57600080fd5b5061119760048036038101906111929190617f22565b61401f565b005b3480156111a557600080fd5b506111ae6141e0565b005b3480156111bc57600080fd5b506111d760048036038101906111d29190617f22565b614543565b005b3480156111e557600080fd5b5061120060048036038101906111fb919061810c565b61463b565b005b61120a614b82565b005b34801561121857600080fd5b50611233600480360381019061122e9190617f22565b614d5a565b604051611241929190619bd5565b60405180910390f35b34801561125657600080fd5b5061125f614ef4565b005b34801561126d57600080fd5b50611276614f85565b6040516112839190618f9e565b60405180910390f35b34801561129857600080fd5b506112a1614fab565b6040516112ae9190618f9e565b60405180910390f35b3480156112c357600080fd5b506112de60048036038101906112d99190618189565b614fd2565b005b6112e8615115565b73ffffffffffffffffffffffffffffffffffffffff16611306612bab565b73ffffffffffffffffffffffffffffffffffffffff161461135c576040517f08c379a00000000000000000000000000000000000000000000000000000000081526004016113539061971a565b60405180910390fd5b8061010060006101000a81548173ffffffffffffffffffffffffffffffffffffffff021916908373ffffffffffffffffffffffffffffffffffffffff16021790555050565b6060609a80546113b09061a2cb565b80601f01602080910402602001604051908101604052809291908181526020018280546113dc9061a2cb565b80156114295780601f106113fe57610100808354040283529160200191611429565b820191906000526020600020905b81548152906001019060200180831161140c57829003601f168201915b5050505050905090565b60008061143e615115565b905061144b81858561511d565b600191505092915050565b60fb5481565b6000609954905090565b7f000000000000000000000000000000000000000000000000000000000000000081565b600080611495615115565b90506114a28582856152e8565b6114ad858585615374565b60019150509392505050565b60cf8060000160009054906101000a900461ffff16908060000160029054906101000a90046cffffffffffffffffffffffffff169080600001600f9054906101000a90046cffffffffffffffffffffffffff16908060010160009054906101000a90046fffffffffffffffffffffffffffffffff16908060010160109054906101000a90046fffffffffffffffffffffffffffffffff16905085565b6002600154141561159b576040517f08c379a00000000000000000000000000000000000000000000000000000000081526004016115929061997a565b60405180910390fd5b6002600181905550600060c960003373ffffffffffffffffffffffffffffffffffffffff1673ffffffffffffffffffffffffffffffffffffffff1681526020019081526020016000209050600060cf60000160009054906101000a900461ffff1661ffff16905060008311611645576040517f08c379a000000000000000000000000000000000000000000000000000000000815260040161163c906198fa565b60405180910390fd5b808260000160009054906101000a900461ffff1661ffff161461169d576040517f08c379a00000000000000000000000000000000000000000000000000000000081526004016116949061957a565b60405180910390fd5b60008260000160029054906101000a90046cffffffffffffffffffffffffff166cffffffffffffffffffffffffff16905083811015611711576040517f08c379a00000000000000000000000000000000000000000000000000000000081526004016117089061985a565b60405180910390fd5b61172484826155f890919063ffffffff16565b8360000160026101000a8154816cffffffffffffffffffffffffff02191690836cffffffffffffffffffffffffff16021790555061179e8460cf60010160009054906101000a90046fffffffffffffffffffffffffffffffff166fffffffffffffffffffffffffffffffff166155f890919063ffffffff16565b60cf60010160006101000a8154816fffffffffffffffffffffffffffffffff02191690836fffffffffffffffffffffffffffffffff1602179055503373ffffffffffffffffffffffffffffffffffffffff167fab2daf3c146ca6416cbccd2a86ed2ba995e171ef6319df14a38aef01403a9c968584604051611821929190619bd5565b60405180910390a2611833338561560e565b5050506001808190555050565b611848615115565b73ffffffffffffffffffffffffffffffffffffffff16611866612bab565b73ffffffffffffffffffffffffffffffffffffffff16146118bc576040517f08c379a00000000000000000000000000000000000000000000000000000000081526004016118b39061971a565b60405180910390fd5b600073ffffffffffffffffffffffffffffffffffffffff168173ffffffffffffffffffffffffffffffffffffffff16141561192c576040517f08c379a0000000000000000000000000000000000000000000000000000000008152600401611923906194fa565b60405180910390fd5b8060f660006101000a81548173ffffffffffffffffffffffffffffffffffffffff021916908373ffffffffffffffffffffffffffffffffffffffff16021790555050565b600060cc60000160019054906101000a900460ff16905090565b600060cc60020160009054906101000a90046cffffffffffffffffffffffffff166cffffffffffffffffffffffffff16905090565b60026001541415611a05576040517f08c379a00000000000000000000000000000000000000000000000000000000081526004016119fc9061997a565b60405180910390fd5b600260018190555060008211611a50576040517f08c379a0000000000000000000000000000000000000000000000000000000008152600401611a47906198fa565b60405180910390fd5b600073ffffffffffffffffffffffffffffffffffffffff168173ffffffffffffffffffffffffffffffffffffffff161415611a8a57600080fd5b611a9482826157fb565b611ae633308460cc60000160029054906101000a900473ffffffffffffffffffffffffffffffffffffffff1673ffffffffffffffffffffffffffffffffffffffff16615ca0909392919063ffffffff16565b600180819055505050565b600080611afc615115565b9050611b90818585609860008673ffffffffffffffffffffffffffffffffffffffff1673ffffffffffffffffffffffffffffffffffffffff16815260200190815260200160002060008973ffffffffffffffffffffffffffffffffffffffff1673ffffffffffffffffffffffffffffffffffffffff16815260200190815260200160002054611b8b9190619deb565b61511d565b600191505092915050565b60f960009054906101000a900461ffff1681565b60008060cc60000160019054906101000a900460ff1660ff1690506000611c19611bd761145c565b611bdf61349e565b60cf60010160009054906101000a90046fffffffffffffffffffffffffffffffff166fffffffffffffffffffffffffffffffff1685615d29565b9050611c2e611c2785613b83565b8284615d8c565b92505050919050565b600060cf60010160009054906101000a90046fffffffffffffffffffffffffffffffff166fffffffffffffffffffffffffffffffff16905090565b60fc5481565b611c80615115565b73ffffffffffffffffffffffffffffffffffffffff16611c9e612bab565b73ffffffffffffffffffffffffffffffffffffffff1614611cf4576040517f08c379a0000000000000000000000000000000000000000000000000000000008152600401611ceb9061971a565b60405180910390fd5b600073ffffffffffffffffffffffffffffffffffffffff168173ffffffffffffffffffffffffffffffffffffffff161415611d64576040517f08c379a0000000000000000000000000000000000000000000000000000000008152600401611d5b90619a1a565b60405180910390fd5b8060f560006101000a81548173ffffffffffffffffffffffffffffffffffffffff021916908373ffffffffffffffffffffffffffffffffffffffff16021790555050565b60d360009054906101000a900473ffffffffffffffffffffffffffffffffffffffff1681565b611dd6615115565b73ffffffffffffffffffffffffffffffffffffffff16611df4612bab565b73ffffffffffffffffffffffffffffffffffffffff1614611e4a576040517f08c379a0000000000000000000000000000000000000000000000000000000008152600401611e419061971a565b60405180910390fd5b60008111611e8d576040517f08c379a0000000000000000000000000000000000000000000000000000000008152600401611e849061973a565b60405180910390fd5b611e9681615e0b565b7f5f86edbb9d92228a9edc3f0ebc0f001bda1ea345ac7335e0eeef3504b31d1a1c60cc60020160009054906101000a90046cffffffffffffffffffffffffff1682604051611ee5929190619a63565b60405180910390a18060cc60020160006101000a8154816cffffffffffffffffffffffffff02191690836cffffffffffffffffffffffffff16021790555050565b60fd5481565b611f34615115565b73ffffffffffffffffffffffffffffffffffffffff16611f52612bab565b73ffffffffffffffffffffffffffffffffffffffff1614611fa8576040517f08c379a0000000000000000000000000000000000000000000000000000000008152600401611f9f9061971a565b60405180910390fd5b6000816fffffffffffffffffffffffffffffffff1611611ffd576040517f08c379a0000000000000000000000000000000000000000000000000000000008152600401611ff49061981a565b60405180910390fd5b806fffffffffffffffffffffffffffffffff1660fa8190555060cf60000160009054906101000a900461ffff1660f960006101000a81548161ffff021916908361ffff16021790555050565b60d460009054906101000a900473ffffffffffffffffffffffffffffffffffffffff1673ffffffffffffffffffffffffffffffffffffffff163373ffffffffffffffffffffffffffffffffffffffff16146120d9576040517f08c379a00000000000000000000000000000000000000000000000000000000081526004016120d09061965a565b60405180910390fd5b6002600154141561211f576040517f08c379a00000000000000000000000000000000000000000000000000000000081526004016121169061997a565b60405180910390fd5b6002600181905550600073__$a3623d6e67e5135c89c3204ecd5efc44b4$__6358ffbb3d7f000000000000000000000000000000000000000000000000000000000000000060d160010160009054906101000a900473ffffffffffffffffffffffffffffffffffffffff166040518363ffffffff1660e01b81526004016121a7929190618fb9565b60206040518083038186803b1580156121bf57600080fd5b505af41580156121d3573d6000803e3d6000fd5b505050506040513d601f19601f820116820180604052508101906121f791906181b2565b90506122398160cf60000160029054906101000a90046cffffffffffffffffffffffffff166cffffffffffffffffffffffffff166155f890919063ffffffff16565b60cf60000160026101000a8154816cffffffffffffffffffffffffff02191690836cffffffffffffffffffffffffff1602179055505060018081905550565b7f000000000000000000000000000000000000000000000000000000000000000081565b60c96020528060005260406000206000915090508060000160009054906101000a900461ffff16908060000160029054906101000a90046cffffffffffffffffffffffffff169080600001600f9054906101000a90046fffffffffffffffffffffffffffffffff16905083565b600081565b60d460009054906101000a900473ffffffffffffffffffffffffffffffffffffffff1673ffffffffffffffffffffffffffffffffffffffff163373ffffffffffffffffffffffffffffffffffffffff161461239e576040517f08c379a00000000000000000000000000000000000000000000000000000000081526004016123959061965a565b60405180910390fd5b600260015414156123e4576040517f08c379a00000000000000000000000000000000000000000000000000000000081526004016123db9061997a565b60405180910390fd5b60026001819055506123f4615e60565b60018081905550565b7f000000000000000000000000000000000000000000000000000000000000000081565b60026001541415612467576040517f08c379a000000000000000000000000000000000000000000000000000000000815260040161245e9061997a565b60405180910390fd5b600260018190555061247b6000600161604b565b60018081905550565b61248c615115565b73ffffffffffffffffffffffffffffffffffffffff166124aa612bab565b73ffffffffffffffffffffffffffffffffffffffff1614612500576040517f08c379a00000000000000000000000000000000000000000000000000000000081526004016124f79061971a565b60405180910390fd5b620f424060646125109190619fe3565b8110612551576040517f08c379a00000000000000000000000000000000000000000000000000000000081526004016125489061975a565b60405180910390fd5b7f24867dfb6fcb9970a07be21024956524abe7a1837faa903ff0e99aaa40cf893e60d55482604051612584929190619bd5565b60405180910390a18060d58190555050565b6000609760008373ffffffffffffffffffffffffffffffffffffffff1673ffffffffffffffffffffffffffffffffffffffff168152602001908152602001600020549050919050565b6125e7615115565b73ffffffffffffffffffffffffffffffffffffffff16612605612bab565b73ffffffffffffffffffffffffffffffffffffffff161461265b576040517f08c379a00000000000000000000000000000000000000000000000000000000081526004016126529061971a565b60405180910390fd5b612665600061638e565b565b60cb6020528060005260406000206000915090508060000160009054906101000a900461ffff16908060000160029054906101000a90046fffffffffffffffffffffffffffffffff16905082565b600260015414156126fb576040517f08c379a00000000000000000000000000000000000000000000000000000000081526004016126f29061997a565b60405180910390fd5b600260018190555060008111612746576040517f08c379a000000000000000000000000000000000000000000000000000000000815260040161273d9061953a565b60405180910390fd5b600060c960003373ffffffffffffffffffffffffffffffffffffffff1673ffffffffffffffffffffffffffffffffffffffff16815260200190815260200160002060000160029054906101000a90046cffffffffffffffffffffffffff166cffffffffffffffffffffffffff16118061282f5750600060c960003373ffffffffffffffffffffffffffffffffffffffff1673ffffffffffffffffffffffffffffffffffffffff168152602001908152602001600020600001600f9054906101000a90046fffffffffffffffffffffffffffffffff166fffffffffffffffffffffffffffffffff16115b15612841576128406000600161604b565b5b600060cf60000160009054906101000a900461ffff1661ffff169050600060cb60003373ffffffffffffffffffffffffffffffffffffffff1673ffffffffffffffffffffffffffffffffffffffff16815260200190815260200160002090506000828260000160009054906101000a900461ffff1661ffff161490503373ffffffffffffffffffffffffffffffffffffffff167f0c53c82ad07e2d592d88ece3b066777dd60f1118e2a081b380efc4358f0d9e2a8585604051612905929190619bd5565b60405180910390a260008260000160029054906101000a90046fffffffffffffffffffffffffffffffff166fffffffffffffffffffffffffffffffff169050600082156129665761295f868361645490919063ffffffff16565b9050612a0a565b600082146129a9576040517f08c379a00000000000000000000000000000000000000000000000000000000081526004016129a09061987a565b60405180910390fd5b8590508460cb60003373ffffffffffffffffffffffffffffffffffffffff1673ffffffffffffffffffffffffffffffffffffffff16815260200190815260200160002060000160006101000a81548161ffff021916908361ffff1602179055505b612a138161646a565b8060cb60003373ffffffffffffffffffffffffffffffffffffffff1673ffffffffffffffffffffffffffffffffffffffff16815260200190815260200160002060000160026101000a8154816fffffffffffffffffffffffffffffffff02191690836fffffffffffffffffffffffffffffffff1602179055506000612ad48760cf60010160109054906101000a90046fffffffffffffffffffffffffffffffff166fffffffffffffffffffffffffffffffff1661645490919063ffffffff16565b9050612adf8161646a565b8060cf60010160106101000a8154816fffffffffffffffffffffffffffffffff02191690836fffffffffffffffffffffffffffffffff160217905550612b26333089615374565b5050505050506001808190555050565b60f75481565b60ca6020528060005260406000206000915090505481565b60d55481565b7f000000000000000000000000000000000000000000000000000000000000000081565b600060d160010160009054906101000a900473ffffffffffffffffffffffffffffffffffffffff16905090565b6000606560009054906101000a900473ffffffffffffffffffffffffffffffffffffffff16905090565b6060609b8054612be49061a2cb565b80601f0160208091040260200160405190810160405280929190818152602001828054612c109061a2cb565b8015612c5d5780601f10612c3257610100808354040283529160200191612c5d565b820191906000526020600020905b815481529060010190602001808311612c4057829003601f168201915b5050505050905090565b612c6f615115565b73ffffffffffffffffffffffffffffffffffffffff16612c8d612bab565b73ffffffffffffffffffffffffffffffffffffffff1614612ce3576040517f08c379a0000000000000000000000000000000000000000000000000000000008152600401612cda9061971a565b60405180910390fd5b60fe60009054906101000a900460ff16612d32576040517f08c379a0000000000000000000000000000000000000000000000000000000008152600401612d299061955a565b60405180910390fd5b612d3c82826164c2565b612d7b576040517f08c379a0000000000000000000000000000000000000000000000000000000008152600401612d729061943a565b60405180910390fd5b818160ff9190612d8c929190617c19565b505050565b6000612df5612d9e61145c565b612da661349e565b60cf60010160009054906101000a90046fffffffffffffffffffffffffffffffff166fffffffffffffffffffffffffffffffff1660cc60000160019054906101000a900460ff1660ff16615d29565b905090565b60026001541415612e40576040517f08c379a0000000000000000000000000000000000000000000000000000000008152600401612e379061997a565b60405180910390fd5b600260018190555060008111612e8b576040517f08c379a0000000000000000000000000000000000000000000000000000000008152600401612e82906194da565b60405180910390fd5b600060cf60000160009054906101000a900461ffff1661ffff16905060005b82811015612f455760008183612ec09190619deb565b9050600060ca60008381526020019081526020016000205414612f18576040517f08c379a0000000000000000000000000000000000000000000000000000000008152600401612f0f906198da565b60405180910390fd5b600160ca600083815260200190815260200160002081905550508080612f3d9061a2fd565b915050612eaa565b50506001808190555050565b60cc8060000160009054906101000a900460ff16908060000160019054906101000a900460ff16908060000160029054906101000a900473ffffffffffffffffffffffffffffffffffffffff16908060010160009054906101000a900473ffffffffffffffffffffffffffffffffffffffff16908060010160149054906101000a900466ffffffffffffff16908060020160009054906101000a90046cffffffffffffffffffffffffff16905086565b60d18060000160009054906101000a900473ffffffffffffffffffffffffffffffffffffffff16908060010160009054906101000a900473ffffffffffffffffffffffffffffffffffffffff16908060010160149054906101000a900463ffffffff16905083565b600060d160010160149054906101000a900463ffffffff1663ffffffff16905090565b600060d160000160009054906101000a900473ffffffffffffffffffffffffffffffffffffffff16905090565b6000806130c4615115565b90506000609860008373ffffffffffffffffffffffffffffffffffffffff1673ffffffffffffffffffffffffffffffffffffffff16815260200190815260200160002060008673ffffffffffffffffffffffffffffffffffffffff1673ffffffffffffffffffffffffffffffffffffffff1681526020019081526020016000205490508381101561318a576040517f08c379a0000000000000000000000000000000000000000000000000000000008152600401613181906199ba565b60405180910390fd5b613197828686840361511d565b60019250505092915050565b6131ab615115565b73ffffffffffffffffffffffffffffffffffffffff166131c9612bab565b73ffffffffffffffffffffffffffffffffffffffff161461321f576040517f08c379a00000000000000000000000000000000000000000000000000000000081526004016132169061971a565b60405180910390fd5b61012c811015613264576040517f08c379a000000000000000000000000000000000000000000000000000000000815260040161325b906197ba565b60405180910390fd5b7f5acd982e2240ed224a69aa03dab039d3797c108e4b5f288cd7dd6ca181b275f360fb5482604051613297929190619bd5565b60405180910390a18060fb8190555050565b600260015414156132ef576040517f08c379a00000000000000000000000000000000000000000000000000000000081526004016132e69061997a565b60405180910390fd5b6002600181905550600061010060009054906101000a900473ffffffffffffffffffffffffffffffffffffffff169050600073ffffffffffffffffffffffffffffffffffffffff168173ffffffffffffffffffffffffffffffffffffffff16141561335957600080fd5b6000821161336657600080fd5b600061337133612596565b9050828110156133995761339861339182856155f890919063ffffffff16565b600061604b565b5b6133a4333085615374565b6133af30838561511d565b8173ffffffffffffffffffffffffffffffffffffffff166383df6747843360006040518463ffffffff1660e01b81526004016133ed93929190619b75565b600060405180830381600087803b15801561340757600080fd5b505af115801561341b573d6000803e3d6000fd5b5050505050506001808190555050565b60d65481565b60008061343c615115565b9050613449818585615374565b600191505092915050565b60d460009054906101000a900473ffffffffffffffffffffffffffffffffffffffff1681565b7f000000000000000000000000000000000000000000000000000000000000000081565b600061358d60cc60000160029054906101000a900473ffffffffffffffffffffffffffffffffffffffff1673ffffffffffffffffffffffffffffffffffffffff166370a08231306040518263ffffffff1660e01b81526004016135019190618f9e565b60206040518083038186803b15801561351957600080fd5b505afa15801561352d573d6000803e3d6000fd5b505050506040513d601f19601f8201168201806040525081019061355191906181b2565b60cf60000160029054906101000a90046cffffffffffffffffffffffffff166cffffffffffffffffffffffffff1661645490919063ffffffff16565b905090565b60f560009054906101000a900473ffffffffffffffffffffffffffffffffffffffff1681565b62093a8081565b60026001541415613605576040517f08c379a00000000000000000000000000000000000000000000000000000000081526004016135fc9061997a565b60405180910390fd5b600260018190555060008111613650576040517f08c379a0000000000000000000000000000000000000000000000000000000008152600401613647906198fa565b60405180910390fd5b61365a81336157fb565b6136ac33308360cc60000160029054906101000a900473ffffffffffffffffffffffffffffffffffffffff1673ffffffffffffffffffffffffffffffffffffffff16615ca0909392919063ffffffff16565b6001808190555050565b60d460009054906101000a900473ffffffffffffffffffffffffffffffffffffffff1673ffffffffffffffffffffffffffffffffffffffff163373ffffffffffffffffffffffffffffffffffffffff1614613746576040517f08c379a000000000000000000000000000000000000000000000000000000000815260040161373d9061965a565b60405180910390fd5b6002600154141561378c576040517f08c379a00000000000000000000000000000000000000000000000000000000081526004016137839061997a565b60405180910390fd5b600260018190555060008060006137a460fd546164ce565b9250925092508060fd819055506137ba82615e0b565b8160cf60000160026101000a8154816cffffffffffffffffffffffffff02191690836cffffffffffffffffffffffffff1602179055503373ffffffffffffffffffffffffffffffffffffffff168373ffffffffffffffffffffffffffffffffffffffff167f045c558fdce4714c5816d53820d27420f4cd860892df203fe636384d8d19aa018460405161384d9190619b5a565b60405180910390a373__$a3623d6e67e5135c89c3204ecd5efc44b4$__632904c2397f00000000000000000000000000000000000000000000000000000000000000007f000000000000000000000000000000000000000000000000000000000000000086866040518563ffffffff1660e01b81526004016138d29493929190618fe2565b60206040518083038186803b1580156138ea57600080fd5b505af41580156138fe573d6000803e3d6000fd5b505050506040513d601f19601f8201168201806040525081019061392291906181b2565b5061392b615e60565b50505060018081905550565b60d460009054906101000a900473ffffffffffffffffffffffffffffffffffffffff1673ffffffffffffffffffffffffffffffffffffffff163373ffffffffffffffffffffffffffffffffffffffff16146139c7576040517f08c379a00000000000000000000000000000000000000000000000000000000081526004016139be9061965a565b60405180910390fd5b60026001541415613a0d576040517f08c379a0000000000000000000000000000000000000000000000000000000008152600401613a049061997a565b60405180910390fd5b600260018190555060fe60009054906101000a900460ff16613a64576040517f08c379a0000000000000000000000000000000000000000000000000000000008152600401613a5b9061955a565b60405180910390fd5b60008111613aa7576040517f08c379a0000000000000000000000000000000000000000000000000000000008152600401613a9e906195ba565b60405180910390fd5b73__$a3623d6e67e5135c89c3204ecd5efc44b4$__637f0f41d77f0000000000000000000000000000000000000000000000000000000000000000837f000000000000000000000000000000000000000000000000000000000000000060ff6040518563ffffffff1660e01b8152600401613b2594939291906191ae565b60006040518083038186803b158015613b3d57600080fd5b505af4158015613b51573d6000803e3d6000fd5b505050506001808190555050565b7f000000000000000000000000000000000000000000000000000000000000000081565b6000806000613b9184614d5a565b91509150613ba8818361645490919063ffffffff16565b92505050919050565b613bb9615115565b73ffffffffffffffffffffffffffffffffffffffff16613bd7612bab565b73ffffffffffffffffffffffffffffffffffffffff1614613c2d576040517f08c379a0000000000000000000000000000000000000000000000000000000008152600401613c249061971a565b60405180910390fd5b600081118015613c495750600a6064613c469190619fe3565b81105b613c88576040517f08c379a0000000000000000000000000000000000000000000000000000000008152600401613c7f906192ba565b60405180910390fd5b7f4cd657fde404967d63a338fb06c5c98751a9df57dfae6dc333a432faf8a5f65660f75482604051613cbb929190619bd5565b60405180910390a18060f78190555050565b613cd5615115565b73ffffffffffffffffffffffffffffffffffffffff16613cf3612bab565b73ffffffffffffffffffffffffffffffffffffffff1614613d49576040517f08c379a0000000000000000000000000000000000000000000000000000000008152600401613d409061971a565b60405180910390fd5b600073ffffffffffffffffffffffffffffffffffffffff168173ffffffffffffffffffffffffffffffffffffffff161415613db9576040517f08c379a0000000000000000000000000000000000000000000000000000000008152600401613db09061995a565b60405180910390fd5b8060d460006101000a81548173ffffffffffffffffffffffffffffffffffffffff021916908373ffffffffffffffffffffffffffffffffffffffff16021790555050565b60f85481565b7f000000000000000000000000000000000000000000000000000000000000000081565b60026001541415613e6d576040517f08c379a0000000000000000000000000000000000000000000000000000000008152600401613e649061997a565b60405180910390fd5b600260018190555060008111613eb8576040517f08c379a0000000000000000000000000000000000000000000000000000000008152600401613eaf9061953a565b60405180910390fd5b613ec381600061604b565b6001808190555050565b7f000000000000000000000000000000000000000000000000000000000000000081565b60fe60009054906101000a900460ff1681565b6000609860008473ffffffffffffffffffffffffffffffffffffffff1673ffffffffffffffffffffffffffffffffffffffff16815260200190815260200160002060008373ffffffffffffffffffffffffffffffffffffffff1673ffffffffffffffffffffffffffffffffffffffff16815260200190815260200160002054905092915050565b60ff8054613f989061a2cb565b80601f0160208091040260200160405190810160405280929190818152602001828054613fc49061a2cb565b80156140115780601f10613fe657610100808354040283529160200191614011565b820191906000526020600020905b815481529060010190602001808311613ff457829003601f168201915b505050505081565b60fa5481565b614027615115565b73ffffffffffffffffffffffffffffffffffffffff16614045612bab565b73ffffffffffffffffffffffffffffffffffffffff161461409b576040517f08c379a00000000000000000000000000000000000000000000000000000000081526004016140929061971a565b60405180910390fd5b600073ffffffffffffffffffffffffffffffffffffffff168173ffffffffffffffffffffffffffffffffffffffff16141561410b576040517f08c379a00000000000000000000000000000000000000000000000000000000081526004016141029061963a565b60405180910390fd5b60d360009054906101000a900473ffffffffffffffffffffffffffffffffffffffff1673ffffffffffffffffffffffffffffffffffffffff168173ffffffffffffffffffffffffffffffffffffffff16141561419c576040517f08c379a0000000000000000000000000000000000000000000000000000000008152600401614193906195da565b60405180910390fd5b8060d360006101000a81548173ffffffffffffffffffffffffffffffffffffffff021916908373ffffffffffffffffffffffffffffffffffffffff16021790555050565b60026001541415614226576040517f08c379a000000000000000000000000000000000000000000000000000000000815260040161421d9061997a565b60405180910390fd5b6002600181905550600060d160010160009054906101000a900473ffffffffffffffffffffffffffffffffffffffff16905060006040518060c001604052807f000000000000000000000000000000000000000000000000000000000000000073ffffffffffffffffffffffffffffffffffffffff1681526020017f000000000000000000000000000000000000000000000000000000000000000073ffffffffffffffffffffffffffffffffffffffff1681526020018373ffffffffffffffffffffffffffffffffffffffff1681526020016000815260200160f960009054906101000a900461ffff1661ffff16815260200160fa54815250905060008060008073__$a3623d6e67e5135c89c3204ecd5efc44b4$__63d342af7460f660009054906101000a900473ffffffffffffffffffffffffffffffffffffffff1660f560009054906101000a900473ffffffffffffffffffffffffffffffffffffffff1660f7548960cc60cf6040518763ffffffff1660e01b81526004016143b1969594939291906190ea565b60806040518083038186803b1580156143c957600080fd5b505af41580156143dd573d6000803e3d6000fd5b505050506040513d601f19601f820116820180604052508101906144019190618012565b93509350935093507fa217999b1c125c2a996f712c5f26a28addad7167bd8a67d5bd5b2a751148abb0828260405161443a929190619bd5565b60405180910390a161444b83615e0b565b826cffffffffffffffffffffffffff1660f8819055508360d160000160006101000a81548173ffffffffffffffffffffffffffffffffffffffff021916908373ffffffffffffffffffffffffffffffffffffffff16021790555060006144bb60004261645490919063ffffffff16565b905063ffffffff8016811115614506576040517f08c379a00000000000000000000000000000000000000000000000000000000081526004016144fd9061947a565b60405180910390fd5b8060d160010160146101000a81548163ffffffff021916908363ffffffff16021790555061453387616934565b5050505050505060018081905550565b61454b615115565b73ffffffffffffffffffffffffffffffffffffffff16614569612bab565b73ffffffffffffffffffffffffffffffffffffffff16146145bf576040517f08c379a00000000000000000000000000000000000000000000000000000000081526004016145b69061971a565b60405180910390fd5b600073ffffffffffffffffffffffffffffffffffffffff168173ffffffffffffffffffffffffffffffffffffffff16141561462f576040517f08c379a0000000000000000000000000000000000000000000000000000000008152600401614626906193da565b60405180910390fd5b6146388161638e565b50565b600060019054906101000a900460ff166146635760008054906101000a900460ff161561466c565b61466b616b97565b5b6146ab576040517f08c379a00000000000000000000000000000000000000000000000000000000081526004016146a29061969a565b60405180910390fd5b60008060019054906101000a900460ff1615905080156146fb576001600060016101000a81548160ff02191690831515021790555060016000806101000a81548160ff0219169083151502179055505b6147ed8360000160208101906147119190617f22565b8460200160208101906147249190617f22565b8560400160208101906147379190617f22565b86606001358760800135888060a001906147519190619ca7565b8080601f016020809104026020016040519081016040528093929190818152602001838380828437600081840152601f19601f82011690508083019250505050505050898060c001906147a49190619ca7565b8080601f016020809104026020016040519081016040528093929190818152602001838380828437600081840152601f19601f8201169050808301925050505050505089616ba8565b600073ffffffffffffffffffffffffffffffffffffffff168360e00160208101906148189190617f22565b73ffffffffffffffffffffffffffffffffffffffff16141561486f576040517f08c379a0000000000000000000000000000000000000000000000000000000008152600401614866906197fa565b60405180910390fd5b600073ffffffffffffffffffffffffffffffffffffffff168361010001602081019061489b9190617f22565b73ffffffffffffffffffffffffffffffffffffffff1614156148f2576040517f08c379a00000000000000000000000000000000000000000000000000000000081526004016148e9906192fa565b60405180910390fd5b60008361012001602081019061490891906182a0565b63ffffffff161180156149405750600a60646149249190619fe3565b8361012001602081019061493891906182a0565b63ffffffff16105b61497f576040517f08c379a00000000000000000000000000000000000000000000000000000000081526004016149769061939a565b60405180910390fd5b61012c83610140013510156149c9576040517f08c379a00000000000000000000000000000000000000000000000000000000081526004016149c09061935a565b60405180910390fd5b8260e00160208101906149dc9190617f22565b60f560006101000a81548173ffffffffffffffffffffffffffffffffffffffff021916908373ffffffffffffffffffffffffffffffffffffffff16021790555082610100016020810190614a309190617f22565b60f660006101000a81548173ffffffffffffffffffffffffffffffffffffffff021916908373ffffffffffffffffffffffffffffffffffffffff16021790555082610120016020810190614a8491906182a0565b63ffffffff1660f78190555082610140013560fb8190555082610160016020810190614ab09190618075565b60fe60006101000a81548160ff02191690831515021790555082610160016020810190614add9190618075565b15614b5c57614afb83806101800190614af69190619c50565b6164c2565b614b3a576040517f08c379a0000000000000000000000000000000000000000000000000000000008152600401614b319061943a565b60405180910390fd5b82806101800190614b4b9190619c50565b60ff9190614b5a929190617c19565b505b8015614b7d5760008060016101000a81548160ff0219169083151502179055505b505050565b60026001541415614bc8576040517f08c379a0000000000000000000000000000000000000000000000000000000008152600401614bbf9061997a565b60405180910390fd5b60026001819055507f000000000000000000000000000000000000000000000000000000000000000073ffffffffffffffffffffffffffffffffffffffff1660cc60000160029054906101000a900473ffffffffffffffffffffffffffffffffffffffff1673ffffffffffffffffffffffffffffffffffffffff1614614c83576040517f08c379a0000000000000000000000000000000000000000000000000000000008152600401614c7a9061967a565b60405180910390fd5b60003411614cc6576040517f08c379a0000000000000000000000000000000000000000000000000000000008152600401614cbd906193ba565b60405180910390fd5b614cd034336157fb565b7f000000000000000000000000000000000000000000000000000000000000000073ffffffffffffffffffffffffffffffffffffffff1663d0e30db0346040518263ffffffff1660e01b81526004016000604051808303818588803b158015614d3857600080fd5b505af1158015614d4c573d6000803e3d6000fd5b505050505060018081905550565b600080600060c960008573ffffffffffffffffffffffffffffffffffffffff1673ffffffffffffffffffffffffffffffffffffffff1681526020019081526020016000206040518060600160405290816000820160009054906101000a900461ffff1661ffff1661ffff1681526020016000820160029054906101000a90046cffffffffffffffffffffffffff166cffffffffffffffffffffffffff166cffffffffffffffffffffffffff16815260200160008201600f9054906101000a90046fffffffffffffffffffffffffffffffff166fffffffffffffffffffffffffffffffff166fffffffffffffffffffffffffffffffff168152505090506001816000015161ffff161015614e7c57614e7084612596565b60009250925050614eef565b6000614edc60cf60000160009054906101000a900461ffff1661ffff1660ca6000856000015161ffff1681526020019081526020016000205460cc60000160019054906101000a900460ff1660ff1685616f0c909392919063ffffffff16565b9050614ee785612596565b819350935050505b915091565b60026001541415614f3a576040517f08c379a0000000000000000000000000000000000000000000000000000000008152600401614f319061997a565b60405180910390fd5b60026001819055506000614f4c616fa6565b9050614f638160fd546155f890919063ffffffff16565b6fffffffffffffffffffffffffffffffff1660fd819055505060018081905550565b60f660009054906101000a900473ffffffffffffffffffffffffffffffffffffffff1681565b61010060009054906101000a900473ffffffffffffffffffffffffffffffffffffffff1681565b614fda615115565b73ffffffffffffffffffffffffffffffffffffffff16614ff8612bab565b73ffffffffffffffffffffffffffffffffffffffff161461504e576040517f08c379a00000000000000000000000000000000000000000000000000000000081526004016150459061971a565b60405180910390fd5b620f4240606461505e9190619fe3565b811061509f576040517f08c379a0000000000000000000000000000000000000000000000000000000008152600401615096906197da565b60405180910390fd5b60006150cd63031ba3096150bf620f4240856172bb90919063ffffffff16565b6172d190919063ffffffff16565b90507f4e874b007ab14f7e263baefd44951834c8266f4f224d1092e49e9c254354cc5460d65483604051615102929190619bd5565b60405180910390a18060d6819055505050565b600033905090565b600073ffffffffffffffffffffffffffffffffffffffff168373ffffffffffffffffffffffffffffffffffffffff16141561518d576040517f08c379a00000000000000000000000000000000000000000000000000000000081526004016151849061989a565b60405180910390fd5b600073ffffffffffffffffffffffffffffffffffffffff168273ffffffffffffffffffffffffffffffffffffffff1614156151fd576040517f08c379a00000000000000000000000000000000000000000000000000000000081526004016151f4906193fa565b60405180910390fd5b80609860008573ffffffffffffffffffffffffffffffffffffffff1673ffffffffffffffffffffffffffffffffffffffff16815260200190815260200160002060008473ffffffffffffffffffffffffffffffffffffffff1673ffffffffffffffffffffffffffffffffffffffff168152602001908152602001600020819055508173ffffffffffffffffffffffffffffffffffffffff168373ffffffffffffffffffffffffffffffffffffffff167f8c5be1e5ebec7d5bd14f71427d1e84f3dd0314c0f7b2291e5b200ac8c7c3b925836040516152db9190619b5a565b60405180910390a3505050565b60006152f48484613f04565b90507fffffffffffffffffffffffffffffffffffffffffffffffffffffffffffffffff811461536e5781811015615360576040517f08c379a0000000000000000000000000000000000000000000000000000000008152600401615357906194ba565b60405180910390fd5b61536d848484840361511d565b5b50505050565b600073ffffffffffffffffffffffffffffffffffffffff168373ffffffffffffffffffffffffffffffffffffffff1614156153e4576040517f08c379a00000000000000000000000000000000000000000000000000000000081526004016153db9061983a565b60405180910390fd5b600073ffffffffffffffffffffffffffffffffffffffff168273ffffffffffffffffffffffffffffffffffffffff161415615454576040517f08c379a000000000000000000000000000000000000000000000000000000000815260040161544b906192da565b60405180910390fd5b61545f8383836172e7565b6000609760008573ffffffffffffffffffffffffffffffffffffffff1673ffffffffffffffffffffffffffffffffffffffff168152602001908152602001600020549050818110156154e6576040517f08c379a00000000000000000000000000000000000000000000000000000000081526004016154dd9061951a565b60405180910390fd5b818103609760008673ffffffffffffffffffffffffffffffffffffffff1673ffffffffffffffffffffffffffffffffffffffff1681526020019081526020016000208190555081609760008573ffffffffffffffffffffffffffffffffffffffff1673ffffffffffffffffffffffffffffffffffffffff168152602001908152602001600020600082825461557b9190619deb565b925050819055508273ffffffffffffffffffffffffffffffffffffffff168473ffffffffffffffffffffffffffffffffffffffff167fddf252ad1be2c89b69c2b068fc378daa952ba7f163c4a11628f55a4df523b3ef846040516155df9190619b5a565b60405180910390a36155f28484846172ec565b50505050565b60008183615606919061a03d565b905092915050565b600060cc60000160029054906101000a900473ffffffffffffffffffffffffffffffffffffffff1690507f000000000000000000000000000000000000000000000000000000000000000073ffffffffffffffffffffffffffffffffffffffff168173ffffffffffffffffffffffffffffffffffffffff1614156157ca577f000000000000000000000000000000000000000000000000000000000000000073ffffffffffffffffffffffffffffffffffffffff16632e1a7d4d836040518263ffffffff1660e01b81526004016156e59190619b5a565b600060405180830381600087803b1580156156ff57600080fd5b505af1158015615713573d6000803e3d6000fd5b5050505060008373ffffffffffffffffffffffffffffffffffffffff168360405161573d90618f6e565b60006040518083038185875af1925050503d806000811461577a576040519150601f19603f3d011682016040523d82523d6000602084013e61577f565b606091505b50509050806157c3576040517f08c379a00000000000000000000000000000000000000000000000000000000081526004016157ba9061941a565b60405180910390fd5b50506157f7565b6157f583838373ffffffffffffffffffffffffffffffffffffffff166172f19092919063ffffffff16565b505b5050565b600060cf60000160009054906101000a900461ffff1661ffff16905060006158338461582561349e565b61645490919063ffffffff16565b905060cc60020160009054906101000a90046cffffffffffffffffffffffffff166cffffffffffffffffffffffffff168111156158a5576040517f08c379a000000000000000000000000000000000000000000000000000000000815260040161589c9061937a565b60405180910390fd5b60cc60010160149054906101000a900466ffffffffffffff1666ffffffffffffff16811015615909576040517f08c379a00000000000000000000000000000000000000000000000000000000081526004016159009061959a565b60405180910390fd5b8273ffffffffffffffffffffffffffffffffffffffff167f90890809c654f11d6e72a28fa60149770a0d11ec6c92319d6ceb2bb0a4ea1a158584604051615951929190619bd5565b60405180910390a2600060c960008573ffffffffffffffffffffffffffffffffffffffff1673ffffffffffffffffffffffffffffffffffffffff1681526020019081526020016000206040518060600160405290816000820160009054906101000a900461ffff1661ffff1661ffff1681526020016000820160029054906101000a90046cffffffffffffffffffffffffff166cffffffffffffffffffffffffff166cffffffffffffffffffffffffff16815260200160008201600f9054906101000a90046fffffffffffffffffffffffffffffffff166fffffffffffffffffffffffffffffffff166fffffffffffffffffffffffffffffffff168152505090506000615a9b8460ca6000856000015161ffff1681526020019081526020016000205460cc60000160019054906101000a900460ff1660ff1685616f0c909392919063ffffffff16565b90506000869050826000015161ffff16851415615ae1576000615ada8885602001516cffffffffffffffffffffffffff1661645490919063ffffffff16565b9050809150505b615aea81615e0b565b60405180606001604052808661ffff168152602001826cffffffffffffffffffffffffff168152602001836fffffffffffffffffffffffffffffffff1681525060c960008873ffffffffffffffffffffffffffffffffffffffff1673ffffffffffffffffffffffffffffffffffffffff16815260200190815260200160002060008201518160000160006101000a81548161ffff021916908361ffff16021790555060208201518160000160026101000a8154816cffffffffffffffffffffffffff02191690836cffffffffffffffffffffffffff160217905550604082015181600001600f6101000a8154816fffffffffffffffffffffffffffffffff02191690836fffffffffffffffffffffffffffffffff1602179055509050506000615c4f8860cf60010160009054906101000a90046fffffffffffffffffffffffffffffffff166fffffffffffffffffffffffffffffffff1661645490919063ffffffff16565b9050615c5a8161646a565b8060cf60010160006101000a8154816fffffffffffffffffffffffffffffffff02191690836fffffffffffffffffffffffffffffffff1602179055505050505050505050565b615d23846323b872dd60e01b858585604051602401615cc1939291906190b3565b604051602081830303815290604052907bffffffffffffffffffffffffffffffffffffffffffffffffffffffff19166020820180517bffffffffffffffffffffffffffffffffffffffffffffffffffffffff8381831617835250505050617377565b50505050565b60008082600a615d399190619ec5565b905060008611615d495780615d81565b615d8086615d72615d6387896155f890919063ffffffff16565b846172bb90919063ffffffff16565b6172d190919063ffffffff16565b5b915050949350505050565b600060018311615dd1576040517f08c379a0000000000000000000000000000000000000000000000000000000008152600401615dc89061977a565b60405180910390fd5b615e0282600a615de19190619ec5565b615df485876172bb90919063ffffffff16565b6172d190919063ffffffff16565b90509392505050565b6cffffffffffffffffffffffffff8016811115615e5d576040517f08c379a0000000000000000000000000000000000000000000000000000000008152600401615e54906196ba565b60405180910390fd5b50565b615e68617c9f565b600060f854905060008111615eb2576040517f08c379a0000000000000000000000000000000000000000000000000000000008152600401615ea99061933a565b60405180910390fd5b600060fe60009054906101000a900460ff16905060d160010160009054906101000a900473ffffffffffffffffffffffffffffffffffffffff16836000019073ffffffffffffffffffffffffffffffffffffffff16908173ffffffffffffffffffffffffffffffffffffffff16815250507f0000000000000000000000000000000000000000000000000000000000000000836020019073ffffffffffffffffffffffffffffffffffffffff16908173ffffffffffffffffffffffffffffffffffffffff168152505080615fab5760cc60000160029054906101000a900473ffffffffffffffffffffffffffffffffffffffff16615fcd565b7f00000000000000000000000000000000000000000000000000000000000000005b836040019073ffffffffffffffffffffffffffffffffffffffff16908173ffffffffffffffffffffffffffffffffffffffff1681525050806160215760cc60000160019054906101000a900460ff16616024565b60065b60ff168360600181815250508183608001818152505060fb548360a0018181525050505050565b600060c960003373ffffffffffffffffffffffffffffffffffffffff1673ffffffffffffffffffffffffffffffffffffffff1681526020019081526020016000206040518060600160405290816000820160009054906101000a900461ffff1661ffff1661ffff1681526020016000820160029054906101000a90046cffffffffffffffffffffffffff166cffffffffffffffffffffffffff166cffffffffffffffffffffffffff16815260200160008201600f9054906101000a90046fffffffffffffffffffffffffffffffff166fffffffffffffffffffffffffffffffff166fffffffffffffffffffffffffffffffff16815250509050600060cf60000160009054906101000a900461ffff1661ffff16905060006161a98260ca6000866000015161ffff1681526020019081526020016000205460cc60000160019054906101000a900460ff1660ff1686616f0c909392919063ffffffff16565b9050836161b657846161b8565b805b945060008514156161cb5750505061638a565b8085111561620e576040517f08c379a00000000000000000000000000000000000000000000000000000000081526004016162059061949a565b60405180910390fd5b81836000015161ffff16101561629357600060c960003373ffffffffffffffffffffffffffffffffffffffff1673ffffffffffffffffffffffffffffffffffffffff16815260200190815260200160002060000160026101000a8154816cffffffffffffffffffffffffff02191690836cffffffffffffffffffffffffff1602179055505b61629c8561646a565b6162af85826155f890919063ffffffff16565b60c960003373ffffffffffffffffffffffffffffffffffffffff1673ffffffffffffffffffffffffffffffffffffffff168152602001908152602001600020600001600f6101000a8154816fffffffffffffffffffffffffffffffff02191690836fffffffffffffffffffffffffffffffff1602179055503373ffffffffffffffffffffffffffffffffffffffff167fe5b754fb1abb7f01b499791d0b820ae3b6af3424ac1c59768edb53f4ec31a929868560000151604051616373929190619bac565b60405180910390a2616386303387615374565b5050505b5050565b6000606560009054906101000a900473ffffffffffffffffffffffffffffffffffffffff16905081606560006101000a81548173ffffffffffffffffffffffffffffffffffffffff021916908373ffffffffffffffffffffffffffffffffffffffff1602179055508173ffffffffffffffffffffffffffffffffffffffff168173ffffffffffffffffffffffffffffffffffffffff167f8be0079c531659141344cd1fd0a4f28419497f9722a3daafe3b4186f6b6457e060405160405180910390a35050565b600081836164629190619deb565b905092915050565b6fffffffffffffffffffffffffffffffff80168111156164bf576040517f08c379a00000000000000000000000000000000000000000000000000000000081526004016164b69061945a565b60405180910390fd5b50565b60006001905092915050565b600080600060d160010160149054906101000a900463ffffffff1663ffffffff16421015616531576040517f08c379a0000000000000000000000000000000000000000000000000000000008152600401616528906196da565b60405180910390fd5b60d160000160009054906101000a900473ffffffffffffffffffffffffffffffffffffffff169250600073ffffffffffffffffffffffffffffffffffffffff168373ffffffffffffffffffffffffffffffffffffffff1614156165c9576040517f08c379a00000000000000000000000000000000000000000000000000000000081526004016165c0906199da565b60405180910390fd5b600060d360009054906101000a900473ffffffffffffffffffffffffffffffffffffffff16905060008060008073__$a3623d6e67e5135c89c3204ecd5efc44b4$__63633c142660cf6040518060c0016040528060cc60000160019054906101000a900460ff1660ff16815260200160cc60000160029054906101000a900473ffffffffffffffffffffffffffffffffffffffff1673ffffffffffffffffffffffffffffffffffffffff166370a08231306040518263ffffffff1660e01b81526004016166969190618f9e565b60206040518083038186803b1580156166ae57600080fd5b505afa1580156166c2573d6000803e3d6000fd5b505050506040513d601f19601f820116820180604052508101906166e691906181b2565b81526020016166f361145c565b81526020018d815260200160d554815260200160d6548152506040518363ffffffff1660e01b8152600401616729929190619a3a565b60c06040518083038186803b15801561674157600080fd5b505af4158015616755573d6000803e3d6000fd5b505050506040513d601f19601f820116820180604052508101906167799190618217565b809750819850829950839650849b50859c505050505050508760d160010160006101000a81548173ffffffffffffffffffffffffffffffffffffffff021916908373ffffffffffffffffffffffffffffffffffffffff160217905550600060d160000160006101000a81548173ffffffffffffffffffffffffffffffffffffffff021916908373ffffffffffffffffffffffffffffffffffffffff160217905550600060cf60000160009054906101000a900461ffff1661ffff1690508160ca6000838152602001908152602001600020819055508573ffffffffffffffffffffffffffffffffffffffff167f0a242f7ecaf711036ca770774ceffae28e60ef042ac113ddd187f2631db0c00685858460405161689893929190619bfe565b60405180910390a2600060cf60010160006101000a8154816fffffffffffffffffffffffffffffffff02191690836fffffffffffffffffffffffffffffffff1602179055506001816168ea9190619deb565b60cf60000160006101000a81548161ffff021916908361ffff1602179055505050616915308461743e565b600081111561692957616928848261560e565b5b505050509193909250565b600060cf60000160029054906101000a90046cffffffffffffffffffffffffff166cffffffffffffffffffffffffff169050600073ffffffffffffffffffffffffffffffffffffffff168273ffffffffffffffffffffffffffffffffffffffff16146169d1578060cf600001600f6101000a8154816cffffffffffffffffffffffffff02191690836cffffffffffffffffffffffffff1602179055505b600060cf60000160026101000a8154816cffffffffffffffffffffffffff02191690836cffffffffffffffffffffffffff160217905550600060d160010160006101000a81548173ffffffffffffffffffffffffffffffffffffffff021916908373ffffffffffffffffffffffffffffffffffffffff160217905550600073ffffffffffffffffffffffffffffffffffffffff168273ffffffffffffffffffffffffffffffffffffffff1614616b9357600073__$a3623d6e67e5135c89c3204ecd5efc44b4$__63d8dfd0fe7f00000000000000000000000000000000000000000000000000000000000000006040518263ffffffff1660e01b8152600401616ada9190618f83565b60206040518083038186803b158015616af257600080fd5b505af4158015616b06573d6000803e3d6000fd5b505050506040513d601f19601f82011682018060405250810190616b2a91906181b2565b90503373ffffffffffffffffffffffffffffffffffffffff168373ffffffffffffffffffffffffffffffffffffffff167f7e830f7c1771deb1bdb35c4a7e6051bbac32b376f7f4e4976b8618b0b11997f783604051616b899190619b5a565b60405180910390a3505b5050565b6000616ba23061759f565b15905090565b600060019054906101000a900460ff16616bd05760008054906101000a900460ff1615616bd9565b616bd8616b97565b5b616c18576040517f08c379a0000000000000000000000000000000000000000000000000000000008152600401616c0f9061969a565b60405180910390fd5b60008060019054906101000a900460ff161590508015616c68576001600060016101000a81548160ff02191690831515021790555060016000806101000a81548160ff0219169083151502179055505b73__$a3623d6e67e5135c89c3204ecd5efc44b4$__63c72733f78a8a8a898b8a8a8a6040518963ffffffff1660e01b8152600401616cad989796959493929190619027565b60006040518083038186803b158015616cc557600080fd5b505af4158015616cd9573d6000803e3d6000fd5b50505050616ce56175c2565b616cef848461761b565b616cf7617678565b616d0089614543565b8760d460006101000a81548173ffffffffffffffffffffffffffffffffffffffff021916908373ffffffffffffffffffffffffffffffffffffffff1602179055508660d360006101000a81548173ffffffffffffffffffffffffffffffffffffffff021916908373ffffffffffffffffffffffffffffffffffffffff1602179055508460d581905550616db563031ba309616da7620f4240896172bb90919063ffffffff16565b6172d190919063ffffffff16565b60d6819055508160cc8181616dca919061b1b9565b905050600060cc60000160029054906101000a900473ffffffffffffffffffffffffffffffffffffffff1673ffffffffffffffffffffffffffffffffffffffff166370a08231306040518263ffffffff1660e01b8152600401616e2d9190618f9e565b60206040518083038186803b158015616e4557600080fd5b505afa158015616e59573d6000803e3d6000fd5b505050506040513d601f19601f82011682018060405250810190616e7d91906181b2565b9050616e8881615e0b565b8060cf600001600f6101000a8154816cffffffffffffffffffffffffff02191690836cffffffffffffffffffffffffff160217905550600160cf60000160006101000a81548161ffff021916908361ffff160217905550508015616f015760008060016101000a81548160ff0219169083151502179055505b505050505050505050565b600080856000015161ffff16118015616f2c575083856000015161ffff16105b15616f84576000616f5186602001516cffffffffffffffffffffffffff1685856176d1565b9050616f7c8187604001516fffffffffffffffffffffffffffffffff1661645490919063ffffffff16565b915050616f9e565b84604001516fffffffffffffffffffffffffffffffff1690505b949350505050565b60008060cb60003373ffffffffffffffffffffffffffffffffffffffff1673ffffffffffffffffffffffffffffffffffffffff168152602001908152602001600020905060008160000160029054906101000a90046fffffffffffffffffffffffffffffffff166fffffffffffffffffffffffffffffffff16905060008260000160009054906101000a900461ffff1661ffff1690506000821161707f576040517f08c379a0000000000000000000000000000000000000000000000000000000008152600401617076906196fa565b60405180910390fd5b60cf60000160009054906101000a900461ffff1661ffff1681106170d8576040517f08c379a00000000000000000000000000000000000000000000000000000000081526004016170cf906195fa565b60405180910390fd5b600060cb60003373ffffffffffffffffffffffffffffffffffffffff1673ffffffffffffffffffffffffffffffffffffffff16815260200190815260200160002060000160026101000a8154816fffffffffffffffffffffffffffffffff02191690836fffffffffffffffffffffffffffffffff1602179055506171988260cf60010160109054906101000a90046fffffffffffffffffffffffffffffffff166fffffffffffffffffffffffffffffffff166155f890919063ffffffff16565b60cf60010160106101000a8154816fffffffffffffffffffffffffffffffff02191690836fffffffffffffffffffffffffffffffff16021790555060006172088360ca60008581526020019081526020016000205460cc60000160019054906101000a900460ff1660ff16615d8c565b90503373ffffffffffffffffffffffffffffffffffffffff167ff279e6a1f5e320cca91135676d9cb6e44ca8a08c0b88342bcdb1144f6511b5688285604051617252929190619bd5565b60405180910390a26172643084617750565b600081116172a7576040517f08c379a000000000000000000000000000000000000000000000000000000000815260040161729e9061999a565b60405180910390fd5b6172b1338261560e565b8094505050505090565b600081836172c99190619fe3565b905092915050565b600081836172df9190619e41565b905092915050565b505050565b505050565b6173728363a9059cbb60e01b8484604051602401617310929190619185565b604051602081830303815290604052907bffffffffffffffffffffffffffffffffffffffffffffffffffffffff19166020820180517bffffffffffffffffffffffffffffffffffffffffffffffffffffffff8381831617835250505050617377565b505050565b60006173d9826040518060400160405280602081526020017f5361666545524332303a206c6f772d6c6576656c2063616c6c206661696c65648152508573ffffffffffffffffffffffffffffffffffffffff166179299092919063ffffffff16565b905060008151111561743957808060200190518101906173f9919061809e565b617438576040517f08c379a000000000000000000000000000000000000000000000000000000000815260040161742f9061993a565b60405180910390fd5b5b505050565b600073ffffffffffffffffffffffffffffffffffffffff168273ffffffffffffffffffffffffffffffffffffffff1614156174ae576040517f08c379a00000000000000000000000000000000000000000000000000000000081526004016174a5906199fa565b60405180910390fd5b6174ba600083836172e7565b80609960008282546174cc9190619deb565b9250508190555080609760008473ffffffffffffffffffffffffffffffffffffffff1673ffffffffffffffffffffffffffffffffffffffff16815260200190815260200160002060008282546175229190619deb565b925050819055508173ffffffffffffffffffffffffffffffffffffffff16600073ffffffffffffffffffffffffffffffffffffffff167fddf252ad1be2c89b69c2b068fc378daa952ba7f163c4a11628f55a4df523b3ef836040516175879190619b5a565b60405180910390a361759b600083836172ec565b5050565b6000808273ffffffffffffffffffffffffffffffffffffffff163b119050919050565b600060019054906101000a900460ff16617611576040517f08c379a00000000000000000000000000000000000000000000000000000000081526004016176089061991a565b60405180910390fd5b617619617941565b565b600060019054906101000a900460ff1661766a576040517f08c379a00000000000000000000000000000000000000000000000000000000081526004016176619061991a565b60405180910390fd5b6176748282617999565b5050565b600060019054906101000a900460ff166176c7576040517f08c379a00000000000000000000000000000000000000000000000000000000081526004016176be9061991a565b60405180910390fd5b6176cf617a1a565b565b600060018311617716576040517f08c379a000000000000000000000000000000000000000000000000000000000815260040161770d9061977a565b60405180910390fd5b6177478361773984600a61772a9190619ec5565b876172bb90919063ffffffff16565b6172d190919063ffffffff16565b90509392505050565b600073ffffffffffffffffffffffffffffffffffffffff168273ffffffffffffffffffffffffffffffffffffffff1614156177c0576040517f08c379a00000000000000000000000000000000000000000000000000000000081526004016177b79061979a565b60405180910390fd5b6177cc826000836172e7565b6000609760008473ffffffffffffffffffffffffffffffffffffffff1673ffffffffffffffffffffffffffffffffffffffff16815260200190815260200160002054905081811015617853576040517f08c379a000000000000000000000000000000000000000000000000000000000815260040161784a9061931a565b60405180910390fd5b818103609760008573ffffffffffffffffffffffffffffffffffffffff1673ffffffffffffffffffffffffffffffffffffffff1681526020019081526020016000208190555081609960008282546178ab919061a03d565b92505081905550600073ffffffffffffffffffffffffffffffffffffffff168373ffffffffffffffffffffffffffffffffffffffff167fddf252ad1be2c89b69c2b068fc378daa952ba7f163c4a11628f55a4df523b3ef846040516179109190619b5a565b60405180910390a3617924836000846172ec565b505050565b60606179388484600085617a7b565b90509392505050565b600060019054906101000a900460ff16617990576040517f08c379a00000000000000000000000000000000000000000000000000000000081526004016179879061991a565b60405180910390fd5b60018081905550565b600060019054906101000a900460ff166179e8576040517f08c379a00000000000000000000000000000000000000000000000000000000081526004016179df9061991a565b60405180910390fd5b81609a90805190602001906179fe929190617d17565b5080609b9080519060200190617a15929190617d17565b505050565b600060019054906101000a900460ff16617a69576040517f08c379a0000000000000000000000000000000000000000000000000000000008152600401617a609061991a565b60405180910390fd5b617a79617a74615115565b61638e565b565b606082471015617ac0576040517f08c379a0000000000000000000000000000000000000000000000000000000008152600401617ab79061961a565b60405180910390fd5b617ac985617b8f565b617b08576040517f08c379a0000000000000000000000000000000000000000000000000000000008152600401617aff906198ba565b60405180910390fd5b6000808673ffffffffffffffffffffffffffffffffffffffff168587604051617b319190618f57565b60006040518083038185875af1925050503d8060008114617b6e576040519150601f19603f3d011682016040523d82523d6000602084013e617b73565b606091505b5091509150617b83828286617bb2565b92505050949350505050565b6000808273ffffffffffffffffffffffffffffffffffffffff163b119050919050565b60608315617bc257829050617c12565b600083511115617bd55782518084602001fd5b816040517f08c379a0000000000000000000000000000000000000000000000000000000008152600401617c099190619298565b60405180910390fd5b9392505050565b828054617c259061a2cb565b90600052602060002090601f016020900481019282617c475760008555617c8e565b82601f10617c6057803560ff1916838001178555617c8e565b82800160010185558215617c8e579182015b82811115617c8d578235825591602001919060010190617c72565b5b509050617c9b9190617d9d565b5090565b6040518060c00160405280600073ffffffffffffffffffffffffffffffffffffffff168152602001600073ffffffffffffffffffffffffffffffffffffffff168152602001600073ffffffffffffffffffffffffffffffffffffffff1681526020016000815260200160008152602001600081525090565b828054617d239061a2cb565b90600052602060002090601f016020900481019282617d455760008555617d8c565b82601f10617d5e57805160ff1916838001178555617d8c565b82800160010185558215617d8c579182015b82811115617d8b578251825591602001919060010190617d70565b5b509050617d999190617d9d565b5090565b5b80821115617db6576000816000905550600101617d9e565b5090565b600081359050617dc98161b253565b92915050565b600081519050617dde8161b253565b92915050565b600081359050617df38161b26a565b92915050565b600081519050617e088161b26a565b92915050565b60008083601f840112617e2057600080fd5b8235905067ffffffffffffffff811115617e3957600080fd5b602083019150836001820283011115617e5157600080fd5b9250929050565b60006101a08284031215617e6b57600080fd5b81905092915050565b600060c08284031215617e8657600080fd5b81905092915050565b600081359050617e9e8161b281565b92915050565b600081359050617eb38161b298565b92915050565b600081359050617ec88161b2af565b92915050565b600081519050617edd8161b2af565b92915050565b600081359050617ef28161b2c6565b92915050565b600081359050617f078161b2dd565b92915050565b600081359050617f1c8161b2f4565b92915050565b600060208284031215617f3457600080fd5b6000617f4284828501617dba565b91505092915050565b60008060408385031215617f5e57600080fd5b6000617f6c85828601617dba565b9250506020617f7d85828601617dba565b9150509250929050565b600080600060608486031215617f9c57600080fd5b6000617faa86828701617dba565b9350506020617fbb86828701617dba565b9250506040617fcc86828701617eb9565b9150509250925092565b60008060408385031215617fe957600080fd5b6000617ff785828601617dba565b925050602061800885828601617eb9565b9150509250929050565b6000806000806080858703121561802857600080fd5b600061803687828801617dcf565b945050602061804787828801617ece565b935050604061805887828801617ece565b925050606061806987828801617ece565b91505092959194509250565b60006020828403121561808757600080fd5b600061809584828501617de4565b91505092915050565b6000602082840312156180b057600080fd5b60006180be84828501617df9565b91505092915050565b600080602083850312156180da57600080fd5b600083013567ffffffffffffffff8111156180f457600080fd5b61810085828601617e0e565b92509250509250929050565b60008060e0838503121561811f57600080fd5b600083013567ffffffffffffffff81111561813957600080fd5b61814585828601617e58565b925050602061815685828601617e74565b9150509250929050565b60006020828403121561817257600080fd5b600061818084828501617ea4565b91505092915050565b60006020828403121561819b57600080fd5b60006181a984828501617eb9565b91505092915050565b6000602082840312156181c457600080fd5b60006181d284828501617ece565b91505092915050565b600080604083850312156181ee57600080fd5b60006181fc85828601617eb9565b925050602061820d85828601617dba565b9150509250929050565b60008060008060008060c0878903121561823057600080fd5b600061823e89828a01617ece565b965050602061824f89828a01617ece565b955050604061826089828a01617ece565b945050606061827189828a01617ece565b935050608061828289828a01617ece565b92505060a061829389828a01617ece565b9150509295509295509295565b6000602082840312156182b257600080fd5b60006182c084828501617ee3565b91505092915050565b6182d28161a071565b82525050565b6182e18161a071565b82525050565b6182f08161a071565b82525050565b6182ff8161a083565b82525050565b61830e8161a083565b82525050565b600061831f82619d13565b6183298185619d29565b935061833981856020860161a1ce565b6183428161a473565b840191505092915050565b600061835882619d13565b6183628185619d4b565b935061837281856020860161a1ce565b80840191505092915050565b6000815461838b8161a2cb565b6183958186619d3a565b945060018216600081146183b057600181146183c2576183f5565b60ff19831686526020860193506183f5565b6183cb85619cfe565b60005b838110156183ed578154818901526001820191506020810190506183ce565b808801955050505b50505092915050565b600061840982619d1e565b6184138185619d56565b935061842381856020860161a1ce565b61842c8161a473565b840191505092915050565b600061844282619d1e565b61844c8185619d67565b935061845c81856020860161a1ce565b6184658161a473565b840191505092915050565b600061847d601083619d56565b91506184888261a4c5565b602082019050919050565b60006184a0602383619d56565b91506184ab8261a4ee565b604082019050919050565b60006184c3601183619d56565b91506184ce8261a53d565b602082019050919050565b60006184e6602283619d56565b91506184f18261a566565b604082019050919050565b6000618509601583619d56565b91506185148261a5b5565b602082019050919050565b600061852c601183619d56565b91506185378261a5de565b602082019050919050565b600061854f600a83619d56565b915061855a8261a607565b602082019050919050565b6000618572601183619d56565b915061857d8261a630565b602082019050919050565b6000618595600683619d56565b91506185a08261a659565b602082019050919050565b60006185b8602683619d56565b91506185c38261a682565b604082019050919050565b60006185db602283619d56565b91506185e68261a6d1565b604082019050919050565b60006185fe600f83619d56565b91506186098261a720565b602082019050919050565b6000618621601083619d56565b915061862c8261a749565b602082019050919050565b6000618644601083619d56565b915061864f8261a772565b602082019050919050565b6000618667601883619d56565b91506186728261a79b565b602082019050919050565b600061868a601183619d56565b91506186958261a7c4565b602082019050919050565b60006186ad601d83619d56565b91506186b88261a7ed565b602082019050919050565b60006186d0600a83619d56565b91506186db8261a816565b602082019050919050565b60006186f3601383619d56565b91506186fe8261a83f565b602082019050919050565b6000618716602683619d56565b91506187218261a868565b604082019050919050565b6000618739600a83619d56565b91506187448261a8b7565b602082019050919050565b600061875c600e83619d56565b91506187678261a8e0565b602082019050919050565b600061877f600d83619d56565b915061878a8261a909565b602082019050919050565b60006187a2601483619d56565b91506187ad8261a932565b602082019050919050565b60006187c5600d83619d56565b91506187d08261a95b565b602082019050919050565b60006187e8601883619d56565b91506187f38261a984565b602082019050919050565b600061880b601083619d56565b91506188168261a9ad565b602082019050919050565b600061882e602683619d56565b91506188398261a9d6565b604082019050919050565b6000618851601083619d56565b915061885c8261aa25565b602082019050919050565b6000618874600783619d56565b915061887f8261aa4e565b602082019050919050565b6000618897600583619d56565b91506188a28261aa77565b602082019050919050565b60006188ba602e83619d56565b91506188c58261aaa0565b604082019050919050565b60006188dd601083619d56565b91506188e88261aaef565b602082019050919050565b6000618900600683619d56565b915061890b8261ab18565b602082019050919050565b6000618923600d83619d56565b915061892e8261ab41565b602082019050919050565b6000618946602083619d56565b91506189518261ab6a565b602082019050919050565b6000618969600783619d56565b91506189748261ab93565b602082019050919050565b600061898c601783619d56565b91506189978261abbc565b602082019050919050565b60006189af601583619d56565b91506189ba8261abe5565b602082019050919050565b60006189d2602183619d56565b91506189dd8261ac0e565b604082019050919050565b60006189f5601883619d56565b9150618a008261ac5d565b602082019050919050565b6000618a18601683619d56565b9150618a238261ac86565b602082019050919050565b6000618a3b601683619d56565b9150618a468261acaf565b602082019050919050565b6000618a5e600c83619d56565b9150618a698261acd8565b602082019050919050565b6000618a81602583619d56565b9150618a8c8261ad01565b604082019050919050565b6000618aa4600d83619d56565b9150618aaf8261ad50565b602082019050919050565b6000618ac7600083619d4b565b9150618ad28261ad79565b600082019050919050565b6000618aea601183619d56565b9150618af58261ad7c565b602082019050919050565b6000618b0d602483619d56565b9150618b188261ada5565b604082019050919050565b6000618b30601d83619d56565b9150618b3b8261adf4565b602082019050919050565b6000618b53600b83619d56565b9150618b5e8261ae1d565b602082019050919050565b6000618b76600783619d56565b9150618b818261ae46565b602082019050919050565b6000618b99602b83619d56565b9150618ba48261ae6f565b604082019050919050565b6000618bbc602a83619d56565b9150618bc78261aebe565b604082019050919050565b6000618bdf600a83619d56565b9150618bea8261af0d565b602082019050919050565b6000618c02601f83619d56565b9150618c0d8261af36565b602082019050919050565b6000618c25600f83619d56565b9150618c308261af5f565b602082019050919050565b6000618c48602583619d56565b9150618c538261af88565b604082019050919050565b6000618c6b600b83619d56565b9150618c768261afd7565b602082019050919050565b6000618c8e601f83619d56565b9150618c998261b000565b602082019050919050565b6000618cb1601883619d56565b9150618cbc8261b029565b602082019050919050565b60c082016000820151618cdd60008501826182e7565b506020820151618cf060208501826182e7565b506040820151618d0360408501826182e7565b506060820151618d166060850182618efd565b506080820151618d296080850182618ec1565b5060a0820151618d3c60a0850182618efd565b50505050565b60c082016000820151618d586000850182618efd565b506020820151618d6b6020850182618efd565b506040820151618d7e6040850182618efd565b506060820151618d916060850182618efd565b506080820151618da46080850182618efd565b5060a0820151618db760a0850182618efd565b50505050565b60c08201618dce6000830183619d8f565b618ddb6000850182618305565b50618de96020830183619dd4565b618df66020850182618f48565b50618e046040830183619d78565b618e1160408501826182e7565b50618e1f6060830183619d78565b618e2c60608501826182e7565b50618e3a6080830183619dbd565b618e476080850182618f2a565b50618e5560a0830183619da6565b618e6260a0850182618e85565b50505050565b8082525050565b8082525050565b618e7f8161a08f565b82525050565b618e8e8161a08f565b82525050565b618e9d8161a162565b82525050565b618eac8161a0a8565b82525050565b618ebb8161a0c4565b82525050565b618eca8161a0c4565b82525050565b618ed98161a198565b82525050565b618ee88161a0f2565b82525050565b618ef78161a0f2565b82525050565b618f068161a0f2565b82525050565b618f158161a0fc565b82525050565b618f248161a10c565b82525050565b618f338161a10c565b82525050565b618f428161a11f565b82525050565b618f518161a11f565b82525050565b6000618f63828461834d565b915081905092915050565b6000618f7982618aba565b9150819050919050565b6000602082019050618f9860008301846182d8565b92915050565b6000602082019050618fb360008301846182c9565b92915050565b6000604082019050618fce60008301856182d8565b618fdb60208301846182d8565b9392505050565b6000608082019050618ff760008301876182d8565b61900460208301866182d8565b61901160408301856182d8565b61901e6060830184618eee565b95945050505050565b60006101a08201905061903d600083018b6182d8565b61904a602083018a6182d8565b61905760408301896182d8565b6190646060830188618eee565b6190716080830187618eee565b81810360a08301526190838186618437565b905081810360c08301526190978185618437565b90506190a660e0830184618dbd565b9998505050505050505050565b60006060820190506190c860008301866182c9565b6190d560208301856182c9565b6190e26040830184618edf565b949350505050565b60006101608201905061910060008301896182d8565b61910d60208301886182d8565b61911a6040830187618eee565b6191276060830186618cc7565b619135610120830185618e68565b619143610140830184618e6f565b979650505050505050565b600060608201905061916360008301866182c9565b61917060208301856182c9565b61917d6040830184618f0c565b949350505050565b600060408201905061919a60008301856182c9565b6191a76020830184618edf565b9392505050565b60006080820190506191c360008301876182d8565b6191d06020830186618eee565b6191dd60408301856182d8565b81810360608301526191ef818461837e565b905095945050505050565b600060208201905061920f60008301846182f6565b92915050565b600060c08201905061922a60008301896182f6565b6192376020830188618f39565b61924460408301876182c9565b61925160608301866182c9565b61925e6080830185618f1b565b61926b60a0830184618e76565b979650505050505050565b600060208201905081810360008301526192908184618314565b905092915050565b600060208201905081810360008301526192b281846183fe565b905092915050565b600060208201905081810360008301526192d381618470565b9050919050565b600060208201905081810360008301526192f381618493565b9050919050565b60006020820190508181036000830152619313816184b6565b9050919050565b60006020820190508181036000830152619333816184d9565b9050919050565b60006020820190508181036000830152619353816184fc565b9050919050565b600060208201905081810360008301526193738161851f565b9050919050565b6000602082019050818103600083015261939381618542565b9050919050565b600060208201905081810360008301526193b381618565565b9050919050565b600060208201905081810360008301526193d381618588565b9050919050565b600060208201905081810360008301526193f3816185ab565b9050919050565b60006020820190508181036000830152619413816185ce565b9050919050565b60006020820190508181036000830152619433816185f1565b9050919050565b6000602082019050818103600083015261945381618614565b9050919050565b6000602082019050818103600083015261947381618637565b9050919050565b600060208201905081810360008301526194938161865a565b9050919050565b600060208201905081810360008301526194b38161867d565b9050919050565b600060208201905081810360008301526194d3816186a0565b9050919050565b600060208201905081810360008301526194f3816186c3565b9050919050565b60006020820190508181036000830152619513816186e6565b9050919050565b6000602082019050818103600083015261953381618709565b9050919050565b600060208201905081810360008301526195538161872c565b9050919050565b600060208201905081810360008301526195738161874f565b9050919050565b6000602082019050818103600083015261959381618772565b9050919050565b600060208201905081810360008301526195b381618795565b9050919050565b600060208201905081810360008301526195d3816187b8565b9050919050565b600060208201905081810360008301526195f3816187db565b9050919050565b60006020820190508181036000830152619613816187fe565b9050919050565b6000602082019050818103600083015261963381618821565b9050919050565b6000602082019050818103600083015261965381618844565b9050919050565b6000602082019050818103600083015261967381618867565b9050919050565b600060208201905081810360008301526196938161888a565b9050919050565b600060208201905081810360008301526196b3816188ad565b9050919050565b600060208201905081810360008301526196d3816188d0565b9050919050565b600060208201905081810360008301526196f3816188f3565b9050919050565b6000602082019050818103600083015261971381618916565b9050919050565b6000602082019050818103600083015261973381618939565b9050919050565b600060208201905081810360008301526197538161895c565b9050919050565b600060208201905081810360008301526197738161897f565b9050919050565b60006020820190508181036000830152619793816189a2565b9050919050565b600060208201905081810360008301526197b3816189c5565b9050919050565b600060208201905081810360008301526197d3816189e8565b9050919050565b600060208201905081810360008301526197f381618a0b565b9050919050565b6000602082019050818103600083015261981381618a2e565b9050919050565b6000602082019050818103600083015261983381618a51565b9050919050565b6000602082019050818103600083015261985381618a74565b9050919050565b6000602082019050818103600083015261987381618a97565b9050919050565b6000602082019050818103600083015261989381618add565b9050919050565b600060208201905081810360008301526198b381618b00565b9050919050565b600060208201905081810360008301526198d381618b23565b9050919050565b600060208201905081810360008301526198f381618b46565b9050919050565b6000602082019050818103600083015261991381618b69565b9050919050565b6000602082019050818103600083015261993381618b8c565b9050919050565b6000602082019050818103600083015261995381618baf565b9050919050565b6000602082019050818103600083015261997381618bd2565b9050919050565b6000602082019050818103600083015261999381618bf5565b9050919050565b600060208201905081810360008301526199b381618c18565b9050919050565b600060208201905081810360008301526199d381618c3b565b9050919050565b600060208201905081810360008301526199f381618c5e565b9050919050565b60006020820190508181036000830152619a1381618c81565b9050919050565b60006020820190508181036000830152619a3381618ca4565b9050919050565b600060e082019050619a4f6000830185618e6f565b619a5c6020830184618d42565b9392505050565b6000604082019050619a786000830185618e94565b619a856020830184618edf565b9392505050565b6000602082019050619aa16000830184618eb2565b92915050565b600060a082019050619abc6000830188618eb2565b619ac96020830187618e76565b619ad66040830186618e76565b619ae36060830185618ea3565b619af06080830184618ea3565b9695505050505050565b6000606082019050619b0f6000830186618eb2565b619b1c6020830185618e76565b619b296040830184618ea3565b949350505050565b6000604082019050619b466000830185618eb2565b619b536020830184618ea3565b9392505050565b6000602082019050619b6f6000830184618edf565b92915050565b6000606082019050619b8a6000830186618edf565b619b9760208301856182c9565b619ba460408301846182f6565b949350505050565b6000604082019050619bc16000830185618edf565b619bce6020830184618ed0565b9392505050565b6000604082019050619bea6000830185618edf565b619bf76020830184618edf565b9392505050565b6000606082019050619c136000830186618edf565b619c206020830185618edf565b619c2d6040830184618edf565b949350505050565b6000602082019050619c4a6000830184618f39565b92915050565b60008083356001602003843603038112619c6957600080fd5b80840192508235915067ffffffffffffffff821115619c8757600080fd5b602083019250600182023603831315619c9f57600080fd5b509250929050565b60008083356001602003843603038112619cc057600080fd5b80840192508235915067ffffffffffffffff821115619cde57600080fd5b602083019250600182023603831315619cf657600080fd5b509250929050565b60008190508160005260206000209050919050565b600081519050919050565b600081519050919050565b600082825260208201905092915050565b600082825260208201905092915050565b600081905092915050565b600082825260208201905092915050565b600082825260208201905092915050565b6000619d876020840184617dba565b905092915050565b6000619d9e6020840184617de4565b905092915050565b6000619db56020840184617e8f565b905092915050565b6000619dcc6020840184617ef8565b905092915050565b6000619de36020840184617f0d565b905092915050565b6000619df68261a0f2565b9150619e018361a0f2565b9250827fffffffffffffffffffffffffffffffffffffffffffffffffffffffffffffffff03821115619e3657619e3561a346565b5b828201905092915050565b6000619e4c8261a0f2565b9150619e578361a0f2565b925082619e6757619e6661a375565b5b828204905092915050565b6000808291508390505b6001851115619ebc57808604811115619e9857619e9761a346565b5b6001851615619ea75780820291505b8081029050619eb58561a4b8565b9450619e7c565b94509492505050565b6000619ed08261a0f2565b9150619edb8361a0f2565b9250619f087fffffffffffffffffffffffffffffffffffffffffffffffffffffffffffffffff8484619f10565b905092915050565b600082619f205760019050619fdc565b81619f2e5760009050619fdc565b8160018114619f445760028114619f4e57619f7d565b6001915050619fdc565b60ff841115619f6057619f5f61a346565b5b8360020a915084821115619f7757619f7661a346565b5b50619fdc565b5060208310610133831016604e8410600b8410161715619fb25782820a905083811115619fad57619fac61a346565b5b619fdc565b619fbf8484846001619e72565b92509050818404811115619fd657619fd561a346565b5b81810290505b9392505050565b6000619fee8261a0f2565b9150619ff98361a0f2565b9250817fffffffffffffffffffffffffffffffffffffffffffffffffffffffffffffffff048311821515161561a0325761a03161a346565b5b828202905092915050565b600061a0488261a0f2565b915061a0538361a0f2565b92508282101561a0665761a06561a346565b5b828203905092915050565b600061a07c8261a0d2565b9050919050565b60008115159050919050565b60006cffffffffffffffffffffffffff82169050919050565b60006fffffffffffffffffffffffffffffffff82169050919050565b600061ffff82169050919050565b600073ffffffffffffffffffffffffffffffffffffffff82169050919050565b6000819050919050565b600063ffffffff82169050919050565b600066ffffffffffffff82169050919050565b600060ff82169050919050565b600061a1378261a174565b9050919050565b600061a1498261a083565b9050919050565b600061a15b8261a08f565b9050919050565b600061a16d8261a08f565b9050919050565b600061a17f8261a186565b9050919050565b600061a1918261a0d2565b9050919050565b600061a1a38261a0c4565b9050919050565b600061a1b58261a10c565b9050919050565b600061a1c78261a11f565b9050919050565b60005b8381101561a1ec57808201518184015260208101905061a1d1565b8381111561a1fb576000848401525b50505050565b60008101600083018061a2138161a41b565b905061a21f818461b196565b50505060008101602083018061a2348161a45d565b905061a240818461b1ea565b50505060008101604083018061a2558161a405565b905061a261818461b230565b50505060018101606083018061a2768161a405565b905061a282818461b173565b50505060018101608083018061a2978161a447565b905061a2a3818461b20d565b5050506002810160a083018061a2b88161a431565b905061a2c4818461b1c7565b5050505050565b6000600282049050600182168061a2e357607f821691505b6020821081141561a2f75761a2f661a3a4565b5b50919050565b600061a3088261a0f2565b91507fffffffffffffffffffffffffffffffffffffffffffffffffffffffffffffffff82141561a33b5761a33a61a346565b5b600182019050919050565b7f4e487b7100000000000000000000000000000000000000000000000000000000600052601160045260246000fd5b7f4e487b7100000000000000000000000000000000000000000000000000000000600052601260045260246000fd5b7f4e487b7100000000000000000000000000000000000000000000000000000000600052602260045260246000fd5b6000819050919050565b6000819050919050565b6000819050919050565b6000819050919050565b6000819050919050565b6000813561a4128161b253565b80915050919050565b6000813561a4288161b26a565b80915050919050565b6000813561a43e8161b281565b80915050919050565b6000813561a4548161b2dd565b80915050919050565b6000813561a46a8161b2f4565b80915050919050565b6000601f19601f8301169050919050565b60008160001b9050919050565b60008160101b9050919050565b60008160a01b9050919050565b60008160081b9050919050565b60008160011c9050919050565b7f496e76616c696420646973636f756e7400000000000000000000000000000000600082015250565b7f45524332303a207472616e7366657220746f20746865207a65726f206164647260008201527f6573730000000000000000000000000000000000000000000000000000000000602082015250565b7f215f737472696b6553656c656374696f6e000000000000000000000000000000600082015250565b7f45524332303a206275726e20616d6f756e7420657863656564732062616c616e60008201527f6365000000000000000000000000000000000000000000000000000000000000602082015250565b7f2163757272656e744f746f6b656e5072656d69756d0000000000000000000000600082015250565b7f215f61756374696f6e4475726174696f6e000000000000000000000000000000600082015250565b7f4578636565642063617000000000000000000000000000000000000000000000600082015250565b7f215f7072656d69756d446973636f756e74000000000000000000000000000000600082015250565b7f2176616c75650000000000000000000000000000000000000000000000000000600082015250565b7f4f776e61626c653a206e6577206f776e657220697320746865207a65726f206160008201527f6464726573730000000000000000000000000000000000000000000000000000602082015250565b7f45524332303a20617070726f766520746f20746865207a65726f20616464726560008201527f7373000000000000000000000000000000000000000000000000000000000000602082015250565b7f5472616e73666572206661696c65640000000000000000000000000000000000600082015250565b7f496e76616c696420737761705061746800000000000000000000000000000000600082015250565b7f4f766572666c6f772075696e7431323800000000000000000000000000000000600082015250565b7f4f766572666c6f77206e6578744f7074696f6e52656164790000000000000000600082015250565b7f4578636565647320617661696c61626c65000000000000000000000000000000600082015250565b7f45524332303a20696e73756666696369656e7420616c6c6f77616e6365000000600082015250565b7f216e756d526f756e647300000000000000000000000000000000000000000000600082015250565b7f216e6577537472696b6553656c656374696f6e00000000000000000000000000600082015250565b7f45524332303a207472616e7366657220616d6f756e742065786365656473206260008201527f616c616e63650000000000000000000000000000000000000000000000000000602082015250565b7f216e756d53686172657300000000000000000000000000000000000000000000600082015250565b7f2169735573646341756374696f6e000000000000000000000000000000000000600082015250565b7f496e76616c696420726f756e6400000000000000000000000000000000000000600082015250565b7f496e73756666696369656e742062616c616e6365000000000000000000000000600082015250565b7f216d696e416d6f756e744f757400000000000000000000000000000000000000600082015250565b7f4d757374206265206e657720666565526563697069656e740000000000000000600082015250565b7f526f756e64206e6f7420636c6f73656400000000000000000000000000000000600082015250565b7f416464726573733a20696e73756666696369656e742062616c616e636520666f60008201527f722063616c6c0000000000000000000000000000000000000000000000000000602082015250565b7f216e6577466565526563697069656e7400000000000000000000000000000000600082015250565b7f216b656570657200000000000000000000000000000000000000000000000000600082015250565b7f2157455448000000000000000000000000000000000000000000000000000000600082015250565b7f496e697469616c697a61626c653a20636f6e747261637420697320616c72656160008201527f647920696e697469616c697a6564000000000000000000000000000000000000602082015250565b7f4f766572666c6f772075696e7431303400000000000000000000000000000000600082015250565b7f2172656164790000000000000000000000000000000000000000000000000000600082015250565b7f4e6f7420696e6974696174656400000000000000000000000000000000000000600082015250565b7f4f776e61626c653a2063616c6c6572206973206e6f7420746865206f776e6572600082015250565b7f216e657743617000000000000000000000000000000000000000000000000000600082015250565b7f496e76616c696420706572666f726d616e636520666565000000000000000000600082015250565b7f496e76616c696420617373657450657253686172650000000000000000000000600082015250565b7f45524332303a206275726e2066726f6d20746865207a65726f2061646472657360008201527f7300000000000000000000000000000000000000000000000000000000000000602082015250565b7f496e76616c69642061756374696f6e206475726174696f6e0000000000000000600082015250565b7f496e76616c6964206d616e6167656d656e742066656500000000000000000000600082015250565b7f215f6f7074696f6e735072656d69756d50726963657200000000000000000000600082015250565b7f21737472696b6550726963650000000000000000000000000000000000000000600082015250565b7f45524332303a207472616e736665722066726f6d20746865207a65726f20616460008201527f6472657373000000000000000000000000000000000000000000000000000000602082015250565b7f45786365656420616d6f756e7400000000000000000000000000000000000000600082015250565b50565b7f4578697374696e67207769746864726177000000000000000000000000000000600082015250565b7f45524332303a20617070726f76652066726f6d20746865207a65726f2061646460008201527f7265737300000000000000000000000000000000000000000000000000000000602082015250565b7f416464726573733a2063616c6c20746f206e6f6e2d636f6e7472616374000000600082015250565b7f496e697469616c697a6564000000000000000000000000000000000000000000600082015250565b7f21616d6f756e7400000000000000000000000000000000000000000000000000600082015250565b7f496e697469616c697a61626c653a20636f6e7472616374206973206e6f74206960008201527f6e697469616c697a696e67000000000000000000000000000000000000000000602082015250565b7f5361666545524332303a204552433230206f7065726174696f6e20646964206e60008201527f6f74207375636365656400000000000000000000000000000000000000000000602082015250565b7f216e65774b656570657200000000000000000000000000000000000000000000600082015250565b7f5265656e7472616e637947756172643a207265656e7472616e742063616c6c00600082015250565b7f217769746864726177416d6f756e740000000000000000000000000000000000600082015250565b7f45524332303a2064656372656173656420616c6c6f77616e63652062656c6f7760008201527f207a65726f000000000000000000000000000000000000000000000000000000602082015250565b7f216e6578744f7074696f6e000000000000000000000000000000000000000000600082015250565b7f45524332303a206d696e7420746f20746865207a65726f206164647265737300600082015250565b7f216e65774f7074696f6e735072656d69756d5072696365720000000000000000600082015250565b60006cffffffffffffffffffffffffff61b06b8461a484565b9350801983169250808416831791505092915050565b600060ff61b08e8461a484565b9350801983169250808416831791505092915050565b600061ff0061b0b28461a4ab565b9350801983169250808416831791505092915050565b600073ffffffffffffffffffffffffffffffffffffffff61b0e88461a484565b9350801983169250808416831791505092915050565b600075ffffffffffffffffffffffffffffffffffffffff000061b1208461a491565b9350801983169250808416831791505092915050565b60007affffffffffffff000000000000000000000000000000000000000061b15d8461a49e565b9350801983169250808416831791505092915050565b61b17c8261a12c565b61b18f61b1888261a3d3565b835461b0c8565b8255505050565b61b19f8261a13e565b61b1b261b1ab8261a3dd565b835461b081565b8255505050565b61b1c3828261a201565b5050565b61b1d08261a150565b61b1e361b1dc8261a3e7565b835461b052565b8255505050565b61b1f38261a1bc565b61b20661b1ff8261a3fb565b835461b0a4565b8255505050565b61b2168261a1aa565b61b22961b2228261a3f1565b835461b136565b8255505050565b61b2398261a12c565b61b24c61b2458261a3d3565b835461b0fe565b8255505050565b61b25c8161a071565b811461b26757600080fd5b50565b61b2738161a083565b811461b27e57600080fd5b50565b61b28a8161a08f565b811461b29557600080fd5b50565b61b2a18161a0a8565b811461b2ac57600080fd5b50565b61b2b88161a0f2565b811461b2c357600080fd5b50565b61b2cf8161a0fc565b811461b2da57600080fd5b50565b61b2e68161a10c565b811461b2f157600080fd5b50565b61b2fd8161a11f565b811461b30857600080fd5b5056fea264697066735822122009fd66417c22d416dcb6deae3a1da10517cb2151c12b3b8c6b6fa71e535745d764736f6c63430008040033",
  "linkReferences": {
    "contracts/VaultLifecycle.sol": {
      "VaultLifecycle": [
        {
          "length": 20,
          "start": 11388
        },
        {
          "length": 20,
          "start": 17320
        },
        {
          "length": 20,
          "start": 17914
        },
        {
          "length": 20,
          "start": 20091
        },
        {
          "length": 20,
          "start": 29001
        },
        {
          "length": 20,
          "start": 30166
        },
        {
          "length": 20,
          "start": 30651
        }
      ]
    }
  },
  "deployedLinkReferences": {
    "contracts/VaultLifecycle.sol": {
      "VaultLifecycle": [
        {
          "length": 20,
          "start": 8491
        },
        {
          "length": 20,
          "start": 14423
        },
        {
          "length": 20,
          "start": 15017
        },
        {
          "length": 20,
          "start": 17194
        },
        {
          "length": 20,
          "start": 26104
        },
        {
          "length": 20,
          "start": 27269
        },
        {
          "length": 20,
          "start": 27754
        }
      ]
    }
  }
}