{
  "_format": "hh-sol-artifact-1",
  "contractName": "ActionTester",
  "sourceName": "contracts/Gamma/tests/ActionTester.sol",
  "abi": [
    {
      "inputs": [],
      "name": "getBurnArgs",
      "outputs": [
        {
          "components": [
            {
              "internalType": "address",
              "name": "owner",
              "type": "address"
            },
            {
              "internalType": "uint256",
              "name": "vaultId",
              "type": "uint256"
            },
            {
              "internalType": "address",
              "name": "from",
              "type": "address"
            },
            {
              "internalType": "address",
              "name": "otoken",
              "type": "address"
            },
            {
              "internalType": "uint256",
              "name": "index",
              "type": "uint256"
            },
            {
              "internalType": "uint256",
              "name": "amount",
              "type": "uint256"
            }
          ],
          "internalType": "struct Actions.BurnArgs",
          "name": "",
          "type": "tuple"
        }
      ],
      "stateMutability": "view",
      "type": "function"
    },
    {
      "inputs": [],
      "name": "getCallArgs",
      "outputs": [
        {
          "components": [
            {
              "internalType": "address",
              "name": "callee",
              "type": "address"
            },
            {
              "internalType": "bytes",
              "name": "data",
              "type": "bytes"
            }
          ],
          "internalType": "struct Actions.CallArgs",
          "name": "",
          "type": "tuple"
        }
      ],
      "stateMutability": "view",
      "type": "function"
    },
    {
      "inputs": [],
      "name": "getDepositArgs",
      "outputs": [
        {
          "components": [
            {
              "internalType": "address",
              "name": "owner",
              "type": "address"
            },
            {
              "internalType": "uint256",
              "name": "vaultId",
              "type": "uint256"
            },
            {
              "internalType": "address",
              "name": "from",
              "type": "address"
            },
            {
              "internalType": "address",
              "name": "asset",
              "type": "address"
            },
            {
              "internalType": "uint256",
              "name": "index",
              "type": "uint256"
            },
            {
              "internalType": "uint256",
              "name": "amount",
              "type": "uint256"
            }
          ],
          "internalType": "struct Actions.DepositArgs",
          "name": "",
          "type": "tuple"
        }
      ],
      "stateMutability": "view",
      "type": "function"
    },
    {
      "inputs": [],
      "name": "getLiquidateArgs",
      "outputs": [
        {
          "components": [
            {
              "internalType": "address",
              "name": "owner",
              "type": "address"
            },
            {
              "internalType": "address",
              "name": "receiver",
              "type": "address"
            },
            {
              "internalType": "uint256",
              "name": "vaultId",
              "type": "uint256"
            },
            {
              "internalType": "uint256",
              "name": "amount",
              "type": "uint256"
            },
            {
              "internalType": "uint256",
              "name": "roundId",
              "type": "uint256"
            }
          ],
          "internalType": "struct Actions.LiquidateArgs",
          "name": "",
          "type": "tuple"
        }
      ],
      "stateMutability": "view",
      "type": "function"
    },
    {
      "inputs": [],
      "name": "getMintArgs",
      "outputs": [
        {
          "components": [
            {
              "internalType": "address",
              "name": "owner",
              "type": "address"
            },
            {
              "internalType": "uint256",
              "name": "vaultId",
              "type": "uint256"
            },
            {
              "internalType": "address",
              "name": "to",
              "type": "address"
            },
            {
              "internalType": "address",
              "name": "otoken",
              "type": "address"
            },
            {
              "internalType": "uint256",
              "name": "index",
              "type": "uint256"
            },
            {
              "internalType": "uint256",
              "name": "amount",
              "type": "uint256"
            }
          ],
          "internalType": "struct Actions.MintArgs",
          "name": "",
          "type": "tuple"
        }
      ],
      "stateMutability": "view",
      "type": "function"
    },
    {
      "inputs": [],
      "name": "getOpenVaultArgs",
      "outputs": [
        {
          "components": [
            {
              "internalType": "address",
              "name": "owner",
              "type": "address"
            },
            {
              "internalType": "uint256",
              "name": "vaultId",
              "type": "uint256"
            },
            {
              "internalType": "uint256",
              "name": "vaultType",
              "type": "uint256"
            }
          ],
          "internalType": "struct Actions.OpenVaultArgs",
          "name": "",
          "type": "tuple"
        }
      ],
      "stateMutability": "view",
      "type": "function"
    },
    {
      "inputs": [],
      "name": "getRedeemArgs",
      "outputs": [
        {
          "components": [
            {
              "internalType": "address",
              "name": "receiver",
              "type": "address"
            },
            {
              "internalType": "address",
              "name": "otoken",
              "type": "address"
            },
            {
              "internalType": "uint256",
              "name": "amount",
              "type": "uint256"
            }
          ],
          "internalType": "struct Actions.RedeemArgs",
          "name": "",
          "type": "tuple"
        }
      ],
      "stateMutability": "view",
      "type": "function"
    },
    {
      "inputs": [],
      "name": "getSettleVaultArgs",
      "outputs": [
        {
          "components": [
            {
              "internalType": "address",
              "name": "owner",
              "type": "address"
            },
            {
              "internalType": "uint256",
              "name": "vaultId",
              "type": "uint256"
            },
            {
              "internalType": "address",
              "name": "to",
              "type": "address"
            }
          ],
          "internalType": "struct Actions.SettleVaultArgs",
          "name": "",
          "type": "tuple"
        }
      ],
      "stateMutability": "view",
      "type": "function"
    },
    {
      "inputs": [],
      "name": "getWithdrawArgs",
      "outputs": [
        {
          "components": [
            {
              "internalType": "address",
              "name": "owner",
              "type": "address"
            },
            {
              "internalType": "uint256",
              "name": "vaultId",
              "type": "uint256"
            },
            {
              "internalType": "address",
              "name": "to",
              "type": "address"
            },
            {
              "internalType": "address",
              "name": "asset",
              "type": "address"
            },
            {
              "internalType": "uint256",
              "name": "index",
              "type": "uint256"
            },
            {
              "internalType": "uint256",
              "name": "amount",
              "type": "uint256"
            }
          ],
          "internalType": "struct Actions.WithdrawArgs",
          "name": "",
          "type": "tuple"
        }
      ],
      "stateMutability": "view",
      "type": "function"
    },
    {
      "inputs": [
        {
          "components": [
            {
              "internalType": "enum Actions.ActionType",
              "name": "actionType",
              "type": "uint8"
            },
            {
              "internalType": "address",
              "name": "owner",
              "type": "address"
            },
            {
              "internalType": "address",
              "name": "secondAddress",
              "type": "address"
            },
            {
              "internalType": "address",
              "name": "asset",
              "type": "address"
            },
            {
              "internalType": "uint256",
              "name": "vaultId",
              "type": "uint256"
            },
            {
              "internalType": "uint256",
              "name": "amount",
              "type": "uint256"
            },
            {
              "internalType": "uint256",
              "name": "index",
              "type": "uint256"
            },
            {
              "internalType": "bytes",
              "name": "data",
              "type": "bytes"
            }
          ],
          "internalType": "struct Actions.ActionArgs",
          "name": "_args",
          "type": "tuple"
        }
      ],
      "name": "testParseBurnAction",
      "outputs": [],
      "stateMutability": "nonpayable",
      "type": "function"
    },
    {
      "inputs": [
        {
          "components": [
            {
              "internalType": "enum Actions.ActionType",
              "name": "actionType",
              "type": "uint8"
            },
            {
              "internalType": "address",
              "name": "owner",
              "type": "address"
            },
            {
              "internalType": "address",
              "name": "secondAddress",
              "type": "address"
            },
            {
              "internalType": "address",
              "name": "asset",
              "type": "address"
            },
            {
              "internalType": "uint256",
              "name": "vaultId",
              "type": "uint256"
            },
            {
              "internalType": "uint256",
              "name": "amount",
              "type": "uint256"
            },
            {
              "internalType": "uint256",
              "name": "index",
              "type": "uint256"
            },
            {
              "internalType": "bytes",
              "name": "data",
              "type": "bytes"
            }
          ],
          "internalType": "struct Actions.ActionArgs",
          "name": "_args",
          "type": "tuple"
        }
      ],
      "name": "testParseCallAction",
      "outputs": [],
      "stateMutability": "nonpayable",
      "type": "function"
    },
    {
      "inputs": [
        {
          "components": [
            {
              "internalType": "enum Actions.ActionType",
              "name": "actionType",
              "type": "uint8"
            },
            {
              "internalType": "address",
              "name": "owner",
              "type": "address"
            },
            {
              "internalType": "address",
              "name": "secondAddress",
              "type": "address"
            },
            {
              "internalType": "address",
              "name": "asset",
              "type": "address"
            },
            {
              "internalType": "uint256",
              "name": "vaultId",
              "type": "uint256"
            },
            {
              "internalType": "uint256",
              "name": "amount",
              "type": "uint256"
            },
            {
              "internalType": "uint256",
              "name": "index",
              "type": "uint256"
            },
            {
              "internalType": "bytes",
              "name": "data",
              "type": "bytes"
            }
          ],
          "internalType": "struct Actions.ActionArgs",
          "name": "_args",
          "type": "tuple"
        }
      ],
      "name": "testParseDespositAction",
      "outputs": [],
      "stateMutability": "nonpayable",
      "type": "function"
    },
    {
      "inputs": [
        {
          "components": [
            {
              "internalType": "enum Actions.ActionType",
              "name": "actionType",
              "type": "uint8"
            },
            {
              "internalType": "address",
              "name": "owner",
              "type": "address"
            },
            {
              "internalType": "address",
              "name": "secondAddress",
              "type": "address"
            },
            {
              "internalType": "address",
              "name": "asset",
              "type": "address"
            },
            {
              "internalType": "uint256",
              "name": "vaultId",
              "type": "uint256"
            },
            {
              "internalType": "uint256",
              "name": "amount",
              "type": "uint256"
            },
            {
              "internalType": "uint256",
              "name": "index",
              "type": "uint256"
            },
            {
              "internalType": "bytes",
              "name": "data",
              "type": "bytes"
            }
          ],
          "internalType": "struct Actions.ActionArgs",
          "name": "_args",
          "type": "tuple"
        }
      ],
      "name": "testParseLiquidateActions",
      "outputs": [],
      "stateMutability": "nonpayable",
      "type": "function"
    },
    {
      "inputs": [
        {
          "components": [
            {
              "internalType": "enum Actions.ActionType",
              "name": "actionType",
              "type": "uint8"
            },
            {
              "internalType": "address",
              "name": "owner",
              "type": "address"
            },
            {
              "internalType": "address",
              "name": "secondAddress",
              "type": "address"
            },
            {
              "internalType": "address",
              "name": "asset",
              "type": "address"
            },
            {
              "internalType": "uint256",
              "name": "vaultId",
              "type": "uint256"
            },
            {
              "internalType": "uint256",
              "name": "amount",
              "type": "uint256"
            },
            {
              "internalType": "uint256",
              "name": "index",
              "type": "uint256"
            },
            {
              "internalType": "bytes",
              "name": "data",
              "type": "bytes"
            }
          ],
          "internalType": "struct Actions.ActionArgs",
          "name": "_args",
          "type": "tuple"
        }
      ],
      "name": "testParseMintAction",
      "outputs": [],
      "stateMutability": "nonpayable",
      "type": "function"
    },
    {
      "inputs": [
        {
          "components": [
            {
              "internalType": "enum Actions.ActionType",
              "name": "actionType",
              "type": "uint8"
            },
            {
              "internalType": "address",
              "name": "owner",
              "type": "address"
            },
            {
              "internalType": "address",
              "name": "secondAddress",
              "type": "address"
            },
            {
              "internalType": "address",
              "name": "asset",
              "type": "address"
            },
            {
              "internalType": "uint256",
              "name": "vaultId",
              "type": "uint256"
            },
            {
              "internalType": "uint256",
              "name": "amount",
              "type": "uint256"
            },
            {
              "internalType": "uint256",
              "name": "index",
              "type": "uint256"
            },
            {
              "internalType": "bytes",
              "name": "data",
              "type": "bytes"
            }
          ],
          "internalType": "struct Actions.ActionArgs",
          "name": "_args",
          "type": "tuple"
        }
      ],
      "name": "testParseOpenVaultAction",
      "outputs": [],
      "stateMutability": "nonpayable",
      "type": "function"
    },
    {
      "inputs": [
        {
          "components": [
            {
              "internalType": "enum Actions.ActionType",
              "name": "actionType",
              "type": "uint8"
            },
            {
              "internalType": "address",
              "name": "owner",
              "type": "address"
            },
            {
              "internalType": "address",
              "name": "secondAddress",
              "type": "address"
            },
            {
              "internalType": "address",
              "name": "asset",
              "type": "address"
            },
            {
              "internalType": "uint256",
              "name": "vaultId",
              "type": "uint256"
            },
            {
              "internalType": "uint256",
              "name": "amount",
              "type": "uint256"
            },
            {
              "internalType": "uint256",
              "name": "index",
              "type": "uint256"
            },
            {
              "internalType": "bytes",
              "name": "data",
              "type": "bytes"
            }
          ],
          "internalType": "struct Actions.ActionArgs",
          "name": "_args",
          "type": "tuple"
        }
      ],
      "name": "testParseRedeemAction",
      "outputs": [],
      "stateMutability": "nonpayable",
      "type": "function"
    },
    {
      "inputs": [
        {
          "components": [
            {
              "internalType": "enum Actions.ActionType",
              "name": "actionType",
              "type": "uint8"
            },
            {
              "internalType": "address",
              "name": "owner",
              "type": "address"
            },
            {
              "internalType": "address",
              "name": "secondAddress",
              "type": "address"
            },
            {
              "internalType": "address",
              "name": "asset",
              "type": "address"
            },
            {
              "internalType": "uint256",
              "name": "vaultId",
              "type": "uint256"
            },
            {
              "internalType": "uint256",
              "name": "amount",
              "type": "uint256"
            },
            {
              "internalType": "uint256",
              "name": "index",
              "type": "uint256"
            },
            {
              "internalType": "bytes",
              "name": "data",
              "type": "bytes"
            }
          ],
          "internalType": "struct Actions.ActionArgs",
          "name": "_args",
          "type": "tuple"
        }
      ],
      "name": "testParseSettleVaultAction",
      "outputs": [],
      "stateMutability": "nonpayable",
      "type": "function"
    },
    {
      "inputs": [
        {
          "components": [
            {
              "internalType": "enum Actions.ActionType",
              "name": "actionType",
              "type": "uint8"
            },
            {
              "internalType": "address",
              "name": "owner",
              "type": "address"
            },
            {
              "internalType": "address",
              "name": "secondAddress",
              "type": "address"
            },
            {
              "internalType": "address",
              "name": "asset",
              "type": "address"
            },
            {
              "internalType": "uint256",
              "name": "vaultId",
              "type": "uint256"
            },
            {
              "internalType": "uint256",
              "name": "amount",
              "type": "uint256"
            },
            {
              "internalType": "uint256",
              "name": "index",
              "type": "uint256"
            },
            {
              "internalType": "bytes",
              "name": "data",
              "type": "bytes"
            }
          ],
          "internalType": "struct Actions.ActionArgs",
          "name": "_args",
          "type": "tuple"
        }
      ],
      "name": "testParseWithdrawAction",
      "outputs": [],
      "stateMutability": "nonpayable",
      "type": "function"
    }
  ],
  "bytecode": "0x608060405234801561001057600080fd5b506135b2806100206000396000f3fe608060405234801561001057600080fd5b50600436106101165760003560e01c80639d53155a116100a2578063cc294d7c11610071578063cc294d7c14610293578063cdc5c6d3146102b1578063e516b11e146102cf578063ef772c47146102eb578063f5380a841461030957610116565b80639d53155a14610221578063b90835ad1461023d578063be0c775c1461025b578063c36b3f121461027757610116565b806342ef617d116100e957806342ef617d1461018f5780634af9d84f146101ad57806360062217146101cb5780637343b9b7146101e957806383bb0c5d1461020557610116565b806302772fc61461011b578063065d80e41461013757806321667fe5146101535780633a3a258514610171575b600080fd5b61013560048036038101906101309190612677565b610325565b005b610151600480360381019061014c9190612677565b6103ce565b005b61015b6104d2565b604051610168919061334a565b60405180910390f35b6101796105e4565b604051610186919061336c565b60405180910390f35b61019761071e565b6040516101a491906133f3565b60405180910390f35b6101b56107ee565b6040516101c2919061340e565b60405180910390f35b6101d3610928565b6040516101e09190613387565b60405180910390f35b61020360048036038101906101fe9190612677565b610a0c565b005b61021f600480360381019061021a9190612677565b610a77565b005b61023b60048036038101906102369190612677565b610b7b565b005b610245610c38565b60405161025291906133d8565b60405180910390f35b61027560048036038101906102709190612677565b610d08565b005b610291600480360381019061028c9190612677565b610d7d565b005b61029b610e26565b6040516102a891906133bd565b60405180910390f35b6102b9610eaa565b6040516102c691906133a2565b60405180910390f35b6102e960048036038101906102e49190612677565b610fe4565b005b6102f36110e8565b604051610300919061332f565b60405180910390f35b610323600480360381019061031e9190612677565b611222565b005b61032e81611326565b601e60008201518160000160006101000a81548173ffffffffffffffffffffffffffffffffffffffff021916908373ffffffffffffffffffffffffffffffffffffffff1602179055506020820151816001015560408201518160020160006101000a81548173ffffffffffffffffffffffffffffffffffffffff021916908373ffffffffffffffffffffffffffffffffffffffff16021790555090505050565b6103d7816114cd565b600f60008201518160000160006101000a81548173ffffffffffffffffffffffffffffffffffffffff021916908373ffffffffffffffffffffffffffffffffffffffff1602179055506020820151816001015560408201518160020160006101000a81548173ffffffffffffffffffffffffffffffffffffffff021916908373ffffffffffffffffffffffffffffffffffffffff16021790555060608201518160030160006101000a81548173ffffffffffffffffffffffffffffffffffffffff021916908373ffffffffffffffffffffffffffffffffffffffff1602179055506080820151816004015560a0820151816005015590505050565b6104da612110565b60216040518060400160405290816000820160009054906101000a900473ffffffffffffffffffffffffffffffffffffffff1673ffffffffffffffffffffffffffffffffffffffff1673ffffffffffffffffffffffffffffffffffffffff168152602001600182018054600181600116156101000203166002900480601f0160208091040260200160405190810160405280929190818152602001828054600181600116156101000203166002900480156105d65780601f106105ab576101008083540402835291602001916105d6565b820191906000526020600020905b8154815290600101906020018083116105b957829003601f168201915b505050505081525050905090565b6105ec612140565b60036040518060c00160405290816000820160009054906101000a900473ffffffffffffffffffffffffffffffffffffffff1673ffffffffffffffffffffffffffffffffffffffff1673ffffffffffffffffffffffffffffffffffffffff168152602001600182015481526020016002820160009054906101000a900473ffffffffffffffffffffffffffffffffffffffff1673ffffffffffffffffffffffffffffffffffffffff1673ffffffffffffffffffffffffffffffffffffffff1681526020016003820160009054906101000a900473ffffffffffffffffffffffffffffffffffffffff1673ffffffffffffffffffffffffffffffffffffffff1673ffffffffffffffffffffffffffffffffffffffff16815260200160048201548152602001600582015481525050905090565b6107266121b8565b601e6040518060600160405290816000820160009054906101000a900473ffffffffffffffffffffffffffffffffffffffff1673ffffffffffffffffffffffffffffffffffffffff1673ffffffffffffffffffffffffffffffffffffffff168152602001600182015481526020016002820160009054906101000a900473ffffffffffffffffffffffffffffffffffffffff1673ffffffffffffffffffffffffffffffffffffffff1673ffffffffffffffffffffffffffffffffffffffff1681525050905090565b6107f6612205565b60096040518060c00160405290816000820160009054906101000a900473ffffffffffffffffffffffffffffffffffffffff1673ffffffffffffffffffffffffffffffffffffffff1673ffffffffffffffffffffffffffffffffffffffff168152602001600182015481526020016002820160009054906101000a900473ffffffffffffffffffffffffffffffffffffffff1673ffffffffffffffffffffffffffffffffffffffff1673ffffffffffffffffffffffffffffffffffffffff1681526020016003820160009054906101000a900473ffffffffffffffffffffffffffffffffffffffff1673ffffffffffffffffffffffffffffffffffffffff1673ffffffffffffffffffffffffffffffffffffffff16815260200160048201548152602001600582015481525050905090565b61093061227d565b60236040518060a00160405290816000820160009054906101000a900473ffffffffffffffffffffffffffffffffffffffff1673ffffffffffffffffffffffffffffffffffffffff1673ffffffffffffffffffffffffffffffffffffffff1681526020016001820160009054906101000a900473ffffffffffffffffffffffffffffffffffffffff1673ffffffffffffffffffffffffffffffffffffffff1673ffffffffffffffffffffffffffffffffffffffff1681526020016002820154815260200160038201548152602001600482015481525050905090565b610a1581611634565b6000808201518160000160006101000a81548173ffffffffffffffffffffffffffffffffffffffff021916908373ffffffffffffffffffffffffffffffffffffffff160217905550602082015181600101556040820151816002015590505050565b610a80816117bc565b601560008201518160000160006101000a81548173ffffffffffffffffffffffffffffffffffffffff021916908373ffffffffffffffffffffffffffffffffffffffff1602179055506020820151816001015560408201518160020160006101000a81548173ffffffffffffffffffffffffffffffffffffffff021916908373ffffffffffffffffffffffffffffffffffffffff16021790555060608201518160030160006101000a81548173ffffffffffffffffffffffffffffffffffffffff021916908373ffffffffffffffffffffffffffffffffffffffff1602179055506080820151816004015560a0820151816005015590505050565b610b8481611923565b602360008201518160000160006101000a81548173ffffffffffffffffffffffffffffffffffffffff021916908373ffffffffffffffffffffffffffffffffffffffff16021790555060208201518160010160006101000a81548173ffffffffffffffffffffffffffffffffffffffff021916908373ffffffffffffffffffffffffffffffffffffffff16021790555060408201518160020155606082015181600301556080820151816004015590505050565b610c406122d8565b601b6040518060600160405290816000820160009054906101000a900473ffffffffffffffffffffffffffffffffffffffff1673ffffffffffffffffffffffffffffffffffffffff1673ffffffffffffffffffffffffffffffffffffffff1681526020016001820160009054906101000a900473ffffffffffffffffffffffffffffffffffffffff1673ffffffffffffffffffffffffffffffffffffffff1673ffffffffffffffffffffffffffffffffffffffff168152602001600282015481525050905090565b610d1181611b3e565b602160008201518160000160006101000a81548173ffffffffffffffffffffffffffffffffffffffff021916908373ffffffffffffffffffffffffffffffffffffffff1602179055506020820151816001019080519060200190610d76929190612325565b5090505050565b610d8681611c51565b601b60008201518160000160006101000a81548173ffffffffffffffffffffffffffffffffffffffff021916908373ffffffffffffffffffffffffffffffffffffffff16021790555060208201518160010160006101000a81548173ffffffffffffffffffffffffffffffffffffffff021916908373ffffffffffffffffffffffffffffffffffffffff1602179055506040820151816002015590505050565b610e2e6123a5565b60006040518060600160405290816000820160009054906101000a900473ffffffffffffffffffffffffffffffffffffffff1673ffffffffffffffffffffffffffffffffffffffff1673ffffffffffffffffffffffffffffffffffffffff16815260200160018201548152602001600282015481525050905090565b610eb26123dc565b600f6040518060c00160405290816000820160009054906101000a900473ffffffffffffffffffffffffffffffffffffffff1673ffffffffffffffffffffffffffffffffffffffff1673ffffffffffffffffffffffffffffffffffffffff168152602001600182015481526020016002820160009054906101000a900473ffffffffffffffffffffffffffffffffffffffff1673ffffffffffffffffffffffffffffffffffffffff1673ffffffffffffffffffffffffffffffffffffffff1681526020016003820160009054906101000a900473ffffffffffffffffffffffffffffffffffffffff1673ffffffffffffffffffffffffffffffffffffffff1673ffffffffffffffffffffffffffffffffffffffff16815260200160048201548152602001600582015481525050905090565b610fed81611d84565b600360008201518160000160006101000a81548173ffffffffffffffffffffffffffffffffffffffff021916908373ffffffffffffffffffffffffffffffffffffffff1602179055506020820151816001015560408201518160020160006101000a81548173ffffffffffffffffffffffffffffffffffffffff021916908373ffffffffffffffffffffffffffffffffffffffff16021790555060608201518160030160006101000a81548173ffffffffffffffffffffffffffffffffffffffff021916908373ffffffffffffffffffffffffffffffffffffffff1602179055506080820151816004015560a0820151816005015590505050565b6110f0612454565b60156040518060c00160405290816000820160009054906101000a900473ffffffffffffffffffffffffffffffffffffffff1673ffffffffffffffffffffffffffffffffffffffff1673ffffffffffffffffffffffffffffffffffffffff168152602001600182015481526020016002820160009054906101000a900473ffffffffffffffffffffffffffffffffffffffff1673ffffffffffffffffffffffffffffffffffffffff1673ffffffffffffffffffffffffffffffffffffffff1681526020016003820160009054906101000a900473ffffffffffffffffffffffffffffffffffffffff1673ffffffffffffffffffffffffffffffffffffffff1673ffffffffffffffffffffffffffffffffffffffff16815260200160048201548152602001600582015481525050905090565b61122b81611f10565b600960008201518160000160006101000a81548173ffffffffffffffffffffffffffffffffffffffff021916908373ffffffffffffffffffffffffffffffffffffffff1602179055506020820151816001015560408201518160020160006101000a81548173ffffffffffffffffffffffffffffffffffffffff021916908373ffffffffffffffffffffffffffffffffffffffff16021790555060608201518160030160006101000a81548173ffffffffffffffffffffffffffffffffffffffff021916908373ffffffffffffffffffffffffffffffffffffffff1602179055506080820151816004015560a0820151816005015590505050565b61132e6121b8565b6007600a81111561133b57fe5b8260000151600a81111561134b57fe5b1461138b576040517f08c379a00000000000000000000000000000000000000000000000000000000081526004016113829061320f565b60405180910390fd5b600073ffffffffffffffffffffffffffffffffffffffff16826020015173ffffffffffffffffffffffffffffffffffffffff1614156113ff576040517f08c379a00000000000000000000000000000000000000000000000000000000081526004016113f6906130cf565b60405180910390fd5b600073ffffffffffffffffffffffffffffffffffffffff16826040015173ffffffffffffffffffffffffffffffffffffffff161415611473576040517f08c379a000000000000000000000000000000000000000000000000000000000815260040161146a906132af565b60405180910390fd5b6040518060600160405280836020015173ffffffffffffffffffffffffffffffffffffffff16815260200183608001518152602001836040015173ffffffffffffffffffffffffffffffffffffffff168152509050919050565b6114d56123dc565b6001600a8111156114e257fe5b8260000151600a8111156114f257fe5b14611532576040517f08c379a0000000000000000000000000000000000000000000000000000000008152600401611529906132cf565b60405180910390fd5b600073ffffffffffffffffffffffffffffffffffffffff16826020015173ffffffffffffffffffffffffffffffffffffffff1614156115a6576040517f08c379a000000000000000000000000000000000000000000000000000000000815260040161159d9061330f565b60405180910390fd5b6040518060c00160405280836020015173ffffffffffffffffffffffffffffffffffffffff16815260200183608001518152602001836040015173ffffffffffffffffffffffffffffffffffffffff168152602001836060015173ffffffffffffffffffffffffffffffffffffffff1681526020018360c0015181526020018360a001518152509050919050565b61163c6123a5565b6000600a81111561164957fe5b8260000151600a81111561165957fe5b14611699576040517f08c379a00000000000000000000000000000000000000000000000000000000081526004016116909061310f565b60405180910390fd5b600073ffffffffffffffffffffffffffffffffffffffff16826020015173ffffffffffffffffffffffffffffffffffffffff16141561170d576040517f08c379a00000000000000000000000000000000000000000000000000000000081526004016117049061314f565b60405180910390fd5b600060208360e00151511415611738578260e0015180602001905181019061173591906126b8565b90505b6002811061177b576040517f08c379a0000000000000000000000000000000000000000000000000000000008152600401611772906130af565b60405180910390fd5b6040518060600160405280846020015173ffffffffffffffffffffffffffffffffffffffff1681526020018460800151815260200182815250915050919050565b6117c4612454565b6002600a8111156117d157fe5b8260000151600a8111156117e157fe5b14611821576040517f08c379a00000000000000000000000000000000000000000000000000000000081526004016118189061326f565b60405180910390fd5b600073ffffffffffffffffffffffffffffffffffffffff16826020015173ffffffffffffffffffffffffffffffffffffffff161415611895576040517f08c379a000000000000000000000000000000000000000000000000000000000815260040161188c9061312f565b60405180910390fd5b6040518060c00160405280836020015173ffffffffffffffffffffffffffffffffffffffff16815260200183608001518152602001836040015173ffffffffffffffffffffffffffffffffffffffff168152602001836060015173ffffffffffffffffffffffffffffffffffffffff1681526020018360c0015181526020018360a001518152509050919050565b61192b61227d565b600a8081111561193757fe5b8260000151600a81111561194757fe5b14611987576040517f08c379a000000000000000000000000000000000000000000000000000000000815260040161197e9061304f565b60405180910390fd5b600073ffffffffffffffffffffffffffffffffffffffff16826020015173ffffffffffffffffffffffffffffffffffffffff1614156119fb576040517f08c379a00000000000000000000000000000000000000000000000000000000081526004016119f2906130ef565b60405180910390fd5b600073ffffffffffffffffffffffffffffffffffffffff16826040015173ffffffffffffffffffffffffffffffffffffffff161415611a6f576040517f08c379a0000000000000000000000000000000000000000000000000000000008152600401611a669061308f565b60405180910390fd5b60208260e001515114611ab7576040517f08c379a0000000000000000000000000000000000000000000000000000000008152600401611aae9061328f565b60405180910390fd5b60008260e00151806020019051810190611ad191906126b8565b90506040518060a00160405280846020015173ffffffffffffffffffffffffffffffffffffffff168152602001846040015173ffffffffffffffffffffffffffffffffffffffff168152602001846080015181526020018460a00151815260200182815250915050919050565b611b46612110565b6009600a811115611b5357fe5b8260000151600a811115611b6357fe5b14611ba3576040517f08c379a0000000000000000000000000000000000000000000000000000000008152600401611b9a9061318f565b60405180910390fd5b600073ffffffffffffffffffffffffffffffffffffffff16826040015173ffffffffffffffffffffffffffffffffffffffff161415611c17576040517f08c379a0000000000000000000000000000000000000000000000000000000008152600401611c0e906131ef565b60405180910390fd5b6040518060400160405280836040015173ffffffffffffffffffffffffffffffffffffffff1681526020018360e001518152509050919050565b611c596122d8565b6008600a811115611c6657fe5b8260000151600a811115611c7657fe5b14611cb6576040517f08c379a0000000000000000000000000000000000000000000000000000000008152600401611cad906132ef565b60405180910390fd5b600073ffffffffffffffffffffffffffffffffffffffff16826040015173ffffffffffffffffffffffffffffffffffffffff161415611d2a576040517f08c379a0000000000000000000000000000000000000000000000000000000008152600401611d219061316f565b60405180910390fd5b6040518060600160405280836040015173ffffffffffffffffffffffffffffffffffffffff168152602001836060015173ffffffffffffffffffffffffffffffffffffffff1681526020018360a001518152509050919050565b611d8c612140565b6003600a811115611d9957fe5b8260000151600a811115611da957fe5b1480611dcf57506005600a811115611dbd57fe5b8260000151600a811115611dcd57fe5b145b611e0e576040517f08c379a0000000000000000000000000000000000000000000000000000000008152600401611e059061322f565b60405180910390fd5b600073ffffffffffffffffffffffffffffffffffffffff16826020015173ffffffffffffffffffffffffffffffffffffffff161415611e82576040517f08c379a0000000000000000000000000000000000000000000000000000000008152600401611e799061324f565b60405180910390fd5b6040518060c00160405280836020015173ffffffffffffffffffffffffffffffffffffffff16815260200183608001518152602001836040015173ffffffffffffffffffffffffffffffffffffffff168152602001836060015173ffffffffffffffffffffffffffffffffffffffff1681526020018360c0015181526020018360a001518152509050919050565b611f18612205565b6004600a811115611f2557fe5b8260000151600a811115611f3557fe5b1480611f5b57506006600a811115611f4957fe5b8260000151600a811115611f5957fe5b145b611f9a576040517f08c379a0000000000000000000000000000000000000000000000000000000008152600401611f91906131af565b60405180910390fd5b600073ffffffffffffffffffffffffffffffffffffffff16826020015173ffffffffffffffffffffffffffffffffffffffff16141561200e576040517f08c379a00000000000000000000000000000000000000000000000000000000081526004016120059061306f565b60405180910390fd5b600073ffffffffffffffffffffffffffffffffffffffff16826040015173ffffffffffffffffffffffffffffffffffffffff161415612082576040517f08c379a0000000000000000000000000000000000000000000000000000000008152600401612079906131cf565b60405180910390fd5b6040518060c00160405280836020015173ffffffffffffffffffffffffffffffffffffffff16815260200183608001518152602001836040015173ffffffffffffffffffffffffffffffffffffffff168152602001836060015173ffffffffffffffffffffffffffffffffffffffff1681526020018360c0015181526020018360a001518152509050919050565b6040518060400160405280600073ffffffffffffffffffffffffffffffffffffffff168152602001606081525090565b6040518060c00160405280600073ffffffffffffffffffffffffffffffffffffffff16815260200160008152602001600073ffffffffffffffffffffffffffffffffffffffff168152602001600073ffffffffffffffffffffffffffffffffffffffff16815260200160008152602001600081525090565b6040518060600160405280600073ffffffffffffffffffffffffffffffffffffffff16815260200160008152602001600073ffffffffffffffffffffffffffffffffffffffff1681525090565b6040518060c00160405280600073ffffffffffffffffffffffffffffffffffffffff16815260200160008152602001600073ffffffffffffffffffffffffffffffffffffffff168152602001600073ffffffffffffffffffffffffffffffffffffffff16815260200160008152602001600081525090565b6040518060a00160405280600073ffffffffffffffffffffffffffffffffffffffff168152602001600073ffffffffffffffffffffffffffffffffffffffff1681526020016000815260200160008152602001600081525090565b6040518060600160405280600073ffffffffffffffffffffffffffffffffffffffff168152602001600073ffffffffffffffffffffffffffffffffffffffff168152602001600081525090565b828054600181600116156101000203166002900490600052602060002090601f016020900481019282601f1061236657805160ff1916838001178555612394565b82800160010185558215612394579182015b82811115612393578251825591602001919060010190612378565b5b5090506123a191906124cc565b5090565b6040518060600160405280600073ffffffffffffffffffffffffffffffffffffffff16815260200160008152602001600081525090565b6040518060c00160405280600073ffffffffffffffffffffffffffffffffffffffff16815260200160008152602001600073ffffffffffffffffffffffffffffffffffffffff168152602001600073ffffffffffffffffffffffffffffffffffffffff16815260200160008152602001600081525090565b6040518060c00160405280600073ffffffffffffffffffffffffffffffffffffffff16815260200160008152602001600073ffffffffffffffffffffffffffffffffffffffff168152602001600073ffffffffffffffffffffffffffffffffffffffff16815260200160008152602001600081525090565b6124ee91905b808211156124ea5760008160009055506001016124d2565b5090565b90565b6000813590506125008161353e565b92915050565b600082601f83011261251757600080fd5b813561252a61252582613456565b613429565b9150808252602083016020830185838301111561254657600080fd5b6125518382846134eb565b50505092915050565b60008135905061256981613555565b92915050565b6000610100828403121561258257600080fd5b61258d610100613429565b9050600061259d8482850161255a565b60008301525060206125b1848285016124f1565b60208301525060406125c5848285016124f1565b60408301525060606125d9848285016124f1565b60608301525060806125ed8482850161264d565b60808301525060a06126018482850161264d565b60a08301525060c06126158482850161264d565b60c08301525060e082013567ffffffffffffffff81111561263557600080fd5b61264184828501612506565b60e08301525092915050565b60008135905061265c81613565565b92915050565b60008151905061267181613565565b92915050565b60006020828403121561268957600080fd5b600082013567ffffffffffffffff8111156126a357600080fd5b6126af8482850161256f565b91505092915050565b6000602082840312156126ca57600080fd5b60006126d884828501612662565b91505092915050565b6126ea816134af565b82525050565b60006126fb82613482565b612705818561348d565b93506127158185602086016134fa565b61271e8161352d565b840191505092915050565b600061273660038361349e565b91507f41313800000000000000000000000000000000000000000000000000000000006000830152602082019050919050565b600061277660038361349e565b91507f41313100000000000000000000000000000000000000000000000000000000006000830152602082019050919050565b60006127b660038361349e565b91507f41323000000000000000000000000000000000000000000000000000000000006000830152602082019050919050565b60006127f660028361349e565b91507f41330000000000000000000000000000000000000000000000000000000000006000830152602082019050919050565b600061283660038361349e565b91507f41313600000000000000000000000000000000000000000000000000000000006000830152602082019050919050565b600061287660038361349e565b91507f41313900000000000000000000000000000000000000000000000000000000006000830152602082019050919050565b60006128b660028361349e565b91507f41310000000000000000000000000000000000000000000000000000000000006000830152602082019050919050565b60006128f660028361349e565b91507f41370000000000000000000000000000000000000000000000000000000000006000830152602082019050919050565b600061293660028361349e565b91507f41320000000000000000000000000000000000000000000000000000000000006000830152602082019050919050565b600061297660038361349e565b91507f41313400000000000000000000000000000000000000000000000000000000006000830152602082019050919050565b60006129b660038361349e565b91507f41323200000000000000000000000000000000000000000000000000000000006000830152602082019050919050565b60006129f660038361349e565b91507f41313000000000000000000000000000000000000000000000000000000000006000830152602082019050919050565b6000612a3660038361349e565b91507f41313200000000000000000000000000000000000000000000000000000000006000830152602082019050919050565b6000612a7660038361349e565b91507f41323300000000000000000000000000000000000000000000000000000000006000830152602082019050919050565b6000612ab660038361349e565b91507f41313500000000000000000000000000000000000000000000000000000000006000830152602082019050919050565b6000612af660028361349e565b91507f41380000000000000000000000000000000000000000000000000000000000006000830152602082019050919050565b6000612b3660028361349e565b91507f41390000000000000000000000000000000000000000000000000000000000006000830152602082019050919050565b6000612b7660028361349e565b91507f41360000000000000000000000000000000000000000000000000000000000006000830152602082019050919050565b6000612bb660038361349e565b91507f41323100000000000000000000000000000000000000000000000000000000006000830152602082019050919050565b6000612bf660038361349e565b91507f41313700000000000000000000000000000000000000000000000000000000006000830152602082019050919050565b6000612c3660028361349e565b91507f41340000000000000000000000000000000000000000000000000000000000006000830152602082019050919050565b6000612c7660038361349e565b91507f41313300000000000000000000000000000000000000000000000000000000006000830152602082019050919050565b6000612cb660028361349e565b91507f41350000000000000000000000000000000000000000000000000000000000006000830152602082019050919050565b60c082016000820151612cff60008501826126e1565b506020820151612d126020850182613040565b506040820151612d2560408501826126e1565b506060820151612d3860608501826126e1565b506080820151612d4b6080850182613040565b5060a0820151612d5e60a0850182613040565b50505050565b6000604083016000830151612d7c60008601826126e1565b5060208301518482036020860152612d9482826126f0565b9150508091505092915050565b60c082016000820151612db760008501826126e1565b506020820151612dca6020850182613040565b506040820151612ddd60408501826126e1565b506060820151612df060608501826126e1565b506080820151612e036080850182613040565b5060a0820151612e1660a0850182613040565b50505050565b60a082016000820151612e3260008501826126e1565b506020820151612e4560208501826126e1565b506040820151612e586040850182613040565b506060820151612e6b6060850182613040565b506080820151612e7e6080850182613040565b50505050565b60c082016000820151612e9a60008501826126e1565b506020820151612ead6020850182613040565b506040820151612ec060408501826126e1565b506060820151612ed360608501826126e1565b506080820151612ee66080850182613040565b5060a0820151612ef960a0850182613040565b50505050565b606082016000820151612f1560008501826126e1565b506020820151612f286020850182613040565b506040820151612f3b6040850182613040565b50505050565b606082016000820151612f5760008501826126e1565b506020820151612f6a60208501826126e1565b506040820151612f7d6040850182613040565b50505050565b606082016000820151612f9960008501826126e1565b506020820151612fac6020850182613040565b506040820151612fbf60408501826126e1565b50505050565b60c082016000820151612fdb60008501826126e1565b506020820151612fee6020850182613040565b50604082015161300160408501826126e1565b50606082015161301460608501826126e1565b5060808201516130276080850182613040565b5060a082015161303a60a0850182613040565b50505050565b613049816134e1565b82525050565b6000602082019050818103600083015261306881612729565b9050919050565b6000602082019050818103600083015261308881612769565b9050919050565b600060208201905081810360008301526130a8816127a9565b9050919050565b600060208201905081810360008301526130c8816127e9565b9050919050565b600060208201905081810360008301526130e881612829565b9050919050565b6000602082019050818103600083015261310881612869565b9050919050565b60006020820190508181036000830152613128816128a9565b9050919050565b60006020820190508181036000830152613148816128e9565b9050919050565b6000602082019050818103600083015261316881612929565b9050919050565b6000602082019050818103600083015261318881612969565b9050919050565b600060208201905081810360008301526131a8816129a9565b9050919050565b600060208201905081810360008301526131c8816129e9565b9050919050565b600060208201905081810360008301526131e881612a29565b9050919050565b6000602082019050818103600083015261320881612a69565b9050919050565b6000602082019050818103600083015261322881612aa9565b9050919050565b6000602082019050818103600083015261324881612ae9565b9050919050565b6000602082019050818103600083015261326881612b29565b9050919050565b6000602082019050818103600083015261328881612b69565b9050919050565b600060208201905081810360008301526132a881612ba9565b9050919050565b600060208201905081810360008301526132c881612be9565b9050919050565b600060208201905081810360008301526132e881612c29565b9050919050565b6000602082019050818103600083015261330881612c69565b9050919050565b6000602082019050818103600083015261332881612ca9565b9050919050565b600060c0820190506133446000830184612ce9565b92915050565b600060208201905081810360008301526133648184612d64565b905092915050565b600060c0820190506133816000830184612da1565b92915050565b600060a08201905061339c6000830184612e1c565b92915050565b600060c0820190506133b76000830184612e84565b92915050565b60006060820190506133d26000830184612eff565b92915050565b60006060820190506133ed6000830184612f41565b92915050565b60006060820190506134086000830184612f83565b92915050565b600060c0820190506134236000830184612fc5565b92915050565b6000604051905081810181811067ffffffffffffffff8211171561344c57600080fd5b8060405250919050565b600067ffffffffffffffff82111561346d57600080fd5b601f19601f8301169050602081019050919050565b600081519050919050565b600082825260208201905092915050565b600082825260208201905092915050565b60006134ba826134c1565b9050919050565b600073ffffffffffffffffffffffffffffffffffffffff82169050919050565b6000819050919050565b82818337600083830152505050565b60005b838110156135185780820151818401526020810190506134fd565b83811115613527576000848401525b50505050565b6000601f19601f8301169050919050565b613547816134af565b811461355257600080fd5b50565b600b811061356257600080fd5b50565b61356e816134e1565b811461357957600080fd5b5056fea26469706673582212208f5b2a0fc3c9754b684485f4ac0fc471aa50af382cf79ddc6863551f626d642364736f6c634300060a0033",
  "linkReferences": {},
  "deployedLinkReferences": {}
}