{
  "_format": "hh-sol-artifact-1",
  "contractName": "OtokenFactory",
  "sourceName": "contracts/Gamma/core/OtokenFactory.sol",
  "abi": [
    {
      "inputs": [
        {
          "internalType": "address",
          "name": "_addressBook",
          "type": "address"
        }
      ],
      "stateMutability": "nonpayable",
      "type": "constructor"
    },
    {
      "anonymous": false,
      "inputs": [
        {
          "indexed": false,
          "internalType": "address",
          "name": "tokenAddress",
          "type": "address"
        },
        {
          "indexed": false,
          "internalType": "address",
          "name": "creator",
          "type": "address"
        },
        {
          "indexed": true,
          "internalType": "address",
          "name": "underlying",
          "type": "address"
        },
        {
          "indexed": true,
          "internalType": "address",
          "name": "strike",
          "type": "address"
        },
        {
          "indexed": true,
          "internalType": "address",
          "name": "collateral",
          "type": "address"
        },
        {
          "indexed": false,
          "internalType": "uint256",
          "name": "strikePrice",
          "type": "uint256"
        },
        {
          "indexed": false,
          "internalType": "uint256",
          "name": "expiry",
          "type": "uint256"
        },
        {
          "indexed": false,
          "internalType": "bool",
          "name": "isPut",
          "type": "bool"
        }
      ],
      "name": "OtokenCreated",
      "type": "event"
    },
    {
      "inputs": [],
      "name": "addressBook",
      "outputs": [
        {
          "internalType": "address",
          "name": "",
          "type": "address"
        }
      ],
      "stateMutability": "view",
      "type": "function"
    },
    {
      "inputs": [
        {
          "internalType": "address",
          "name": "_underlyingAsset",
          "type": "address"
        },
        {
          "internalType": "address",
          "name": "_strikeAsset",
          "type": "address"
        },
        {
          "internalType": "address",
          "name": "_collateralAsset",
          "type": "address"
        },
        {
          "internalType": "uint256",
          "name": "_strikePrice",
          "type": "uint256"
        },
        {
          "internalType": "uint256",
          "name": "_expiry",
          "type": "uint256"
        },
        {
          "internalType": "bool",
          "name": "_isPut",
          "type": "bool"
        }
      ],
      "name": "createOtoken",
      "outputs": [
        {
          "internalType": "address",
          "name": "",
          "type": "address"
        }
      ],
      "stateMutability": "nonpayable",
      "type": "function"
    },
    {
      "inputs": [
        {
          "internalType": "address",
          "name": "_underlyingAsset",
          "type": "address"
        },
        {
          "internalType": "address",
          "name": "_strikeAsset",
          "type": "address"
        },
        {
          "internalType": "address",
          "name": "_collateralAsset",
          "type": "address"
        },
        {
          "internalType": "uint256",
          "name": "_strikePrice",
          "type": "uint256"
        },
        {
          "internalType": "uint256",
          "name": "_expiry",
          "type": "uint256"
        },
        {
          "internalType": "bool",
          "name": "_isPut",
          "type": "bool"
        }
      ],
      "name": "getOtoken",
      "outputs": [
        {
          "internalType": "address",
          "name": "",
          "type": "address"
        }
      ],
      "stateMutability": "view",
      "type": "function"
    },
    {
      "inputs": [],
      "name": "getOtokensLength",
      "outputs": [
        {
          "internalType": "uint256",
          "name": "",
          "type": "uint256"
        }
      ],
      "stateMutability": "view",
      "type": "function"
    },
    {
      "inputs": [
        {
          "internalType": "address",
          "name": "_underlyingAsset",
          "type": "address"
        },
        {
          "internalType": "address",
          "name": "_strikeAsset",
          "type": "address"
        },
        {
          "internalType": "address",
          "name": "_collateralAsset",
          "type": "address"
        },
        {
          "internalType": "uint256",
          "name": "_strikePrice",
          "type": "uint256"
        },
        {
          "internalType": "uint256",
          "name": "_expiry",
          "type": "uint256"
        },
        {
          "internalType": "bool",
          "name": "_isPut",
          "type": "bool"
        }
      ],
      "name": "getTargetOtokenAddress",
      "outputs": [
        {
          "internalType": "address",
          "name": "",
          "type": "address"
        }
      ],
      "stateMutability": "view",
      "type": "function"
    },
    {
      "inputs": [
        {
          "internalType": "uint256",
          "name": "",
          "type": "uint256"
        }
      ],
      "name": "otokens",
      "outputs": [
        {
          "internalType": "address",
          "name": "",
          "type": "address"
        }
      ],
      "stateMutability": "view",
      "type": "function"
    }
  ],
  "bytecode": "0x608060405234801561001057600080fd5b50604051611d7c380380611d7c8339818101604052602081101561003357600080fd5b8101908080519060200190929190505050806000806101000a81548173ffffffffffffffffffffffffffffffffffffffff021916908373ffffffffffffffffffffffffffffffffffffffff16021790555050611ce8806100946000396000f3fe608060405234801561001057600080fd5b50600436106100625760003560e01c8063115470541461006757806346e63dc41461014b578063b86b9a6414610169578063c09746301461024d578063de0120de14610331578063f5887cdd1461039f575b600080fd5b610109600480360360c081101561007d57600080fd5b81019080803573ffffffffffffffffffffffffffffffffffffffff169060200190929190803573ffffffffffffffffffffffffffffffffffffffff169060200190929190803573ffffffffffffffffffffffffffffffffffffffff16906020019092919080359060200190929190803590602001909291908035151590602001909291905050506103e9565b604051808273ffffffffffffffffffffffffffffffffffffffff1673ffffffffffffffffffffffffffffffffffffffff16815260200191505060405180910390f35b61015361043d565b6040518082815260200191505060405180910390f35b61020b600480360360c081101561017f57600080fd5b81019080803573ffffffffffffffffffffffffffffffffffffffff169060200190929190803573ffffffffffffffffffffffffffffffffffffffff169060200190929190803573ffffffffffffffffffffffffffffffffffffffff169060200190929190803590602001909291908035906020019092919080351515906020019092919050505061044a565b604051808273ffffffffffffffffffffffffffffffffffffffff1673ffffffffffffffffffffffffffffffffffffffff16815260200191505060405180910390f35b6102ef600480360360c081101561026357600080fd5b81019080803573ffffffffffffffffffffffffffffffffffffffff169060200190929190803573ffffffffffffffffffffffffffffffffffffffff169060200190929190803573ffffffffffffffffffffffffffffffffffffffff1690602001909291908035906020019092919080359060200190929190803515159060200190929190505050610688565b604051808273ffffffffffffffffffffffffffffffffffffffff1673ffffffffffffffffffffffffffffffffffffffff16815260200191505060405180910390f35b61035d6004803603602081101561034757600080fd5b8101908080359060200190929190505050610f9d565b604051808273ffffffffffffffffffffffffffffffffffffffff1673ffffffffffffffffffffffffffffffffffffffff16815260200191505060405180910390f35b6103a7610fd9565b604051808273ffffffffffffffffffffffffffffffffffffffff1673ffffffffffffffffffffffffffffffffffffffff16815260200191505060405180910390f35b6000806103fa888888888888610ffe565b90506002600082815260200190815260200160002060009054906101000a900473ffffffffffffffffffffffffffffffffffffffff169150509695505050505050565b6000600180549050905090565b6000806000809054906101000a900473ffffffffffffffffffffffffffffffffffffffff1673ffffffffffffffffffffffffffffffffffffffff1663a8de41d56040518163ffffffff1660e01b815260040160206040518083038186803b1580156104b457600080fd5b505afa1580156104c8573d6000803e3d6000fd5b505050506040513d60208110156104de57600080fd5b81019080805190602001909291905050509050606063f630df3460e01b6000809054906101000a900473ffffffffffffffffffffffffffffffffffffffff168a8a8a8a8a8a604051602401808873ffffffffffffffffffffffffffffffffffffffff1673ffffffffffffffffffffffffffffffffffffffff1681526020018773ffffffffffffffffffffffffffffffffffffffff1673ffffffffffffffffffffffffffffffffffffffff1681526020018673ffffffffffffffffffffffffffffffffffffffff1673ffffffffffffffffffffffffffffffffffffffff1681526020018573ffffffffffffffffffffffffffffffffffffffff1673ffffffffffffffffffffffffffffffffffffffff16815260200184815260200183815260200182151515158152602001975050505050505050604051602081830303815290604052907bffffffffffffffffffffffffffffffffffffffffffffffffffffffff19166020820180517bffffffffffffffffffffffffffffffffffffffffffffffffffffffff8381831617835250505050905061067a82826110ef565b925050509695505050505050565b60004283116106e2576040517f08c379a000000000000000000000000000000000000000000000000000000000815260040180806020018281038252602a815260200180611bcd602a913960400191505060405180910390fd5b6402c33b9c80831061073f576040517f08c379a000000000000000000000000000000000000000000000000000000000815260040180806020018281038252603b815260200180611c4b603b913960400191505060405180910390fd5b600061076b6201518061075d617080876112b190919063ffffffff16565b6112fb90919063ffffffff16565b146107c1576040517f08c379a000000000000000000000000000000000000000000000000000000000815260040180806020018281038252602d815260200180611c86602d913960400191505060405180910390fd5b60006107d1888888888888610ffe565b9050600073ffffffffffffffffffffffffffffffffffffffff166002600083815260200190815260200160002060009054906101000a900473ffffffffffffffffffffffffffffffffffffffff1673ffffffffffffffffffffffffffffffffffffffff161461088b576040517f08c379a0000000000000000000000000000000000000000000000000000000008152600401808060200182810382526025815260200180611ba86025913960400191505060405180910390fd5b60008060009054906101000a900473ffffffffffffffffffffffffffffffffffffffff1673ffffffffffffffffffffffffffffffffffffffff1663d01f63f56040518163ffffffff1660e01b815260040160206040518083038186803b1580156108f457600080fd5b505afa158015610908573d6000803e3d6000fd5b505050506040513d602081101561091e57600080fd5b810190808051906020019092919050505090508073ffffffffffffffffffffffffffffffffffffffff1663401a83cf8a8a8a886040518563ffffffff1660e01b8152600401808573ffffffffffffffffffffffffffffffffffffffff1673ffffffffffffffffffffffffffffffffffffffff1681526020018473ffffffffffffffffffffffffffffffffffffffff1673ffffffffffffffffffffffffffffffffffffffff1681526020018373ffffffffffffffffffffffffffffffffffffffff1673ffffffffffffffffffffffffffffffffffffffff1681526020018215151515815260200194505050505060206040518083038186803b158015610a2257600080fd5b505afa158015610a36573d6000803e3d6000fd5b505050506040513d6020811015610a4c57600080fd5b8101908080519060200190929190505050610ab2576040517f08c379a0000000000000000000000000000000000000000000000000000000008152600401808060200182810382526022815260200180611bf76022913960400191505060405180910390fd5b831580610abf5750600086115b610b14576040517f08c379a0000000000000000000000000000000000000000000000000000000008152600401808060200182810382526032815260200180611c196032913960400191505060405180910390fd5b60008060009054906101000a900473ffffffffffffffffffffffffffffffffffffffff1673ffffffffffffffffffffffffffffffffffffffff1663a8de41d56040518163ffffffff1660e01b815260040160206040518083038186803b158015610b7d57600080fd5b505afa158015610b91573d6000803e3d6000fd5b505050506040513d6020811015610ba757600080fd5b81019080805190602001909291905050509050606063f630df3460e01b6000809054906101000a900473ffffffffffffffffffffffffffffffffffffffff168c8c8c8c8c8c604051602401808873ffffffffffffffffffffffffffffffffffffffff1673ffffffffffffffffffffffffffffffffffffffff1681526020018773ffffffffffffffffffffffffffffffffffffffff1673ffffffffffffffffffffffffffffffffffffffff1681526020018673ffffffffffffffffffffffffffffffffffffffff1673ffffffffffffffffffffffffffffffffffffffff1681526020018573ffffffffffffffffffffffffffffffffffffffff1673ffffffffffffffffffffffffffffffffffffffff16815260200184815260200183815260200182151515158152602001975050505050505050604051602081830303815290604052907bffffffffffffffffffffffffffffffffffffffffffffffffffffffff19166020820180517bffffffffffffffffffffffffffffffffffffffffffffffffffffffff838183161783525050505090506000610d458383611345565b9050806002600087815260200190815260200160002060006101000a81548173ffffffffffffffffffffffffffffffffffffffff021916908373ffffffffffffffffffffffffffffffffffffffff1602179055506001819080600181540180825580915050600190039060005260206000200160009091909190916101000a81548173ffffffffffffffffffffffffffffffffffffffff021916908373ffffffffffffffffffffffffffffffffffffffff1602179055508373ffffffffffffffffffffffffffffffffffffffff1663ec7127b6826040518263ffffffff1660e01b8152600401808273ffffffffffffffffffffffffffffffffffffffff1673ffffffffffffffffffffffffffffffffffffffff168152602001915050600060405180830381600087803b158015610e7b57600080fd5b505af1158015610e8f573d6000803e3d6000fd5b505050508973ffffffffffffffffffffffffffffffffffffffff168b73ffffffffffffffffffffffffffffffffffffffff168d73ffffffffffffffffffffffffffffffffffffffff167fedf283b0b3396dd34e23a917cb887ad557f18a593be3a2e9c069fd59f19a811a84338e8e8e604051808673ffffffffffffffffffffffffffffffffffffffff1673ffffffffffffffffffffffffffffffffffffffff1681526020018573ffffffffffffffffffffffffffffffffffffffff1673ffffffffffffffffffffffffffffffffffffffff168152602001848152602001838152602001821515151581526020019550505050505060405180910390a480955050505050509695505050505050565b60018181548110610faa57fe5b906000526020600020016000915054906101000a900473ffffffffffffffffffffffffffffffffffffffff1681565b6000809054906101000a900473ffffffffffffffffffffffffffffffffffffffff1681565b6000868686868686604051602001808773ffffffffffffffffffffffffffffffffffffffff1673ffffffffffffffffffffffffffffffffffffffff1660601b81526014018673ffffffffffffffffffffffffffffffffffffffff1673ffffffffffffffffffffffffffffffffffffffff1660601b81526014018573ffffffffffffffffffffffffffffffffffffffff1673ffffffffffffffffffffffffffffffffffffffff1660601b8152601401848152602001838152602001821515151560f81b815260010196505050505050506040516020818303038152906040528051906020012090509695505050505050565b600060606040518060200161110390611905565b6020820181038252601f19601f820116604052508484604051602001808373ffffffffffffffffffffffffffffffffffffffff1673ffffffffffffffffffffffffffffffffffffffff16815260200180602001828103825283818151815260200191508051906020019080838360005b8381101561118e578082015181840152602081019050611173565b50505050905090810190601f1680156111bb5780820380516001836020036101000a031916815260200191505b5093505050506040516020818303038152906040526040516020018083805190602001908083835b6020831061120657805182526020820191506020810190506020830392506111e3565b6001836020036101000a03801982511681845116808217855250505050505090500182805190602001908083835b602083106112575780518252602082019150602081019050602083039250611234565b6001836020036101000a0380198251168184511680821785525050505050509050019250505060405160208183030381529060405290506000818051906020012090506112a76000801b826114fc565b9250505092915050565b60006112f383836040518060400160405280601e81526020017f536166654d6174683a207375627472616374696f6e206f766572666c6f770000815250611511565b905092915050565b600061133d83836040518060400160405280601881526020017f536166654d6174683a206d6f64756c6f206279207a65726f00000000000000008152506115d1565b905092915050565b600060606040518060200161135990611905565b6020820181038252601f19601f820116604052508484604051602001808373ffffffffffffffffffffffffffffffffffffffff1673ffffffffffffffffffffffffffffffffffffffff16815260200180602001828103825283818151815260200191508051906020019080838360005b838110156113e45780820151818401526020810190506113c9565b50505050905090810190601f1680156114115780820380516001836020036101000a031916815260200191505b5093505050506040516020818303038152906040526040516020018083805190602001908083835b6020831061145c5780518252602082019150602081019050602083039250611439565b6001836020036101000a03801982511681845116808217855250505050505090500182805190602001908083835b602083106114ad578051825260208201915060208101905060208303925061148a565b6001836020036101000a0380198251168184511680821785525050505050509050019250505060405160208183030381529060405290506114f360008060001b83611692565b91505092915050565b600061150983833061183c565b905092915050565b60008383111582906115be576040517f08c379a00000000000000000000000000000000000000000000000000000000081526004018080602001828103825283818151815260200191508051906020019080838360005b83811015611583578082015181840152602081019050611568565b50505050905090810190601f1680156115b05780820380516001836020036101000a031916815260200191505b509250505060405180910390fd5b5060008385039050809150509392505050565b600080831415829061167e576040517f08c379a00000000000000000000000000000000000000000000000000000000081526004018080602001828103825283818151815260200191508051906020019080838360005b83811015611643578082015181840152602081019050611628565b50505050905090810190601f1680156116705780820380516001836020036101000a031916815260200191505b509250505060405180910390fd5b5082848161168857fe5b0690509392505050565b6000808447101561170b576040517f08c379a000000000000000000000000000000000000000000000000000000000815260040180806020018281038252601d8152602001807f437265617465323a20696e73756666696369656e742062616c616e636500000081525060200191505060405180910390fd5b600083511415611783576040517f08c379a00000000000000000000000000000000000000000000000000000000081526004018080602001828103825260208152602001807f437265617465323a2062797465636f6465206c656e677468206973207a65726f81525060200191505060405180910390fd5b8383516020850187f59050600073ffffffffffffffffffffffffffffffffffffffff168173ffffffffffffffffffffffffffffffffffffffff161415611831576040517f08c379a00000000000000000000000000000000000000000000000000000000081526004018080602001828103825260198152602001807f437265617465323a204661696c6564206f6e206465706c6f790000000000000081525060200191505060405180910390fd5b809150509392505050565b60008060ff60f81b83868660405160200180857effffffffffffffffffffffffffffffffffffffffffffffffffffffffffffff19167effffffffffffffffffffffffffffffffffffffffffffffffffffffffffffff191681526001018473ffffffffffffffffffffffffffffffffffffffff1673ffffffffffffffffffffffffffffffffffffffff1660601b81526014018381526020018281526020019450505050506040516020818303038152906040528051906020012090508060001c9150509392505050565b610295806119138339019056fe60806040526040516102953803806102958339818101604052604081101561002657600080fd5b81019080805190602001909291908051604051939291908464010000000082111561005057600080fd5b8382019150602082018581111561006657600080fd5b825186600182028301116401000000008211171561008357600080fd5b8083526020830192505050908051906020019080838360005b838110156100b757808201518184015260208101905061009c565b50505050905090810190601f1680156100e45780820380516001836020036101000a031916815260200191505b5060405250505060008273ffffffffffffffffffffffffffffffffffffffff16826040518082805190602001908083835b602083106101385780518252602082019150602081019050602083039250610115565b6001836020036101000a038019825116818451168082178552505050505050905001915050600060405180830381855af49150503d8060008114610198576040519150601f19603f3d011682016040523d82523d6000602084013e61019d565b606091505b50509050806101b0573d6000803e3d6000fd5b606069363d3d373d3d3d363d7360b01b846e5af43d82803e903d91602b57fd5bf360881b604051602001808475ffffffffffffffffffffffffffffffffffffffffffff191675ffffffffffffffffffffffffffffffffffffffffffff19168152600a018373ffffffffffffffffffffffffffffffffffffffff1673ffffffffffffffffffffffffffffffffffffffff1660601b81526014018270ffffffffffffffffffffffffffffffffff191670ffffffffffffffffffffffffffffffffff19168152600f0193505050506040516020818303038152906040529050602d81602001f3fe4f746f6b656e466163746f72793a204f7074696f6e20616c726561647920637265617465644f746f6b656e466163746f72793a2043616e2774206372656174652065787069726564206f7074696f6e4f746f6b656e466163746f72793a20556e737570706f727465642050726f647563744f746f6b656e466163746f72793a2043616e277420637265617465206120243020737472696b6520707574206f7074696f6e4f746f6b656e466163746f72793a2043616e277420637265617465206f7074696f6e207769746820657870697279203e20323334352f31322f33314f746f6b656e466163746f72793a204f7074696f6e2068617320746f206578706972652030383a303020555443a264697066735822122099f272e55d9d7f103265dc4a4a7ea6aa7a72b2e432ca5cf28ee293e395001d8364736f6c634300060a0033",
  "linkReferences": {},
  "deployedLinkReferences": {}
}