{
  "_format": "hh-sol-artifact-1",
  "contractName": "CalleeAllowanceTester",
  "sourceName": "contracts/Gamma/tests/CalleeAllowanceTester.sol",
  "abi": [
    {
      "inputs": [
        {
          "internalType": "address",
          "name": "_weth",
          "type": "address"
        }
      ],
      "stateMutability": "nonpayable",
      "type": "constructor"
    },
    {
      "inputs": [
        {
          "internalType": "address payable",
          "name": "",
          "type": "address"
        },
        {
          "internalType": "bytes",
          "name": "_data",
          "type": "bytes"
        }
      ],
      "name": "callFunction",
      "outputs": [],
      "stateMutability": "nonpayable",
      "type": "function"
    },
    {
      "inputs": [],
      "name": "weth",
      "outputs": [
        {
          "internalType": "contract ERC20Interface",
          "name": "",
          "type": "address"
        }
      ],
      "stateMutability": "view",
      "type": "function"
    }
  ],
  "bytecode": "0x608060405234801561001057600080fd5b506040516109f53803806109f58339818101604052810190610032919061008d565b806000806101000a81548173ffffffffffffffffffffffffffffffffffffffff021916908373ffffffffffffffffffffffffffffffffffffffff160217905550506100ff565b600081519050610087816100e8565b92915050565b60006020828403121561009f57600080fd5b60006100ad84828501610078565b91505092915050565b60006100c1826100c8565b9050919050565b600073ffffffffffffffffffffffffffffffffffffffff82169050919050565b6100f1816100b6565b81146100fc57600080fd5b50565b6108e78061010e6000396000f3fe608060405234801561001057600080fd5b50600436106100365760003560e01c80633fc8cef31461003b5780639c23da5014610059575b600080fd5b610043610075565b6040516100509190610693565b60405180910390f35b610073600480360381019061006e919061044f565b61009a565b005b6000809054906101000a900473ffffffffffffffffffffffffffffffffffffffff1681565b600080828060200190518101906100b191906104a3565b915091506101038230836000809054906101000a900473ffffffffffffffffffffffffffffffffffffffff1673ffffffffffffffffffffffffffffffffffffffff16610109909392919063ffffffff16565b50505050565b61018c846323b872dd60e01b85858560405160240161012a9392919061065c565b604051602081830303815290604052907bffffffffffffffffffffffffffffffffffffffffffffffffffffffff19166020820180517bffffffffffffffffffffffffffffffffffffffffffffffffffffffff8381831617835250505050610192565b50505050565b60606101f4826040518060400160405280602081526020017f5361666545524332303a206c6f772d6c6576656c2063616c6c206661696c65648152508573ffffffffffffffffffffffffffffffffffffffff166102599092919063ffffffff16565b9050600081511115610254578080602001905181019061021491906104df565b610253576040517f08c379a000000000000000000000000000000000000000000000000000000000815260040161024a906106f0565b60405180910390fd5b5b505050565b60606102688484600085610271565b90509392505050565b606061027c85610394565b6102bb576040517f08c379a00000000000000000000000000000000000000000000000000000000081526004016102b2906106d0565b60405180910390fd5b600060608673ffffffffffffffffffffffffffffffffffffffff1685876040516102e59190610645565b60006040518083038185875af1925050503d8060008114610322576040519150601f19603f3d011682016040523d82523d6000602084013e610327565b606091505b5091509150811561033c57809250505061038c565b60008151111561034f5780518082602001fd5b836040517f08c379a000000000000000000000000000000000000000000000000000000000815260040161038391906106ae565b60405180910390fd5b949350505050565b600080823b905060008111915050919050565b6000813590506103b68161086c565b92915050565b6000815190506103cb8161086c565b92915050565b6000815190506103e081610883565b92915050565b600082601f8301126103f757600080fd5b813561040a6104058261073d565b610710565b9150808252602083016020830185838301111561042657600080fd5b610431838284610819565b50505092915050565b6000815190506104498161089a565b92915050565b6000806040838503121561046257600080fd5b6000610470858286016103a7565b925050602083013567ffffffffffffffff81111561048d57600080fd5b610499858286016103e6565b9150509250929050565b600080604083850312156104b657600080fd5b60006104c4858286016103bc565b92505060206104d58582860161043a565b9150509250929050565b6000602082840312156104f157600080fd5b60006104ff848285016103d1565b91505092915050565b6105118161079b565b82525050565b600061052282610769565b61052c818561077f565b935061053c818560208601610828565b80840191505092915050565b610551816107f5565b82525050565b600061056282610774565b61056c818561078a565b935061057c818560208601610828565b6105858161085b565b840191505092915050565b600061059d601d8361078a565b91507f416464726573733a2063616c6c20746f206e6f6e2d636f6e74726163740000006000830152602082019050919050565b60006105dd602a8361078a565b91507f5361666545524332303a204552433230206f7065726174696f6e20646964206e60008301527f6f742073756363656564000000000000000000000000000000000000000000006020830152604082019050919050565b61063f816107eb565b82525050565b60006106518284610517565b915081905092915050565b60006060820190506106716000830186610508565b61067e6020830185610508565b61068b6040830184610636565b949350505050565b60006020820190506106a86000830184610548565b92915050565b600060208201905081810360008301526106c88184610557565b905092915050565b600060208201905081810360008301526106e981610590565b9050919050565b60006020820190508181036000830152610709816105d0565b9050919050565b6000604051905081810181811067ffffffffffffffff8211171561073357600080fd5b8060405250919050565b600067ffffffffffffffff82111561075457600080fd5b601f19601f8301169050602081019050919050565b600081519050919050565b600081519050919050565b600081905092915050565b600082825260208201905092915050565b60006107a6826107cb565b9050919050565b60006107b8826107cb565b9050919050565b60008115159050919050565b600073ffffffffffffffffffffffffffffffffffffffff82169050919050565b6000819050919050565b600061080082610807565b9050919050565b6000610812826107cb565b9050919050565b82818337600083830152505050565b60005b8381101561084657808201518184015260208101905061082b565b83811115610855576000848401525b50505050565b6000601f19601f8301169050919050565b610875816107ad565b811461088057600080fd5b50565b61088c816107bf565b811461089757600080fd5b50565b6108a3816107eb565b81146108ae57600080fd5b5056fea2646970667358221220396d72f0c5b934cfd1c84cd36bf22c7a73ab80a39f3f107bb3bda93fd6562e7b64736f6c634300060a0033",
  "linkReferences": {},
  "deployedLinkReferences": {}
}