{
  "_format": "hh-sol-artifact-1",
  "contractName": "VaultLifecycle",
  "sourceName": "contracts/VaultLifecycle.sol",
  "abi": [
    {
      "inputs": [
        {
          "internalType": "bytes",
          "name": "swapPath",
          "type": "bytes"
        },
        {
          "internalType": "address",
          "name": "validTokenIn",
          "type": "address"
        },
        {
          "internalType": "address",
          "name": "validTokenOut",
          "type": "address"
        },
        {
          "internalType": "address",
          "name": "uniswapFactory",
          "type": "address"
        }
      ],
      "name": "checkPath",
      "outputs": [
        {
          "internalType": "bool",
          "name": "isValidPath",
          "type": "bool"
        }
      ],
      "stateMutability": "view",
      "type": "function"
    },
    {
      "inputs": [
        {
          "internalType": "address",
          "name": "owner",
          "type": "address"
        },
        {
          "internalType": "address",
          "name": "keeper",
          "type": "address"
        },
        {
          "internalType": "address",
          "name": "feeRecipient",
          "type": "address"
        },
        {
          "internalType": "uint256",
          "name": "performanceFee",
          "type": "uint256"
        },
        {
          "internalType": "uint256",
          "name": "managementFee",
          "type": "uint256"
        },
        {
          "internalType": "string",
          "name": "tokenName",
          "type": "string"
        },
        {
          "internalType": "string",
          "name": "tokenSymbol",
          "type": "string"
        },
        {
          "components": [
            {
              "internalType": "bool",
              "name": "isPut",
              "type": "bool"
            },
            {
              "internalType": "uint8",
              "name": "decimals",
              "type": "uint8"
            },
            {
              "internalType": "address",
              "name": "asset",
              "type": "address"
            },
            {
              "internalType": "address",
              "name": "underlying",
              "type": "address"
            },
            {
              "internalType": "uint56",
              "name": "minimumSupply",
              "type": "uint56"
            },
            {
              "internalType": "uint104",
              "name": "cap",
              "type": "uint104"
            }
          ],
          "internalType": "struct Vault.VaultParams",
          "name": "_vaultParams",
          "type": "tuple"
        }
      ],
      "name": "verifyInitializerParams",
      "outputs": [],
      "stateMutability": "pure",
      "type": "function"
    }
  ],
  "bytecode": "0x614953610053600b82828239805160001a607314610046577f4e487b7100000000000000000000000000000000000000000000000000000000600052600060045260246000fd5b30600052607381538281f3fe73000000000000000000000000000000000000000030146080604052600436106100925760003560e01c80637f0f41d7116100655780637f0f41d714610176578063c72733f71461019f578063d342af74146101bb578063d8dfd0fe146101fb57610092565b80632904c2391461009757806355a2bef0146100d457806358ffbb3d14610104578063633c142614610141575b600080fd5b8180156100a357600080fd5b506100be60048036038101906100b99190613062565b610238565b6040516100cb9190613e13565b60405180910390f35b6100ee60048036038101906100e991906132e5565b610a0b565b6040516100fb9190613b56565b60405180910390f35b81801561011057600080fd5b5061012b60048036038101906101269190613026565b610a1a565b6040516101389190613e13565b60405180910390f35b61015b60048036038101906101569190613365565b6111d1565b60405161016d96959493929190613e57565b60405180910390f35b81801561018257600080fd5b5061019d6004803603810190610198919061323c565b611401565b005b6101b960048036038101906101b491906130c5565b611496565b005b8180156101c757600080fd5b506101e260048036038101906101dd91906131b0565b611964565b6040516101f29493929190613aef565b60405180910390f35b81801561020757600080fd5b50610222600480360381019061021d9190612fd4565b611bb2565b60405161022f9190613e13565b60405180910390f35b60008085905060006102dc60018373ffffffffffffffffffffffffffffffffffffffff1663caa6d21a306040518263ffffffff1660e01b815260040161027e9190613a21565b60206040518083038186803b15801561029657600080fd5b505afa1580156102aa573d6000803e3d6000fd5b505050506040513d601f19601f820116820180604052508101906102ce9190613434565b6120df90919063ffffffff16565b9050600085905060008173ffffffffffffffffffffffffffffffffffffffff1663aabaecd66040518163ffffffff1660e01b815260040160206040518083038186803b15801561032b57600080fd5b505afa15801561033f573d6000803e3d6000fd5b505050506040513d601f19601f820116820180604052508101906103639190612ffd565b905060008173ffffffffffffffffffffffffffffffffffffffff1663313ce5676040518163ffffffff1660e01b815260040160206040518083038186803b1580156103ad57600080fd5b505afa1580156103c1573d6000803e3d6000fd5b505050506040513d601f19601f820116820180604052508101906103e591906134c2565b60ff16905060008373ffffffffffffffffffffffffffffffffffffffff1663f3c274a66040518163ffffffff1660e01b8152600401602060405180830381600087803b15801561043457600080fd5b505af1158015610448573d6000803e3d6000fd5b505050506040513d601f19601f8201168201806040525081019061046c91906132bc565b1561056d5761056661051e83600a6104849190613fb1565b600a610490919061408b565b8673ffffffffffffffffffffffffffffffffffffffff1663c52987cf6040518163ffffffff1660e01b8152600401602060405180830381600087803b1580156104d857600080fd5b505af11580156104ec573d6000803e3d6000fd5b505050506040513d601f19601f820116820180604052508101906105109190613434565b6120f590919063ffffffff16565b610558670de0b6b3a764000061054a6008600a61053b919061408b565b8d6120f590919063ffffffff16565b6120f590919063ffffffff16565b61210b90919063ffffffff16565b90506105be565b87905060088211156105bd57600061058f60088461212190919063ffffffff16565b600a61059b919061408b565b9050808211156105bb576105b8818a61210b90919063ffffffff16565b91505b505b5b60008390506105ee8b8a8373ffffffffffffffffffffffffffffffffffffffff166121379092919063ffffffff16565b6000600367ffffffffffffffff811115610631577f4e487b7100000000000000000000000000000000000000000000000000000000600052604160045260246000fd5b60405190808252806020026020018201604052801561066a57816020015b610657612b49565b81526020019060019003908161064f5790505b5090506040518061010001604052806000600a8111156106b3577f4e487b7100000000000000000000000000000000000000000000000000000000600052602160045260246000fd5b81526020013073ffffffffffffffffffffffffffffffffffffffff1681526020013073ffffffffffffffffffffffffffffffffffffffff168152602001600073ffffffffffffffffffffffffffffffffffffffff1681526020018881526020016000815260200160008152602001604051806020016040528060008152508152508160008151811061076e577f4e487b7100000000000000000000000000000000000000000000000000000000600052603260045260246000fd5b60200260200101819052506040518061010001604052806005600a8111156107bf577f4e487b7100000000000000000000000000000000000000000000000000000000600052602160045260246000fd5b81526020013073ffffffffffffffffffffffffffffffffffffffff1681526020013073ffffffffffffffffffffffffffffffffffffffff1681526020018673ffffffffffffffffffffffffffffffffffffffff1681526020018881526020018b8152602001600081526020016040518060200160405280600081525081525081600181518110610878577f4e487b7100000000000000000000000000000000000000000000000000000000600052603260045260246000fd5b60200260200101819052506040518061010001604052806001600a8111156108c9577f4e487b7100000000000000000000000000000000000000000000000000000000600052602160045260246000fd5b81526020013073ffffffffffffffffffffffffffffffffffffffff1681526020013073ffffffffffffffffffffffffffffffffffffffff1681526020018c73ffffffffffffffffffffffffffffffffffffffff168152602001888152602001848152602001600081526020016040518060200160405280600081525081525081600281518110610982577f4e487b7100000000000000000000000000000000000000000000000000000000600052603260045260246000fd5b60200260200101819052508773ffffffffffffffffffffffffffffffffffffffff1663b617f0c6826040518263ffffffff1660e01b81526004016109c69190613b34565b600060405180830381600087803b1580156109e057600080fd5b505af11580156109f4573d6000803e3d6000fd5b505050508298505050505050505050949350505050565b60006001905095945050505050565b6000808273ffffffffffffffffffffffffffffffffffffffff166370a08231306040518263ffffffff1660e01b8152600401610a569190613a21565b60206040518083038186803b158015610a6e57600080fd5b505afa158015610a82573d6000803e3d6000fd5b505050506040513d601f19601f82011682018060405250810190610aa69190613434565b905060008111610aeb576040517f08c379a0000000000000000000000000000000000000000000000000000000008152600401610ae290613bb3565b60405180910390fd5b600084905060008173ffffffffffffffffffffffffffffffffffffffff1663caa6d21a306040518263ffffffff1660e01b8152600401610b2b9190613a21565b60206040518083038186803b158015610b4357600080fd5b505afa158015610b57573d6000803e3d6000fd5b505050506040513d601f19601f82011682018060405250810190610b7b9190613434565b905060008273ffffffffffffffffffffffffffffffffffffffff1663d99d13f530846040518363ffffffff1660e01b8152600401610bba929190613ac6565b60006040518083038186803b158015610bd257600080fd5b505afa158015610be6573d6000803e3d6000fd5b505050506040513d6000823e3d601f19601f82011682018060405250810190610c0f91906133a1565b9050600081600001515111610c59576040517f08c379a0000000000000000000000000000000000000000000000000000000008152600401610c5090613d13565b60405180910390fd5b60008160200151600081518110610c99577f4e487b7100000000000000000000000000000000000000000000000000000000600052603260045260246000fd5b6020026020010151905060008173ffffffffffffffffffffffffffffffffffffffff166370a08231306040518263ffffffff1660e01b8152600401610cde9190613a21565b60206040518083038186803b158015610cf657600080fd5b505afa158015610d0a573d6000803e3d6000fd5b505050506040513d601f19601f82011682018060405250810190610d2e9190613434565b90506000600267ffffffffffffffff811115610d73577f4e487b7100000000000000000000000000000000000000000000000000000000600052604160045260246000fd5b604051908082528060200260200182016040528015610dac57816020015b610d99612b49565b815260200190600190039081610d915790505b5090506040518061010001604052806002600a811115610df5577f4e487b7100000000000000000000000000000000000000000000000000000000600052602160045260246000fd5b81526020013073ffffffffffffffffffffffffffffffffffffffff1681526020013073ffffffffffffffffffffffffffffffffffffffff1681526020018560000151600081518110610e70577f4e487b7100000000000000000000000000000000000000000000000000000000600052603260045260246000fd5b602002602001015173ffffffffffffffffffffffffffffffffffffffff168152602001868152602001888152602001600081526020016040518060200160405280600081525081525081600081518110610ef3577f4e487b7100000000000000000000000000000000000000000000000000000000600052603260045260246000fd5b60200260200101819052506040518061010001604052806006600a811115610f44577f4e487b7100000000000000000000000000000000000000000000000000000000600052602160045260246000fd5b81526020013073ffffffffffffffffffffffffffffffffffffffff1681526020013073ffffffffffffffffffffffffffffffffffffffff1681526020018473ffffffffffffffffffffffffffffffffffffffff1681526020018681526020016110528660600151600081518110610fe4577f4e487b7100000000000000000000000000000000000000000000000000000000600052603260045260246000fd5b60200260200101516110448b896040015160008151811061102e577f4e487b7100000000000000000000000000000000000000000000000000000000600052603260045260246000fd5b60200260200101516120f590919063ffffffff16565b61210b90919063ffffffff16565b81526020016000815260200160405180602001604052806000815250815250816001815181106110ab577f4e487b7100000000000000000000000000000000000000000000000000000000600052603260045260246000fd5b60200260200101819052508573ffffffffffffffffffffffffffffffffffffffff1663b617f0c6826040518263ffffffff1660e01b81526004016110ef9190613b34565b600060405180830381600087803b15801561110957600080fd5b505af115801561111d573d6000803e3d6000fd5b5050505060008373ffffffffffffffffffffffffffffffffffffffff166370a08231306040518263ffffffff1660e01b815260040161115c9190613a21565b60206040518083038186803b15801561117457600080fd5b505afa158015611188573d6000803e3d6000fd5b505050506040513d601f19601f820116820180604052508101906111ac9190613434565b90506111c1838261212190919063ffffffff16565b9850505050505050505092915050565b60008060008060008060008760200135905060008960010160009054906101000a90046fffffffffffffffffffffffffffffffff166fffffffffffffffffffffffffffffffff16905060008a60010160109054906101000a90046fffffffffffffffffffffffffffffffff166fffffffffffffffffffffffffffffffff1690506000806112688c6040013586868f6000013561219c565b90506000808d604001351161127e57600061128e565b61128d84838f600001356121ff565b5b905060008d6060013582116112a45760006112bc565b6112bb8e606001358361212190919063ffffffff16565b5b90506112e3816112d5848a61212190919063ffffffff16565b6120df90919063ffffffff16565b935050505061135b818d600001600f9054906101000a90046cffffffffffffffffffffffffff166cffffffffffffffffffffffffff168e60010160009054906101000a90046fffffffffffffffffffffffffffffffff166fffffffffffffffffffffffffffffffff168e608001358f60a0013561227e565b90508096508197505050611378858561212190919063ffffffff16565b935061138e8b6040013585858e6000013561219c565b975061139f83898d60000135612381565b965060006113ba888d604001356120df90919063ffffffff16565b9050600081116113cb5760006113db565b6113da838a8e600001356121ff565b5b9950506113f1898561212190919063ffffffff16565b9950505050509295509295509295565b60008573ffffffffffffffffffffffffffffffffffffffff166370a08231306040518263ffffffff1660e01b815260040161143c9190613a21565b60206040518083038186803b15801561145457600080fd5b505afa158015611468573d6000803e3d6000fd5b505050506040513d601f19601f8201168201806040525081019061148c9190613434565b9050505050505050565b600073ffffffffffffffffffffffffffffffffffffffff168a73ffffffffffffffffffffffffffffffffffffffff161415611506576040517f08c379a00000000000000000000000000000000000000000000000000000000081526004016114fd90613df3565b60405180910390fd5b600073ffffffffffffffffffffffffffffffffffffffff168973ffffffffffffffffffffffffffffffffffffffff161415611576576040517f08c379a000000000000000000000000000000000000000000000000000000000815260040161156d90613c53565b60405180910390fd5b600073ffffffffffffffffffffffffffffffffffffffff168873ffffffffffffffffffffffffffffffffffffffff1614156115e6576040517f08c379a00000000000000000000000000000000000000000000000000000000081526004016115dd90613c73565b60405180910390fd5b620f424060646115f691906141a9565b8710611637576040517f08c379a000000000000000000000000000000000000000000000000000000000815260040161162e90613bd3565b60405180910390fd5b620f4240606461164791906141a9565b8610611688576040517f08c379a000000000000000000000000000000000000000000000000000000000815260040161167f90613c93565b60405180910390fd5b600085859050116116ce576040517f08c379a00000000000000000000000000000000000000000000000000000000081526004016116c590613cd3565b60405180910390fd5b60008383905011611714576040517f08c379a000000000000000000000000000000000000000000000000000000000815260040161170b90613b93565b60405180910390fd5b600073ffffffffffffffffffffffffffffffffffffffff1681604001602081019061173f9190612fd4565b73ffffffffffffffffffffffffffffffffffffffff161415611796576040517f08c379a000000000000000000000000000000000000000000000000000000000815260040161178d90613d53565b60405180910390fd5b600073ffffffffffffffffffffffffffffffffffffffff168160600160208101906117c19190612fd4565b73ffffffffffffffffffffffffffffffffffffffff161415611818576040517f08c379a000000000000000000000000000000000000000000000000000000000815260040161180f90613db3565b60405180910390fd5b600081608001602081019061182d9190613499565b66ffffffffffffff1611611876576040517f08c379a000000000000000000000000000000000000000000000000000000000815260040161186d90613d73565b60405180910390fd5b60008160a001602081019061188b91906133e2565b6cffffffffffffffffffffffffff16116118da576040517f08c379a00000000000000000000000000000000000000000000000000000000081526004016118d190613c33565b60405180910390fd5b8060800160208101906118ed9190613499565b66ffffffffffffff168160a001602081019061190991906133e2565b6cffffffffffffffffffffffffff1611611958576040517f08c379a000000000000000000000000000000000000000000000000000000000815260040161194f90613bf3565b60405180910390fd5b50505050505050505050565b60008060008060006119878860400160208101906119829190612fd4565b612400565b905060008b905060008860000160009054906101000a900460ff16905060008960010160009054906101000a900473ffffffffffffffffffffffffffffffffffffffff16905060008a60000160029054906101000a900473ffffffffffffffffffffffffffffffffffffffff1690508960000160009054906101000a900461ffff1661ffff168c6080016020810190611a20919061340b565b61ffff1614611ab8578373ffffffffffffffffffffffffffffffffffffffff1663e436b89186856040518363ffffffff1660e01b8152600401611a64929190613e2e565b604080518083038186803b158015611a7b57600080fd5b505afa158015611a8f573d6000803e3d6000fd5b505050506040513d601f19601f82011682018060405250810190611ab3919061345d565b611b3c565b8b60a001358473ffffffffffffffffffffffffffffffffffffffff166312b495a86040518163ffffffff1660e01b815260040160206040518083038186803b158015611b0357600080fd5b505afa158015611b17573d6000803e3d6000fd5b505050506040513d601f19601f82011682018060405250810190611b3b9190613434565b5b80975081985050506000871415611b88576040517f08c379a0000000000000000000000000000000000000000000000000000000008152600401611b7f90613cf3565b60405180910390fd5b611b978c8c84848b8a89612501565b98508860009850985050505050509650965096509692505050565b60008082905060008173ffffffffffffffffffffffffffffffffffffffff1663caa6d21a306040518263ffffffff1660e01b8152600401611bf39190613a21565b60206040518083038186803b158015611c0b57600080fd5b505afa158015611c1f573d6000803e3d6000fd5b505050506040513d601f19601f82011682018060405250810190611c439190613434565b905060008273ffffffffffffffffffffffffffffffffffffffff1663d99d13f530846040518363ffffffff1660e01b8152600401611c82929190613ac6565b60006040518083038186803b158015611c9a57600080fd5b505afa158015611cae573d6000803e3d6000fd5b505050506040513d6000823e3d601f19601f82011682018060405250810190611cd791906133a1565b9050600081600001515111611d21576040517f08c379a0000000000000000000000000000000000000000000000000000000008152600401611d1890613d13565b60405180910390fd5b60008160200151600081518110611d61577f4e487b7100000000000000000000000000000000000000000000000000000000600052603260045260246000fd5b60200260200101519050600073ffffffffffffffffffffffffffffffffffffffff168173ffffffffffffffffffffffffffffffffffffffff161415611dad5760009450505050506120da565b60008173ffffffffffffffffffffffffffffffffffffffff166370a08231306040518263ffffffff1660e01b8152600401611de89190613a21565b60206040518083038186803b158015611e0057600080fd5b505afa158015611e14573d6000803e3d6000fd5b505050506040513d601f19601f82011682018060405250810190611e389190613434565b90506000600167ffffffffffffffff811115611e7d577f4e487b7100000000000000000000000000000000000000000000000000000000600052604160045260246000fd5b604051908082528060200260200182016040528015611eb657816020015b611ea3612b49565b815260200190600190039081611e9b5790505b5090506040518061010001604052806007600a811115611eff577f4e487b7100000000000000000000000000000000000000000000000000000000600052602160045260246000fd5b81526020013073ffffffffffffffffffffffffffffffffffffffff1681526020013073ffffffffffffffffffffffffffffffffffffffff168152602001600073ffffffffffffffffffffffffffffffffffffffff16815260200186815260200160008152602001600081526020016040518060200160405280600081525081525081600081518110611fba577f4e487b7100000000000000000000000000000000000000000000000000000000600052603260045260246000fd5b60200260200101819052508573ffffffffffffffffffffffffffffffffffffffff1663b617f0c6826040518263ffffffff1660e01b8152600401611ffe9190613b34565b600060405180830381600087803b15801561201857600080fd5b505af115801561202c573d6000803e3d6000fd5b5050505060008373ffffffffffffffffffffffffffffffffffffffff166370a08231306040518263ffffffff1660e01b815260040161206b9190613a21565b60206040518083038186803b15801561208357600080fd5b505afa158015612097573d6000803e3d6000fd5b505050506040513d601f19601f820116820180604052508101906120bb9190613434565b90506120d0838261212190919063ffffffff16565b9750505050505050505b919050565b600081836120ed9190613fb1565b905092915050565b6000818361210391906141a9565b905092915050565b600081836121199190614007565b905092915050565b6000818361212f9190614203565b905092915050565b73dac17f958d2ee523a2206206994597c13d831ec773ffffffffffffffffffffffffffffffffffffffff168373ffffffffffffffffffffffffffffffffffffffff16141561218c5761218b838360006126bd565b5b6121978383836126bd565b505050565b60008082600a6121ac919061408b565b9050600086116121bc57806121f4565b6121f3866121e56121d6878961212190919063ffffffff16565b846120f590919063ffffffff16565b61210b90919063ffffffff16565b5b915050949350505050565b600060018311612244576040517f08c379a000000000000000000000000000000000000000000000000000000000815260040161223b90613cb3565b60405180910390fd5b61227582600a612254919061408b565b61226785876120f590919063ffffffff16565b61210b90919063ffffffff16565b90509392505050565b6000806000808689116122925760006122a6565b6122a5878a61212190919063ffffffff16565b5b905060008060008a84111561236957600089116122c457600061230b565b61230a620f424060646122d791906141a9565b6122fc8b6122ee8f8961212190919063ffffffff16565b6120f590919063ffffffff16565b61210b90919063ffffffff16565b5b92506000881161231c576000612351565b612350620f4240606461232f91906141a9565b6123428a876120f590919063ffffffff16565b61210b90919063ffffffff16565b5b915061236682846120df90919063ffffffff16565b90505b82828296509650965050505050955095509592505050565b6000600183116123c6576040517f08c379a00000000000000000000000000000000000000000000000000000000081526004016123bd90613cb3565b60405180910390fd5b6123f7836123e984600a6123da919061408b565b876120f590919063ffffffff16565b61210b90919063ffffffff16565b90509392505050565b60008073ffffffffffffffffffffffffffffffffffffffff168273ffffffffffffffffffffffffffffffffffffffff1614156124465761243f4261281b565b90506124fc565b60008273ffffffffffffffffffffffffffffffffffffffff1663ade6e2aa6040518163ffffffff1660e01b815260040160206040518083038186803b15801561248e57600080fd5b505afa1580156124a2573d6000803e3d6000fd5b505050506040513d601f19601f820116820180604052508101906124c69190613434565b905062093a80816124d79190613fb1565b4211156124ef576124e74261281b565b9150506124fc565b6124f88161281b565b9150505b919050565b6000808860000160208101906125179190612fd4565b905060008173ffffffffffffffffffffffffffffffffffffffff166311547054898c602001602081019061254b9190612fd4565b8a8a8a8a6040518763ffffffff1660e01b815260040161257096959493929190613a65565b60206040518083038186803b15801561258857600080fd5b505afa15801561259c573d6000803e3d6000fd5b505050506040513d601f19601f820116820180604052508101906125c09190612ffd565b9050600073ffffffffffffffffffffffffffffffffffffffff168173ffffffffffffffffffffffffffffffffffffffff16146126005780925050506126b2565b60008273ffffffffffffffffffffffffffffffffffffffff1663c09746308a8d60200160208101906126329190612fd4565b8b8b8b8b6040518763ffffffff1660e01b815260040161265796959493929190613a65565b602060405180830381600087803b15801561267157600080fd5b505af1158015612685573d6000803e3d6000fd5b505050506040513d601f19601f820116820180604052508101906126a99190612ffd565b90508093505050505b979650505050505050565b6000811480612756575060008373ffffffffffffffffffffffffffffffffffffffff1663dd62ed3e30856040518363ffffffff1660e01b8152600401612704929190613a3c565b60206040518083038186803b15801561271c57600080fd5b505afa158015612730573d6000803e3d6000fd5b505050506040513d601f19601f820116820180604052508101906127549190613434565b145b612795576040517f08c379a000000000000000000000000000000000000000000000000000000000815260040161278c90613dd3565b60405180910390fd5b6128168363095ea7b360e01b84846040516024016127b4929190613ac6565b604051602081830303815290604052907bffffffffffffffffffffffffffffffffffffffffffffffffffffffff19166020820180517bffffffffffffffffffffffffffffffffffffffffffffffffffffffff83818316178352505050506128cc565b505050565b6000806007600462015180856128319190614007565b61283b9190613fb1565b6128459190614363565b9050600062015180600783600c61285c9190614203565b6128669190614363565b61287091906141a9565b8461287b9190613fb1565b9050600061708062015180836128919190614363565b8361289c9190614203565b6128a69190613fb1565b90508085106128c15762093a80816128be9190613fb1565b90505b809350505050919050565b600061292e826040518060400160405280602081526020017f5361666545524332303a206c6f772d6c6576656c2063616c6c206661696c65648152508573ffffffffffffffffffffffffffffffffffffffff166129939092919063ffffffff16565b905060008151111561298e578080602001905181019061294e91906132bc565b61298d576040517f08c379a000000000000000000000000000000000000000000000000000000000815260040161298490613d93565b60405180910390fd5b5b505050565b60606129a284846000856129ab565b90509392505050565b6060824710156129f0576040517f08c379a00000000000000000000000000000000000000000000000000000000081526004016129e790613c13565b60405180910390fd5b6129f985612abf565b612a38576040517f08c379a0000000000000000000000000000000000000000000000000000000008152600401612a2f90613d33565b60405180910390fd5b6000808673ffffffffffffffffffffffffffffffffffffffff168587604051612a619190613a0a565b60006040518083038185875af1925050503d8060008114612a9e576040519150601f19603f3d011682016040523d82523d6000602084013e612aa3565b606091505b5091509150612ab3828286612ae2565b92505050949350505050565b6000808273ffffffffffffffffffffffffffffffffffffffff163b119050919050565b60608315612af257829050612b42565b600083511115612b055782518084602001fd5b816040517f08c379a0000000000000000000000000000000000000000000000000000000008152600401612b399190613b71565b60405180910390fd5b9392505050565b6040518061010001604052806000600a811115612b8f577f4e487b7100000000000000000000000000000000000000000000000000000000600052602160045260246000fd5b8152602001600073ffffffffffffffffffffffffffffffffffffffff168152602001600073ffffffffffffffffffffffffffffffffffffffff168152602001600073ffffffffffffffffffffffffffffffffffffffff168152602001600081526020016000815260200160008152602001606081525090565b6000612c1b612c1684613edd565b613eb8565b90508083825260208201905082856020860282011115612c3a57600080fd5b60005b85811015612c6a5781612c508882612cf5565b845260208401935060208301925050600181019050612c3d565b5050509392505050565b6000612c87612c8284613f09565b613eb8565b90508083825260208201905082856020860282011115612ca657600080fd5b60005b85811015612cd65781612cbc8882612f95565b845260208401935060208301925050600181019050612ca9565b5050509392505050565b600081359050612cef8161484e565b92915050565b600081519050612d048161484e565b92915050565b600082601f830112612d1b57600080fd5b8151612d2b848260208601612c08565b91505092915050565b600082601f830112612d4557600080fd5b8151612d55848260208601612c74565b91505092915050565b600081519050612d6d81614865565b92915050565b60008083601f840112612d8557600080fd5b8235905067ffffffffffffffff811115612d9e57600080fd5b602083019150836001820283011115612db657600080fd5b9250929050565b60008083601f840112612dcf57600080fd5b8235905067ffffffffffffffff811115612de857600080fd5b602083019150836001820283011115612e0057600080fd5b9250929050565b600060c08284031215612e1957600080fd5b81905092915050565b600060c08284031215612e3457600080fd5b81905092915050565b600060c08284031215612e4f57600080fd5b81905092915050565b600081359050612e678161487c565b92915050565b600081359050612e7c81614893565b92915050565b600060808284031215612e9457600080fd5b612e9e6080613eb8565b9050600082015167ffffffffffffffff811115612eba57600080fd5b612ec684828501612d0a565b600083015250602082015167ffffffffffffffff811115612ee657600080fd5b612ef284828501612d0a565b602083015250604082015167ffffffffffffffff811115612f1257600080fd5b612f1e84828501612d34565b604083015250606082015167ffffffffffffffff811115612f3e57600080fd5b612f4a84828501612d34565b60608301525092915050565b600081359050612f65816148aa565b92915050565b600081359050612f7a816148c1565b92915050565b600081359050612f8f816148d8565b92915050565b600081519050612fa4816148d8565b92915050565b600081359050612fb9816148ef565b92915050565b600081519050612fce81614906565b92915050565b600060208284031215612fe657600080fd5b6000612ff484828501612ce0565b91505092915050565b60006020828403121561300f57600080fd5b600061301d84828501612cf5565b91505092915050565b6000806040838503121561303957600080fd5b600061304785828601612ce0565b925050602061305885828601612ce0565b9150509250929050565b6000806000806080858703121561307857600080fd5b600061308687828801612ce0565b945050602061309787828801612ce0565b93505060406130a887828801612ce0565b92505060606130b987828801612f80565b91505092959194509250565b6000806000806000806000806000806101a08b8d0312156130e557600080fd5b60006130f38d828e01612ce0565b9a505060206131048d828e01612ce0565b99505060406131158d828e01612ce0565b98505060606131268d828e01612f80565b97505060806131378d828e01612f80565b96505060a08b013567ffffffffffffffff81111561315457600080fd5b6131608d828e01612dbd565b955095505060c08b013567ffffffffffffffff81111561317f57600080fd5b61318b8d828e01612dbd565b935093505060e061319e8d828e01612e3d565b9150509295989b9194979a5092959850565b60008060008060008061016087890312156131ca57600080fd5b60006131d889828a01612ce0565b96505060206131e989828a01612ce0565b95505060406131fa89828a01612f80565b945050606061320b89828a01612e07565b93505061012061321d89828a01612e58565b92505061014061322f89828a01612e6d565b9150509295509295509295565b60008060008060006080868803121561325457600080fd5b600061326288828901612ce0565b955050602061327388828901612f80565b945050604061328488828901612ce0565b935050606086013567ffffffffffffffff8111156132a157600080fd5b6132ad88828901612d73565b92509250509295509295909350565b6000602082840312156132ce57600080fd5b60006132dc84828501612d5e565b91505092915050565b6000806000806000608086880312156132fd57600080fd5b600086013567ffffffffffffffff81111561331757600080fd5b61332388828901612d73565b9550955050602061333688828901612ce0565b935050604061334788828901612ce0565b925050606061335888828901612ce0565b9150509295509295909350565b60008060e0838503121561337857600080fd5b600061338685828601612e6d565b925050602061339785828601612e22565b9150509250929050565b6000602082840312156133b357600080fd5b600082015167ffffffffffffffff8111156133cd57600080fd5b6133d984828501612e82565b91505092915050565b6000602082840312156133f457600080fd5b600061340284828501612f56565b91505092915050565b60006020828403121561341d57600080fd5b600061342b84828501612f6b565b91505092915050565b60006020828403121561344657600080fd5b600061345484828501612f95565b91505092915050565b6000806040838503121561347057600080fd5b600061347e85828601612f95565b925050602061348f85828601612f95565b9150509250929050565b6000602082840312156134ab57600080fd5b60006134b984828501612faa565b91505092915050565b6000602082840312156134d457600080fd5b60006134e284828501612fbf565b91505092915050565b60006134f7838361392d565b905092915050565b61350881614237565b82525050565b61351781614237565b82525050565b61352681614237565b82525050565b600061353782613f45565b6135418185613f73565b93508360208202850161355385613f35565b8060005b8581101561358f578484038952815161357085826134eb565b945061357b83613f66565b925060208a01995050600181019050613557565b50829750879550505050505092915050565b6135aa81614249565b82525050565b6135b981614249565b82525050565b60006135ca82613f50565b6135d48185613f84565b93506135e48185602086016142ff565b6135ed81614450565b840191505092915050565b600061360382613f50565b61360d8185613f95565b935061361d8185602086016142ff565b80840191505092915050565b613632816142ed565b82525050565b600061364382613f5b565b61364d8185613fa0565b935061365d8185602086016142ff565b61366681614450565b840191505092915050565b600061367e600c83613fa0565b91506136898261446e565b602082019050919050565b60006136a1601283613fa0565b91506136ac82614497565b602082019050919050565b60006136c4601683613fa0565b91506136cf826144c0565b602082019050919050565b60006136e7602783613fa0565b91506136f2826144e9565b604082019050919050565b600061370a602683613fa0565b915061371582614538565b604082019050919050565b600061372d600483613fa0565b915061373882614587565b602082019050919050565b6000613750600783613fa0565b915061375b826145b0565b602082019050919050565b6000613773600d83613fa0565b915061377e826145d9565b602082019050919050565b6000613796601583613fa0565b91506137a182614602565b602082019050919050565b60006137b9601583613fa0565b91506137c48261462b565b602082019050919050565b60006137dc600a83613fa0565b91506137e782614654565b602082019050919050565b60006137ff600c83613fa0565b915061380a8261467d565b602082019050919050565b6000613822600883613fa0565b915061382d826146a6565b602082019050919050565b6000613845601d83613fa0565b9150613850826146cf565b602082019050919050565b6000613868600683613fa0565b9150613873826146f8565b602082019050919050565b600061388b600e83613fa0565b915061389682614721565b602082019050919050565b60006138ae602a83613fa0565b91506138b98261474a565b604082019050919050565b60006138d1600b83613fa0565b91506138dc82614799565b602082019050919050565b60006138f4603683613fa0565b91506138ff826147c2565b604082019050919050565b6000613917600683613fa0565b915061392282614811565b602082019050919050565b6000610100830160008301516139466000860182613629565b50602083015161395960208601826134ff565b50604083015161396c60408601826134ff565b50606083015161397f60608601826134ff565b50608083015161399260808601826139dd565b5060a08301516139a560a08601826139dd565b5060c08301516139b860c08601826139dd565b5060e083015184820360e08601526139d082826135bf565b9150508091505092915050565b6139e6816142c3565b82525050565b6139f5816142c3565b82525050565b613a04816142c3565b82525050565b6000613a1682846135f8565b915081905092915050565b6000602082019050613a36600083018461350e565b92915050565b6000604082019050613a51600083018561350e565b613a5e602083018461350e565b9392505050565b600060c082019050613a7a600083018961350e565b613a87602083018861350e565b613a94604083018761350e565b613aa160608301866139ec565b613aae60808301856139ec565b613abb60a08301846135a1565b979650505050505050565b6000604082019050613adb600083018561350e565b613ae860208301846139ec565b9392505050565b6000608082019050613b04600083018761351d565b613b1160208301866139fb565b613b1e60408301856139fb565b613b2b60608301846139fb565b95945050505050565b60006020820190508181036000830152613b4e818461352c565b905092915050565b6000602082019050613b6b60008301846135b0565b92915050565b60006020820190508181036000830152613b8b8184613638565b905092915050565b60006020820190508181036000830152613bac81613671565b9050919050565b60006020820190508181036000830152613bcc81613694565b9050919050565b60006020820190508181036000830152613bec816136b7565b9050919050565b60006020820190508181036000830152613c0c816136da565b9050919050565b60006020820190508181036000830152613c2c816136fd565b9050919050565b60006020820190508181036000830152613c4c81613720565b9050919050565b60006020820190508181036000830152613c6c81613743565b9050919050565b60006020820190508181036000830152613c8c81613766565b9050919050565b60006020820190508181036000830152613cac81613789565b9050919050565b60006020820190508181036000830152613ccc816137ac565b9050919050565b60006020820190508181036000830152613cec816137cf565b9050919050565b60006020820190508181036000830152613d0c816137f2565b9050919050565b60006020820190508181036000830152613d2c81613815565b9050919050565b60006020820190508181036000830152613d4c81613838565b9050919050565b60006020820190508181036000830152613d6c8161385b565b9050919050565b60006020820190508181036000830152613d8c8161387e565b9050919050565b60006020820190508181036000830152613dac816138a1565b9050919050565b60006020820190508181036000830152613dcc816138c4565b9050919050565b60006020820190508181036000830152613dec816138e7565b9050919050565b60006020820190508181036000830152613e0c8161390a565b9050919050565b6000602082019050613e2860008301846139fb565b92915050565b6000604082019050613e4360008301856139ec565b613e5060208301846135a1565b9392505050565b600060c082019050613e6c60008301896139fb565b613e7960208301886139fb565b613e8660408301876139fb565b613e9360608301866139fb565b613ea060808301856139fb565b613ead60a08301846139fb565b979650505050505050565b6000613ec2613ed3565b9050613ece8282614332565b919050565b6000604051905090565b600067ffffffffffffffff821115613ef857613ef7614421565b5b602082029050602081019050919050565b600067ffffffffffffffff821115613f2457613f23614421565b5b602082029050602081019050919050565b6000819050602082019050919050565b600081519050919050565b600081519050919050565b600081519050919050565b6000602082019050919050565b600082825260208201905092915050565b600082825260208201905092915050565b600081905092915050565b600082825260208201905092915050565b6000613fbc826142c3565b9150613fc7836142c3565b9250827fffffffffffffffffffffffffffffffffffffffffffffffffffffffffffffffff03821115613ffc57613ffb614394565b5b828201905092915050565b6000614012826142c3565b915061401d836142c3565b92508261402d5761402c6143c3565b5b828204905092915050565b6000808291508390505b60018511156140825780860481111561405e5761405d614394565b5b600185161561406d5780820291505b808102905061407b85614461565b9450614042565b94509492505050565b6000614096826142c3565b91506140a1836142c3565b92506140ce7fffffffffffffffffffffffffffffffffffffffffffffffffffffffffffffffff84846140d6565b905092915050565b6000826140e657600190506141a2565b816140f457600090506141a2565b816001811461410a576002811461411457614143565b60019150506141a2565b60ff84111561412657614125614394565b5b8360020a91508482111561413d5761413c614394565b5b506141a2565b5060208310610133831016604e8410600b84101617156141785782820a90508381111561417357614172614394565b5b6141a2565b6141858484846001614038565b9250905081840481111561419c5761419b614394565b5b81810290505b9392505050565b60006141b4826142c3565b91506141bf836142c3565b9250817fffffffffffffffffffffffffffffffffffffffffffffffffffffffffffffffff04831182151516156141f8576141f7614394565b5b828202905092915050565b600061420e826142c3565b9150614219836142c3565b92508282101561422c5761422b614394565b5b828203905092915050565b6000614242826142a3565b9050919050565b60008115159050919050565b60008190506142638261483a565b919050565b6000819050919050565b6000819050919050565b60006cffffffffffffffffffffffffff82169050919050565b600061ffff82169050919050565b600073ffffffffffffffffffffffffffffffffffffffff82169050919050565b6000819050919050565b600066ffffffffffffff82169050919050565b600060ff82169050919050565b60006142f882614255565b9050919050565b60005b8381101561431d578082015181840152602081019050614302565b8381111561432c576000848401525b50505050565b61433b82614450565b810181811067ffffffffffffffff8211171561435a57614359614421565b5b80604052505050565b600061436e826142c3565b9150614379836142c3565b925082614389576143886143c3565b5b828206905092915050565b7f4e487b7100000000000000000000000000000000000000000000000000000000600052601160045260246000fd5b7f4e487b7100000000000000000000000000000000000000000000000000000000600052601260045260246000fd5b7f4e487b7100000000000000000000000000000000000000000000000000000000600052602160045260246000fd5b7f4e487b7100000000000000000000000000000000000000000000000000000000600052604160045260246000fd5b6000601f19601f8301169050919050565b60008160011c9050919050565b7f21746f6b656e53796d626f6c0000000000000000000000000000000000000000600082015250565b7f4e6f206f546f6b656e7320746f206275726e0000000000000000000000000000600082015250565b7f706572666f726d616e6365466565203e3d203130302500000000000000000000600082015250565b7f6361702068617320746f20626520686967686572207468616e206d696e696d7560008201527f6d537570706c7900000000000000000000000000000000000000000000000000602082015250565b7f416464726573733a20696e73756666696369656e742062616c616e636520666f60008201527f722063616c6c0000000000000000000000000000000000000000000000000000602082015250565b7f2163617000000000000000000000000000000000000000000000000000000000600082015250565b7f216b656570657200000000000000000000000000000000000000000000000000600082015250565b7f21666565526563697069656e7400000000000000000000000000000000000000600082015250565b7f6d616e6167656d656e74466565203e3d20313030250000000000000000000000600082015250565b7f496e76616c696420617373657450657253686172650000000000000000000000600082015250565b7f21746f6b656e4e616d6500000000000000000000000000000000000000000000600082015250565b7f21737472696b6550726963650000000000000000000000000000000000000000600082015250565b7f4e6f2073686f7274000000000000000000000000000000000000000000000000600082015250565b7f416464726573733a2063616c6c20746f206e6f6e2d636f6e7472616374000000600082015250565b7f2161737365740000000000000000000000000000000000000000000000000000600082015250565b7f216d696e696d756d537570706c79000000000000000000000000000000000000600082015250565b7f5361666545524332303a204552433230206f7065726174696f6e20646964206e60008201527f6f74207375636365656400000000000000000000000000000000000000000000602082015250565b7f21756e6465726c79696e67000000000000000000000000000000000000000000600082015250565b7f5361666545524332303a20617070726f76652066726f6d206e6f6e2d7a65726f60008201527f20746f206e6f6e2d7a65726f20616c6c6f77616e636500000000000000000000602082015250565b7f216f776e65720000000000000000000000000000000000000000000000000000600082015250565b600b811061484b5761484a6143f2565b5b50565b61485781614237565b811461486257600080fd5b50565b61486e81614249565b811461487957600080fd5b50565b61488581614268565b811461489057600080fd5b50565b61489c81614272565b81146148a757600080fd5b50565b6148b38161427c565b81146148be57600080fd5b50565b6148ca81614295565b81146148d557600080fd5b50565b6148e1816142c3565b81146148ec57600080fd5b50565b6148f8816142cd565b811461490357600080fd5b50565b61490f816142e0565b811461491a57600080fd5b5056fea26469706673582212204f1d1a95f6e219ae97c79ba3efec4c04d96c2fac399fb9cd79ced08713d935cc64736f6c63430008040033",
  "linkReferences": {},
  "deployedLinkReferences": {}
}