{
  "_format": "hh-sol-artifact-1",
  "contractName": "VaultLifecycle",
  "sourceName": "contracts/VaultLifecycle.sol",
  "abi": [
    {
      "inputs": [
        {
          "internalType": "bytes",
          "name": "swapPath",
          "type": "bytes"
        },
        {
          "internalType": "address",
          "name": "validTokenIn",
          "type": "address"
        },
        {
          "internalType": "address",
          "name": "validTokenOut",
          "type": "address"
        },
        {
          "internalType": "address",
          "name": "uniswapFactory",
          "type": "address"
        }
      ],
      "name": "checkPath",
      "outputs": [
        {
          "internalType": "bool",
          "name": "isValidPath",
          "type": "bool"
        }
      ],
      "stateMutability": "view",
      "type": "function"
    },
    {
      "inputs": [
        {
          "internalType": "address",
          "name": "owner",
          "type": "address"
        },
        {
          "internalType": "address",
          "name": "keeper",
          "type": "address"
        },
        {
          "internalType": "address",
          "name": "feeRecipient",
          "type": "address"
        },
        {
          "internalType": "uint256",
          "name": "performanceFee",
          "type": "uint256"
        },
        {
          "internalType": "uint256",
          "name": "managementFee",
          "type": "uint256"
        },
        {
          "internalType": "string",
          "name": "tokenName",
          "type": "string"
        },
        {
          "internalType": "string",
          "name": "tokenSymbol",
          "type": "string"
        },
        {
          "components": [
            {
              "internalType": "bool",
              "name": "isPut",
              "type": "bool"
            },
            {
              "internalType": "uint8",
              "name": "decimals",
              "type": "uint8"
            },
            {
              "internalType": "address",
              "name": "asset",
              "type": "address"
            },
            {
              "internalType": "address",
              "name": "underlying",
              "type": "address"
            },
            {
              "internalType": "uint56",
              "name": "minimumSupply",
              "type": "uint56"
            },
            {
              "internalType": "uint104",
              "name": "cap",
              "type": "uint104"
            }
          ],
          "internalType": "struct Vault.VaultParams",
          "name": "_vaultParams",
          "type": "tuple"
        }
      ],
      "name": "verifyInitializerParams",
      "outputs": [],
      "stateMutability": "pure",
      "type": "function"
    }
  ],
  "bytecode": "0x614c42610053600b82828239805160001a607314610046577f4e487b7100000000000000000000000000000000000000000000000000000000600052600060045260246000fd5b30600052607381538281f3fe73000000000000000000000000000000000000000030146080604052600436106100925760003560e01c80637f0f41d7116100655780637f0f41d714610176578063c72733f71461019f578063d342af74146101bb578063d8dfd0fe146101fb57610092565b80632904c2391461009757806355a2bef0146100d457806358ffbb3d14610104578063633c142614610141575b600080fd5b8180156100a357600080fd5b506100be60048036038101906100b99190613308565b610238565b6040516100cb91906140b9565b60405180910390f35b6100ee60048036038101906100e9919061358b565b610a0b565b6040516100fb9190613dfc565b60405180910390f35b81801561011057600080fd5b5061012b600480360381019061012691906132cc565b610a1a565b60405161013891906140b9565b60405180910390f35b61015b6004803603810190610156919061360b565b6111d1565b60405161016d969594939291906140fd565b60405180910390f35b81801561018257600080fd5b5061019d600480360381019061019891906134e2565b611401565b005b6101b960048036038101906101b4919061336b565b6115cf565b005b8180156101c757600080fd5b506101e260048036038101906101dd9190613456565b611a9d565b6040516101f29493929190613d95565b60405180910390f35b81801561020757600080fd5b50610222600480360381019061021d919061327a565b611ceb565b60405161022f91906140b9565b60405180910390f35b60008085905060006102dc60018373ffffffffffffffffffffffffffffffffffffffff1663caa6d21a306040518263ffffffff1660e01b815260040161027e9190613cc7565b60206040518083038186803b15801561029657600080fd5b505afa1580156102aa573d6000803e3d6000fd5b505050506040513d601f19601f820116820180604052508101906102ce91906136da565b61221890919063ffffffff16565b9050600085905060008173ffffffffffffffffffffffffffffffffffffffff1663aabaecd66040518163ffffffff1660e01b815260040160206040518083038186803b15801561032b57600080fd5b505afa15801561033f573d6000803e3d6000fd5b505050506040513d601f19601f8201168201806040525081019061036391906132a3565b905060008173ffffffffffffffffffffffffffffffffffffffff1663313ce5676040518163ffffffff1660e01b815260040160206040518083038186803b1580156103ad57600080fd5b505afa1580156103c1573d6000803e3d6000fd5b505050506040513d601f19601f820116820180604052508101906103e59190613768565b60ff16905060008373ffffffffffffffffffffffffffffffffffffffff1663f3c274a66040518163ffffffff1660e01b8152600401602060405180830381600087803b15801561043457600080fd5b505af1158015610448573d6000803e3d6000fd5b505050506040513d601f19601f8201168201806040525081019061046c9190613562565b1561056d5761056661051e83600a6104849190614257565b600a6104909190614331565b8673ffffffffffffffffffffffffffffffffffffffff1663c52987cf6040518163ffffffff1660e01b8152600401602060405180830381600087803b1580156104d857600080fd5b505af11580156104ec573d6000803e3d6000fd5b505050506040513d601f19601f8201168201806040525081019061051091906136da565b61222e90919063ffffffff16565b610558670de0b6b3a764000061054a6008600a61053b9190614331565b8d61222e90919063ffffffff16565b61222e90919063ffffffff16565b61224490919063ffffffff16565b90506105be565b87905060088211156105bd57600061058f60088461225a90919063ffffffff16565b600a61059b9190614331565b9050808211156105bb576105b8818a61224490919063ffffffff16565b91505b505b5b60008390506105ee8b8a8373ffffffffffffffffffffffffffffffffffffffff166122709092919063ffffffff16565b6000600367ffffffffffffffff811115610631577f4e487b7100000000000000000000000000000000000000000000000000000000600052604160045260246000fd5b60405190808252806020026020018201604052801561066a57816020015b610657612def565b81526020019060019003908161064f5790505b5090506040518061010001604052806000600a8111156106b3577f4e487b7100000000000000000000000000000000000000000000000000000000600052602160045260246000fd5b81526020013073ffffffffffffffffffffffffffffffffffffffff1681526020013073ffffffffffffffffffffffffffffffffffffffff168152602001600073ffffffffffffffffffffffffffffffffffffffff1681526020018881526020016000815260200160008152602001604051806020016040528060008152508152508160008151811061076e577f4e487b7100000000000000000000000000000000000000000000000000000000600052603260045260246000fd5b60200260200101819052506040518061010001604052806005600a8111156107bf577f4e487b7100000000000000000000000000000000000000000000000000000000600052602160045260246000fd5b81526020013073ffffffffffffffffffffffffffffffffffffffff1681526020013073ffffffffffffffffffffffffffffffffffffffff1681526020018673ffffffffffffffffffffffffffffffffffffffff1681526020018881526020018b8152602001600081526020016040518060200160405280600081525081525081600181518110610878577f4e487b7100000000000000000000000000000000000000000000000000000000600052603260045260246000fd5b60200260200101819052506040518061010001604052806001600a8111156108c9577f4e487b7100000000000000000000000000000000000000000000000000000000600052602160045260246000fd5b81526020013073ffffffffffffffffffffffffffffffffffffffff1681526020013073ffffffffffffffffffffffffffffffffffffffff1681526020018c73ffffffffffffffffffffffffffffffffffffffff168152602001888152602001848152602001600081526020016040518060200160405280600081525081525081600281518110610982577f4e487b7100000000000000000000000000000000000000000000000000000000600052603260045260246000fd5b60200260200101819052508773ffffffffffffffffffffffffffffffffffffffff1663b617f0c6826040518263ffffffff1660e01b81526004016109c69190613dda565b600060405180830381600087803b1580156109e057600080fd5b505af11580156109f4573d6000803e3d6000fd5b505050508298505050505050505050949350505050565b60006001905095945050505050565b6000808273ffffffffffffffffffffffffffffffffffffffff166370a08231306040518263ffffffff1660e01b8152600401610a569190613cc7565b60206040518083038186803b158015610a6e57600080fd5b505afa158015610a82573d6000803e3d6000fd5b505050506040513d601f19601f82011682018060405250810190610aa691906136da565b905060008111610aeb576040517f08c379a0000000000000000000000000000000000000000000000000000000008152600401610ae290613e59565b60405180910390fd5b600084905060008173ffffffffffffffffffffffffffffffffffffffff1663caa6d21a306040518263ffffffff1660e01b8152600401610b2b9190613cc7565b60206040518083038186803b158015610b4357600080fd5b505afa158015610b57573d6000803e3d6000fd5b505050506040513d601f19601f82011682018060405250810190610b7b91906136da565b905060008273ffffffffffffffffffffffffffffffffffffffff1663d99d13f530846040518363ffffffff1660e01b8152600401610bba929190613d6c565b60006040518083038186803b158015610bd257600080fd5b505afa158015610be6573d6000803e3d6000fd5b505050506040513d6000823e3d601f19601f82011682018060405250810190610c0f9190613647565b9050600081600001515111610c59576040517f08c379a0000000000000000000000000000000000000000000000000000000008152600401610c5090613fb9565b60405180910390fd5b60008160200151600081518110610c99577f4e487b7100000000000000000000000000000000000000000000000000000000600052603260045260246000fd5b6020026020010151905060008173ffffffffffffffffffffffffffffffffffffffff166370a08231306040518263ffffffff1660e01b8152600401610cde9190613cc7565b60206040518083038186803b158015610cf657600080fd5b505afa158015610d0a573d6000803e3d6000fd5b505050506040513d601f19601f82011682018060405250810190610d2e91906136da565b90506000600267ffffffffffffffff811115610d73577f4e487b7100000000000000000000000000000000000000000000000000000000600052604160045260246000fd5b604051908082528060200260200182016040528015610dac57816020015b610d99612def565b815260200190600190039081610d915790505b5090506040518061010001604052806002600a811115610df5577f4e487b7100000000000000000000000000000000000000000000000000000000600052602160045260246000fd5b81526020013073ffffffffffffffffffffffffffffffffffffffff1681526020013073ffffffffffffffffffffffffffffffffffffffff1681526020018560000151600081518110610e70577f4e487b7100000000000000000000000000000000000000000000000000000000600052603260045260246000fd5b602002602001015173ffffffffffffffffffffffffffffffffffffffff168152602001868152602001888152602001600081526020016040518060200160405280600081525081525081600081518110610ef3577f4e487b7100000000000000000000000000000000000000000000000000000000600052603260045260246000fd5b60200260200101819052506040518061010001604052806006600a811115610f44577f4e487b7100000000000000000000000000000000000000000000000000000000600052602160045260246000fd5b81526020013073ffffffffffffffffffffffffffffffffffffffff1681526020013073ffffffffffffffffffffffffffffffffffffffff1681526020018473ffffffffffffffffffffffffffffffffffffffff1681526020018681526020016110528660600151600081518110610fe4577f4e487b7100000000000000000000000000000000000000000000000000000000600052603260045260246000fd5b60200260200101516110448b896040015160008151811061102e577f4e487b7100000000000000000000000000000000000000000000000000000000600052603260045260246000fd5b602002602001015161222e90919063ffffffff16565b61224490919063ffffffff16565b81526020016000815260200160405180602001604052806000815250815250816001815181106110ab577f4e487b7100000000000000000000000000000000000000000000000000000000600052603260045260246000fd5b60200260200101819052508573ffffffffffffffffffffffffffffffffffffffff1663b617f0c6826040518263ffffffff1660e01b81526004016110ef9190613dda565b600060405180830381600087803b15801561110957600080fd5b505af115801561111d573d6000803e3d6000fd5b5050505060008373ffffffffffffffffffffffffffffffffffffffff166370a08231306040518263ffffffff1660e01b815260040161115c9190613cc7565b60206040518083038186803b15801561117457600080fd5b505afa158015611188573d6000803e3d6000fd5b505050506040513d601f19601f820116820180604052508101906111ac91906136da565b90506111c1838261225a90919063ffffffff16565b9850505050505050505092915050565b60008060008060008060008760200135905060008960010160009054906101000a90046fffffffffffffffffffffffffffffffff166fffffffffffffffffffffffffffffffff16905060008a60010160109054906101000a90046fffffffffffffffffffffffffffffffff166fffffffffffffffffffffffffffffffff1690506000806112688c6040013586868f600001356122d5565b90506000808d604001351161127e57600061128e565b61128d84838f60000135612338565b5b905060008d6060013582116112a45760006112bc565b6112bb8e606001358361225a90919063ffffffff16565b5b90506112e3816112d5848a61225a90919063ffffffff16565b61221890919063ffffffff16565b935050505061135b818d600001600f9054906101000a90046cffffffffffffffffffffffffff166cffffffffffffffffffffffffff168e60010160009054906101000a90046fffffffffffffffffffffffffffffffff166fffffffffffffffffffffffffffffffff168e608001358f60a001356123b7565b90508096508197505050611378858561225a90919063ffffffff16565b935061138e8b6040013585858e600001356122d5565b975061139f83898d600001356124ba565b965060006113ba888d6040013561221890919063ffffffff16565b9050600081116113cb5760006113db565b6113da838a8e60000135612338565b5b9950506113f1898561225a90919063ffffffff16565b9950505050509295509295509295565b60008573ffffffffffffffffffffffffffffffffffffffff166370a08231306040518263ffffffff1660e01b815260040161143c9190613cc7565b60206040518083038186803b15801561145457600080fd5b505afa158015611468573d6000803e3d6000fd5b505050506040513d601f19601f8201168201806040525081019061148c91906136da565b905060008111156115c75760006114e684848080601f016020809104026020016040519081016040528093929190818152602001838380828437600081840152601f19601f82011690508083019250505050505050612539565b60601c90508673ffffffffffffffffffffffffffffffffffffffff16639dc29fac30846040518363ffffffff1660e01b8152600401611526929190613d6c565b600060405180830381600087803b15801561154057600080fd5b505af1158015611554573d6000803e3d6000fd5b505050508073ffffffffffffffffffffffffffffffffffffffff166340c10f1930846040518363ffffffff1660e01b8152600401611593929190613d6c565b600060405180830381600087803b1580156115ad57600080fd5b505af11580156115c1573d6000803e3d6000fd5b50505050505b505050505050565b600073ffffffffffffffffffffffffffffffffffffffff168a73ffffffffffffffffffffffffffffffffffffffff16141561163f576040517f08c379a000000000000000000000000000000000000000000000000000000000815260040161163690614099565b60405180910390fd5b600073ffffffffffffffffffffffffffffffffffffffff168973ffffffffffffffffffffffffffffffffffffffff1614156116af576040517f08c379a00000000000000000000000000000000000000000000000000000000081526004016116a690613ef9565b60405180910390fd5b600073ffffffffffffffffffffffffffffffffffffffff168873ffffffffffffffffffffffffffffffffffffffff16141561171f576040517f08c379a000000000000000000000000000000000000000000000000000000000815260040161171690613f19565b60405180910390fd5b620f4240606461172f919061444f565b8710611770576040517f08c379a000000000000000000000000000000000000000000000000000000000815260040161176790613e79565b60405180910390fd5b620f42406064611780919061444f565b86106117c1576040517f08c379a00000000000000000000000000000000000000000000000000000000081526004016117b890613f39565b60405180910390fd5b60008585905011611807576040517f08c379a00000000000000000000000000000000000000000000000000000000081526004016117fe90613f79565b60405180910390fd5b6000838390501161184d576040517f08c379a000000000000000000000000000000000000000000000000000000000815260040161184490613e39565b60405180910390fd5b600073ffffffffffffffffffffffffffffffffffffffff16816040016020810190611878919061327a565b73ffffffffffffffffffffffffffffffffffffffff1614156118cf576040517f08c379a00000000000000000000000000000000000000000000000000000000081526004016118c690613ff9565b60405180910390fd5b600073ffffffffffffffffffffffffffffffffffffffff168160600160208101906118fa919061327a565b73ffffffffffffffffffffffffffffffffffffffff161415611951576040517f08c379a000000000000000000000000000000000000000000000000000000000815260040161194890614059565b60405180910390fd5b6000816080016020810190611966919061373f565b66ffffffffffffff16116119af576040517f08c379a00000000000000000000000000000000000000000000000000000000081526004016119a690614019565b60405180910390fd5b60008160a00160208101906119c49190613688565b6cffffffffffffffffffffffffff1611611a13576040517f08c379a0000000000000000000000000000000000000000000000000000000008152600401611a0a90613ed9565b60405180910390fd5b806080016020810190611a26919061373f565b66ffffffffffffff168160a0016020810190611a429190613688565b6cffffffffffffffffffffffffff1611611a91576040517f08c379a0000000000000000000000000000000000000000000000000000000008152600401611a8890613e99565b60405180910390fd5b50505050505050505050565b6000806000806000611ac0886040016020810190611abb919061327a565b6126a6565b905060008b905060008860000160009054906101000a900460ff16905060008960010160009054906101000a900473ffffffffffffffffffffffffffffffffffffffff16905060008a60000160029054906101000a900473ffffffffffffffffffffffffffffffffffffffff1690508960000160009054906101000a900461ffff1661ffff168c6080016020810190611b5991906136b1565b61ffff1614611bf1578373ffffffffffffffffffffffffffffffffffffffff1663e436b89186856040518363ffffffff1660e01b8152600401611b9d9291906140d4565b604080518083038186803b158015611bb457600080fd5b505afa158015611bc8573d6000803e3d6000fd5b505050506040513d601f19601f82011682018060405250810190611bec9190613703565b611c75565b8b60a001358473ffffffffffffffffffffffffffffffffffffffff166312b495a86040518163ffffffff1660e01b815260040160206040518083038186803b158015611c3c57600080fd5b505afa158015611c50573d6000803e3d6000fd5b505050506040513d601f19601f82011682018060405250810190611c7491906136da565b5b80975081985050506000871415611cc1576040517f08c379a0000000000000000000000000000000000000000000000000000000008152600401611cb890613f99565b60405180910390fd5b611cd08c8c84848b8a896127a7565b98508860009850985050505050509650965096509692505050565b60008082905060008173ffffffffffffffffffffffffffffffffffffffff1663caa6d21a306040518263ffffffff1660e01b8152600401611d2c9190613cc7565b60206040518083038186803b158015611d4457600080fd5b505afa158015611d58573d6000803e3d6000fd5b505050506040513d601f19601f82011682018060405250810190611d7c91906136da565b905060008273ffffffffffffffffffffffffffffffffffffffff1663d99d13f530846040518363ffffffff1660e01b8152600401611dbb929190613d6c565b60006040518083038186803b158015611dd357600080fd5b505afa158015611de7573d6000803e3d6000fd5b505050506040513d6000823e3d601f19601f82011682018060405250810190611e109190613647565b9050600081600001515111611e5a576040517f08c379a0000000000000000000000000000000000000000000000000000000008152600401611e5190613fb9565b60405180910390fd5b60008160200151600081518110611e9a577f4e487b7100000000000000000000000000000000000000000000000000000000600052603260045260246000fd5b60200260200101519050600073ffffffffffffffffffffffffffffffffffffffff168173ffffffffffffffffffffffffffffffffffffffff161415611ee6576000945050505050612213565b60008173ffffffffffffffffffffffffffffffffffffffff166370a08231306040518263ffffffff1660e01b8152600401611f219190613cc7565b60206040518083038186803b158015611f3957600080fd5b505afa158015611f4d573d6000803e3d6000fd5b505050506040513d601f19601f82011682018060405250810190611f7191906136da565b90506000600167ffffffffffffffff811115611fb6577f4e487b7100000000000000000000000000000000000000000000000000000000600052604160045260246000fd5b604051908082528060200260200182016040528015611fef57816020015b611fdc612def565b815260200190600190039081611fd45790505b5090506040518061010001604052806007600a811115612038577f4e487b7100000000000000000000000000000000000000000000000000000000600052602160045260246000fd5b81526020013073ffffffffffffffffffffffffffffffffffffffff1681526020013073ffffffffffffffffffffffffffffffffffffffff168152602001600073ffffffffffffffffffffffffffffffffffffffff168152602001868152602001600081526020016000815260200160405180602001604052806000815250815250816000815181106120f3577f4e487b7100000000000000000000000000000000000000000000000000000000600052603260045260246000fd5b60200260200101819052508573ffffffffffffffffffffffffffffffffffffffff1663b617f0c6826040518263ffffffff1660e01b81526004016121379190613dda565b600060405180830381600087803b15801561215157600080fd5b505af1158015612165573d6000803e3d6000fd5b5050505060008373ffffffffffffffffffffffffffffffffffffffff166370a08231306040518263ffffffff1660e01b81526004016121a49190613cc7565b60206040518083038186803b1580156121bc57600080fd5b505afa1580156121d0573d6000803e3d6000fd5b505050506040513d601f19601f820116820180604052508101906121f491906136da565b9050612209838261225a90919063ffffffff16565b9750505050505050505b919050565b600081836122269190614257565b905092915050565b6000818361223c919061444f565b905092915050565b6000818361225291906142ad565b905092915050565b6000818361226891906144a9565b905092915050565b73dac17f958d2ee523a2206206994597c13d831ec773ffffffffffffffffffffffffffffffffffffffff168373ffffffffffffffffffffffffffffffffffffffff1614156122c5576122c483836000612963565b5b6122d0838383612963565b505050565b60008082600a6122e59190614331565b9050600086116122f5578061232d565b61232c8661231e61230f878961225a90919063ffffffff16565b8461222e90919063ffffffff16565b61224490919063ffffffff16565b5b915050949350505050565b60006001831161237d576040517f08c379a000000000000000000000000000000000000000000000000000000000815260040161237490613f59565b60405180910390fd5b6123ae82600a61238d9190614331565b6123a0858761222e90919063ffffffff16565b61224490919063ffffffff16565b90509392505050565b6000806000808689116123cb5760006123df565b6123de878a61225a90919063ffffffff16565b5b905060008060008a8411156124a257600089116123fd576000612444565b612443620f42406064612410919061444f565b6124358b6124278f8961225a90919063ffffffff16565b61222e90919063ffffffff16565b61224490919063ffffffff16565b5b92506000881161245557600061248a565b612489620f42406064612468919061444f565b61247b8a8761222e90919063ffffffff16565b61224490919063ffffffff16565b5b915061249f828461221890919063ffffffff16565b90505b82828296509650965050505050955095509592505050565b6000600183116124ff576040517f08c379a00000000000000000000000000000000000000000000000000000000081526004016124f690613f59565b60405180910390fd5b6125308361252284600a6125139190614331565b8761222e90919063ffffffff16565b61224490919063ffffffff16565b90509392505050565b600080601467ffffffffffffffff81111561257d577f4e487b7100000000000000000000000000000000000000000000000000000000600052604160045260246000fd5b6040519080825280601f01601f1916602001820160405280156125af5781602001600182028036833780820191505090505b50905060006034905060006048905060008290505b8181101561269657858181518110612605577f4e487b7100000000000000000000000000000000000000000000000000000000600052603260045260246000fd5b602001015160f81c60f81b84848361261d91906144a9565b81518110612654577f4e487b7100000000000000000000000000000000000000000000000000000000600052603260045260246000fd5b60200101907effffffffffffffffffffffffffffffffffffffffffffffffffffffffffffff1916908160001a905350808061268e90614609565b9150506125c4565b5060208301519350505050919050565b60008073ffffffffffffffffffffffffffffffffffffffff168273ffffffffffffffffffffffffffffffffffffffff1614156126ec576126e542612ac1565b90506127a2565b60008273ffffffffffffffffffffffffffffffffffffffff1663ade6e2aa6040518163ffffffff1660e01b815260040160206040518083038186803b15801561273457600080fd5b505afa158015612748573d6000803e3d6000fd5b505050506040513d601f19601f8201168201806040525081019061276c91906136da565b905062093a808161277d9190614257565b4211156127955761278d42612ac1565b9150506127a2565b61279e81612ac1565b9150505b919050565b6000808860000160208101906127bd919061327a565b905060008173ffffffffffffffffffffffffffffffffffffffff166311547054898c60200160208101906127f1919061327a565b8a8a8a8a6040518763ffffffff1660e01b815260040161281696959493929190613d0b565b60206040518083038186803b15801561282e57600080fd5b505afa158015612842573d6000803e3d6000fd5b505050506040513d601f19601f8201168201806040525081019061286691906132a3565b9050600073ffffffffffffffffffffffffffffffffffffffff168173ffffffffffffffffffffffffffffffffffffffff16146128a6578092505050612958565b60008273ffffffffffffffffffffffffffffffffffffffff1663c09746308a8d60200160208101906128d8919061327a565b8b8b8b8b6040518763ffffffff1660e01b81526004016128fd96959493929190613d0b565b602060405180830381600087803b15801561291757600080fd5b505af115801561292b573d6000803e3d6000fd5b505050506040513d601f19601f8201168201806040525081019061294f91906132a3565b90508093505050505b979650505050505050565b60008114806129fc575060008373ffffffffffffffffffffffffffffffffffffffff1663dd62ed3e30856040518363ffffffff1660e01b81526004016129aa929190613ce2565b60206040518083038186803b1580156129c257600080fd5b505afa1580156129d6573d6000803e3d6000fd5b505050506040513d601f19601f820116820180604052508101906129fa91906136da565b145b612a3b576040517f08c379a0000000000000000000000000000000000000000000000000000000008152600401612a3290614079565b60405180910390fd5b612abc8363095ea7b360e01b8484604051602401612a5a929190613d6c565b604051602081830303815290604052907bffffffffffffffffffffffffffffffffffffffffffffffffffffffff19166020820180517bffffffffffffffffffffffffffffffffffffffffffffffffffffffff8381831617835250505050612b72565b505050565b600080600760046201518085612ad791906142ad565b612ae19190614257565b612aeb9190614652565b9050600062015180600783600c612b0291906144a9565b612b0c9190614652565b612b16919061444f565b84612b219190614257565b905060006170806201518083612b379190614652565b83612b4291906144a9565b612b4c9190614257565b9050808510612b675762093a8081612b649190614257565b90505b809350505050919050565b6000612bd4826040518060400160405280602081526020017f5361666545524332303a206c6f772d6c6576656c2063616c6c206661696c65648152508573ffffffffffffffffffffffffffffffffffffffff16612c399092919063ffffffff16565b9050600081511115612c345780806020019051810190612bf49190613562565b612c33576040517f08c379a0000000000000000000000000000000000000000000000000000000008152600401612c2a90614039565b60405180910390fd5b5b505050565b6060612c488484600085612c51565b90509392505050565b606082471015612c96576040517f08c379a0000000000000000000000000000000000000000000000000000000008152600401612c8d90613eb9565b60405180910390fd5b612c9f85612d65565b612cde576040517f08c379a0000000000000000000000000000000000000000000000000000000008152600401612cd590613fd9565b60405180910390fd5b6000808673ffffffffffffffffffffffffffffffffffffffff168587604051612d079190613cb0565b60006040518083038185875af1925050503d8060008114612d44576040519150601f19603f3d011682016040523d82523d6000602084013e612d49565b606091505b5091509150612d59828286612d88565b92505050949350505050565b6000808273ffffffffffffffffffffffffffffffffffffffff163b119050919050565b60608315612d9857829050612de8565b600083511115612dab5782518084602001fd5b816040517f08c379a0000000000000000000000000000000000000000000000000000000008152600401612ddf9190613e17565b60405180910390fd5b9392505050565b6040518061010001604052806000600a811115612e35577f4e487b7100000000000000000000000000000000000000000000000000000000600052602160045260246000fd5b8152602001600073ffffffffffffffffffffffffffffffffffffffff168152602001600073ffffffffffffffffffffffffffffffffffffffff168152602001600073ffffffffffffffffffffffffffffffffffffffff168152602001600081526020016000815260200160008152602001606081525090565b6000612ec1612ebc84614183565b61415e565b90508083825260208201905082856020860282011115612ee057600080fd5b60005b85811015612f105781612ef68882612f9b565b845260208401935060208301925050600181019050612ee3565b5050509392505050565b6000612f2d612f28846141af565b61415e565b90508083825260208201905082856020860282011115612f4c57600080fd5b60005b85811015612f7c5781612f62888261323b565b845260208401935060208301925050600181019050612f4f565b5050509392505050565b600081359050612f9581614b3d565b92915050565b600081519050612faa81614b3d565b92915050565b600082601f830112612fc157600080fd5b8151612fd1848260208601612eae565b91505092915050565b600082601f830112612feb57600080fd5b8151612ffb848260208601612f1a565b91505092915050565b60008151905061301381614b54565b92915050565b60008083601f84011261302b57600080fd5b8235905067ffffffffffffffff81111561304457600080fd5b60208301915083600182028301111561305c57600080fd5b9250929050565b60008083601f84011261307557600080fd5b8235905067ffffffffffffffff81111561308e57600080fd5b6020830191508360018202830111156130a657600080fd5b9250929050565b600060c082840312156130bf57600080fd5b81905092915050565b600060c082840312156130da57600080fd5b81905092915050565b600060c082840312156130f557600080fd5b81905092915050565b60008135905061310d81614b6b565b92915050565b60008135905061312281614b82565b92915050565b60006080828403121561313a57600080fd5b613144608061415e565b9050600082015167ffffffffffffffff81111561316057600080fd5b61316c84828501612fb0565b600083015250602082015167ffffffffffffffff81111561318c57600080fd5b61319884828501612fb0565b602083015250604082015167ffffffffffffffff8111156131b857600080fd5b6131c484828501612fda565b604083015250606082015167ffffffffffffffff8111156131e457600080fd5b6131f084828501612fda565b60608301525092915050565b60008135905061320b81614b99565b92915050565b60008135905061322081614bb0565b92915050565b60008135905061323581614bc7565b92915050565b60008151905061324a81614bc7565b92915050565b60008135905061325f81614bde565b92915050565b60008151905061327481614bf5565b92915050565b60006020828403121561328c57600080fd5b600061329a84828501612f86565b91505092915050565b6000602082840312156132b557600080fd5b60006132c384828501612f9b565b91505092915050565b600080604083850312156132df57600080fd5b60006132ed85828601612f86565b92505060206132fe85828601612f86565b9150509250929050565b6000806000806080858703121561331e57600080fd5b600061332c87828801612f86565b945050602061333d87828801612f86565b935050604061334e87828801612f86565b925050606061335f87828801613226565b91505092959194509250565b6000806000806000806000806000806101a08b8d03121561338b57600080fd5b60006133998d828e01612f86565b9a505060206133aa8d828e01612f86565b99505060406133bb8d828e01612f86565b98505060606133cc8d828e01613226565b97505060806133dd8d828e01613226565b96505060a08b013567ffffffffffffffff8111156133fa57600080fd5b6134068d828e01613063565b955095505060c08b013567ffffffffffffffff81111561342557600080fd5b6134318d828e01613063565b935093505060e06134448d828e016130e3565b9150509295989b9194979a5092959850565b600080600080600080610160878903121561347057600080fd5b600061347e89828a01612f86565b965050602061348f89828a01612f86565b95505060406134a089828a01613226565b94505060606134b189828a016130ad565b9350506101206134c389828a016130fe565b9250506101406134d589828a01613113565b9150509295509295509295565b6000806000806000608086880312156134fa57600080fd5b600061350888828901612f86565b955050602061351988828901613226565b945050604061352a88828901612f86565b935050606086013567ffffffffffffffff81111561354757600080fd5b61355388828901613019565b92509250509295509295909350565b60006020828403121561357457600080fd5b600061358284828501613004565b91505092915050565b6000806000806000608086880312156135a357600080fd5b600086013567ffffffffffffffff8111156135bd57600080fd5b6135c988828901613019565b955095505060206135dc88828901612f86565b93505060406135ed88828901612f86565b92505060606135fe88828901612f86565b9150509295509295909350565b60008060e0838503121561361e57600080fd5b600061362c85828601613113565b925050602061363d858286016130c8565b9150509250929050565b60006020828403121561365957600080fd5b600082015167ffffffffffffffff81111561367357600080fd5b61367f84828501613128565b91505092915050565b60006020828403121561369a57600080fd5b60006136a8848285016131fc565b91505092915050565b6000602082840312156136c357600080fd5b60006136d184828501613211565b91505092915050565b6000602082840312156136ec57600080fd5b60006136fa8482850161323b565b91505092915050565b6000806040838503121561371657600080fd5b60006137248582860161323b565b92505060206137358582860161323b565b9150509250929050565b60006020828403121561375157600080fd5b600061375f84828501613250565b91505092915050565b60006020828403121561377a57600080fd5b600061378884828501613265565b91505092915050565b600061379d8383613bd3565b905092915050565b6137ae816144dd565b82525050565b6137bd816144dd565b82525050565b6137cc816144dd565b82525050565b60006137dd826141eb565b6137e78185614219565b9350836020820285016137f9856141db565b8060005b8581101561383557848403895281516138168582613791565b94506138218361420c565b925060208a019950506001810190506137fd565b50829750879550505050505092915050565b613850816144ef565b82525050565b61385f816144ef565b82525050565b6000613870826141f6565b61387a818561422a565b935061388a8185602086016145a5565b6138938161473f565b840191505092915050565b60006138a9826141f6565b6138b3818561423b565b93506138c38185602086016145a5565b80840191505092915050565b6138d881614593565b82525050565b60006138e982614201565b6138f38185614246565b93506139038185602086016145a5565b61390c8161473f565b840191505092915050565b6000613924600c83614246565b915061392f8261475d565b602082019050919050565b6000613947601283614246565b915061395282614786565b602082019050919050565b600061396a601683614246565b9150613975826147af565b602082019050919050565b600061398d602783614246565b9150613998826147d8565b604082019050919050565b60006139b0602683614246565b91506139bb82614827565b604082019050919050565b60006139d3600483614246565b91506139de82614876565b602082019050919050565b60006139f6600783614246565b9150613a018261489f565b602082019050919050565b6000613a19600d83614246565b9150613a24826148c8565b602082019050919050565b6000613a3c601583614246565b9150613a47826148f1565b602082019050919050565b6000613a5f601583614246565b9150613a6a8261491a565b602082019050919050565b6000613a82600a83614246565b9150613a8d82614943565b602082019050919050565b6000613aa5600c83614246565b9150613ab08261496c565b602082019050919050565b6000613ac8600883614246565b9150613ad382614995565b602082019050919050565b6000613aeb601d83614246565b9150613af6826149be565b602082019050919050565b6000613b0e600683614246565b9150613b19826149e7565b602082019050919050565b6000613b31600e83614246565b9150613b3c82614a10565b602082019050919050565b6000613b54602a83614246565b9150613b5f82614a39565b604082019050919050565b6000613b77600b83614246565b9150613b8282614a88565b602082019050919050565b6000613b9a603683614246565b9150613ba582614ab1565b604082019050919050565b6000613bbd600683614246565b9150613bc882614b00565b602082019050919050565b600061010083016000830151613bec60008601826138cf565b506020830151613bff60208601826137a5565b506040830151613c1260408601826137a5565b506060830151613c2560608601826137a5565b506080830151613c386080860182613c83565b5060a0830151613c4b60a0860182613c83565b5060c0830151613c5e60c0860182613c83565b5060e083015184820360e0860152613c768282613865565b9150508091505092915050565b613c8c81614569565b82525050565b613c9b81614569565b82525050565b613caa81614569565b82525050565b6000613cbc828461389e565b915081905092915050565b6000602082019050613cdc60008301846137b4565b92915050565b6000604082019050613cf760008301856137b4565b613d0460208301846137b4565b9392505050565b600060c082019050613d2060008301896137b4565b613d2d60208301886137b4565b613d3a60408301876137b4565b613d476060830186613c92565b613d546080830185613c92565b613d6160a0830184613847565b979650505050505050565b6000604082019050613d8160008301856137b4565b613d8e6020830184613c92565b9392505050565b6000608082019050613daa60008301876137c3565b613db76020830186613ca1565b613dc46040830185613ca1565b613dd16060830184613ca1565b95945050505050565b60006020820190508181036000830152613df481846137d2565b905092915050565b6000602082019050613e116000830184613856565b92915050565b60006020820190508181036000830152613e3181846138de565b905092915050565b60006020820190508181036000830152613e5281613917565b9050919050565b60006020820190508181036000830152613e728161393a565b9050919050565b60006020820190508181036000830152613e928161395d565b9050919050565b60006020820190508181036000830152613eb281613980565b9050919050565b60006020820190508181036000830152613ed2816139a3565b9050919050565b60006020820190508181036000830152613ef2816139c6565b9050919050565b60006020820190508181036000830152613f12816139e9565b9050919050565b60006020820190508181036000830152613f3281613a0c565b9050919050565b60006020820190508181036000830152613f5281613a2f565b9050919050565b60006020820190508181036000830152613f7281613a52565b9050919050565b60006020820190508181036000830152613f9281613a75565b9050919050565b60006020820190508181036000830152613fb281613a98565b9050919050565b60006020820190508181036000830152613fd281613abb565b9050919050565b60006020820190508181036000830152613ff281613ade565b9050919050565b6000602082019050818103600083015261401281613b01565b9050919050565b6000602082019050818103600083015261403281613b24565b9050919050565b6000602082019050818103600083015261405281613b47565b9050919050565b6000602082019050818103600083015261407281613b6a565b9050919050565b6000602082019050818103600083015261409281613b8d565b9050919050565b600060208201905081810360008301526140b281613bb0565b9050919050565b60006020820190506140ce6000830184613ca1565b92915050565b60006040820190506140e96000830185613c92565b6140f66020830184613847565b9392505050565b600060c0820190506141126000830189613ca1565b61411f6020830188613ca1565b61412c6040830187613ca1565b6141396060830186613ca1565b6141466080830185613ca1565b61415360a0830184613ca1565b979650505050505050565b6000614168614179565b905061417482826145d8565b919050565b6000604051905090565b600067ffffffffffffffff82111561419e5761419d614710565b5b602082029050602081019050919050565b600067ffffffffffffffff8211156141ca576141c9614710565b5b602082029050602081019050919050565b6000819050602082019050919050565b600081519050919050565b600081519050919050565b600081519050919050565b6000602082019050919050565b600082825260208201905092915050565b600082825260208201905092915050565b600081905092915050565b600082825260208201905092915050565b600061426282614569565b915061426d83614569565b9250827fffffffffffffffffffffffffffffffffffffffffffffffffffffffffffffffff038211156142a2576142a1614683565b5b828201905092915050565b60006142b882614569565b91506142c383614569565b9250826142d3576142d26146b2565b5b828204905092915050565b6000808291508390505b60018511156143285780860481111561430457614303614683565b5b60018516156143135780820291505b808102905061432185614750565b94506142e8565b94509492505050565b600061433c82614569565b915061434783614569565b92506143747fffffffffffffffffffffffffffffffffffffffffffffffffffffffffffffffff848461437c565b905092915050565b60008261438c5760019050614448565b8161439a5760009050614448565b81600181146143b057600281146143ba576143e9565b6001915050614448565b60ff8411156143cc576143cb614683565b5b8360020a9150848211156143e3576143e2614683565b5b50614448565b5060208310610133831016604e8410600b841016171561441e5782820a90508381111561441957614418614683565b5b614448565b61442b84848460016142de565b9250905081840481111561444257614441614683565b5b81810290505b9392505050565b600061445a82614569565b915061446583614569565b9250817fffffffffffffffffffffffffffffffffffffffffffffffffffffffffffffffff048311821515161561449e5761449d614683565b5b828202905092915050565b60006144b482614569565b91506144bf83614569565b9250828210156144d2576144d1614683565b5b828203905092915050565b60006144e882614549565b9050919050565b60008115159050919050565b600081905061450982614b29565b919050565b6000819050919050565b6000819050919050565b60006cffffffffffffffffffffffffff82169050919050565b600061ffff82169050919050565b600073ffffffffffffffffffffffffffffffffffffffff82169050919050565b6000819050919050565b600066ffffffffffffff82169050919050565b600060ff82169050919050565b600061459e826144fb565b9050919050565b60005b838110156145c35780820151818401526020810190506145a8565b838111156145d2576000848401525b50505050565b6145e18261473f565b810181811067ffffffffffffffff82111715614600576145ff614710565b5b80604052505050565b600061461482614569565b91507fffffffffffffffffffffffffffffffffffffffffffffffffffffffffffffffff82141561464757614646614683565b5b600182019050919050565b600061465d82614569565b915061466883614569565b925082614678576146776146b2565b5b828206905092915050565b7f4e487b7100000000000000000000000000000000000000000000000000000000600052601160045260246000fd5b7f4e487b7100000000000000000000000000000000000000000000000000000000600052601260045260246000fd5b7f4e487b7100000000000000000000000000000000000000000000000000000000600052602160045260246000fd5b7f4e487b7100000000000000000000000000000000000000000000000000000000600052604160045260246000fd5b6000601f19601f8301169050919050565b60008160011c9050919050565b7f21746f6b656e53796d626f6c0000000000000000000000000000000000000000600082015250565b7f4e6f206f546f6b656e7320746f206275726e0000000000000000000000000000600082015250565b7f706572666f726d616e6365466565203e3d203130302500000000000000000000600082015250565b7f6361702068617320746f20626520686967686572207468616e206d696e696d7560008201527f6d537570706c7900000000000000000000000000000000000000000000000000602082015250565b7f416464726573733a20696e73756666696369656e742062616c616e636520666f60008201527f722063616c6c0000000000000000000000000000000000000000000000000000602082015250565b7f2163617000000000000000000000000000000000000000000000000000000000600082015250565b7f216b656570657200000000000000000000000000000000000000000000000000600082015250565b7f21666565526563697069656e7400000000000000000000000000000000000000600082015250565b7f6d616e6167656d656e74466565203e3d20313030250000000000000000000000600082015250565b7f496e76616c696420617373657450657253686172650000000000000000000000600082015250565b7f21746f6b656e4e616d6500000000000000000000000000000000000000000000600082015250565b7f21737472696b6550726963650000000000000000000000000000000000000000600082015250565b7f4e6f2073686f7274000000000000000000000000000000000000000000000000600082015250565b7f416464726573733a2063616c6c20746f206e6f6e2d636f6e7472616374000000600082015250565b7f2161737365740000000000000000000000000000000000000000000000000000600082015250565b7f216d696e696d756d537570706c79000000000000000000000000000000000000600082015250565b7f5361666545524332303a204552433230206f7065726174696f6e20646964206e60008201527f6f74207375636365656400000000000000000000000000000000000000000000602082015250565b7f21756e6465726c79696e67000000000000000000000000000000000000000000600082015250565b7f5361666545524332303a20617070726f76652066726f6d206e6f6e2d7a65726f60008201527f20746f206e6f6e2d7a65726f20616c6c6f77616e636500000000000000000000602082015250565b7f216f776e65720000000000000000000000000000000000000000000000000000600082015250565b600b8110614b3a57614b396146e1565b5b50565b614b46816144dd565b8114614b5157600080fd5b50565b614b5d816144ef565b8114614b6857600080fd5b50565b614b748161450e565b8114614b7f57600080fd5b50565b614b8b81614518565b8114614b9657600080fd5b50565b614ba281614522565b8114614bad57600080fd5b50565b614bb98161453b565b8114614bc457600080fd5b50565b614bd081614569565b8114614bdb57600080fd5b50565b614be781614573565b8114614bf257600080fd5b50565b614bfe81614586565b8114614c0957600080fd5b5056fea26469706673582212203d939eef92d310000c74799648c66547e4882964b9d71f8646691b684e6a100b64736f6c63430008040033",
  "linkReferences": {},
  "deployedLinkReferences": {}
}