{
  "_format": "hh-sol-artifact-1",
  "contractName": "UpgradeableContractV2",
  "sourceName": "contracts/Gamma/tests/UpgradeableContractV2.sol",
  "abi": [
    {
      "inputs": [],
      "name": "addressBook",
      "outputs": [
        {
          "internalType": "address",
          "name": "",
          "type": "address"
        }
      ],
      "stateMutability": "view",
      "type": "function"
    },
    {
      "inputs": [],
      "name": "getV1Version",
      "outputs": [
        {
          "internalType": "uint256",
          "name": "",
          "type": "uint256"
        }
      ],
      "stateMutability": "pure",
      "type": "function"
    },
    {
      "inputs": [],
      "name": "getV2Version",
      "outputs": [
        {
          "internalType": "uint256",
          "name": "",
          "type": "uint256"
        }
      ],
      "stateMutability": "pure",
      "type": "function"
    },
    {
      "inputs": [
        {
          "internalType": "address",
          "name": "_addressBook",
          "type": "address"
        },
        {
          "internalType": "address",
          "name": "_owner",
          "type": "address"
        }
      ],
      "name": "initialize",
      "outputs": [],
      "stateMutability": "nonpayable",
      "type": "function"
    },
    {
      "inputs": [],
      "name": "owner",
      "outputs": [
        {
          "internalType": "address",
          "name": "",
          "type": "address"
        }
      ],
      "stateMutability": "view",
      "type": "function"
    }
  ],
  "bytecode": "0x608060405234801561001057600080fd5b506103ec806100206000396000f3fe608060405234801561001057600080fd5b50600436106100575760003560e01c8063485cc9551461005c5780638da5cb5b146100c05780638f26c0611461010a5780639b2c78b514610128578063f5887cdd14610146575b600080fd5b6100be6004803603604081101561007257600080fd5b81019080803573ffffffffffffffffffffffffffffffffffffffff169060200190929190803573ffffffffffffffffffffffffffffffffffffffff169060200190929190505050610190565b005b6100c8610313565b604051808273ffffffffffffffffffffffffffffffffffffffff1673ffffffffffffffffffffffffffffffffffffffff16815260200191505060405180910390f35b610112610339565b6040518082815260200191505060405180910390f35b610130610342565b6040518082815260200191505060405180910390f35b61014e61034b565b604051808273ffffffffffffffffffffffffffffffffffffffff1673ffffffffffffffffffffffffffffffffffffffff16815260200191505060405180910390f35b600060019054906101000a900460ff16806101af57506101ae610371565b5b806101c657506000809054906101000a900460ff16155b61021b576040517f08c379a000000000000000000000000000000000000000000000000000000000815260040180806020018281038252602e815260200180610389602e913960400191505060405180910390fd5b60008060019054906101000a900460ff16159050801561026b576001600060016101000a81548160ff02191690831515021790555060016000806101000a81548160ff0219169083151502179055505b82603360006101000a81548173ffffffffffffffffffffffffffffffffffffffff021916908373ffffffffffffffffffffffffffffffffffffffff16021790555081603460006101000a81548173ffffffffffffffffffffffffffffffffffffffff021916908373ffffffffffffffffffffffffffffffffffffffff160217905550801561030e5760008060016101000a81548160ff0219169083151502179055505b505050565b603460009054906101000a900473ffffffffffffffffffffffffffffffffffffffff1681565b60006001905090565b60006002905090565b603360009054906101000a900473ffffffffffffffffffffffffffffffffffffffff1681565b6000803090506000813b905060008114925050509056fe436f6e747261637420696e7374616e63652068617320616c7265616479206265656e20696e697469616c697a6564a264697066735822122036e0aa7ac164f292178f7f563b193cd2818dce3e6e6d344623ee0ede138917f064736f6c634300060a0033",
  "linkReferences": {},
  "deployedLinkReferences": {}
}