{
  "_format": "hh-sol-artifact-1",
  "contractName": "RibbonVault",
  "sourceName": "contracts/RibbonVault.sol",
  "abi": [
    {
      "inputs": [
        {
          "internalType": "address",
          "name": "_weth",
          "type": "address"
        },
        {
          "internalType": "address",
          "name": "_usdc",
          "type": "address"
        },
        {
          "internalType": "address",
          "name": "_gammaController",
          "type": "address"
        },
        {
          "internalType": "address",
          "name": "_marginPool",
          "type": "address"
        },
        {
          "internalType": "address",
          "name": "_gnosisEasyAuction",
          "type": "address"
        },
        {
          "internalType": "address",
          "name": "_uniswapRouter",
          "type": "address"
        },
        {
          "internalType": "address",
          "name": "_uniswapFactory",
          "type": "address"
        }
      ],
      "stateMutability": "nonpayable",
      "type": "constructor"
    },
    {
      "anonymous": false,
      "inputs": [
        {
          "indexed": true,
          "internalType": "address",
          "name": "owner",
          "type": "address"
        },
        {
          "indexed": true,
          "internalType": "address",
          "name": "spender",
          "type": "address"
        },
        {
          "indexed": false,
          "internalType": "uint256",
          "name": "value",
          "type": "uint256"
        }
      ],
      "name": "Approval",
      "type": "event"
    },
    {
      "anonymous": false,
      "inputs": [
        {
          "indexed": false,
          "internalType": "uint256",
          "name": "oldCap",
          "type": "uint256"
        },
        {
          "indexed": false,
          "internalType": "uint256",
          "name": "newCap",
          "type": "uint256"
        }
      ],
      "name": "CapSet",
      "type": "event"
    },
    {
      "anonymous": false,
      "inputs": [
        {
          "indexed": false,
          "internalType": "uint256",
          "name": "performanceFee",
          "type": "uint256"
        },
        {
          "indexed": false,
          "internalType": "uint256",
          "name": "vaultFee",
          "type": "uint256"
        },
        {
          "indexed": false,
          "internalType": "uint256",
          "name": "round",
          "type": "uint256"
        },
        {
          "indexed": true,
          "internalType": "address",
          "name": "feeRecipient",
          "type": "address"
        }
      ],
      "name": "CollectVaultFees",
      "type": "event"
    },
    {
      "anonymous": false,
      "inputs": [
        {
          "indexed": true,
          "internalType": "address",
          "name": "account",
          "type": "address"
        },
        {
          "indexed": false,
          "internalType": "uint256",
          "name": "amount",
          "type": "uint256"
        },
        {
          "indexed": false,
          "internalType": "uint256",
          "name": "round",
          "type": "uint256"
        }
      ],
      "name": "Deposit",
      "type": "event"
    },
    {
      "anonymous": false,
      "inputs": [
        {
          "indexed": true,
          "internalType": "address",
          "name": "account",
          "type": "address"
        },
        {
          "indexed": false,
          "internalType": "uint256",
          "name": "shares",
          "type": "uint256"
        },
        {
          "indexed": false,
          "internalType": "uint256",
          "name": "round",
          "type": "uint256"
        }
      ],
      "name": "InitiateWithdraw",
      "type": "event"
    },
    {
      "anonymous": false,
      "inputs": [
        {
          "indexed": false,
          "internalType": "uint256",
          "name": "managementFee",
          "type": "uint256"
        },
        {
          "indexed": false,
          "internalType": "uint256",
          "name": "newManagementFee",
          "type": "uint256"
        }
      ],
      "name": "ManagementFeeSet",
      "type": "event"
    },
    {
      "anonymous": false,
      "inputs": [
        {
          "indexed": true,
          "internalType": "address",
          "name": "previousOwner",
          "type": "address"
        },
        {
          "indexed": true,
          "internalType": "address",
          "name": "newOwner",
          "type": "address"
        }
      ],
      "name": "OwnershipTransferred",
      "type": "event"
    },
    {
      "anonymous": false,
      "inputs": [
        {
          "indexed": false,
          "internalType": "uint256",
          "name": "performanceFee",
          "type": "uint256"
        },
        {
          "indexed": false,
          "internalType": "uint256",
          "name": "newPerformanceFee",
          "type": "uint256"
        }
      ],
      "name": "PerformanceFeeSet",
      "type": "event"
    },
    {
      "anonymous": false,
      "inputs": [
        {
          "indexed": true,
          "internalType": "address",
          "name": "account",
          "type": "address"
        },
        {
          "indexed": false,
          "internalType": "uint256",
          "name": "share",
          "type": "uint256"
        },
        {
          "indexed": false,
          "internalType": "uint256",
          "name": "round",
          "type": "uint256"
        }
      ],
      "name": "Redeem",
      "type": "event"
    },
    {
      "anonymous": false,
      "inputs": [
        {
          "indexed": true,
          "internalType": "address",
          "name": "from",
          "type": "address"
        },
        {
          "indexed": true,
          "internalType": "address",
          "name": "to",
          "type": "address"
        },
        {
          "indexed": false,
          "internalType": "uint256",
          "name": "value",
          "type": "uint256"
        }
      ],
      "name": "Transfer",
      "type": "event"
    },
    {
      "anonymous": false,
      "inputs": [
        {
          "indexed": true,
          "internalType": "address",
          "name": "account",
          "type": "address"
        },
        {
          "indexed": false,
          "internalType": "uint256",
          "name": "amount",
          "type": "uint256"
        },
        {
          "indexed": false,
          "internalType": "uint256",
          "name": "shares",
          "type": "uint256"
        }
      ],
      "name": "Withdraw",
      "type": "event"
    },
    {
      "inputs": [],
      "name": "DELAY",
      "outputs": [
        {
          "internalType": "uint256",
          "name": "",
          "type": "uint256"
        }
      ],
      "stateMutability": "view",
      "type": "function"
    },
    {
      "inputs": [],
      "name": "GAMMA_CONTROLLER",
      "outputs": [
        {
          "internalType": "address",
          "name": "",
          "type": "address"
        }
      ],
      "stateMutability": "view",
      "type": "function"
    },
    {
      "inputs": [],
      "name": "GNOSIS_EASY_AUCTION",
      "outputs": [
        {
          "internalType": "address",
          "name": "",
          "type": "address"
        }
      ],
      "stateMutability": "view",
      "type": "function"
    },
    {
      "inputs": [],
      "name": "MARGIN_POOL",
      "outputs": [
        {
          "internalType": "address",
          "name": "",
          "type": "address"
        }
      ],
      "stateMutability": "view",
      "type": "function"
    },
    {
      "inputs": [],
      "name": "PERIOD",
      "outputs": [
        {
          "internalType": "uint256",
          "name": "",
          "type": "uint256"
        }
      ],
      "stateMutability": "view",
      "type": "function"
    },
    {
      "inputs": [],
      "name": "UNISWAP_FACTORY",
      "outputs": [
        {
          "internalType": "address",
          "name": "",
          "type": "address"
        }
      ],
      "stateMutability": "view",
      "type": "function"
    },
    {
      "inputs": [],
      "name": "UNISWAP_ROUTER",
      "outputs": [
        {
          "internalType": "address",
          "name": "",
          "type": "address"
        }
      ],
      "stateMutability": "view",
      "type": "function"
    },
    {
      "inputs": [],
      "name": "USDC",
      "outputs": [
        {
          "internalType": "address",
          "name": "",
          "type": "address"
        }
      ],
      "stateMutability": "view",
      "type": "function"
    },
    {
      "inputs": [],
      "name": "WETH",
      "outputs": [
        {
          "internalType": "address",
          "name": "",
          "type": "address"
        }
      ],
      "stateMutability": "view",
      "type": "function"
    },
    {
      "inputs": [
        {
          "internalType": "address",
          "name": "account",
          "type": "address"
        }
      ],
      "name": "accountVaultBalance",
      "outputs": [
        {
          "internalType": "uint256",
          "name": "",
          "type": "uint256"
        }
      ],
      "stateMutability": "view",
      "type": "function"
    },
    {
      "inputs": [
        {
          "internalType": "address",
          "name": "owner",
          "type": "address"
        },
        {
          "internalType": "address",
          "name": "spender",
          "type": "address"
        }
      ],
      "name": "allowance",
      "outputs": [
        {
          "internalType": "uint256",
          "name": "",
          "type": "uint256"
        }
      ],
      "stateMutability": "view",
      "type": "function"
    },
    {
      "inputs": [
        {
          "internalType": "address",
          "name": "spender",
          "type": "address"
        },
        {
          "internalType": "uint256",
          "name": "amount",
          "type": "uint256"
        }
      ],
      "name": "approve",
      "outputs": [
        {
          "internalType": "bool",
          "name": "",
          "type": "bool"
        }
      ],
      "stateMutability": "nonpayable",
      "type": "function"
    },
    {
      "inputs": [
        {
          "internalType": "address",
          "name": "account",
          "type": "address"
        }
      ],
      "name": "balanceOf",
      "outputs": [
        {
          "internalType": "uint256",
          "name": "",
          "type": "uint256"
        }
      ],
      "stateMutability": "view",
      "type": "function"
    },
    {
      "inputs": [],
      "name": "cap",
      "outputs": [
        {
          "internalType": "uint256",
          "name": "",
          "type": "uint256"
        }
      ],
      "stateMutability": "view",
      "type": "function"
    },
    {
      "inputs": [],
      "name": "currentOption",
      "outputs": [
        {
          "internalType": "address",
          "name": "",
          "type": "address"
        }
      ],
      "stateMutability": "view",
      "type": "function"
    },
    {
      "inputs": [],
      "name": "decimals",
      "outputs": [
        {
          "internalType": "uint8",
          "name": "",
          "type": "uint8"
        }
      ],
      "stateMutability": "view",
      "type": "function"
    },
    {
      "inputs": [
        {
          "internalType": "address",
          "name": "spender",
          "type": "address"
        },
        {
          "internalType": "uint256",
          "name": "subtractedValue",
          "type": "uint256"
        }
      ],
      "name": "decreaseAllowance",
      "outputs": [
        {
          "internalType": "bool",
          "name": "",
          "type": "bool"
        }
      ],
      "stateMutability": "nonpayable",
      "type": "function"
    },
    {
      "inputs": [
        {
          "internalType": "uint256",
          "name": "amount",
          "type": "uint256"
        }
      ],
      "name": "deposit",
      "outputs": [],
      "stateMutability": "nonpayable",
      "type": "function"
    },
    {
      "inputs": [],
      "name": "depositETH",
      "outputs": [],
      "stateMutability": "payable",
      "type": "function"
    },
    {
      "inputs": [
        {
          "internalType": "uint256",
          "name": "amount",
          "type": "uint256"
        },
        {
          "internalType": "address",
          "name": "creditor",
          "type": "address"
        }
      ],
      "name": "depositFor",
      "outputs": [],
      "stateMutability": "nonpayable",
      "type": "function"
    },
    {
      "inputs": [
        {
          "internalType": "address",
          "name": "",
          "type": "address"
        }
      ],
      "name": "depositReceipts",
      "outputs": [
        {
          "internalType": "uint16",
          "name": "round",
          "type": "uint16"
        },
        {
          "internalType": "uint104",
          "name": "amount",
          "type": "uint104"
        },
        {
          "internalType": "uint128",
          "name": "unredeemedShares",
          "type": "uint128"
        }
      ],
      "stateMutability": "view",
      "type": "function"
    },
    {
      "inputs": [],
      "name": "feeRecipient",
      "outputs": [
        {
          "internalType": "address",
          "name": "",
          "type": "address"
        }
      ],
      "stateMutability": "view",
      "type": "function"
    },
    {
      "inputs": [
        {
          "internalType": "address",
          "name": "spender",
          "type": "address"
        },
        {
          "internalType": "uint256",
          "name": "addedValue",
          "type": "uint256"
        }
      ],
      "name": "increaseAllowance",
      "outputs": [
        {
          "internalType": "bool",
          "name": "",
          "type": "bool"
        }
      ],
      "stateMutability": "nonpayable",
      "type": "function"
    },
    {
      "inputs": [
        {
          "internalType": "uint256",
          "name": "numRounds",
          "type": "uint256"
        }
      ],
      "name": "initRounds",
      "outputs": [],
      "stateMutability": "nonpayable",
      "type": "function"
    },
    {
      "inputs": [
        {
          "internalType": "uint256",
          "name": "numShares",
          "type": "uint256"
        }
      ],
      "name": "initiateWithdraw",
      "outputs": [],
      "stateMutability": "nonpayable",
      "type": "function"
    },
    {
      "inputs": [],
      "name": "keeper",
      "outputs": [
        {
          "internalType": "address",
          "name": "",
          "type": "address"
        }
      ],
      "stateMutability": "view",
      "type": "function"
    },
    {
      "inputs": [],
      "name": "managementFee",
      "outputs": [
        {
          "internalType": "uint256",
          "name": "",
          "type": "uint256"
        }
      ],
      "stateMutability": "view",
      "type": "function"
    },
    {
      "inputs": [],
      "name": "maxRedeem",
      "outputs": [],
      "stateMutability": "nonpayable",
      "type": "function"
    },
    {
      "inputs": [],
      "name": "name",
      "outputs": [
        {
          "internalType": "string",
          "name": "",
          "type": "string"
        }
      ],
      "stateMutability": "view",
      "type": "function"
    },
    {
      "inputs": [],
      "name": "nextOption",
      "outputs": [
        {
          "internalType": "address",
          "name": "",
          "type": "address"
        }
      ],
      "stateMutability": "view",
      "type": "function"
    },
    {
      "inputs": [],
      "name": "nextOptionReadyAt",
      "outputs": [
        {
          "internalType": "uint256",
          "name": "",
          "type": "uint256"
        }
      ],
      "stateMutability": "view",
      "type": "function"
    },
    {
      "inputs": [],
      "name": "optionState",
      "outputs": [
        {
          "internalType": "address",
          "name": "nextOption",
          "type": "address"
        },
        {
          "internalType": "address",
          "name": "currentOption",
          "type": "address"
        },
        {
          "internalType": "uint32",
          "name": "nextOptionReadyAt",
          "type": "uint32"
        }
      ],
      "stateMutability": "view",
      "type": "function"
    },
    {
      "inputs": [],
      "name": "owner",
      "outputs": [
        {
          "internalType": "address",
          "name": "",
          "type": "address"
        }
      ],
      "stateMutability": "view",
      "type": "function"
    },
    {
      "inputs": [],
      "name": "performanceFee",
      "outputs": [
        {
          "internalType": "uint256",
          "name": "",
          "type": "uint256"
        }
      ],
      "stateMutability": "view",
      "type": "function"
    },
    {
      "inputs": [],
      "name": "pricePerShare",
      "outputs": [
        {
          "internalType": "uint256",
          "name": "",
          "type": "uint256"
        }
      ],
      "stateMutability": "view",
      "type": "function"
    },
    {
      "inputs": [
        {
          "internalType": "uint256",
          "name": "numShares",
          "type": "uint256"
        }
      ],
      "name": "redeem",
      "outputs": [],
      "stateMutability": "nonpayable",
      "type": "function"
    },
    {
      "inputs": [],
      "name": "renounceOwnership",
      "outputs": [],
      "stateMutability": "nonpayable",
      "type": "function"
    },
    {
      "inputs": [
        {
          "internalType": "uint256",
          "name": "",
          "type": "uint256"
        }
      ],
      "name": "roundPricePerShare",
      "outputs": [
        {
          "internalType": "uint256",
          "name": "",
          "type": "uint256"
        }
      ],
      "stateMutability": "view",
      "type": "function"
    },
    {
      "inputs": [
        {
          "internalType": "uint256",
          "name": "newCap",
          "type": "uint256"
        }
      ],
      "name": "setCap",
      "outputs": [],
      "stateMutability": "nonpayable",
      "type": "function"
    },
    {
      "inputs": [
        {
          "internalType": "address",
          "name": "newFeeRecipient",
          "type": "address"
        }
      ],
      "name": "setFeeRecipient",
      "outputs": [],
      "stateMutability": "nonpayable",
      "type": "function"
    },
    {
      "inputs": [
        {
          "internalType": "uint256",
          "name": "newManagementFee",
          "type": "uint256"
        }
      ],
      "name": "setManagementFee",
      "outputs": [],
      "stateMutability": "nonpayable",
      "type": "function"
    },
    {
      "inputs": [
        {
          "internalType": "address",
          "name": "newKeeper",
          "type": "address"
        }
      ],
      "name": "setNewKeeper",
      "outputs": [],
      "stateMutability": "nonpayable",
      "type": "function"
    },
    {
      "inputs": [
        {
          "internalType": "uint256",
          "name": "newPerformanceFee",
          "type": "uint256"
        }
      ],
      "name": "setPerformanceFee",
      "outputs": [],
      "stateMutability": "nonpayable",
      "type": "function"
    },
    {
      "inputs": [
        {
          "internalType": "address",
          "name": "account",
          "type": "address"
        }
      ],
      "name": "shareBalances",
      "outputs": [
        {
          "internalType": "uint256",
          "name": "heldByAccount",
          "type": "uint256"
        },
        {
          "internalType": "uint256",
          "name": "heldByVault",
          "type": "uint256"
        }
      ],
      "stateMutability": "view",
      "type": "function"
    },
    {
      "inputs": [
        {
          "internalType": "address",
          "name": "account",
          "type": "address"
        }
      ],
      "name": "shares",
      "outputs": [
        {
          "internalType": "uint256",
          "name": "",
          "type": "uint256"
        }
      ],
      "stateMutability": "view",
      "type": "function"
    },
    {
      "inputs": [],
      "name": "symbol",
      "outputs": [
        {
          "internalType": "string",
          "name": "",
          "type": "string"
        }
      ],
      "stateMutability": "view",
      "type": "function"
    },
    {
      "inputs": [],
      "name": "totalBalance",
      "outputs": [
        {
          "internalType": "uint256",
          "name": "",
          "type": "uint256"
        }
      ],
      "stateMutability": "view",
      "type": "function"
    },
    {
      "inputs": [],
      "name": "totalPending",
      "outputs": [
        {
          "internalType": "uint256",
          "name": "",
          "type": "uint256"
        }
      ],
      "stateMutability": "view",
      "type": "function"
    },
    {
      "inputs": [],
      "name": "totalSupply",
      "outputs": [
        {
          "internalType": "uint256",
          "name": "",
          "type": "uint256"
        }
      ],
      "stateMutability": "view",
      "type": "function"
    },
    {
      "inputs": [
        {
          "internalType": "address",
          "name": "to",
          "type": "address"
        },
        {
          "internalType": "uint256",
          "name": "amount",
          "type": "uint256"
        }
      ],
      "name": "transfer",
      "outputs": [
        {
          "internalType": "bool",
          "name": "",
          "type": "bool"
        }
      ],
      "stateMutability": "nonpayable",
      "type": "function"
    },
    {
      "inputs": [
        {
          "internalType": "address",
          "name": "from",
          "type": "address"
        },
        {
          "internalType": "address",
          "name": "to",
          "type": "address"
        },
        {
          "internalType": "uint256",
          "name": "amount",
          "type": "uint256"
        }
      ],
      "name": "transferFrom",
      "outputs": [
        {
          "internalType": "bool",
          "name": "",
          "type": "bool"
        }
      ],
      "stateMutability": "nonpayable",
      "type": "function"
    },
    {
      "inputs": [
        {
          "internalType": "address",
          "name": "newOwner",
          "type": "address"
        }
      ],
      "name": "transferOwnership",
      "outputs": [],
      "stateMutability": "nonpayable",
      "type": "function"
    },
    {
      "inputs": [],
      "name": "vaultParams",
      "outputs": [
        {
          "internalType": "bool",
          "name": "isPut",
          "type": "bool"
        },
        {
          "internalType": "uint8",
          "name": "decimals",
          "type": "uint8"
        },
        {
          "internalType": "address",
          "name": "asset",
          "type": "address"
        },
        {
          "internalType": "address",
          "name": "underlying",
          "type": "address"
        },
        {
          "internalType": "uint56",
          "name": "minimumSupply",
          "type": "uint56"
        },
        {
          "internalType": "uint104",
          "name": "cap",
          "type": "uint104"
        }
      ],
      "stateMutability": "view",
      "type": "function"
    },
    {
      "inputs": [],
      "name": "vaultState",
      "outputs": [
        {
          "internalType": "uint16",
          "name": "round",
          "type": "uint16"
        },
        {
          "internalType": "uint104",
          "name": "lockedAmount",
          "type": "uint104"
        },
        {
          "internalType": "uint104",
          "name": "lastLockedAmount",
          "type": "uint104"
        },
        {
          "internalType": "uint128",
          "name": "totalPending",
          "type": "uint128"
        },
        {
          "internalType": "uint128",
          "name": "queuedWithdrawShares",
          "type": "uint128"
        }
      ],
      "stateMutability": "view",
      "type": "function"
    },
    {
      "inputs": [
        {
          "internalType": "address",
          "name": "",
          "type": "address"
        }
      ],
      "name": "withdrawals",
      "outputs": [
        {
          "internalType": "uint16",
          "name": "round",
          "type": "uint16"
        },
        {
          "internalType": "uint128",
          "name": "shares",
          "type": "uint128"
        }
      ],
      "stateMutability": "view",
      "type": "function"
    }
  ],
  "bytecode": "0x6101606040523480156200001257600080fd5b506040516200643338038062006433833981810160405281019062000038919062000505565b600073ffffffffffffffffffffffffffffffffffffffff168773ffffffffffffffffffffffffffffffffffffffff161415620000ab576040517f08c379a0000000000000000000000000000000000000000000000000000000008152600401620000a290620006e5565b60405180910390fd5b600073ffffffffffffffffffffffffffffffffffffffff168673ffffffffffffffffffffffffffffffffffffffff1614156200011e576040517f08c379a000000000000000000000000000000000000000000000000000000000815260040162000115906200076d565b60405180910390fd5b600073ffffffffffffffffffffffffffffffffffffffff168373ffffffffffffffffffffffffffffffffffffffff16141562000191576040517f08c379a0000000000000000000000000000000000000000000000000000000008152600401620001889062000707565b60405180910390fd5b600073ffffffffffffffffffffffffffffffffffffffff168573ffffffffffffffffffffffffffffffffffffffff16141562000204576040517f08c379a0000000000000000000000000000000000000000000000000000000008152600401620001fb90620006c3565b60405180910390fd5b600073ffffffffffffffffffffffffffffffffffffffff168473ffffffffffffffffffffffffffffffffffffffff16141562000277576040517f08c379a00000000000000000000000000000000000000000000000000000000081526004016200026e906200074b565b60405180910390fd5b600073ffffffffffffffffffffffffffffffffffffffff168273ffffffffffffffffffffffffffffffffffffffff161415620002ea576040517f08c379a0000000000000000000000000000000000000000000000000000000008152600401620002e19062000729565b60405180910390fd5b600073ffffffffffffffffffffffffffffffffffffffff168173ffffffffffffffffffffffffffffffffffffffff1614156200035d576040517f08c379a000000000000000000000000000000000000000000000000000000000815260040162000354906200078f565b60405180910390fd5b8673ffffffffffffffffffffffffffffffffffffffff1660808173ffffffffffffffffffffffffffffffffffffffff1660601b815250508573ffffffffffffffffffffffffffffffffffffffff1660a08173ffffffffffffffffffffffffffffffffffffffff1660601b815250508473ffffffffffffffffffffffffffffffffffffffff1660c08173ffffffffffffffffffffffffffffffffffffffff1660601b815250508373ffffffffffffffffffffffffffffffffffffffff1660e08173ffffffffffffffffffffffffffffffffffffffff1660601b815250508273ffffffffffffffffffffffffffffffffffffffff166101008173ffffffffffffffffffffffffffffffffffffffff1660601b815250508173ffffffffffffffffffffffffffffffffffffffff166101208173ffffffffffffffffffffffffffffffffffffffff1660601b815250508073ffffffffffffffffffffffffffffffffffffffff166101408173ffffffffffffffffffffffffffffffffffffffff1660601b81525050505050505050506200092f565b600081519050620004ff8162000915565b92915050565b600080600080600080600060e0888a0312156200052157600080fd5b6000620005318a828b01620004ee565b9750506020620005448a828b01620004ee565b9650506040620005578a828b01620004ee565b95505060606200056a8a828b01620004ee565b94505060806200057d8a828b01620004ee565b93505060a0620005908a828b01620004ee565b92505060c0620005a38a828b01620004ee565b91505092959891949750929550565b6000620005c1601183620007b1565b9150620005ce82620007f6565b602082019050919050565b6000620005e8600683620007b1565b9150620005f5826200081f565b602082019050919050565b60006200060f601383620007b1565b91506200061c8262000848565b602082019050919050565b600062000636600f83620007b1565b9150620006438262000871565b602082019050919050565b60006200065d600c83620007b1565b91506200066a826200089a565b602082019050919050565b600062000684600683620007b1565b91506200069182620008c3565b602082019050919050565b6000620006ab601083620007b1565b9150620006b882620008ec565b602082019050919050565b60006020820190508181036000830152620006de81620005b2565b9050919050565b600060208201905081810360008301526200070081620005d9565b9050919050565b60006020820190508181036000830152620007228162000600565b9050919050565b60006020820190508181036000830152620007448162000627565b9050919050565b6000602082019050818103600083015262000766816200064e565b9050919050565b60006020820190508181036000830152620007888162000675565b9050919050565b60006020820190508181036000830152620007aa816200069c565b9050919050565b600082825260208201905092915050565b6000620007cf82620007d6565b9050919050565b600073ffffffffffffffffffffffffffffffffffffffff82169050919050565b7f215f67616d6d61436f6e74726f6c6c6572000000000000000000000000000000600082015250565b7f215f776574680000000000000000000000000000000000000000000000000000600082015250565b7f215f676e6f7369734561737941756374696f6e00000000000000000000000000600082015250565b7f215f756e6973776170526f757465720000000000000000000000000000000000600082015250565b7f215f6d617267696e506f6f6c0000000000000000000000000000000000000000600082015250565b7f215f757364630000000000000000000000000000000000000000000000000000600082015250565b7f215f756e6973776170466163746f727900000000000000000000000000000000600082015250565b6200092081620007c2565b81146200092c57600080fd5b50565b60805160601c60a05160601c60c05160601c60e05160601c6101005160601c6101205160601c6101405160601c615a86620009ad60003960006122b90152600061243b015260006113de0152600061134801526000610ded01526000611b350152600081816120a30152818161289301526129930152615a866000f3fe6080604052600436106103505760003560e01c80638b10cc7c116101c6578063ad7a672f116100f7578063db006a7511610095578063f2fde38b1161006f578063f2fde38b14610c92578063f6326fb314610cbb578063f656ba5114610cc5578063fe56e23214610d0357610350565b8063db006a7514610c03578063dd62ed3e14610c2c578063e74b981b14610c6957610350565b8063c74c0fac116100d1578063c74c0fac14610b47578063ce7c2ac214610b72578063d164cc1514610baf578063d826492014610bd857610350565b8063ad7a672f14610ac8578063b4d1d79514610af3578063b6b55f2514610b1e57610350565b8063a285c9e811610164578063a6f7f5d61161013e578063a6f7f5d614610a0a578063a9059cbb14610a35578063aced166114610a72578063ad5c464814610a9d57610350565b8063a285c9e814610977578063a2db9d83146109a2578063a457c2d7146109cd57610350565b806399530b06116101a057806399530b06146108c65780639be43daa146108f15780639fcc2d751461091a578063a083ff171461094a57610350565b80638b10cc7c146108455780638da5cb5b1461087057806395d89b411461089b57610350565b806347786d37116102a057806370a082311161023e5780637e108d52116102185780637e108d521461078957806387153eb1146107b257806387788782146107ef57806389a302711461081a57610350565b806370a08231146106f7578063715018a6146107345780637a9262a21461074b57610350565b806369b411701161027a57806369b41170146106615780636c10f66c1461068c5780636f31ab34146106b757806370897b23146106ce57610350565b806347786d37146105ce578063650cce8a146105f75780636719b2ee1461062257610350565b8063313ce5671161030d57806339509351116102e757806339509351146104fe5780633f23bb731461053b5780633f90916a1461057857806346904840146105a357610350565b8063313ce5671461047f578063355274ea146104aa57806336efd16f146104d557610350565b806306fdde0314610355578063095ea7b31461038057806318160ddd146103bd5780631a92f6c2146103e857806323b872dd146104135780632728f33314610450575b600080fd5b34801561036157600080fd5b5061036a610d2c565b604051610377919061491f565b60405180910390f35b34801561038c57600080fd5b506103a760048036038101906103a291906141a1565b610dbe565b6040516103b491906148a3565b60405180910390f35b3480156103c957600080fd5b506103d2610de1565b6040516103df9190614e1d565b60405180910390f35b3480156103f457600080fd5b506103fd610deb565b60405161040a919061481a565b60405180910390f35b34801561041f57600080fd5b5061043a60048036038101906104359190614152565b610e0f565b60405161044791906148a3565b60405180910390f35b34801561045c57600080fd5b50610465610e3e565b604051610476959493929190614d6a565b60405180910390f35b34801561048b57600080fd5b50610494610eda565b6040516104a19190614e8a565b60405180910390f35b3480156104b657600080fd5b506104bf610ef4565b6040516104cc9190614e1d565b60405180910390f35b3480156104e157600080fd5b506104fc60048036038101906104f79190614258565b610f29565b005b34801561050a57600080fd5b50610525600480360381019061052091906141a1565b61105b565b60405161053291906148a3565b60405180910390f35b34801561054757600080fd5b50610562600480360381019061055d91906140ed565b611105565b60405161056f9190614e1d565b60405180910390f35b34801561058457600080fd5b5061058d61118d565b60405161059a9190614e1d565b60405180910390f35b3480156105af57600080fd5b506105b86111c8565b6040516105c5919061481a565b60405180910390f35b3480156105da57600080fd5b506105f560048036038101906105f09190614206565b6111ee565b005b34801561060357600080fd5b5061060c611346565b604051610619919061481a565b60405180910390f35b34801561062e57600080fd5b50610649600480360381019061064491906140ed565b61136a565b60405161065893929190614dbd565b60405180910390f35b34801561066d57600080fd5b506106766113d7565b6040516106839190614e1d565b60405180910390f35b34801561069857600080fd5b506106a16113dc565b6040516106ae919061481a565b60405180910390f35b3480156106c357600080fd5b506106cc611400565b005b3480156106da57600080fd5b506106f560048036038101906106f09190614206565b611463565b005b34801561070357600080fd5b5061071e600480360381019061071991906140ed565b611575565b60405161072b9190614e1d565b60405180910390f35b34801561074057600080fd5b506107496115be565b005b34801561075757600080fd5b50610772600480360381019061076d91906140ed565b611646565b604051610780929190614df4565b60405180910390f35b34801561079557600080fd5b506107b060048036038101906107ab9190614206565b611694565b005b3480156107be57600080fd5b506107d960048036038101906107d49190614206565b611b15565b6040516107e69190614e1d565b60405180910390f35b3480156107fb57600080fd5b50610804611b2d565b6040516108119190614e1d565b60405180910390f35b34801561082657600080fd5b5061082f611b33565b60405161083c919061481a565b60405180910390f35b34801561085157600080fd5b5061085a611b57565b604051610867919061481a565b60405180910390f35b34801561087c57600080fd5b50610885611b84565b604051610892919061481a565b60405180910390f35b3480156108a757600080fd5b506108b0611bae565b6040516108bd919061491f565b60405180910390f35b3480156108d257600080fd5b506108db611c40565b6040516108e89190614e1d565b60405180910390f35b3480156108fd57600080fd5b5061091860048036038101906109139190614206565b611ca9565b005b34801561092657600080fd5b5061092f611e00565b604051610941969594939291906148be565b60405180910390f35b34801561095657600080fd5b5061095f611eb0565b60405161096e9392919061486c565b60405180910390f35b34801561098357600080fd5b5061098c611f18565b6040516109999190614e1d565b60405180910390f35b3480156109ae57600080fd5b506109b7611f3b565b6040516109c4919061481a565b60405180910390f35b3480156109d957600080fd5b506109f460048036038101906109ef91906141a1565b611f68565b604051610a0191906148a3565b60405180910390f35b348015610a1657600080fd5b50610a1f612052565b604051610a2c9190614e1d565b60405180910390f35b348015610a4157600080fd5b50610a5c6004803603810190610a5791906141a1565b612058565b604051610a6991906148a3565b60405180910390f35b348015610a7e57600080fd5b50610a8761207b565b604051610a94919061481a565b60405180910390f35b348015610aa957600080fd5b50610ab26120a1565b604051610abf919061481a565b60405180910390f35b348015610ad457600080fd5b50610add6120c5565b604051610aea9190614e1d565b60405180910390f35b348015610aff57600080fd5b50610b086121b9565b604051610b159190614e1d565b60405180910390f35b348015610b2a57600080fd5b50610b456004803603810190610b409190614206565b6121c0565b005b348015610b5357600080fd5b50610b5c6122b7565b604051610b69919061481a565b60405180910390f35b348015610b7e57600080fd5b50610b996004803603810190610b9491906140ed565b6122db565b604051610ba69190614e1d565b60405180910390f35b348015610bbb57600080fd5b50610bd66004803603810190610bd191906140ed565b612309565b005b348015610be457600080fd5b50610bed612439565b604051610bfa919061481a565b60405180910390f35b348015610c0f57600080fd5b50610c2a6004803603810190610c259190614206565b61245d565b005b348015610c3857600080fd5b50610c536004803603810190610c4e9190614116565b612503565b604051610c609190614e1d565b60405180910390f35b348015610c7557600080fd5b50610c906004803603810190610c8b91906140ed565b61258a565b005b348015610c9e57600080fd5b50610cb96004803603810190610cb491906140ed565b61274b565b005b610cc3612843565b005b348015610cd157600080fd5b50610cec6004803603810190610ce791906140ed565b612a1b565b604051610cfa929190614e61565b60405180910390f35b348015610d0f57600080fd5b50610d2a6004803603810190610d259190614206565b612bb5565b005b6060609a8054610d3b9061526f565b80601f0160208091040260200160405190810160405280929190818152602001828054610d679061526f565b8015610db45780601f10610d8957610100808354040283529160200191610db4565b820191906000526020600020905b815481529060010190602001808311610d9757829003601f168201915b5050505050905090565b600080610dc9612cf8565b9050610dd6818585612d00565b600191505092915050565b6000609954905090565b7f000000000000000000000000000000000000000000000000000000000000000081565b600080610e1a612cf8565b9050610e27858285612ecb565b610e32858585612f57565b60019150509392505050565b60cf8060000160009054906101000a900461ffff16908060000160029054906101000a90046cffffffffffffffffffffffffff169080600001600f9054906101000a90046cffffffffffffffffffffffffff16908060010160009054906101000a90046fffffffffffffffffffffffffffffffff16908060010160109054906101000a90046fffffffffffffffffffffffffffffffff16905085565b600060cc60000160019054906101000a900460ff16905090565b600060cc60020160009054906101000a90046cffffffffffffffffffffffffff166cffffffffffffffffffffffffff16905090565b60026001541415610f6f576040517f08c379a0000000000000000000000000000000000000000000000000000000008152600401610f6690614d01565b60405180910390fd5b600260018190555060008211610fba576040517f08c379a0000000000000000000000000000000000000000000000000000000008152600401610fb190614ca1565b60405180910390fd5b600073ffffffffffffffffffffffffffffffffffffffff168173ffffffffffffffffffffffffffffffffffffffff161415610ff457600080fd5b610ffe82826131db565b61105033308460cc60000160029054906101000a900473ffffffffffffffffffffffffffffffffffffffff1673ffffffffffffffffffffffffffffffffffffffff16613680909392919063ffffffff16565b600180819055505050565b600080611066612cf8565b90506110fa818585609860008673ffffffffffffffffffffffffffffffffffffffff1673ffffffffffffffffffffffffffffffffffffffff16815260200190815260200160002060008973ffffffffffffffffffffffffffffffffffffffff1673ffffffffffffffffffffffffffffffffffffffff168152602001908152602001600020546110f59190614ed7565b612d00565b600191505092915050565b60008060cc60000160019054906101000a900460ff1660ff169050600061116f61112d610de1565b6111356120c5565b60cf60010160009054906101000a90046fffffffffffffffffffffffffffffffff166fffffffffffffffffffffffffffffffff1685613709565b905061118461117d856122db565b828461376c565b92505050919050565b600060cf60010160009054906101000a90046fffffffffffffffffffffffffffffffff166fffffffffffffffffffffffffffffffff16905090565b60d360009054906101000a900473ffffffffffffffffffffffffffffffffffffffff1681565b6111f6612cf8565b73ffffffffffffffffffffffffffffffffffffffff16611214611b84565b73ffffffffffffffffffffffffffffffffffffffff161461126a576040517f08c379a000000000000000000000000000000000000000000000000000000000815260040161126190614b61565b60405180910390fd5b600081116112ad576040517f08c379a00000000000000000000000000000000000000000000000000000000081526004016112a490614b81565b60405180910390fd5b6112b6816137eb565b7f5f86edbb9d92228a9edc3f0ebc0f001bda1ea345ac7335e0eeef3504b31d1a1c60cc60020160009054906101000a90046cffffffffffffffffffffffffff1682604051611305929190614d41565b60405180910390a18060cc60020160006101000a8154816cffffffffffffffffffffffffff02191690836cffffffffffffffffffffffffff16021790555050565b7f000000000000000000000000000000000000000000000000000000000000000081565b60c96020528060005260406000206000915090508060000160009054906101000a900461ffff16908060000160029054906101000a90046cffffffffffffffffffffffffff169080600001600f9054906101000a90046fffffffffffffffffffffffffffffffff16905083565b600081565b7f000000000000000000000000000000000000000000000000000000000000000081565b60026001541415611446576040517f08c379a000000000000000000000000000000000000000000000000000000000815260040161143d90614d01565b60405180910390fd5b600260018190555061145a60006001613840565b60018081905550565b61146b612cf8565b73ffffffffffffffffffffffffffffffffffffffff16611489611b84565b73ffffffffffffffffffffffffffffffffffffffff16146114df576040517f08c379a00000000000000000000000000000000000000000000000000000000081526004016114d690614b61565b60405180910390fd5b620f424060646114ef91906150cf565b8110611530576040517f08c379a000000000000000000000000000000000000000000000000000000000815260040161152790614ba1565b60405180910390fd5b7f24867dfb6fcb9970a07be21024956524abe7a1837faa903ff0e99aaa40cf893e60d55482604051611563929190614e61565b60405180910390a18060d58190555050565b6000609760008373ffffffffffffffffffffffffffffffffffffffff1673ffffffffffffffffffffffffffffffffffffffff168152602001908152602001600020549050919050565b6115c6612cf8565b73ffffffffffffffffffffffffffffffffffffffff166115e4611b84565b73ffffffffffffffffffffffffffffffffffffffff161461163a576040517f08c379a000000000000000000000000000000000000000000000000000000000815260040161163190614b61565b60405180910390fd5b6116446000613b83565b565b60cb6020528060005260406000206000915090508060000160009054906101000a900461ffff16908060000160029054906101000a90046fffffffffffffffffffffffffffffffff16905082565b600260015414156116da576040517f08c379a00000000000000000000000000000000000000000000000000000000081526004016116d190614d01565b60405180910390fd5b600260018190555060008111611725576040517f08c379a000000000000000000000000000000000000000000000000000000000815260040161171c90614a81565b60405180910390fd5b600060c960003373ffffffffffffffffffffffffffffffffffffffff1673ffffffffffffffffffffffffffffffffffffffff16815260200190815260200160002060000160029054906101000a90046cffffffffffffffffffffffffff166cffffffffffffffffffffffffff16118061180e5750600060c960003373ffffffffffffffffffffffffffffffffffffffff1673ffffffffffffffffffffffffffffffffffffffff168152602001908152602001600020600001600f9054906101000a90046fffffffffffffffffffffffffffffffff166fffffffffffffffffffffffffffffffff16115b156118205761181f60006001613840565b5b600060cf60000160009054906101000a900461ffff1661ffff169050600060cb60003373ffffffffffffffffffffffffffffffffffffffff1673ffffffffffffffffffffffffffffffffffffffff16815260200190815260200160002090506000828260000160009054906101000a900461ffff1661ffff161490503373ffffffffffffffffffffffffffffffffffffffff167f0c53c82ad07e2d592d88ece3b066777dd60f1118e2a081b380efc4358f0d9e2a85856040516118e4929190614e61565b60405180910390a260008260000160029054906101000a90046fffffffffffffffffffffffffffffffff166fffffffffffffffffffffffffffffffff169050600082156119455761193e8683613c4990919063ffffffff16565b90506119e9565b60008214611988576040517f08c379a000000000000000000000000000000000000000000000000000000000815260040161197f90614c21565b60405180910390fd5b8590508460cb60003373ffffffffffffffffffffffffffffffffffffffff1673ffffffffffffffffffffffffffffffffffffffff16815260200190815260200160002060000160006101000a81548161ffff021916908361ffff1602179055505b6119f281613c5f565b8060cb60003373ffffffffffffffffffffffffffffffffffffffff1673ffffffffffffffffffffffffffffffffffffffff16815260200190815260200160002060000160026101000a8154816fffffffffffffffffffffffffffffffff02191690836fffffffffffffffffffffffffffffffff1602179055506000611ab38760cf60010160109054906101000a90046fffffffffffffffffffffffffffffffff166fffffffffffffffffffffffffffffffff16613c4990919063ffffffff16565b9050611abe81613c5f565b8060cf60010160106101000a8154816fffffffffffffffffffffffffffffffff02191690836fffffffffffffffffffffffffffffffff160217905550611b05333089612f57565b5050505050506001808190555050565b60ca6020528060005260406000206000915090505481565b60d55481565b7f000000000000000000000000000000000000000000000000000000000000000081565b600060d160010160009054906101000a900473ffffffffffffffffffffffffffffffffffffffff16905090565b6000606560009054906101000a900473ffffffffffffffffffffffffffffffffffffffff16905090565b6060609b8054611bbd9061526f565b80601f0160208091040260200160405190810160405280929190818152602001828054611be99061526f565b8015611c365780601f10611c0b57610100808354040283529160200191611c36565b820191906000526020600020905b815481529060010190602001808311611c1957829003601f168201915b5050505050905090565b6000611ca4611c4d610de1565b611c556120c5565b60cf60010160009054906101000a90046fffffffffffffffffffffffffffffffff166fffffffffffffffffffffffffffffffff1660cc60000160019054906101000a900460ff1660ff16613709565b905090565b60026001541415611cef576040517f08c379a0000000000000000000000000000000000000000000000000000000008152600401611ce690614d01565b60405180910390fd5b600260018190555060008111611d3a576040517f08c379a0000000000000000000000000000000000000000000000000000000008152600401611d3190614a41565b60405180910390fd5b600060cf60000160009054906101000a900461ffff1661ffff16905060005b82811015611df45760008183611d6f9190614ed7565b9050600060ca60008381526020019081526020016000205414611dc7576040517f08c379a0000000000000000000000000000000000000000000000000000000008152600401611dbe90614c81565b60405180910390fd5b600160ca600083815260200190815260200160002081905550508080611dec906152a1565b915050611d59565b50506001808190555050565b60cc8060000160009054906101000a900460ff16908060000160019054906101000a900460ff16908060000160029054906101000a900473ffffffffffffffffffffffffffffffffffffffff16908060010160009054906101000a900473ffffffffffffffffffffffffffffffffffffffff16908060010160149054906101000a900466ffffffffffffff16908060020160009054906101000a90046cffffffffffffffffffffffffff16905086565b60d18060000160009054906101000a900473ffffffffffffffffffffffffffffffffffffffff16908060010160009054906101000a900473ffffffffffffffffffffffffffffffffffffffff16908060010160149054906101000a900463ffffffff16905083565b600060d160010160149054906101000a900463ffffffff1663ffffffff16905090565b600060d160000160009054906101000a900473ffffffffffffffffffffffffffffffffffffffff16905090565b600080611f73612cf8565b90506000609860008373ffffffffffffffffffffffffffffffffffffffff1673ffffffffffffffffffffffffffffffffffffffff16815260200190815260200160002060008673ffffffffffffffffffffffffffffffffffffffff1673ffffffffffffffffffffffffffffffffffffffff16815260200190815260200160002054905083811015612039576040517f08c379a000000000000000000000000000000000000000000000000000000000815260040161203090614d21565b60405180910390fd5b6120468286868403612d00565b60019250505092915050565b60d65481565b600080612063612cf8565b9050612070818585612f57565b600191505092915050565b60d460009054906101000a900473ffffffffffffffffffffffffffffffffffffffff1681565b7f000000000000000000000000000000000000000000000000000000000000000081565b60006121b460cc60000160029054906101000a900473ffffffffffffffffffffffffffffffffffffffff1673ffffffffffffffffffffffffffffffffffffffff166370a08231306040518263ffffffff1660e01b8152600401612128919061481a565b60206040518083038186803b15801561214057600080fd5b505afa158015612154573d6000803e3d6000fd5b505050506040513d601f19601f82011682018060405250810190612178919061422f565b60cf60000160029054906101000a90046cffffffffffffffffffffffffff166cffffffffffffffffffffffffff16613c4990919063ffffffff16565b905090565b62093a8081565b60026001541415612206576040517f08c379a00000000000000000000000000000000000000000000000000000000081526004016121fd90614d01565b60405180910390fd5b600260018190555060008111612251576040517f08c379a000000000000000000000000000000000000000000000000000000000815260040161224890614ca1565b60405180910390fd5b61225b81336131db565b6122ad33308360cc60000160029054906101000a900473ffffffffffffffffffffffffffffffffffffffff1673ffffffffffffffffffffffffffffffffffffffff16613680909392919063ffffffff16565b6001808190555050565b7f000000000000000000000000000000000000000000000000000000000000000081565b60008060006122e984612a1b565b915091506123008183613c4990919063ffffffff16565b92505050919050565b612311612cf8565b73ffffffffffffffffffffffffffffffffffffffff1661232f611b84565b73ffffffffffffffffffffffffffffffffffffffff1614612385576040517f08c379a000000000000000000000000000000000000000000000000000000000815260040161237c90614b61565b60405180910390fd5b600073ffffffffffffffffffffffffffffffffffffffff168173ffffffffffffffffffffffffffffffffffffffff1614156123f5576040517f08c379a00000000000000000000000000000000000000000000000000000000081526004016123ec90614ce1565b60405180910390fd5b8060d460006101000a81548173ffffffffffffffffffffffffffffffffffffffff021916908373ffffffffffffffffffffffffffffffffffffffff16021790555050565b7f000000000000000000000000000000000000000000000000000000000000000081565b600260015414156124a3576040517f08c379a000000000000000000000000000000000000000000000000000000000815260040161249a90614d01565b60405180910390fd5b6002600181905550600081116124ee576040517f08c379a00000000000000000000000000000000000000000000000000000000081526004016124e590614a81565b60405180910390fd5b6124f9816000613840565b6001808190555050565b6000609860008473ffffffffffffffffffffffffffffffffffffffff1673ffffffffffffffffffffffffffffffffffffffff16815260200190815260200160002060008373ffffffffffffffffffffffffffffffffffffffff1673ffffffffffffffffffffffffffffffffffffffff16815260200190815260200160002054905092915050565b612592612cf8565b73ffffffffffffffffffffffffffffffffffffffff166125b0611b84565b73ffffffffffffffffffffffffffffffffffffffff1614612606576040517f08c379a00000000000000000000000000000000000000000000000000000000081526004016125fd90614b61565b60405180910390fd5b600073ffffffffffffffffffffffffffffffffffffffff168173ffffffffffffffffffffffffffffffffffffffff161415612676576040517f08c379a000000000000000000000000000000000000000000000000000000000815260040161266d90614b01565b60405180910390fd5b60d360009054906101000a900473ffffffffffffffffffffffffffffffffffffffff1673ffffffffffffffffffffffffffffffffffffffff168173ffffffffffffffffffffffffffffffffffffffff161415612707576040517f08c379a00000000000000000000000000000000000000000000000000000000081526004016126fe90614ac1565b60405180910390fd5b8060d360006101000a81548173ffffffffffffffffffffffffffffffffffffffff021916908373ffffffffffffffffffffffffffffffffffffffff16021790555050565b612753612cf8565b73ffffffffffffffffffffffffffffffffffffffff16612771611b84565b73ffffffffffffffffffffffffffffffffffffffff16146127c7576040517f08c379a00000000000000000000000000000000000000000000000000000000081526004016127be90614b61565b60405180910390fd5b600073ffffffffffffffffffffffffffffffffffffffff168173ffffffffffffffffffffffffffffffffffffffff161415612837576040517f08c379a000000000000000000000000000000000000000000000000000000000815260040161282e906149a1565b60405180910390fd5b61284081613b83565b50565b60026001541415612889576040517f08c379a000000000000000000000000000000000000000000000000000000000815260040161288090614d01565b60405180910390fd5b60026001819055507f000000000000000000000000000000000000000000000000000000000000000073ffffffffffffffffffffffffffffffffffffffff1660cc60000160029054906101000a900473ffffffffffffffffffffffffffffffffffffffff1673ffffffffffffffffffffffffffffffffffffffff1614612944576040517f08c379a000000000000000000000000000000000000000000000000000000000815260040161293b90614b21565b60405180910390fd5b60003411612987576040517f08c379a000000000000000000000000000000000000000000000000000000000815260040161297e90614981565b60405180910390fd5b61299134336131db565b7f000000000000000000000000000000000000000000000000000000000000000073ffffffffffffffffffffffffffffffffffffffff1663d0e30db0346040518263ffffffff1660e01b81526004016000604051808303818588803b1580156129f957600080fd5b505af1158015612a0d573d6000803e3d6000fd5b505050505060018081905550565b600080600060c960008573ffffffffffffffffffffffffffffffffffffffff1673ffffffffffffffffffffffffffffffffffffffff1681526020019081526020016000206040518060600160405290816000820160009054906101000a900461ffff1661ffff1661ffff1681526020016000820160029054906101000a90046cffffffffffffffffffffffffff166cffffffffffffffffffffffffff166cffffffffffffffffffffffffff16815260200160008201600f9054906101000a90046fffffffffffffffffffffffffffffffff166fffffffffffffffffffffffffffffffff166fffffffffffffffffffffffffffffffff168152505090506001816000015161ffff161015612b3d57612b3184611575565b60009250925050612bb0565b6000612b9d60cf60000160009054906101000a900461ffff1661ffff1660ca6000856000015161ffff1681526020019081526020016000205460cc60000160019054906101000a900460ff1660ff1685613cb7909392919063ffffffff16565b9050612ba885611575565b819350935050505b915091565b612bbd612cf8565b73ffffffffffffffffffffffffffffffffffffffff16612bdb611b84565b73ffffffffffffffffffffffffffffffffffffffff1614612c31576040517f08c379a0000000000000000000000000000000000000000000000000000000008152600401612c2890614b61565b60405180910390fd5b620f42406064612c4191906150cf565b8110612c82576040517f08c379a0000000000000000000000000000000000000000000000000000000008152600401612c7990614be1565b60405180910390fd5b6000612cb063031ba309612ca2620f424085613d5190919063ffffffff16565b613d6790919063ffffffff16565b90507f4e874b007ab14f7e263baefd44951834c8266f4f224d1092e49e9c254354cc5460d65483604051612ce5929190614e61565b60405180910390a18060d6819055505050565b600033905090565b600073ffffffffffffffffffffffffffffffffffffffff168373ffffffffffffffffffffffffffffffffffffffff161415612d70576040517f08c379a0000000000000000000000000000000000000000000000000000000008152600401612d6790614c41565b60405180910390fd5b600073ffffffffffffffffffffffffffffffffffffffff168273ffffffffffffffffffffffffffffffffffffffff161415612de0576040517f08c379a0000000000000000000000000000000000000000000000000000000008152600401612dd7906149c1565b60405180910390fd5b80609860008573ffffffffffffffffffffffffffffffffffffffff1673ffffffffffffffffffffffffffffffffffffffff16815260200190815260200160002060008473ffffffffffffffffffffffffffffffffffffffff1673ffffffffffffffffffffffffffffffffffffffff168152602001908152602001600020819055508173ffffffffffffffffffffffffffffffffffffffff168373ffffffffffffffffffffffffffffffffffffffff167f8c5be1e5ebec7d5bd14f71427d1e84f3dd0314c0f7b2291e5b200ac8c7c3b92583604051612ebe9190614e1d565b60405180910390a3505050565b6000612ed78484612503565b90507fffffffffffffffffffffffffffffffffffffffffffffffffffffffffffffffff8114612f515781811015612f43576040517f08c379a0000000000000000000000000000000000000000000000000000000008152600401612f3a90614a21565b60405180910390fd5b612f508484848403612d00565b5b50505050565b600073ffffffffffffffffffffffffffffffffffffffff168373ffffffffffffffffffffffffffffffffffffffff161415612fc7576040517f08c379a0000000000000000000000000000000000000000000000000000000008152600401612fbe90614c01565b60405180910390fd5b600073ffffffffffffffffffffffffffffffffffffffff168273ffffffffffffffffffffffffffffffffffffffff161415613037576040517f08c379a000000000000000000000000000000000000000000000000000000000815260040161302e90614941565b60405180910390fd5b613042838383613d7d565b6000609760008573ffffffffffffffffffffffffffffffffffffffff1673ffffffffffffffffffffffffffffffffffffffff168152602001908152602001600020549050818110156130c9576040517f08c379a00000000000000000000000000000000000000000000000000000000081526004016130c090614a61565b60405180910390fd5b818103609760008673ffffffffffffffffffffffffffffffffffffffff1673ffffffffffffffffffffffffffffffffffffffff1681526020019081526020016000208190555081609760008573ffffffffffffffffffffffffffffffffffffffff1673ffffffffffffffffffffffffffffffffffffffff168152602001908152602001600020600082825461315e9190614ed7565b925050819055508273ffffffffffffffffffffffffffffffffffffffff168473ffffffffffffffffffffffffffffffffffffffff167fddf252ad1be2c89b69c2b068fc378daa952ba7f163c4a11628f55a4df523b3ef846040516131c29190614e1d565b60405180910390a36131d5848484613d82565b50505050565b600060cf60000160009054906101000a900461ffff1661ffff1690506000613213846132056120c5565b613c4990919063ffffffff16565b905060cc60020160009054906101000a90046cffffffffffffffffffffffffff166cffffffffffffffffffffffffff16811115613285576040517f08c379a000000000000000000000000000000000000000000000000000000000815260040161327c90614961565b60405180910390fd5b60cc60010160149054906101000a900466ffffffffffffff1666ffffffffffffff168110156132e9576040517f08c379a00000000000000000000000000000000000000000000000000000000081526004016132e090614aa1565b60405180910390fd5b8273ffffffffffffffffffffffffffffffffffffffff167f90890809c654f11d6e72a28fa60149770a0d11ec6c92319d6ceb2bb0a4ea1a158584604051613331929190614e61565b60405180910390a2600060c960008573ffffffffffffffffffffffffffffffffffffffff1673ffffffffffffffffffffffffffffffffffffffff1681526020019081526020016000206040518060600160405290816000820160009054906101000a900461ffff1661ffff1661ffff1681526020016000820160029054906101000a90046cffffffffffffffffffffffffff166cffffffffffffffffffffffffff166cffffffffffffffffffffffffff16815260200160008201600f9054906101000a90046fffffffffffffffffffffffffffffffff166fffffffffffffffffffffffffffffffff166fffffffffffffffffffffffffffffffff16815250509050600061347b8460ca6000856000015161ffff1681526020019081526020016000205460cc60000160019054906101000a900460ff1660ff1685613cb7909392919063ffffffff16565b90506000869050826000015161ffff168514156134c15760006134ba8885602001516cffffffffffffffffffffffffff16613c4990919063ffffffff16565b9050809150505b6134ca816137eb565b60405180606001604052808661ffff168152602001826cffffffffffffffffffffffffff168152602001836fffffffffffffffffffffffffffffffff1681525060c960008873ffffffffffffffffffffffffffffffffffffffff1673ffffffffffffffffffffffffffffffffffffffff16815260200190815260200160002060008201518160000160006101000a81548161ffff021916908361ffff16021790555060208201518160000160026101000a8154816cffffffffffffffffffffffffff02191690836cffffffffffffffffffffffffff160217905550604082015181600001600f6101000a8154816fffffffffffffffffffffffffffffffff02191690836fffffffffffffffffffffffffffffffff160217905550905050600061362f8860cf60010160009054906101000a90046fffffffffffffffffffffffffffffffff166fffffffffffffffffffffffffffffffff16613c4990919063ffffffff16565b905061363a81613c5f565b8060cf60010160006101000a8154816fffffffffffffffffffffffffffffffff02191690836fffffffffffffffffffffffffffffffff1602179055505050505050505050565b613703846323b872dd60e01b8585856040516024016136a193929190614835565b604051602081830303815290604052907bffffffffffffffffffffffffffffffffffffffffffffffffffffffff19166020820180517bffffffffffffffffffffffffffffffffffffffffffffffffffffffff8381831617835250505050613d87565b50505050565b60008082600a6137199190614fb1565b9050600086116137295780613761565b613760866137526137438789613e4e90919063ffffffff16565b84613d5190919063ffffffff16565b613d6790919063ffffffff16565b5b915050949350505050565b6000600183116137b1576040517f08c379a00000000000000000000000000000000000000000000000000000000081526004016137a890614bc1565b60405180910390fd5b6137e282600a6137c19190614fb1565b6137d48587613d5190919063ffffffff16565b613d6790919063ffffffff16565b90509392505050565b6cffffffffffffffffffffffffff801681111561383d576040517f08c379a000000000000000000000000000000000000000000000000000000000815260040161383490614b41565b60405180910390fd5b50565b600060c960003373ffffffffffffffffffffffffffffffffffffffff1673ffffffffffffffffffffffffffffffffffffffff1681526020019081526020016000206040518060600160405290816000820160009054906101000a900461ffff1661ffff1661ffff1681526020016000820160029054906101000a90046cffffffffffffffffffffffffff166cffffffffffffffffffffffffff166cffffffffffffffffffffffffff16815260200160008201600f9054906101000a90046fffffffffffffffffffffffffffffffff166fffffffffffffffffffffffffffffffff166fffffffffffffffffffffffffffffffff16815250509050600060cf60000160009054906101000a900461ffff1661ffff169050600061399e8260ca6000866000015161ffff1681526020019081526020016000205460cc60000160019054906101000a900460ff1660ff1686613cb7909392919063ffffffff16565b9050836139ab57846139ad565b805b945060008514156139c057505050613b7f565b80851115613a03576040517f08c379a00000000000000000000000000000000000000000000000000000000081526004016139fa90614a01565b60405180910390fd5b81836000015161ffff161015613a8857600060c960003373ffffffffffffffffffffffffffffffffffffffff1673ffffffffffffffffffffffffffffffffffffffff16815260200190815260200160002060000160026101000a8154816cffffffffffffffffffffffffff02191690836cffffffffffffffffffffffffff1602179055505b613a9185613c5f565b613aa48582613e4e90919063ffffffff16565b60c960003373ffffffffffffffffffffffffffffffffffffffff1673ffffffffffffffffffffffffffffffffffffffff168152602001908152602001600020600001600f6101000a8154816fffffffffffffffffffffffffffffffff02191690836fffffffffffffffffffffffffffffffff1602179055503373ffffffffffffffffffffffffffffffffffffffff167fe5b754fb1abb7f01b499791d0b820ae3b6af3424ac1c59768edb53f4ec31a929868560000151604051613b68929190614e38565b60405180910390a2613b7b303387612f57565b5050505b5050565b6000606560009054906101000a900473ffffffffffffffffffffffffffffffffffffffff16905081606560006101000a81548173ffffffffffffffffffffffffffffffffffffffff021916908373ffffffffffffffffffffffffffffffffffffffff1602179055508173ffffffffffffffffffffffffffffffffffffffff168173ffffffffffffffffffffffffffffffffffffffff167f8be0079c531659141344cd1fd0a4f28419497f9722a3daafe3b4186f6b6457e060405160405180910390a35050565b60008183613c579190614ed7565b905092915050565b6fffffffffffffffffffffffffffffffff8016811115613cb4576040517f08c379a0000000000000000000000000000000000000000000000000000000008152600401613cab906149e1565b60405180910390fd5b50565b600080856000015161ffff16118015613cd7575083856000015161ffff16105b15613d2f576000613cfc86602001516cffffffffffffffffffffffffff168585613e64565b9050613d278187604001516fffffffffffffffffffffffffffffffff16613c4990919063ffffffff16565b915050613d49565b84604001516fffffffffffffffffffffffffffffffff1690505b949350505050565b60008183613d5f91906150cf565b905092915050565b60008183613d759190614f2d565b905092915050565b505050565b505050565b6000613de9826040518060400160405280602081526020017f5361666545524332303a206c6f772d6c6576656c2063616c6c206661696c65648152508573ffffffffffffffffffffffffffffffffffffffff16613ee39092919063ffffffff16565b9050600081511115613e495780806020019051810190613e0991906141dd565b613e48576040517f08c379a0000000000000000000000000000000000000000000000000000000008152600401613e3f90614cc1565b60405180910390fd5b5b505050565b60008183613e5c9190615129565b905092915050565b600060018311613ea9576040517f08c379a0000000000000000000000000000000000000000000000000000000008152600401613ea090614bc1565b60405180910390fd5b613eda83613ecc84600a613ebd9190614fb1565b87613d5190919063ffffffff16565b613d6790919063ffffffff16565b90509392505050565b6060613ef28484600085613efb565b90509392505050565b606082471015613f40576040517f08c379a0000000000000000000000000000000000000000000000000000000008152600401613f3790614ae1565b60405180910390fd5b613f498561400f565b613f88576040517f08c379a0000000000000000000000000000000000000000000000000000000008152600401613f7f90614c61565b60405180910390fd5b6000808673ffffffffffffffffffffffffffffffffffffffff168587604051613fb19190614803565b60006040518083038185875af1925050503d8060008114613fee576040519150601f19603f3d011682016040523d82523d6000602084013e613ff3565b606091505b5091509150614003828286614032565b92505050949350505050565b6000808273ffffffffffffffffffffffffffffffffffffffff163b119050919050565b6060831561404257829050614092565b6000835111156140555782518084602001fd5b816040517f08c379a0000000000000000000000000000000000000000000000000000000008152600401614089919061491f565b60405180910390fd5b9392505050565b6000813590506140a881615a0b565b92915050565b6000815190506140bd81615a22565b92915050565b6000813590506140d281615a39565b92915050565b6000815190506140e781615a39565b92915050565b6000602082840312156140ff57600080fd5b600061410d84828501614099565b91505092915050565b6000806040838503121561412957600080fd5b600061413785828601614099565b925050602061414885828601614099565b9150509250929050565b60008060006060848603121561416757600080fd5b600061417586828701614099565b935050602061418686828701614099565b9250506040614197868287016140c3565b9150509250925092565b600080604083850312156141b457600080fd5b60006141c285828601614099565b92505060206141d3858286016140c3565b9150509250929050565b6000602082840312156141ef57600080fd5b60006141fd848285016140ae565b91505092915050565b60006020828403121561421857600080fd5b6000614226848285016140c3565b91505092915050565b60006020828403121561424157600080fd5b600061424f848285016140d8565b91505092915050565b6000806040838503121561426b57600080fd5b6000614279858286016140c3565b925050602061428a85828601614099565b9150509250929050565b61429d8161515d565b82525050565b6142ac8161516f565b82525050565b60006142bd82614ea5565b6142c78185614ebb565b93506142d781856020860161523c565b80840191505092915050565b60006142ee82614eb0565b6142f88185614ec6565b935061430881856020860161523c565b61431181615377565b840191505092915050565b6000614329602383614ec6565b915061433482615395565b604082019050919050565b600061434c600a83614ec6565b9150614357826153e4565b602082019050919050565b600061436f600683614ec6565b915061437a8261540d565b602082019050919050565b6000614392602683614ec6565b915061439d82615436565b604082019050919050565b60006143b5602283614ec6565b91506143c082615485565b604082019050919050565b60006143d8601083614ec6565b91506143e3826154d4565b602082019050919050565b60006143fb601183614ec6565b9150614406826154fd565b602082019050919050565b600061441e601d83614ec6565b915061442982615526565b602082019050919050565b6000614441600a83614ec6565b915061444c8261554f565b602082019050919050565b6000614464602683614ec6565b915061446f82615578565b604082019050919050565b6000614487600a83614ec6565b9150614492826155c7565b602082019050919050565b60006144aa601483614ec6565b91506144b5826155f0565b602082019050919050565b60006144cd601883614ec6565b91506144d882615619565b602082019050919050565b60006144f0602683614ec6565b91506144fb82615642565b604082019050919050565b6000614513601083614ec6565b915061451e82615691565b602082019050919050565b6000614536600583614ec6565b9150614541826156ba565b602082019050919050565b6000614559601083614ec6565b9150614564826156e3565b602082019050919050565b600061457c602083614ec6565b91506145878261570c565b602082019050919050565b600061459f600783614ec6565b91506145aa82615735565b602082019050919050565b60006145c2601783614ec6565b91506145cd8261575e565b602082019050919050565b60006145e5601583614ec6565b91506145f082615787565b602082019050919050565b6000614608601683614ec6565b9150614613826157b0565b602082019050919050565b600061462b602583614ec6565b9150614636826157d9565b604082019050919050565b600061464e601183614ec6565b915061465982615828565b602082019050919050565b6000614671602483614ec6565b915061467c82615851565b604082019050919050565b6000614694601d83614ec6565b915061469f826158a0565b602082019050919050565b60006146b7600b83614ec6565b91506146c2826158c9565b602082019050919050565b60006146da600783614ec6565b91506146e5826158f2565b602082019050919050565b60006146fd602a83614ec6565b91506147088261591b565b604082019050919050565b6000614720600a83614ec6565b915061472b8261596a565b602082019050919050565b6000614743601f83614ec6565b915061474e82615993565b602082019050919050565b6000614766602583614ec6565b9150614771826159bc565b604082019050919050565b6147858161517b565b82525050565b61479481615218565b82525050565b6147a381615194565b82525050565b6147b2816151b0565b82525050565b6147c18161522a565b82525050565b6147d0816151de565b82525050565b6147df816151e8565b82525050565b6147ee816151f8565b82525050565b6147fd8161520b565b82525050565b600061480f82846142b2565b915081905092915050565b600060208201905061482f6000830184614294565b92915050565b600060608201905061484a6000830186614294565b6148576020830185614294565b61486460408301846147c7565b949350505050565b60006060820190506148816000830186614294565b61488e6020830185614294565b61489b60408301846147d6565b949350505050565b60006020820190506148b860008301846142a3565b92915050565b600060c0820190506148d360008301896142a3565b6148e060208301886147f4565b6148ed6040830187614294565b6148fa6060830186614294565b61490760808301856147e5565b61491460a083018461477c565b979650505050505050565b6000602082019050818103600083015261493981846142e3565b905092915050565b6000602082019050818103600083015261495a8161431c565b9050919050565b6000602082019050818103600083015261497a8161433f565b9050919050565b6000602082019050818103600083015261499a81614362565b9050919050565b600060208201905081810360008301526149ba81614385565b9050919050565b600060208201905081810360008301526149da816143a8565b9050919050565b600060208201905081810360008301526149fa816143cb565b9050919050565b60006020820190508181036000830152614a1a816143ee565b9050919050565b60006020820190508181036000830152614a3a81614411565b9050919050565b60006020820190508181036000830152614a5a81614434565b9050919050565b60006020820190508181036000830152614a7a81614457565b9050919050565b60006020820190508181036000830152614a9a8161447a565b9050919050565b60006020820190508181036000830152614aba8161449d565b9050919050565b60006020820190508181036000830152614ada816144c0565b9050919050565b60006020820190508181036000830152614afa816144e3565b9050919050565b60006020820190508181036000830152614b1a81614506565b9050919050565b60006020820190508181036000830152614b3a81614529565b9050919050565b60006020820190508181036000830152614b5a8161454c565b9050919050565b60006020820190508181036000830152614b7a8161456f565b9050919050565b60006020820190508181036000830152614b9a81614592565b9050919050565b60006020820190508181036000830152614bba816145b5565b9050919050565b60006020820190508181036000830152614bda816145d8565b9050919050565b60006020820190508181036000830152614bfa816145fb565b9050919050565b60006020820190508181036000830152614c1a8161461e565b9050919050565b60006020820190508181036000830152614c3a81614641565b9050919050565b60006020820190508181036000830152614c5a81614664565b9050919050565b60006020820190508181036000830152614c7a81614687565b9050919050565b60006020820190508181036000830152614c9a816146aa565b9050919050565b60006020820190508181036000830152614cba816146cd565b9050919050565b60006020820190508181036000830152614cda816146f0565b9050919050565b60006020820190508181036000830152614cfa81614713565b9050919050565b60006020820190508181036000830152614d1a81614736565b9050919050565b60006020820190508181036000830152614d3a81614759565b9050919050565b6000604082019050614d56600083018561478b565b614d6360208301846147c7565b9392505050565b600060a082019050614d7f60008301886147a9565b614d8c602083018761477c565b614d99604083018661477c565b614da6606083018561479a565b614db3608083018461479a565b9695505050505050565b6000606082019050614dd260008301866147a9565b614ddf602083018561477c565b614dec604083018461479a565b949350505050565b6000604082019050614e0960008301856147a9565b614e16602083018461479a565b9392505050565b6000602082019050614e3260008301846147c7565b92915050565b6000604082019050614e4d60008301856147c7565b614e5a60208301846147b8565b9392505050565b6000604082019050614e7660008301856147c7565b614e8360208301846147c7565b9392505050565b6000602082019050614e9f60008301846147f4565b92915050565b600081519050919050565b600081519050919050565b600081905092915050565b600082825260208201905092915050565b6000614ee2826151de565b9150614eed836151de565b9250827fffffffffffffffffffffffffffffffffffffffffffffffffffffffffffffffff03821115614f2257614f216152ea565b5b828201905092915050565b6000614f38826151de565b9150614f43836151de565b925082614f5357614f52615319565b5b828204905092915050565b6000808291508390505b6001851115614fa857808604811115614f8457614f836152ea565b5b6001851615614f935780820291505b8081029050614fa185615388565b9450614f68565b94509492505050565b6000614fbc826151de565b9150614fc7836151de565b9250614ff47fffffffffffffffffffffffffffffffffffffffffffffffffffffffffffffffff8484614ffc565b905092915050565b60008261500c57600190506150c8565b8161501a57600090506150c8565b8160018114615030576002811461503a57615069565b60019150506150c8565b60ff84111561504c5761504b6152ea565b5b8360020a915084821115615063576150626152ea565b5b506150c8565b5060208310610133831016604e8410600b841016171561509e5782820a905083811115615099576150986152ea565b5b6150c8565b6150ab8484846001614f5e565b925090508184048111156150c2576150c16152ea565b5b81810290505b9392505050565b60006150da826151de565b91506150e5836151de565b9250817fffffffffffffffffffffffffffffffffffffffffffffffffffffffffffffffff048311821515161561511e5761511d6152ea565b5b828202905092915050565b6000615134826151de565b915061513f836151de565b925082821015615152576151516152ea565b5b828203905092915050565b6000615168826151be565b9050919050565b60008115159050919050565b60006cffffffffffffffffffffffffff82169050919050565b60006fffffffffffffffffffffffffffffffff82169050919050565b600061ffff82169050919050565b600073ffffffffffffffffffffffffffffffffffffffff82169050919050565b6000819050919050565b600063ffffffff82169050919050565b600066ffffffffffffff82169050919050565b600060ff82169050919050565b60006152238261517b565b9050919050565b6000615235826151b0565b9050919050565b60005b8381101561525a57808201518184015260208101905061523f565b83811115615269576000848401525b50505050565b6000600282049050600182168061528757607f821691505b6020821081141561529b5761529a615348565b5b50919050565b60006152ac826151de565b91507fffffffffffffffffffffffffffffffffffffffffffffffffffffffffffffffff8214156152df576152de6152ea565b5b600182019050919050565b7f4e487b7100000000000000000000000000000000000000000000000000000000600052601160045260246000fd5b7f4e487b7100000000000000000000000000000000000000000000000000000000600052601260045260246000fd5b7f4e487b7100000000000000000000000000000000000000000000000000000000600052602260045260246000fd5b6000601f19601f8301169050919050565b60008160011c9050919050565b7f45524332303a207472616e7366657220746f20746865207a65726f206164647260008201527f6573730000000000000000000000000000000000000000000000000000000000602082015250565b7f4578636565642063617000000000000000000000000000000000000000000000600082015250565b7f2176616c75650000000000000000000000000000000000000000000000000000600082015250565b7f4f776e61626c653a206e6577206f776e657220697320746865207a65726f206160008201527f6464726573730000000000000000000000000000000000000000000000000000602082015250565b7f45524332303a20617070726f766520746f20746865207a65726f20616464726560008201527f7373000000000000000000000000000000000000000000000000000000000000602082015250565b7f4f766572666c6f772075696e7431323800000000000000000000000000000000600082015250565b7f4578636565647320617661696c61626c65000000000000000000000000000000600082015250565b7f45524332303a20696e73756666696369656e7420616c6c6f77616e6365000000600082015250565b7f216e756d526f756e647300000000000000000000000000000000000000000000600082015250565b7f45524332303a207472616e7366657220616d6f756e742065786365656473206260008201527f616c616e63650000000000000000000000000000000000000000000000000000602082015250565b7f216e756d53686172657300000000000000000000000000000000000000000000600082015250565b7f496e73756666696369656e742062616c616e6365000000000000000000000000600082015250565b7f4d757374206265206e657720666565526563697069656e740000000000000000600082015250565b7f416464726573733a20696e73756666696369656e742062616c616e636520666f60008201527f722063616c6c0000000000000000000000000000000000000000000000000000602082015250565b7f216e6577466565526563697069656e7400000000000000000000000000000000600082015250565b7f2157455448000000000000000000000000000000000000000000000000000000600082015250565b7f4f766572666c6f772075696e7431303400000000000000000000000000000000600082015250565b7f4f776e61626c653a2063616c6c6572206973206e6f7420746865206f776e6572600082015250565b7f216e657743617000000000000000000000000000000000000000000000000000600082015250565b7f496e76616c696420706572666f726d616e636520666565000000000000000000600082015250565b7f496e76616c696420617373657450657253686172650000000000000000000000600082015250565b7f496e76616c6964206d616e6167656d656e742066656500000000000000000000600082015250565b7f45524332303a207472616e736665722066726f6d20746865207a65726f20616460008201527f6472657373000000000000000000000000000000000000000000000000000000602082015250565b7f4578697374696e67207769746864726177000000000000000000000000000000600082015250565b7f45524332303a20617070726f76652066726f6d20746865207a65726f2061646460008201527f7265737300000000000000000000000000000000000000000000000000000000602082015250565b7f416464726573733a2063616c6c20746f206e6f6e2d636f6e7472616374000000600082015250565b7f496e697469616c697a6564000000000000000000000000000000000000000000600082015250565b7f21616d6f756e7400000000000000000000000000000000000000000000000000600082015250565b7f5361666545524332303a204552433230206f7065726174696f6e20646964206e60008201527f6f74207375636365656400000000000000000000000000000000000000000000602082015250565b7f216e65774b656570657200000000000000000000000000000000000000000000600082015250565b7f5265656e7472616e637947756172643a207265656e7472616e742063616c6c00600082015250565b7f45524332303a2064656372656173656420616c6c6f77616e63652062656c6f7760008201527f207a65726f000000000000000000000000000000000000000000000000000000602082015250565b615a148161515d565b8114615a1f57600080fd5b50565b615a2b8161516f565b8114615a3657600080fd5b50565b615a42816151de565b8114615a4d57600080fd5b5056fea2646970667358221220a89c4aa3e36f2bc1c5a7eff0243ded6c5c6dd6995e70904f69fa26bd4200ee7264736f6c63430008040033",
  "linkReferences": {},
  "deployedLinkReferences": {}
}