{
  "_format": "hh-sol-artifact-1",
  "contractName": "Whitelist",
  "sourceName": "contracts/Gamma/core/Whitelist.sol",
  "abi": [
    {
      "inputs": [
        {
          "internalType": "address",
          "name": "_addressBook",
          "type": "address"
        }
      ],
      "stateMutability": "nonpayable",
      "type": "constructor"
    },
    {
      "anonymous": false,
      "inputs": [
        {
          "indexed": true,
          "internalType": "address",
          "name": "_callee",
          "type": "address"
        }
      ],
      "name": "CalleeBlacklisted",
      "type": "event"
    },
    {
      "anonymous": false,
      "inputs": [
        {
          "indexed": true,
          "internalType": "address",
          "name": "_callee",
          "type": "address"
        }
      ],
      "name": "CalleeWhitelisted",
      "type": "event"
    },
    {
      "anonymous": false,
      "inputs": [
        {
          "indexed": true,
          "internalType": "address",
          "name": "collateral",
          "type": "address"
        }
      ],
      "name": "CollateralBlacklisted",
      "type": "event"
    },
    {
      "anonymous": false,
      "inputs": [
        {
          "indexed": true,
          "internalType": "address",
          "name": "collateral",
          "type": "address"
        }
      ],
      "name": "CollateralWhitelisted",
      "type": "event"
    },
    {
      "anonymous": false,
      "inputs": [
        {
          "indexed": true,
          "internalType": "address",
          "name": "otoken",
          "type": "address"
        }
      ],
      "name": "OtokenBlacklisted",
      "type": "event"
    },
    {
      "anonymous": false,
      "inputs": [
        {
          "indexed": true,
          "internalType": "address",
          "name": "otoken",
          "type": "address"
        }
      ],
      "name": "OtokenWhitelisted",
      "type": "event"
    },
    {
      "anonymous": false,
      "inputs": [
        {
          "indexed": true,
          "internalType": "address",
          "name": "previousOwner",
          "type": "address"
        },
        {
          "indexed": true,
          "internalType": "address",
          "name": "newOwner",
          "type": "address"
        }
      ],
      "name": "OwnershipTransferred",
      "type": "event"
    },
    {
      "anonymous": false,
      "inputs": [
        {
          "indexed": false,
          "internalType": "bytes32",
          "name": "productHash",
          "type": "bytes32"
        },
        {
          "indexed": true,
          "internalType": "address",
          "name": "underlying",
          "type": "address"
        },
        {
          "indexed": true,
          "internalType": "address",
          "name": "strike",
          "type": "address"
        },
        {
          "indexed": true,
          "internalType": "address",
          "name": "collateral",
          "type": "address"
        },
        {
          "indexed": false,
          "internalType": "bool",
          "name": "isPut",
          "type": "bool"
        }
      ],
      "name": "ProductBlacklisted",
      "type": "event"
    },
    {
      "anonymous": false,
      "inputs": [
        {
          "indexed": false,
          "internalType": "bytes32",
          "name": "productHash",
          "type": "bytes32"
        },
        {
          "indexed": true,
          "internalType": "address",
          "name": "underlying",
          "type": "address"
        },
        {
          "indexed": true,
          "internalType": "address",
          "name": "strike",
          "type": "address"
        },
        {
          "indexed": true,
          "internalType": "address",
          "name": "collateral",
          "type": "address"
        },
        {
          "indexed": false,
          "internalType": "bool",
          "name": "isPut",
          "type": "bool"
        }
      ],
      "name": "ProductWhitelisted",
      "type": "event"
    },
    {
      "inputs": [],
      "name": "addressBook",
      "outputs": [
        {
          "internalType": "address",
          "name": "",
          "type": "address"
        }
      ],
      "stateMutability": "view",
      "type": "function"
    },
    {
      "inputs": [
        {
          "internalType": "address",
          "name": "_callee",
          "type": "address"
        }
      ],
      "name": "blacklistCallee",
      "outputs": [],
      "stateMutability": "nonpayable",
      "type": "function"
    },
    {
      "inputs": [
        {
          "internalType": "address",
          "name": "_collateral",
          "type": "address"
        }
      ],
      "name": "blacklistCollateral",
      "outputs": [],
      "stateMutability": "nonpayable",
      "type": "function"
    },
    {
      "inputs": [
        {
          "internalType": "address",
          "name": "_otokenAddress",
          "type": "address"
        }
      ],
      "name": "blacklistOtoken",
      "outputs": [],
      "stateMutability": "nonpayable",
      "type": "function"
    },
    {
      "inputs": [
        {
          "internalType": "address",
          "name": "_underlying",
          "type": "address"
        },
        {
          "internalType": "address",
          "name": "_strike",
          "type": "address"
        },
        {
          "internalType": "address",
          "name": "_collateral",
          "type": "address"
        },
        {
          "internalType": "bool",
          "name": "_isPut",
          "type": "bool"
        }
      ],
      "name": "blacklistProduct",
      "outputs": [],
      "stateMutability": "nonpayable",
      "type": "function"
    },
    {
      "inputs": [
        {
          "internalType": "address",
          "name": "_callee",
          "type": "address"
        }
      ],
      "name": "isWhitelistedCallee",
      "outputs": [
        {
          "internalType": "bool",
          "name": "",
          "type": "bool"
        }
      ],
      "stateMutability": "view",
      "type": "function"
    },
    {
      "inputs": [
        {
          "internalType": "address",
          "name": "_collateral",
          "type": "address"
        }
      ],
      "name": "isWhitelistedCollateral",
      "outputs": [
        {
          "internalType": "bool",
          "name": "",
          "type": "bool"
        }
      ],
      "stateMutability": "view",
      "type": "function"
    },
    {
      "inputs": [
        {
          "internalType": "address",
          "name": "_otoken",
          "type": "address"
        }
      ],
      "name": "isWhitelistedOtoken",
      "outputs": [
        {
          "internalType": "bool",
          "name": "",
          "type": "bool"
        }
      ],
      "stateMutability": "view",
      "type": "function"
    },
    {
      "inputs": [
        {
          "internalType": "address",
          "name": "_underlying",
          "type": "address"
        },
        {
          "internalType": "address",
          "name": "_strike",
          "type": "address"
        },
        {
          "internalType": "address",
          "name": "_collateral",
          "type": "address"
        },
        {
          "internalType": "bool",
          "name": "_isPut",
          "type": "bool"
        }
      ],
      "name": "isWhitelistedProduct",
      "outputs": [
        {
          "internalType": "bool",
          "name": "",
          "type": "bool"
        }
      ],
      "stateMutability": "view",
      "type": "function"
    },
    {
      "inputs": [],
      "name": "owner",
      "outputs": [
        {
          "internalType": "address",
          "name": "",
          "type": "address"
        }
      ],
      "stateMutability": "view",
      "type": "function"
    },
    {
      "inputs": [],
      "name": "renounceOwnership",
      "outputs": [],
      "stateMutability": "nonpayable",
      "type": "function"
    },
    {
      "inputs": [
        {
          "internalType": "address",
          "name": "newOwner",
          "type": "address"
        }
      ],
      "name": "transferOwnership",
      "outputs": [],
      "stateMutability": "nonpayable",
      "type": "function"
    },
    {
      "inputs": [
        {
          "internalType": "address",
          "name": "_callee",
          "type": "address"
        }
      ],
      "name": "whitelistCallee",
      "outputs": [],
      "stateMutability": "nonpayable",
      "type": "function"
    },
    {
      "inputs": [
        {
          "internalType": "address",
          "name": "_collateral",
          "type": "address"
        }
      ],
      "name": "whitelistCollateral",
      "outputs": [],
      "stateMutability": "nonpayable",
      "type": "function"
    },
    {
      "inputs": [
        {
          "internalType": "address",
          "name": "_otokenAddress",
          "type": "address"
        }
      ],
      "name": "whitelistOtoken",
      "outputs": [],
      "stateMutability": "nonpayable",
      "type": "function"
    },
    {
      "inputs": [
        {
          "internalType": "address",
          "name": "_underlying",
          "type": "address"
        },
        {
          "internalType": "address",
          "name": "_strike",
          "type": "address"
        },
        {
          "internalType": "address",
          "name": "_collateral",
          "type": "address"
        },
        {
          "internalType": "bool",
          "name": "_isPut",
          "type": "bool"
        }
      ],
      "name": "whitelistProduct",
      "outputs": [],
      "stateMutability": "nonpayable",
      "type": "function"
    }
  ],
  "bytecode": "0x608060405234801561001057600080fd5b50604051611de5380380611de58339818101604052602081101561003357600080fd5b810190808051906020019092919050505060006100546101dc60201b60201c565b9050806000806101000a81548173ffffffffffffffffffffffffffffffffffffffff021916908373ffffffffffffffffffffffffffffffffffffffff1602179055508073ffffffffffffffffffffffffffffffffffffffff16600073ffffffffffffffffffffffffffffffffffffffff167f8be0079c531659141344cd1fd0a4f28419497f9722a3daafe3b4186f6b6457e060405160405180910390a350600073ffffffffffffffffffffffffffffffffffffffff168173ffffffffffffffffffffffffffffffffffffffff161415610195576040517f08c379a00000000000000000000000000000000000000000000000000000000081526004018080602001828103825260148152602001807f496e76616c6964206164647265737320626f6f6b00000000000000000000000081525060200191505060405180910390fd5b80600160006101000a81548173ffffffffffffffffffffffffffffffffffffffff021916908373ffffffffffffffffffffffffffffffffffffffff160217905550506101e4565b600033905090565b611bf2806101f36000396000f3fe608060405234801561001057600080fd5b50600436106101005760003560e01c8063a2ae545a11610097578063ec7127b611610066578063ec7127b61461052d578063f2fde38b14610571578063f5887cdd146105b5578063f9839d89146105ff57610100565b8063a2ae545a146103b9578063a34626c414610415578063a6dfe83f14610459578063ebd31e8e146104e957610100565b8063715018a6116100d3578063715018a61461029157806379df1e441461029b57806382d90ebf146102df5780638da5cb5b1461036f57610100565b806311946b981461010557806315f73b0114610161578063401a83cf146101a5578063708a03931461024d575b600080fd5b6101476004803603602081101561011b57600080fd5b81019080803573ffffffffffffffffffffffffffffffffffffffff16906020019092919050505061065b565b604051808215151515815260200191505060405180910390f35b6101a36004803603602081101561017757600080fd5b81019080803573ffffffffffffffffffffffffffffffffffffffff1690602001909291905050506106b1565b005b610233600480360360808110156101bb57600080fd5b81019080803573ffffffffffffffffffffffffffffffffffffffff169060200190929190803573ffffffffffffffffffffffffffffffffffffffff169060200190929190803573ffffffffffffffffffffffffffffffffffffffff169060200190929190803515159060200190929190505050610818565b604051808215151515815260200191505060405180910390f35b61028f6004803603602081101561026357600080fd5b81019080803573ffffffffffffffffffffffffffffffffffffffff169060200190929190505050610910565b005b610299610a77565b005b6102dd600480360360208110156102b157600080fd5b81019080803573ffffffffffffffffffffffffffffffffffffffff169060200190929190505050610bff565b005b61036d600480360360808110156102f557600080fd5b81019080803573ffffffffffffffffffffffffffffffffffffffff169060200190929190803573ffffffffffffffffffffffffffffffffffffffff169060200190929190803573ffffffffffffffffffffffffffffffffffffffff169060200190929190803515159060200190929190505050610d66565b005b610377611124565b604051808273ffffffffffffffffffffffffffffffffffffffff1673ffffffffffffffffffffffffffffffffffffffff16815260200191505060405180910390f35b6103fb600480360360208110156103cf57600080fd5b81019080803573ffffffffffffffffffffffffffffffffffffffff16906020019092919050505061114d565b604051808215151515815260200191505060405180910390f35b6104576004803603602081101561042b57600080fd5b81019080803573ffffffffffffffffffffffffffffffffffffffff1690602001909291905050506111a3565b005b6104e76004803603608081101561046f57600080fd5b81019080803573ffffffffffffffffffffffffffffffffffffffff169060200190929190803573ffffffffffffffffffffffffffffffffffffffff169060200190929190803573ffffffffffffffffffffffffffffffffffffffff16906020019092919080351515906020019092919050505061130a565b005b61052b600480360360208110156104ff57600080fd5b81019080803573ffffffffffffffffffffffffffffffffffffffff169060200190929190505050611559565b005b61056f6004803603602081101561054357600080fd5b81019080803573ffffffffffffffffffffffffffffffffffffffff1690602001909291905050506116c0565b005b6105b36004803603602081101561058757600080fd5b81019080803573ffffffffffffffffffffffffffffffffffffffff169060200190929190505050611884565b005b6105bd611a91565b604051808273ffffffffffffffffffffffffffffffffffffffff1673ffffffffffffffffffffffffffffffffffffffff16815260200191505060405180910390f35b6106416004803603602081101561061557600080fd5b81019080803573ffffffffffffffffffffffffffffffffffffffff169060200190929190505050611ab7565b604051808215151515815260200191505060405180910390f35b6000600460008373ffffffffffffffffffffffffffffffffffffffff1673ffffffffffffffffffffffffffffffffffffffff16815260200190815260200160002060009054906101000a900460ff169050919050565b6106b9611b0d565b73ffffffffffffffffffffffffffffffffffffffff166000809054906101000a900473ffffffffffffffffffffffffffffffffffffffff1673ffffffffffffffffffffffffffffffffffffffff161461077a576040517f08c379a00000000000000000000000000000000000000000000000000000000081526004018080602001828103825260208152602001807f4f776e61626c653a2063616c6c6572206973206e6f7420746865206f776e657281525060200191505060405180910390fd5b6000600360008373ffffffffffffffffffffffffffffffffffffffff1673ffffffffffffffffffffffffffffffffffffffff16815260200190815260200160002060006101000a81548160ff0219169083151502179055508073ffffffffffffffffffffffffffffffffffffffff167f2e27eeed3fdce92fcbb383357973ca18ad411294e3cb4f9c07a8665aee9bcf1860405160405180910390a250565b60008085858585604051602001808573ffffffffffffffffffffffffffffffffffffffff1673ffffffffffffffffffffffffffffffffffffffff1681526020018473ffffffffffffffffffffffffffffffffffffffff1673ffffffffffffffffffffffffffffffffffffffff1681526020018373ffffffffffffffffffffffffffffffffffffffff1673ffffffffffffffffffffffffffffffffffffffff168152602001821515151581526020019450505050506040516020818303038152906040528051906020012090506002600082815260200190815260200160002060009054906101000a900460ff16915050949350505050565b610918611b0d565b73ffffffffffffffffffffffffffffffffffffffff166000809054906101000a900473ffffffffffffffffffffffffffffffffffffffff1673ffffffffffffffffffffffffffffffffffffffff16146109d9576040517f08c379a00000000000000000000000000000000000000000000000000000000081526004018080602001828103825260208152602001807f4f776e61626c653a2063616c6c6572206973206e6f7420746865206f776e657281525060200191505060405180910390fd5b6001600560008373ffffffffffffffffffffffffffffffffffffffff1673ffffffffffffffffffffffffffffffffffffffff16815260200190815260200160002060006101000a81548160ff0219169083151502179055508073ffffffffffffffffffffffffffffffffffffffff167f9334f1cf560b8678d242a97ff8aa0f60f61c40b3b7e3bd1a1b6759bb0cec6b9e60405160405180910390a250565b610a7f611b0d565b73ffffffffffffffffffffffffffffffffffffffff166000809054906101000a900473ffffffffffffffffffffffffffffffffffffffff1673ffffffffffffffffffffffffffffffffffffffff1614610b40576040517f08c379a00000000000000000000000000000000000000000000000000000000081526004018080602001828103825260208152602001807f4f776e61626c653a2063616c6c6572206973206e6f7420746865206f776e657281525060200191505060405180910390fd5b600073ffffffffffffffffffffffffffffffffffffffff166000809054906101000a900473ffffffffffffffffffffffffffffffffffffffff1673ffffffffffffffffffffffffffffffffffffffff167f8be0079c531659141344cd1fd0a4f28419497f9722a3daafe3b4186f6b6457e060405160405180910390a360008060006101000a81548173ffffffffffffffffffffffffffffffffffffffff021916908373ffffffffffffffffffffffffffffffffffffffff160217905550565b610c07611b0d565b73ffffffffffffffffffffffffffffffffffffffff166000809054906101000a900473ffffffffffffffffffffffffffffffffffffffff1673ffffffffffffffffffffffffffffffffffffffff1614610cc8576040517f08c379a00000000000000000000000000000000000000000000000000000000081526004018080602001828103825260208152602001807f4f776e61626c653a2063616c6c6572206973206e6f7420746865206f776e657281525060200191505060405180910390fd5b6000600460008373ffffffffffffffffffffffffffffffffffffffff1673ffffffffffffffffffffffffffffffffffffffff16815260200190815260200160002060006101000a81548160ff0219169083151502179055508073ffffffffffffffffffffffffffffffffffffffff167fdb9b6d848ff0a15fae4f0c0424b4bb6ddd97ac1d06b2d160ba86fc2832de581460405160405180910390a250565b610d6e611b0d565b73ffffffffffffffffffffffffffffffffffffffff166000809054906101000a900473ffffffffffffffffffffffffffffffffffffffff1673ffffffffffffffffffffffffffffffffffffffff1614610e2f576040517f08c379a00000000000000000000000000000000000000000000000000000000081526004018080602001828103825260208152602001807f4f776e61626c653a2063616c6c6572206973206e6f7420746865206f776e657281525060200191505060405180910390fd5b600360008373ffffffffffffffffffffffffffffffffffffffff1673ffffffffffffffffffffffffffffffffffffffff16815260200190815260200160002060009054906101000a900460ff16610ed1576040517f08c379a0000000000000000000000000000000000000000000000000000000008152600401808060200182810382526028815260200180611b6f6028913960400191505060405180910390fd5b808015610f0957508173ffffffffffffffffffffffffffffffffffffffff168373ffffffffffffffffffffffffffffffffffffffff16145b80610f49575080158015610f4857508373ffffffffffffffffffffffffffffffffffffffff168273ffffffffffffffffffffffffffffffffffffffff16145b5b610f9e576040517f08c379a0000000000000000000000000000000000000000000000000000000008152600401808060200182810382526033815260200180611b3c6033913960400191505060405180910390fd5b600084848484604051602001808573ffffffffffffffffffffffffffffffffffffffff1673ffffffffffffffffffffffffffffffffffffffff1681526020018473ffffffffffffffffffffffffffffffffffffffff1673ffffffffffffffffffffffffffffffffffffffff1681526020018373ffffffffffffffffffffffffffffffffffffffff1673ffffffffffffffffffffffffffffffffffffffff1681526020018215151515815260200194505050505060405160208183030381529060405280519060200120905060016002600083815260200190815260200160002060006101000a81548160ff0219169083151502179055508273ffffffffffffffffffffffffffffffffffffffff168473ffffffffffffffffffffffffffffffffffffffff168673ffffffffffffffffffffffffffffffffffffffff167f0f70a67bc35edde2b5599b6d163651e02f760143df04f95b4ef233299531bf21848660405180838152602001821515151581526020019250505060405180910390a45050505050565b60008060009054906101000a900473ffffffffffffffffffffffffffffffffffffffff16905090565b6000600560008373ffffffffffffffffffffffffffffffffffffffff1673ffffffffffffffffffffffffffffffffffffffff16815260200190815260200160002060009054906101000a900460ff169050919050565b6111ab611b0d565b73ffffffffffffffffffffffffffffffffffffffff166000809054906101000a900473ffffffffffffffffffffffffffffffffffffffff1673ffffffffffffffffffffffffffffffffffffffff161461126c576040517f08c379a00000000000000000000000000000000000000000000000000000000081526004018080602001828103825260208152602001807f4f776e61626c653a2063616c6c6572206973206e6f7420746865206f776e657281525060200191505060405180910390fd5b6001600360008373ffffffffffffffffffffffffffffffffffffffff1673ffffffffffffffffffffffffffffffffffffffff16815260200190815260200160002060006101000a81548160ff0219169083151502179055508073ffffffffffffffffffffffffffffffffffffffff167f38c11947f16670fa95ddb76444c21a13a0be4f0132d147eb6245c4b94ea889fa60405160405180910390a250565b611312611b0d565b73ffffffffffffffffffffffffffffffffffffffff166000809054906101000a900473ffffffffffffffffffffffffffffffffffffffff1673ffffffffffffffffffffffffffffffffffffffff16146113d3576040517f08c379a00000000000000000000000000000000000000000000000000000000081526004018080602001828103825260208152602001807f4f776e61626c653a2063616c6c6572206973206e6f7420746865206f776e657281525060200191505060405180910390fd5b600084848484604051602001808573ffffffffffffffffffffffffffffffffffffffff1673ffffffffffffffffffffffffffffffffffffffff1681526020018473ffffffffffffffffffffffffffffffffffffffff1673ffffffffffffffffffffffffffffffffffffffff1681526020018373ffffffffffffffffffffffffffffffffffffffff1673ffffffffffffffffffffffffffffffffffffffff1681526020018215151515815260200194505050505060405160208183030381529060405280519060200120905060006002600083815260200190815260200160002060006101000a81548160ff0219169083151502179055508273ffffffffffffffffffffffffffffffffffffffff168473ffffffffffffffffffffffffffffffffffffffff168673ffffffffffffffffffffffffffffffffffffffff167fa1ddf2a4744cc5c7c0dbe14996f16cb2d8564ef718f45625629e8a0497b9779a848660405180838152602001821515151581526020019250505060405180910390a45050505050565b611561611b0d565b73ffffffffffffffffffffffffffffffffffffffff166000809054906101000a900473ffffffffffffffffffffffffffffffffffffffff1673ffffffffffffffffffffffffffffffffffffffff1614611622576040517f08c379a00000000000000000000000000000000000000000000000000000000081526004018080602001828103825260208152602001807f4f776e61626c653a2063616c6c6572206973206e6f7420746865206f776e657281525060200191505060405180910390fd5b6000600560008373ffffffffffffffffffffffffffffffffffffffff1673ffffffffffffffffffffffffffffffffffffffff16815260200190815260200160002060006101000a81548160ff0219169083151502179055508073ffffffffffffffffffffffffffffffffffffffff167f1b04f3cb09a85dced592e37ae08b2a135757683e30116221003f6620de94d40060405160405180910390a250565b600160009054906101000a900473ffffffffffffffffffffffffffffffffffffffff1673ffffffffffffffffffffffffffffffffffffffff16631ffaf0db6040518163ffffffff1660e01b815260040160206040518083038186803b15801561172857600080fd5b505afa15801561173c573d6000803e3d6000fd5b505050506040513d602081101561175257600080fd5b810190808051906020019092919050505073ffffffffffffffffffffffffffffffffffffffff163373ffffffffffffffffffffffffffffffffffffffff16146117e6576040517f08c379a0000000000000000000000000000000000000000000000000000000008152600401808060200182810382526026815260200180611b976026913960400191505060405180910390fd5b6001600460008373ffffffffffffffffffffffffffffffffffffffff1673ffffffffffffffffffffffffffffffffffffffff16815260200190815260200160002060006101000a81548160ff0219169083151502179055508073ffffffffffffffffffffffffffffffffffffffff167fafbb5b30329d7def9553a137626d5bc919fda8f5d1d1b5a64aa6123445b9415b60405160405180910390a250565b61188c611b0d565b73ffffffffffffffffffffffffffffffffffffffff166000809054906101000a900473ffffffffffffffffffffffffffffffffffffffff1673ffffffffffffffffffffffffffffffffffffffff161461194d576040517f08c379a00000000000000000000000000000000000000000000000000000000081526004018080602001828103825260208152602001807f4f776e61626c653a2063616c6c6572206973206e6f7420746865206f776e657281525060200191505060405180910390fd5b600073ffffffffffffffffffffffffffffffffffffffff168173ffffffffffffffffffffffffffffffffffffffff1614156119d3576040517f08c379a0000000000000000000000000000000000000000000000000000000008152600401808060200182810382526026815260200180611b166026913960400191505060405180910390fd5b8073ffffffffffffffffffffffffffffffffffffffff166000809054906101000a900473ffffffffffffffffffffffffffffffffffffffff1673ffffffffffffffffffffffffffffffffffffffff167f8be0079c531659141344cd1fd0a4f28419497f9722a3daafe3b4186f6b6457e060405160405180910390a3806000806101000a81548173ffffffffffffffffffffffffffffffffffffffff021916908373ffffffffffffffffffffffffffffffffffffffff16021790555050565b600160009054906101000a900473ffffffffffffffffffffffffffffffffffffffff1681565b6000600360008373ffffffffffffffffffffffffffffffffffffffff1673ffffffffffffffffffffffffffffffffffffffff16815260200190815260200160002060009054906101000a900460ff169050919050565b60003390509056fe4f776e61626c653a206e6577206f776e657220697320746865207a65726f206164647265737357686974656c6973743a204f6e6c7920616c6c6f772066756c6c7920636f6c6c61746572616c697a65642070726f647563747357686974656c6973743a20436f6c6c61746572616c206973206e6f742077686974656c697374656457686974656c6973743a2053656e646572206973206e6f74204f746f6b656e466163746f7279a2646970667358221220eeab38184e2171dc2ae417d304f8c69fe7df29fa0c1834c31770325d47fd48ea64736f6c634300060a0033",
  "linkReferences": {},
  "deployedLinkReferences": {}
}