{
  "_format": "hh-sol-artifact-1",
  "contractName": "MarginVaultTester",
  "sourceName": "contracts/Gamma/tests/MarginVaultTester.sol",
  "abi": [
    {
      "inputs": [
        {
          "internalType": "uint256",
          "name": "_vaultIndex",
          "type": "uint256"
        }
      ],
      "name": "getVault",
      "outputs": [
        {
          "components": [
            {
              "internalType": "address[]",
              "name": "shortOtokens",
              "type": "address[]"
            },
            {
              "internalType": "address[]",
              "name": "longOtokens",
              "type": "address[]"
            },
            {
              "internalType": "address[]",
              "name": "collateralAssets",
              "type": "address[]"
            },
            {
              "internalType": "uint256[]",
              "name": "shortAmounts",
              "type": "uint256[]"
            },
            {
              "internalType": "uint256[]",
              "name": "longAmounts",
              "type": "uint256[]"
            },
            {
              "internalType": "uint256[]",
              "name": "collateralAmounts",
              "type": "uint256[]"
            }
          ],
          "internalType": "struct MarginVault.Vault",
          "name": "",
          "type": "tuple"
        }
      ],
      "stateMutability": "view",
      "type": "function"
    },
    {
      "inputs": [
        {
          "internalType": "uint256",
          "name": "_vaultIndex",
          "type": "uint256"
        },
        {
          "internalType": "address",
          "name": "_collateralAsset",
          "type": "address"
        },
        {
          "internalType": "uint256",
          "name": "_amount",
          "type": "uint256"
        },
        {
          "internalType": "uint256",
          "name": "_index",
          "type": "uint256"
        }
      ],
      "name": "testAddCollateral",
      "outputs": [],
      "stateMutability": "nonpayable",
      "type": "function"
    },
    {
      "inputs": [
        {
          "internalType": "uint256",
          "name": "_vaultIndex",
          "type": "uint256"
        },
        {
          "internalType": "address",
          "name": "_longOtoken",
          "type": "address"
        },
        {
          "internalType": "uint256",
          "name": "_amount",
          "type": "uint256"
        },
        {
          "internalType": "uint256",
          "name": "_index",
          "type": "uint256"
        }
      ],
      "name": "testAddLong",
      "outputs": [],
      "stateMutability": "nonpayable",
      "type": "function"
    },
    {
      "inputs": [
        {
          "internalType": "uint256",
          "name": "_vaultIndex",
          "type": "uint256"
        },
        {
          "internalType": "address",
          "name": "_shortOtoken",
          "type": "address"
        },
        {
          "internalType": "uint256",
          "name": "_amount",
          "type": "uint256"
        },
        {
          "internalType": "uint256",
          "name": "_index",
          "type": "uint256"
        }
      ],
      "name": "testAddShort",
      "outputs": [],
      "stateMutability": "nonpayable",
      "type": "function"
    },
    {
      "inputs": [
        {
          "internalType": "uint256",
          "name": "_vaultIndex",
          "type": "uint256"
        },
        {
          "internalType": "address",
          "name": "_collateralAsset",
          "type": "address"
        },
        {
          "internalType": "uint256",
          "name": "_amount",
          "type": "uint256"
        },
        {
          "internalType": "uint256",
          "name": "_index",
          "type": "uint256"
        }
      ],
      "name": "testRemoveCollateral",
      "outputs": [],
      "stateMutability": "nonpayable",
      "type": "function"
    },
    {
      "inputs": [
        {
          "internalType": "uint256",
          "name": "_vaultIndex",
          "type": "uint256"
        },
        {
          "internalType": "address",
          "name": "_longOtoken",
          "type": "address"
        },
        {
          "internalType": "uint256",
          "name": "_amount",
          "type": "uint256"
        },
        {
          "internalType": "uint256",
          "name": "_index",
          "type": "uint256"
        }
      ],
      "name": "testRemoveLong",
      "outputs": [],
      "stateMutability": "nonpayable",
      "type": "function"
    },
    {
      "inputs": [
        {
          "internalType": "uint256",
          "name": "_vaultIndex",
          "type": "uint256"
        },
        {
          "internalType": "address",
          "name": "_shortOtoken",
          "type": "address"
        },
        {
          "internalType": "uint256",
          "name": "_amount",
          "type": "uint256"
        },
        {
          "internalType": "uint256",
          "name": "_index",
          "type": "uint256"
        }
      ],
      "name": "testRemoveShort",
      "outputs": [],
      "stateMutability": "nonpayable",
      "type": "function"
    }
  ],
  "bytecode": "0x608060405234801561001057600080fd5b50610d47806100206000396000f3fe608060405234801561001057600080fd5b506004361061007d5760003560e01c80633ef3feaf1161005b5780633ef3feaf146100d65780638a2ae0a8146100f25780639403b6341461010e578063ac7d117a1461013e5761007d565b80631a4b299d146100825780631ac3a5fb1461009e57806322786c1f146100ba575b600080fd5b61009c60048036038101906100979190610990565b61015a565b005b6100b860048036038101906100b39190610990565b61021d565b005b6100d460048036038101906100cf9190610990565b6102e0565b005b6100f060048036038101906100eb9190610990565b6103a3565b005b61010c60048036038101906101079190610990565b610466565b005b61012860048036038101906101239190610967565b610529565b6040516101359190610bce565b60405180910390f35b61015860048036038101906101539190610990565b610844565b005b6000803373ffffffffffffffffffffffffffffffffffffffff1673ffffffffffffffffffffffffffffffffffffffff168152602001908152602001600020600085815260200190815260200160002073__$6273469f5bd9f88e32f4b846ef0a64c31e$__63951dd8d390918585856040518563ffffffff1660e01b81526004016101e79493929190610bf0565b60006040518083038186803b1580156101ff57600080fd5b505af4158015610213573d6000803e3d6000fd5b5050505050505050565b6000803373ffffffffffffffffffffffffffffffffffffffff1673ffffffffffffffffffffffffffffffffffffffff168152602001908152602001600020600085815260200190815260200160002073__$6273469f5bd9f88e32f4b846ef0a64c31e$__63ef682c1b90918585856040518563ffffffff1660e01b81526004016102aa9493929190610bf0565b60006040518083038186803b1580156102c257600080fd5b505af41580156102d6573d6000803e3d6000fd5b5050505050505050565b6000803373ffffffffffffffffffffffffffffffffffffffff1673ffffffffffffffffffffffffffffffffffffffff168152602001908152602001600020600085815260200190815260200160002073__$6273469f5bd9f88e32f4b846ef0a64c31e$__637e5d2ac090918585856040518563ffffffff1660e01b815260040161036d9493929190610bf0565b60006040518083038186803b15801561038557600080fd5b505af4158015610399573d6000803e3d6000fd5b5050505050505050565b6000803373ffffffffffffffffffffffffffffffffffffffff1673ffffffffffffffffffffffffffffffffffffffff168152602001908152602001600020600085815260200190815260200160002073__$6273469f5bd9f88e32f4b846ef0a64c31e$__63e02ff74090918585856040518563ffffffff1660e01b81526004016104309493929190610bf0565b60006040518083038186803b15801561044857600080fd5b505af415801561045c573d6000803e3d6000fd5b5050505050505050565b6000803373ffffffffffffffffffffffffffffffffffffffff1673ffffffffffffffffffffffffffffffffffffffff168152602001908152602001600020600085815260200190815260200160002073__$6273469f5bd9f88e32f4b846ef0a64c31e$__63aadf939890918585856040518563ffffffff1660e01b81526004016104f39493929190610bf0565b60006040518083038186803b15801561050b57600080fd5b505af415801561051f573d6000803e3d6000fd5b5050505050505050565b610531610907565b6000803373ffffffffffffffffffffffffffffffffffffffff1673ffffffffffffffffffffffffffffffffffffffff16815260200190815260200160002060008381526020019081526020016000206040518060c00160405290816000820180548060200260200160405190810160405280929190818152602001828054801561061057602002820191906000526020600020905b8160009054906101000a900473ffffffffffffffffffffffffffffffffffffffff1673ffffffffffffffffffffffffffffffffffffffff16815260200190600101908083116105c6575b505050505081526020016001820180548060200260200160405190810160405280929190818152602001828054801561069e57602002820191906000526020600020905b8160009054906101000a900473ffffffffffffffffffffffffffffffffffffffff1673ffffffffffffffffffffffffffffffffffffffff1681526020019060010190808311610654575b505050505081526020016002820180548060200260200160405190810160405280929190818152602001828054801561072c57602002820191906000526020600020905b8160009054906101000a900473ffffffffffffffffffffffffffffffffffffffff1673ffffffffffffffffffffffffffffffffffffffff16815260200190600101908083116106e2575b505050505081526020016003820180548060200260200160405190810160405280929190818152602001828054801561078457602002820191906000526020600020905b815481526020019060010190808311610770575b50505050508152602001600482018054806020026020016040519081016040528092919081815260200182805480156107dc57602002820191906000526020600020905b8154815260200190600101908083116107c8575b505050505081526020016005820180548060200260200160405190810160405280929190818152602001828054801561083457602002820191906000526020600020905b815481526020019060010190808311610820575b5050505050815250509050919050565b6000803373ffffffffffffffffffffffffffffffffffffffff1673ffffffffffffffffffffffffffffffffffffffff168152602001908152602001600020600085815260200190815260200160002073__$6273469f5bd9f88e32f4b846ef0a64c31e$__637b5c283590918585856040518563ffffffff1660e01b81526004016108d19493929190610bf0565b60006040518083038186803b1580156108e957600080fd5b505af41580156108fd573d6000803e3d6000fd5b5050505050505050565b6040518060c001604052806060815260200160608152602001606081526020016060815260200160608152602001606081525090565b60008135905061094c81610ce3565b92915050565b60008135905061096181610cfa565b92915050565b60006020828403121561097957600080fd5b600061098784828501610952565b91505092915050565b600080600080608085870312156109a657600080fd5b60006109b487828801610952565b94505060206109c58782880161093d565b93505060406109d687828801610952565b92505060606109e787828801610952565b91505092959194509250565b60006109ff8383610a23565b60208301905092915050565b6000610a178383610bb0565b60208301905092915050565b610a2c81610ca7565b82525050565b610a3b81610ca7565b82525050565b6000610a4c82610c55565b610a568185610c85565b9350610a6183610c35565b8060005b83811015610a92578151610a7988826109f3565b9750610a8483610c6b565b925050600181019050610a65565b5085935050505092915050565b6000610aaa82610c60565b610ab48185610c96565b9350610abf83610c45565b8060005b83811015610af0578151610ad78882610a0b565b9750610ae283610c78565b925050600181019050610ac3565b5085935050505092915050565b600060c0830160008301518482036000860152610b1a8282610a41565b91505060208301518482036020860152610b348282610a41565b91505060408301518482036040860152610b4e8282610a41565b91505060608301518482036060860152610b688282610a9f565b91505060808301518482036080860152610b828282610a9f565b91505060a083015184820360a0860152610b9c8282610a9f565b9150508091505092915050565b8082525050565b610bb981610cd9565b82525050565b610bc881610cd9565b82525050565b60006020820190508181036000830152610be88184610afd565b905092915050565b6000608082019050610c056000830187610ba9565b610c126020830186610a32565b610c1f6040830185610bbf565b610c2c6060830184610bbf565b95945050505050565b6000819050602082019050919050565b6000819050602082019050919050565b600081519050919050565b600081519050919050565b6000602082019050919050565b6000602082019050919050565b600082825260208201905092915050565b600082825260208201905092915050565b6000610cb282610cb9565b9050919050565b600073ffffffffffffffffffffffffffffffffffffffff82169050919050565b6000819050919050565b610cec81610ca7565b8114610cf757600080fd5b50565b610d0381610cd9565b8114610d0e57600080fd5b5056fea26469706673582212207f32fa73a37e82341c1962bfdb06466082939e7c3d49fe9737013c4f0b9a386864736f6c634300060a0033",
  "linkReferences": {
    "contracts/Gamma/libs/MarginVault.sol": {
      "MarginVault": [
        {
          "length": 20,
          "start": 459
        },
        {
          "length": 20,
          "start": 654
        },
        {
          "length": 20,
          "start": 849
        },
        {
          "length": 20,
          "start": 1044
        },
        {
          "length": 20,
          "start": 1239
        },
        {
          "length": 20,
          "start": 2229
        }
      ]
    }
  },
  "deployedLinkReferences": {
    "contracts/Gamma/libs/MarginVault.sol": {
      "MarginVault": [
        {
          "length": 20,
          "start": 427
        },
        {
          "length": 20,
          "start": 622
        },
        {
          "length": 20,
          "start": 817
        },
        {
          "length": 20,
          "start": 1012
        },
        {
          "length": 20,
          "start": 1207
        },
        {
          "length": 20,
          "start": 2197
        }
      ]
    }
  }
}