{
  "_format": "hh-sol-artifact-1",
  "contractName": "Mock0xExchange",
  "sourceName": "contracts/Gamma/mocks/Mock0xExchange.sol",
  "abi": [
    {
      "inputs": [],
      "stateMutability": "nonpayable",
      "type": "constructor"
    },
    {
      "inputs": [
        {
          "components": [
            {
              "internalType": "address",
              "name": "makerToken",
              "type": "address"
            },
            {
              "internalType": "address",
              "name": "takerToken",
              "type": "address"
            },
            {
              "internalType": "uint128",
              "name": "makerAmount",
              "type": "uint128"
            },
            {
              "internalType": "uint128",
              "name": "takerAmount",
              "type": "uint128"
            },
            {
              "internalType": "uint128",
              "name": "takerTokenFeeAmount",
              "type": "uint128"
            },
            {
              "internalType": "address",
              "name": "maker",
              "type": "address"
            },
            {
              "internalType": "address",
              "name": "taker",
              "type": "address"
            },
            {
              "internalType": "address",
              "name": "sender",
              "type": "address"
            },
            {
              "internalType": "address",
              "name": "feeRecipient",
              "type": "address"
            },
            {
              "internalType": "bytes32",
              "name": "pool",
              "type": "bytes32"
            },
            {
              "internalType": "uint64",
              "name": "expiry",
              "type": "uint64"
            },
            {
              "internalType": "uint256",
              "name": "salt",
              "type": "uint256"
            }
          ],
          "internalType": "struct ZeroXExchangeInterface.LimitOrder[]",
          "name": "_orders",
          "type": "tuple[]"
        },
        {
          "components": [
            {
              "internalType": "uint8",
              "name": "signatureType",
              "type": "uint8"
            },
            {
              "internalType": "uint8",
              "name": "v",
              "type": "uint8"
            },
            {
              "internalType": "bytes32",
              "name": "r",
              "type": "bytes32"
            },
            {
              "internalType": "bytes32",
              "name": "s",
              "type": "bytes32"
            }
          ],
          "internalType": "struct ZeroXExchangeInterface.Signature[]",
          "name": "_signatures",
          "type": "tuple[]"
        },
        {
          "internalType": "uint128[]",
          "name": "_takerTokenFillAmounts",
          "type": "uint128[]"
        },
        {
          "internalType": "bool",
          "name": "_revertIfIncomplete",
          "type": "bool"
        }
      ],
      "name": "batchFillLimitOrders",
      "outputs": [
        {
          "internalType": "uint128[]",
          "name": "takerTokenFilledAmounts",
          "type": "uint128[]"
        },
        {
          "internalType": "uint128[]",
          "name": "makerTokenFilledAmounts",
          "type": "uint128[]"
        }
      ],
      "stateMutability": "payable",
      "type": "function"
    },
    {
      "inputs": [],
      "name": "called",
      "outputs": [
        {
          "internalType": "uint256",
          "name": "",
          "type": "uint256"
        }
      ],
      "stateMutability": "view",
      "type": "function"
    },
    {
      "inputs": [],
      "name": "fillAmount",
      "outputs": [
        {
          "internalType": "uint256",
          "name": "",
          "type": "uint256"
        }
      ],
      "stateMutability": "view",
      "type": "function"
    },
    {
      "inputs": [
        {
          "components": [
            {
              "internalType": "address",
              "name": "makerToken",
              "type": "address"
            },
            {
              "internalType": "address",
              "name": "takerToken",
              "type": "address"
            },
            {
              "internalType": "uint128",
              "name": "makerAmount",
              "type": "uint128"
            },
            {
              "internalType": "uint128",
              "name": "takerAmount",
              "type": "uint128"
            },
            {
              "internalType": "uint128",
              "name": "takerTokenFeeAmount",
              "type": "uint128"
            },
            {
              "internalType": "address",
              "name": "maker",
              "type": "address"
            },
            {
              "internalType": "address",
              "name": "taker",
              "type": "address"
            },
            {
              "internalType": "address",
              "name": "sender",
              "type": "address"
            },
            {
              "internalType": "address",
              "name": "feeRecipient",
              "type": "address"
            },
            {
              "internalType": "bytes32",
              "name": "pool",
              "type": "bytes32"
            },
            {
              "internalType": "uint64",
              "name": "expiry",
              "type": "uint64"
            },
            {
              "internalType": "uint256",
              "name": "salt",
              "type": "uint256"
            }
          ],
          "internalType": "struct ZeroXExchangeInterface.LimitOrder",
          "name": "_order",
          "type": "tuple"
        },
        {
          "components": [
            {
              "internalType": "uint8",
              "name": "signatureType",
              "type": "uint8"
            },
            {
              "internalType": "uint8",
              "name": "v",
              "type": "uint8"
            },
            {
              "internalType": "bytes32",
              "name": "r",
              "type": "bytes32"
            },
            {
              "internalType": "bytes32",
              "name": "s",
              "type": "bytes32"
            }
          ],
          "internalType": "struct ZeroXExchangeInterface.Signature",
          "name": "_signature",
          "type": "tuple"
        },
        {
          "internalType": "uint128",
          "name": "_takerTokenFillAmount",
          "type": "uint128"
        }
      ],
      "name": "fillLimitOrder",
      "outputs": [
        {
          "internalType": "uint128",
          "name": "takerTokenFilledAmount",
          "type": "uint128"
        },
        {
          "internalType": "uint128",
          "name": "makerTokenFilledAmount",
          "type": "uint128"
        }
      ],
      "stateMutability": "payable",
      "type": "function"
    },
    {
      "inputs": [],
      "name": "makerAmount",
      "outputs": [
        {
          "internalType": "uint256",
          "name": "",
          "type": "uint256"
        }
      ],
      "stateMutability": "view",
      "type": "function"
    },
    {
      "inputs": [],
      "name": "proxy",
      "outputs": [
        {
          "internalType": "contract Mock0xERC20Proxy",
          "name": "",
          "type": "address"
        }
      ],
      "stateMutability": "view",
      "type": "function"
    },
    {
      "inputs": [],
      "name": "signature",
      "outputs": [
        {
          "internalType": "bytes",
          "name": "",
          "type": "bytes"
        }
      ],
      "stateMutability": "view",
      "type": "function"
    },
    {
      "inputs": [],
      "name": "takerAmount",
      "outputs": [
        {
          "internalType": "uint256",
          "name": "",
          "type": "uint256"
        }
      ],
      "stateMutability": "view",
      "type": "function"
    }
  ],
  "bytecode": "0x60806040526000805534801561001457600080fd5b5060405161002190610083565b604051809103906000f08015801561003d573d6000803e3d6000fd5b50600560006101000a81548173ffffffffffffffffffffffffffffffffffffffff021916908373ffffffffffffffffffffffffffffffffffffffff160217905550610090565b61071f80610d7a83390190565b610cdb8061009f6000396000f3fe60806040526004361061007b5760003560e01c8063acd00a5c1161004e578063acd00a5c14610132578063dddfff871461015d578063ec55688914610188578063f6274f66146101b35761007b565b80631baaa00b146100805780632b5bd88e146100b157806350f9b6cd146100dc57806351ff484714610107575b600080fd5b61009a60048036038101906100959190610773565b6101e4565b6040516100a892919061095b565b60405180910390f35b3480156100bd57600080fd5b506100c66102cf565b6040516100d391906109f8565b60405180910390f35b3480156100e857600080fd5b506100f16102d5565b6040516100fe91906109f8565b60405180910390f35b34801561011357600080fd5b5061011c6102db565b6040516101299190610992565b60405180910390f35b34801561013e57600080fd5b50610147610379565b60405161015491906109f8565b60405180910390f35b34801561016957600080fd5b5061017261037f565b60405161017f91906109f8565b60405180910390f35b34801561019457600080fd5b5061019d610385565b6040516101aa91906109b4565b60405180910390f35b6101cd60048036038101906101c8919061081e565b6103ab565b6040516101db9291906109cf565b60405180910390f35b60608060008090505b86518110156102bf5761023a87828151811061020557fe5b602002602001015187838151811061021957fe5b602002602001015187848151811061022d57fe5b60200260200101516103ab565b84838151811061024657fe5b6020026020010184848151811061025957fe5b60200260200101826fffffffffffffffffffffffffffffffff166fffffffffffffffffffffffffffffffff16815250826fffffffffffffffffffffffffffffffff166fffffffffffffffffffffffffffffffff16815250505080806001019150506101ed565b5081819150915094509492505050565b60015481565b60005481565b60038054600181600116156101000203166002900480601f0160208091040260200160405190810160405280929190818152602001828054600181600116156101000203166002900480156103715780601f1061034657610100808354040283529160200191610371565b820191906000526020600020905b81548152906001019060200180831161035457829003601f168201915b505050505081565b60045481565b60025481565b600560009054906101000a900473ffffffffffffffffffffffffffffffffffffffff1681565b60008060008081915080905091509150935093915050565b6000813590506103d281610c04565b92915050565b600082601f8301126103e957600080fd5b81356103fc6103f782610a40565b610a13565b915081818352602084019350602081019050838561018084028201111561042257600080fd5b60005b838110156104535781610438888261058d565b84526020840193506101808301925050600181019050610425565b5050505092915050565b600082601f83011261046e57600080fd5b813561048161047c82610a68565b610a13565b915081818352602084019350602081019050838560808402820111156104a657600080fd5b60005b838110156104d657816104bc88826106ab565b8452602084019350608083019250506001810190506104a9565b5050505092915050565b600082601f8301126104f157600080fd5b81356105046104ff82610a90565b610a13565b9150818183526020840193506020810190508385602084028201111561052957600080fd5b60005b83811015610559578161053f888261071f565b84526020840193506020830192505060018101905061052c565b5050505092915050565b60008135905061057281610c1b565b92915050565b60008135905061058781610c32565b92915050565b600061018082840312156105a057600080fd5b6105ab610180610a13565b905060006105bb848285016103c3565b60008301525060206105cf848285016103c3565b60208301525060406105e38482850161071f565b60408301525060606105f78482850161071f565b606083015250608061060b8482850161071f565b60808301525060a061061f848285016103c3565b60a08301525060c0610633848285016103c3565b60c08301525060e0610647848285016103c3565b60e08301525061010061065c848285016103c3565b6101008301525061012061067284828501610578565b6101208301525061014061068884828501610749565b6101408301525061016061069e84828501610734565b6101608301525092915050565b6000608082840312156106bd57600080fd5b6106c76080610a13565b905060006106d78482850161075e565b60008301525060206106eb8482850161075e565b60208301525060406106ff84828501610578565b604083015250606061071384828501610578565b60608301525092915050565b60008135905061072e81610c49565b92915050565b60008135905061074381610c60565b92915050565b60008135905061075881610c77565b92915050565b60008135905061076d81610c8e565b92915050565b6000806000806080858703121561078957600080fd5b600085013567ffffffffffffffff8111156107a357600080fd5b6107af878288016103d8565b945050602085013567ffffffffffffffff8111156107cc57600080fd5b6107d88782880161045d565b935050604085013567ffffffffffffffff8111156107f557600080fd5b610801878288016104e0565b925050606061081287828801610563565b91505092959194509250565b6000806000610220848603121561083457600080fd5b60006108428682870161058d565b935050610180610854868287016106ab565b9250506102006108668682870161071f565b9150509250925092565b600061087c838361092e565b60208301905092915050565b600061089382610ac8565b61089d8185610aeb565b93506108a883610ab8565b8060005b838110156108d95781516108c08882610870565b97506108cb83610ade565b9250506001810190506108ac565b5085935050505092915050565b60006108f182610ad3565b6108fb8185610afc565b935061090b818560208601610bc0565b61091481610bf3565b840191505092915050565b61092881610b9c565b82525050565b61093781610b35565b82525050565b61094681610b35565b82525050565b61095581610b71565b82525050565b600060408201905081810360008301526109758185610888565b905081810360208301526109898184610888565b90509392505050565b600060208201905081810360008301526109ac81846108e6565b905092915050565b60006020820190506109c9600083018461091f565b92915050565b60006040820190506109e4600083018561093d565b6109f1602083018461093d565b9392505050565b6000602082019050610a0d600083018461094c565b92915050565b6000604051905081810181811067ffffffffffffffff82111715610a3657600080fd5b8060405250919050565b600067ffffffffffffffff821115610a5757600080fd5b602082029050602081019050919050565b600067ffffffffffffffff821115610a7f57600080fd5b602082029050602081019050919050565b600067ffffffffffffffff821115610aa757600080fd5b602082029050602081019050919050565b6000819050602082019050919050565b600081519050919050565b600081519050919050565b6000602082019050919050565b600082825260208201905092915050565b600082825260208201905092915050565b6000610b1882610b51565b9050919050565b60008115159050919050565b6000819050919050565b60006fffffffffffffffffffffffffffffffff82169050919050565b600073ffffffffffffffffffffffffffffffffffffffff82169050919050565b6000819050919050565b600067ffffffffffffffff82169050919050565b600060ff82169050919050565b6000610ba782610bae565b9050919050565b6000610bb982610b51565b9050919050565b60005b83811015610bde578082015181840152602081019050610bc3565b83811115610bed576000848401525b50505050565b6000601f19601f8301169050919050565b610c0d81610b0d565b8114610c1857600080fd5b50565b610c2481610b1f565b8114610c2f57600080fd5b50565b610c3b81610b2b565b8114610c4657600080fd5b50565b610c5281610b35565b8114610c5d57600080fd5b50565b610c6981610b71565b8114610c7457600080fd5b50565b610c8081610b7b565b8114610c8b57600080fd5b50565b610c9781610b8f565b8114610ca257600080fd5b5056fea264697066735822122079ac6dad9d60848cb10a05e8a7f4c04ac9055e4fedbf09727dd496c085b37c7064736f6c634300060a0033608060405234801561001057600080fd5b506106ff806100206000396000f3fe608060405234801561001057600080fd5b506004361061002b5760003560e01c80632c54de4f14610030575b600080fd5b61004a6004803603810190610045919061035c565b61004c565b005b6100798383838773ffffffffffffffffffffffffffffffffffffffff1661007f909392919063ffffffff16565b50505050565b610102846323b872dd60e01b8585856040516024016100a09392919061052d565b604051602081830303815290604052907bffffffffffffffffffffffffffffffffffffffffffffffffffffffff19166020820180517bffffffffffffffffffffffffffffffffffffffffffffffffffffffff8381831617835250505050610108565b50505050565b606061016a826040518060400160405280602081526020017f5361666545524332303a206c6f772d6c6576656c2063616c6c206661696c65648152508573ffffffffffffffffffffffffffffffffffffffff166101cf9092919063ffffffff16565b90506000815111156101ca578080602001905181019061018a91906103bf565b6101c9576040517f08c379a00000000000000000000000000000000000000000000000000000000081526004016101c0906105a6565b60405180910390fd5b5b505050565b60606101de84846000856101e7565b90509392505050565b60606101f28561030a565b610231576040517f08c379a000000000000000000000000000000000000000000000000000000000815260040161022890610586565b60405180910390fd5b600060608673ffffffffffffffffffffffffffffffffffffffff16858760405161025b9190610516565b60006040518083038185875af1925050503d8060008114610298576040519150601f19603f3d011682016040523d82523d6000602084013e61029d565b606091505b509150915081156102b2578092505050610302565b6000815111156102c55780518082602001fd5b836040517f08c379a00000000000000000000000000000000000000000000000000000000081526004016102f99190610564565b60405180910390fd5b949350505050565b600080823b905060008111915050919050565b60008135905061032c81610684565b92915050565b6000815190506103418161069b565b92915050565b600081359050610356816106b2565b92915050565b6000806000806080858703121561037257600080fd5b60006103808782880161031d565b94505060206103918782880161031d565b93505060406103a28782880161031d565b92505060606103b387828801610347565b91505092959194509250565b6000602082840312156103d157600080fd5b60006103df84828501610332565b91505092915050565b6103f1816105f8565b82525050565b6000610402826105c6565b61040c81856105dc565b935061041c818560208601610640565b80840191505092915050565b6000610433826105d1565b61043d81856105e7565b935061044d818560208601610640565b61045681610673565b840191505092915050565b600061046e601d836105e7565b91507f416464726573733a2063616c6c20746f206e6f6e2d636f6e74726163740000006000830152602082019050919050565b60006104ae602a836105e7565b91507f5361666545524332303a204552433230206f7065726174696f6e20646964206e60008301527f6f742073756363656564000000000000000000000000000000000000000000006020830152604082019050919050565b61051081610636565b82525050565b600061052282846103f7565b915081905092915050565b600060608201905061054260008301866103e8565b61054f60208301856103e8565b61055c6040830184610507565b949350505050565b6000602082019050818103600083015261057e8184610428565b905092915050565b6000602082019050818103600083015261059f81610461565b9050919050565b600060208201905081810360008301526105bf816104a1565b9050919050565b600081519050919050565b600081519050919050565b600081905092915050565b600082825260208201905092915050565b600061060382610616565b9050919050565b60008115159050919050565b600073ffffffffffffffffffffffffffffffffffffffff82169050919050565b6000819050919050565b60005b8381101561065e578082015181840152602081019050610643565b8381111561066d576000848401525b50505050565b6000601f19601f8301169050919050565b61068d816105f8565b811461069857600080fd5b50565b6106a48161060a565b81146106af57600080fd5b50565b6106bb81610636565b81146106c657600080fd5b5056fea2646970667358221220b2e4ab76d6d8a1b0a539fee4c5b652ebb21fc9a391b059457372b02f2b15842d64736f6c634300060a0033",
  "linkReferences": {},
  "deployedLinkReferences": {}
}