{
  "_format": "hh-sol-artifact-1",
  "contractName": "YearnPricer",
  "sourceName": "contracts/Gamma/pricers/YearnPricer.sol",
  "abi": [
    {
      "inputs": [
        {
          "internalType": "address",
          "name": "_yToken",
          "type": "address"
        },
        {
          "internalType": "address",
          "name": "_underlying",
          "type": "address"
        },
        {
          "internalType": "address",
          "name": "_oracle",
          "type": "address"
        }
      ],
      "stateMutability": "nonpayable",
      "type": "constructor"
    },
    {
      "inputs": [
        {
          "internalType": "uint80",
          "name": "_roundId",
          "type": "uint80"
        }
      ],
      "name": "getHistoricalPrice",
      "outputs": [
        {
          "internalType": "uint256",
          "name": "",
          "type": "uint256"
        },
        {
          "internalType": "uint256",
          "name": "",
          "type": "uint256"
        }
      ],
      "stateMutability": "view",
      "type": "function"
    },
    {
      "inputs": [],
      "name": "getPrice",
      "outputs": [
        {
          "internalType": "uint256",
          "name": "",
          "type": "uint256"
        }
      ],
      "stateMutability": "view",
      "type": "function"
    },
    {
      "inputs": [],
      "name": "oracle",
      "outputs": [
        {
          "internalType": "contract OracleInterface",
          "name": "",
          "type": "address"
        }
      ],
      "stateMutability": "view",
      "type": "function"
    },
    {
      "inputs": [
        {
          "internalType": "uint256",
          "name": "_expiryTimestamp",
          "type": "uint256"
        }
      ],
      "name": "setExpiryPriceInOracle",
      "outputs": [],
      "stateMutability": "nonpayable",
      "type": "function"
    },
    {
      "inputs": [],
      "name": "underlying",
      "outputs": [
        {
          "internalType": "contract ERC20Interface",
          "name": "",
          "type": "address"
        }
      ],
      "stateMutability": "view",
      "type": "function"
    },
    {
      "inputs": [],
      "name": "yToken",
      "outputs": [
        {
          "internalType": "contract YearnVaultInterface",
          "name": "",
          "type": "address"
        }
      ],
      "stateMutability": "view",
      "type": "function"
    }
  ],
  "bytecode": "0x608060405234801561001057600080fd5b50604051610d8b380380610d8b8339818101604052606081101561003357600080fd5b81019080805190602001909291908051906020019092919080519060200190929190505050600073ffffffffffffffffffffffffffffffffffffffff168373ffffffffffffffffffffffffffffffffffffffff1614156100de576040517f08c379a0000000000000000000000000000000000000000000000000000000008152600401808060200182810382526028815260200180610d0f6028913960400191505060405180910390fd5b600073ffffffffffffffffffffffffffffffffffffffff168273ffffffffffffffffffffffffffffffffffffffff161415610164576040517f08c379a000000000000000000000000000000000000000000000000000000000815260040180806020018281038252602c815260200180610d37602c913960400191505060405180910390fd5b600073ffffffffffffffffffffffffffffffffffffffff168173ffffffffffffffffffffffffffffffffffffffff1614156101ea576040517f08c379a0000000000000000000000000000000000000000000000000000000008152600401808060200182810382526028815260200180610d636028913960400191505060405180910390fd5b82600160006101000a81548173ffffffffffffffffffffffffffffffffffffffff021916908373ffffffffffffffffffffffffffffffffffffffff16021790555081600260006101000a81548173ffffffffffffffffffffffffffffffffffffffff021916908373ffffffffffffffffffffffffffffffffffffffff160217905550806000806101000a81548173ffffffffffffffffffffffffffffffffffffffff021916908373ffffffffffffffffffffffffffffffffffffffff160217905550505050610a51806102be6000396000f3fe608060405234801561001057600080fd5b50600436106100625760003560e01c806349bfcca1146100675780636f307dc3146100b15780637dc0d1d0146100fb578063963672901461014557806398d5fdca14610173578063eec377c014610191575b600080fd5b61006f6101e6565b604051808273ffffffffffffffffffffffffffffffffffffffff1673ffffffffffffffffffffffffffffffffffffffff16815260200191505060405180910390f35b6100b961020c565b604051808273ffffffffffffffffffffffffffffffffffffffff1673ffffffffffffffffffffffffffffffffffffffff16815260200191505060405180910390f35b610103610232565b604051808273ffffffffffffffffffffffffffffffffffffffff1673ffffffffffffffffffffffffffffffffffffffff16815260200191505060405180910390f35b6101716004803603602081101561015b57600080fd5b8101908080359060200190929190505050610257565b005b61017b6104bd565b6040518082815260200191505060405180910390f35b6101c9600480360360208110156101a757600080fd5b81019080803569ffffffffffffffffffff169060200190929190505050610625565b604051808381526020018281526020019250505060405180910390f35b600160009054906101000a900473ffffffffffffffffffffffffffffffffffffffff1681565b600260009054906101000a900473ffffffffffffffffffffffffffffffffffffffff1681565b6000809054906101000a900473ffffffffffffffffffffffffffffffffffffffff1681565b60008060009054906101000a900473ffffffffffffffffffffffffffffffffffffffff1673ffffffffffffffffffffffffffffffffffffffff166301957f81600260009054906101000a900473ffffffffffffffffffffffffffffffffffffffff16846040518363ffffffff1660e01b8152600401808373ffffffffffffffffffffffffffffffffffffffff1673ffffffffffffffffffffffffffffffffffffffff16815260200182815260200192505050604080518083038186803b15801561032057600080fd5b505afa158015610334573d6000803e3d6000fd5b505050506040513d604081101561034a57600080fd5b810190808051906020019092919080519060200190929190505050509050600081116103c1576040517f08c379a00000000000000000000000000000000000000000000000000000000081526004018080602001828103825260298152602001806109f36029913960400191505060405180910390fd5b60006103cc82610696565b90506000809054906101000a900473ffffffffffffffffffffffffffffffffffffffff1673ffffffffffffffffffffffffffffffffffffffff1663ee531409600160009054906101000a900473ffffffffffffffffffffffffffffffffffffffff1685846040518463ffffffff1660e01b8152600401808473ffffffffffffffffffffffffffffffffffffffff1673ffffffffffffffffffffffffffffffffffffffff1681526020018381526020018281526020019350505050600060405180830381600087803b1580156104a057600080fd5b505af11580156104b4573d6000803e3d6000fd5b50505050505050565b6000806000809054906101000a900473ffffffffffffffffffffffffffffffffffffffff1673ffffffffffffffffffffffffffffffffffffffff166341976e09600260009054906101000a900473ffffffffffffffffffffffffffffffffffffffff166040518263ffffffff1660e01b8152600401808273ffffffffffffffffffffffffffffffffffffffff1673ffffffffffffffffffffffffffffffffffffffff16815260200191505060206040518083038186803b15801561058057600080fd5b505afa158015610594573d6000803e3d6000fd5b505050506040513d60208110156105aa57600080fd5b8101908080519060200190929190505050905060008111610616576040517f08c379a00000000000000000000000000000000000000000000000000000000081526004018080602001828103825260228152602001806109b06022913960400191505060405180910390fd5b61061f81610696565b91505090565b6000806040517f08c379a00000000000000000000000000000000000000000000000000000000081526004018080602001828103825260178152602001807f596561726e5072696365723a204465707265636174656400000000000000000081525060200191505060405180910390fd5b600080600160009054906101000a900473ffffffffffffffffffffffffffffffffffffffff1673ffffffffffffffffffffffffffffffffffffffff166399530b066040518163ffffffff1660e01b815260040160206040518083038186803b15801561070157600080fd5b505afa158015610715573d6000803e3d6000fd5b505050506040513d602081101561072b57600080fd5b810190808051906020019092919050505090506000600260009054906101000a900473ffffffffffffffffffffffffffffffffffffffff1673ffffffffffffffffffffffffffffffffffffffff1663313ce5676040518163ffffffff1660e01b815260040160206040518083038186803b1580156107a857600080fd5b505afa1580156107bc573d6000803e3d6000fd5b505050506040513d60208110156107d257600080fd5b810190808051906020019092919050505090506108108160ff16600a0a610802868561081990919063ffffffff16565b61089f90919063ffffffff16565b92505050919050565b60008083141561082c5760009050610899565b600082840290508284828161083d57fe5b0414610894576040517f08c379a00000000000000000000000000000000000000000000000000000000081526004018080602001828103825260218152602001806109d26021913960400191505060405180910390fd5b809150505b92915050565b60006108e183836040518060400160405280601a81526020017f536166654d6174683a206469766973696f6e206279207a65726f0000000000008152506108e9565b905092915050565b60008083118290610995576040517f08c379a00000000000000000000000000000000000000000000000000000000081526004018080602001828103825283818151815260200191508051906020019080838360005b8381101561095a57808201518184015260208101905061093f565b50505050905090810190601f1680156109875780820380516001836020036101000a031916815260200191505b509250505060405180910390fd5b5060008385816109a157fe5b04905080915050939250505056fe596561726e5072696365723a20756e6465726c79696e672070726963652069732030536166654d6174683a206d756c7469706c69636174696f6e206f766572666c6f77596561726e5072696365723a20756e6465726c79696e67207072696365206e6f742073657420796574a2646970667358221220dbd51981dae67d4236b9f1b73c02272419e775e82e0783f8c421a784c15d7dfd64736f6c634300060a0033596561726e5072696365723a2079546f6b656e20616464726573732063616e206e6f742062652030596561726e5072696365723a20756e6465726c79696e6720616464726573732063616e206e6f742062652030596561726e5072696365723a206f7261636c6520616464726573732063616e206e6f742062652030",
  "linkReferences": {},
  "deployedLinkReferences": {}
}