{
  "_format": "hh-sol-artifact-1",
  "contractName": "Controller",
  "sourceName": "contracts/Gamma/core/Controller.sol",
  "abi": [
    {
      "anonymous": false,
      "inputs": [
        {
          "indexed": true,
          "internalType": "address",
          "name": "accountOwner",
          "type": "address"
        },
        {
          "indexed": true,
          "internalType": "address",
          "name": "operator",
          "type": "address"
        },
        {
          "indexed": false,
          "internalType": "bool",
          "name": "isSet",
          "type": "bool"
        }
      ],
      "name": "AccountOperatorUpdated",
      "type": "event"
    },
    {
      "anonymous": false,
      "inputs": [
        {
          "indexed": true,
          "internalType": "address",
          "name": "from",
          "type": "address"
        },
        {
          "indexed": true,
          "internalType": "address",
          "name": "to",
          "type": "address"
        },
        {
          "indexed": false,
          "internalType": "bytes",
          "name": "data",
          "type": "bytes"
        }
      ],
      "name": "CallExecuted",
      "type": "event"
    },
    {
      "anonymous": false,
      "inputs": [
        {
          "indexed": false,
          "internalType": "bool",
          "name": "isRestricted",
          "type": "bool"
        }
      ],
      "name": "CallRestricted",
      "type": "event"
    },
    {
      "anonymous": false,
      "inputs": [
        {
          "indexed": true,
          "internalType": "address",
          "name": "asset",
          "type": "address"
        },
        {
          "indexed": true,
          "internalType": "address",
          "name": "accountOwner",
          "type": "address"
        },
        {
          "indexed": true,
          "internalType": "address",
          "name": "from",
          "type": "address"
        },
        {
          "indexed": false,
          "internalType": "uint256",
          "name": "vaultId",
          "type": "uint256"
        },
        {
          "indexed": false,
          "internalType": "uint256",
          "name": "amount",
          "type": "uint256"
        }
      ],
      "name": "CollateralAssetDeposited",
      "type": "event"
    },
    {
      "anonymous": false,
      "inputs": [
        {
          "indexed": true,
          "internalType": "address",
          "name": "asset",
          "type": "address"
        },
        {
          "indexed": true,
          "internalType": "address",
          "name": "AccountOwner",
          "type": "address"
        },
        {
          "indexed": true,
          "internalType": "address",
          "name": "to",
          "type": "address"
        },
        {
          "indexed": false,
          "internalType": "uint256",
          "name": "vaultId",
          "type": "uint256"
        },
        {
          "indexed": false,
          "internalType": "uint256",
          "name": "amount",
          "type": "uint256"
        }
      ],
      "name": "CollateralAssetWithdrawed",
      "type": "event"
    },
    {
      "anonymous": false,
      "inputs": [
        {
          "indexed": true,
          "internalType": "address",
          "name": "donator",
          "type": "address"
        },
        {
          "indexed": true,
          "internalType": "address",
          "name": "asset",
          "type": "address"
        },
        {
          "indexed": false,
          "internalType": "uint256",
          "name": "amount",
          "type": "uint256"
        }
      ],
      "name": "Donated",
      "type": "event"
    },
    {
      "anonymous": false,
      "inputs": [
        {
          "indexed": true,
          "internalType": "address",
          "name": "oldFullPauser",
          "type": "address"
        },
        {
          "indexed": true,
          "internalType": "address",
          "name": "newFullPauser",
          "type": "address"
        }
      ],
      "name": "FullPauserUpdated",
      "type": "event"
    },
    {
      "anonymous": false,
      "inputs": [
        {
          "indexed": true,
          "internalType": "address",
          "name": "otoken",
          "type": "address"
        },
        {
          "indexed": true,
          "internalType": "address",
          "name": "accountOwner",
          "type": "address"
        },
        {
          "indexed": true,
          "internalType": "address",
          "name": "from",
          "type": "address"
        },
        {
          "indexed": false,
          "internalType": "uint256",
          "name": "vaultId",
          "type": "uint256"
        },
        {
          "indexed": false,
          "internalType": "uint256",
          "name": "amount",
          "type": "uint256"
        }
      ],
      "name": "LongOtokenDeposited",
      "type": "event"
    },
    {
      "anonymous": false,
      "inputs": [
        {
          "indexed": true,
          "internalType": "address",
          "name": "otoken",
          "type": "address"
        },
        {
          "indexed": true,
          "internalType": "address",
          "name": "AccountOwner",
          "type": "address"
        },
        {
          "indexed": true,
          "internalType": "address",
          "name": "to",
          "type": "address"
        },
        {
          "indexed": false,
          "internalType": "uint256",
          "name": "vaultId",
          "type": "uint256"
        },
        {
          "indexed": false,
          "internalType": "uint256",
          "name": "amount",
          "type": "uint256"
        }
      ],
      "name": "LongOtokenWithdrawed",
      "type": "event"
    },
    {
      "anonymous": false,
      "inputs": [
        {
          "indexed": true,
          "internalType": "address",
          "name": "collateral",
          "type": "address"
        },
        {
          "indexed": false,
          "internalType": "uint256",
          "name": "cap",
          "type": "uint256"
        }
      ],
      "name": "NakedCapUpdated",
      "type": "event"
    },
    {
      "anonymous": false,
      "inputs": [
        {
          "indexed": true,
          "internalType": "address",
          "name": "previousOwner",
          "type": "address"
        },
        {
          "indexed": true,
          "internalType": "address",
          "name": "newOwner",
          "type": "address"
        }
      ],
      "name": "OwnershipTransferred",
      "type": "event"
    },
    {
      "anonymous": false,
      "inputs": [
        {
          "indexed": true,
          "internalType": "address",
          "name": "oldPartialPauser",
          "type": "address"
        },
        {
          "indexed": true,
          "internalType": "address",
          "name": "newPartialPauser",
          "type": "address"
        }
      ],
      "name": "PartialPauserUpdated",
      "type": "event"
    },
    {
      "anonymous": false,
      "inputs": [
        {
          "indexed": true,
          "internalType": "address",
          "name": "otoken",
          "type": "address"
        },
        {
          "indexed": true,
          "internalType": "address",
          "name": "redeemer",
          "type": "address"
        },
        {
          "indexed": true,
          "internalType": "address",
          "name": "receiver",
          "type": "address"
        },
        {
          "indexed": false,
          "internalType": "address",
          "name": "collateralAsset",
          "type": "address"
        },
        {
          "indexed": false,
          "internalType": "uint256",
          "name": "otokenBurned",
          "type": "uint256"
        },
        {
          "indexed": false,
          "internalType": "uint256",
          "name": "payout",
          "type": "uint256"
        }
      ],
      "name": "Redeem",
      "type": "event"
    },
    {
      "anonymous": false,
      "inputs": [
        {
          "indexed": true,
          "internalType": "address",
          "name": "otoken",
          "type": "address"
        },
        {
          "indexed": true,
          "internalType": "address",
          "name": "AccountOwner",
          "type": "address"
        },
        {
          "indexed": true,
          "internalType": "address",
          "name": "from",
          "type": "address"
        },
        {
          "indexed": false,
          "internalType": "uint256",
          "name": "vaultId",
          "type": "uint256"
        },
        {
          "indexed": false,
          "internalType": "uint256",
          "name": "amount",
          "type": "uint256"
        }
      ],
      "name": "ShortOtokenBurned",
      "type": "event"
    },
    {
      "anonymous": false,
      "inputs": [
        {
          "indexed": true,
          "internalType": "address",
          "name": "otoken",
          "type": "address"
        },
        {
          "indexed": true,
          "internalType": "address",
          "name": "AccountOwner",
          "type": "address"
        },
        {
          "indexed": true,
          "internalType": "address",
          "name": "to",
          "type": "address"
        },
        {
          "indexed": false,
          "internalType": "uint256",
          "name": "vaultId",
          "type": "uint256"
        },
        {
          "indexed": false,
          "internalType": "uint256",
          "name": "amount",
          "type": "uint256"
        }
      ],
      "name": "ShortOtokenMinted",
      "type": "event"
    },
    {
      "anonymous": false,
      "inputs": [
        {
          "indexed": false,
          "internalType": "bool",
          "name": "isPaused",
          "type": "bool"
        }
      ],
      "name": "SystemFullyPaused",
      "type": "event"
    },
    {
      "anonymous": false,
      "inputs": [
        {
          "indexed": false,
          "internalType": "bool",
          "name": "isPaused",
          "type": "bool"
        }
      ],
      "name": "SystemPartiallyPaused",
      "type": "event"
    },
    {
      "anonymous": false,
      "inputs": [
        {
          "indexed": true,
          "internalType": "address",
          "name": "liquidator",
          "type": "address"
        },
        {
          "indexed": true,
          "internalType": "address",
          "name": "receiver",
          "type": "address"
        },
        {
          "indexed": true,
          "internalType": "address",
          "name": "vaultOwner",
          "type": "address"
        },
        {
          "indexed": false,
          "internalType": "uint256",
          "name": "auctionPrice",
          "type": "uint256"
        },
        {
          "indexed": false,
          "internalType": "uint256",
          "name": "auctionStartingRound",
          "type": "uint256"
        },
        {
          "indexed": false,
          "internalType": "uint256",
          "name": "collateralPayout",
          "type": "uint256"
        },
        {
          "indexed": false,
          "internalType": "uint256",
          "name": "debtAmount",
          "type": "uint256"
        },
        {
          "indexed": false,
          "internalType": "uint256",
          "name": "vaultId",
          "type": "uint256"
        }
      ],
      "name": "VaultLiquidated",
      "type": "event"
    },
    {
      "anonymous": false,
      "inputs": [
        {
          "indexed": true,
          "internalType": "address",
          "name": "accountOwner",
          "type": "address"
        },
        {
          "indexed": false,
          "internalType": "uint256",
          "name": "vaultId",
          "type": "uint256"
        },
        {
          "indexed": true,
          "internalType": "uint256",
          "name": "vaultType",
          "type": "uint256"
        }
      ],
      "name": "VaultOpened",
      "type": "event"
    },
    {
      "anonymous": false,
      "inputs": [
        {
          "indexed": true,
          "internalType": "address",
          "name": "accountOwner",
          "type": "address"
        },
        {
          "indexed": true,
          "internalType": "address",
          "name": "oTokenAddress",
          "type": "address"
        },
        {
          "indexed": false,
          "internalType": "address",
          "name": "to",
          "type": "address"
        },
        {
          "indexed": false,
          "internalType": "uint256",
          "name": "payout",
          "type": "uint256"
        },
        {
          "indexed": false,
          "internalType": "uint256",
          "name": "vaultId",
          "type": "uint256"
        },
        {
          "indexed": true,
          "internalType": "uint256",
          "name": "vaultType",
          "type": "uint256"
        }
      ],
      "name": "VaultSettled",
      "type": "event"
    },
    {
      "inputs": [],
      "name": "addressbook",
      "outputs": [
        {
          "internalType": "contract AddressBookInterface",
          "name": "",
          "type": "address"
        }
      ],
      "stateMutability": "view",
      "type": "function"
    },
    {
      "inputs": [],
      "name": "calculator",
      "outputs": [
        {
          "internalType": "contract MarginCalculatorInterface",
          "name": "",
          "type": "address"
        }
      ],
      "stateMutability": "view",
      "type": "function"
    },
    {
      "inputs": [],
      "name": "callRestricted",
      "outputs": [
        {
          "internalType": "bool",
          "name": "",
          "type": "bool"
        }
      ],
      "stateMutability": "view",
      "type": "function"
    },
    {
      "inputs": [
        {
          "internalType": "address",
          "name": "_underlying",
          "type": "address"
        },
        {
          "internalType": "address",
          "name": "_strike",
          "type": "address"
        },
        {
          "internalType": "address",
          "name": "_collateral",
          "type": "address"
        },
        {
          "internalType": "uint256",
          "name": "_expiry",
          "type": "uint256"
        }
      ],
      "name": "canSettleAssets",
      "outputs": [
        {
          "internalType": "bool",
          "name": "",
          "type": "bool"
        }
      ],
      "stateMutability": "view",
      "type": "function"
    },
    {
      "inputs": [
        {
          "internalType": "address",
          "name": "_asset",
          "type": "address"
        },
        {
          "internalType": "uint256",
          "name": "_amount",
          "type": "uint256"
        }
      ],
      "name": "donate",
      "outputs": [],
      "stateMutability": "nonpayable",
      "type": "function"
    },
    {
      "inputs": [],
      "name": "fullPauser",
      "outputs": [
        {
          "internalType": "address",
          "name": "",
          "type": "address"
        }
      ],
      "stateMutability": "view",
      "type": "function"
    },
    {
      "inputs": [
        {
          "internalType": "address",
          "name": "_accountOwner",
          "type": "address"
        }
      ],
      "name": "getAccountVaultCounter",
      "outputs": [
        {
          "internalType": "uint256",
          "name": "",
          "type": "uint256"
        }
      ],
      "stateMutability": "view",
      "type": "function"
    },
    {
      "inputs": [],
      "name": "getConfiguration",
      "outputs": [
        {
          "internalType": "address",
          "name": "",
          "type": "address"
        },
        {
          "internalType": "address",
          "name": "",
          "type": "address"
        },
        {
          "internalType": "address",
          "name": "",
          "type": "address"
        },
        {
          "internalType": "address",
          "name": "",
          "type": "address"
        }
      ],
      "stateMutability": "view",
      "type": "function"
    },
    {
      "inputs": [
        {
          "internalType": "address",
          "name": "_asset",
          "type": "address"
        }
      ],
      "name": "getNakedCap",
      "outputs": [
        {
          "internalType": "uint256",
          "name": "",
          "type": "uint256"
        }
      ],
      "stateMutability": "view",
      "type": "function"
    },
    {
      "inputs": [
        {
          "internalType": "address",
          "name": "_asset",
          "type": "address"
        }
      ],
      "name": "getNakedPoolBalance",
      "outputs": [
        {
          "internalType": "uint256",
          "name": "",
          "type": "uint256"
        }
      ],
      "stateMutability": "view",
      "type": "function"
    },
    {
      "inputs": [
        {
          "internalType": "address",
          "name": "_otoken",
          "type": "address"
        },
        {
          "internalType": "uint256",
          "name": "_amount",
          "type": "uint256"
        }
      ],
      "name": "getPayout",
      "outputs": [
        {
          "internalType": "uint256",
          "name": "",
          "type": "uint256"
        }
      ],
      "stateMutability": "view",
      "type": "function"
    },
    {
      "inputs": [
        {
          "internalType": "address",
          "name": "_owner",
          "type": "address"
        },
        {
          "internalType": "uint256",
          "name": "_vaultId",
          "type": "uint256"
        }
      ],
      "name": "getProceed",
      "outputs": [
        {
          "internalType": "uint256",
          "name": "",
          "type": "uint256"
        }
      ],
      "stateMutability": "view",
      "type": "function"
    },
    {
      "inputs": [
        {
          "internalType": "address",
          "name": "_owner",
          "type": "address"
        },
        {
          "internalType": "uint256",
          "name": "_vaultId",
          "type": "uint256"
        }
      ],
      "name": "getVault",
      "outputs": [
        {
          "components": [
            {
              "internalType": "address[]",
              "name": "shortOtokens",
              "type": "address[]"
            },
            {
              "internalType": "address[]",
              "name": "longOtokens",
              "type": "address[]"
            },
            {
              "internalType": "address[]",
              "name": "collateralAssets",
              "type": "address[]"
            },
            {
              "internalType": "uint256[]",
              "name": "shortAmounts",
              "type": "uint256[]"
            },
            {
              "internalType": "uint256[]",
              "name": "longAmounts",
              "type": "uint256[]"
            },
            {
              "internalType": "uint256[]",
              "name": "collateralAmounts",
              "type": "uint256[]"
            }
          ],
          "internalType": "struct MarginVault.Vault",
          "name": "",
          "type": "tuple"
        }
      ],
      "stateMutability": "view",
      "type": "function"
    },
    {
      "inputs": [
        {
          "internalType": "address",
          "name": "_owner",
          "type": "address"
        },
        {
          "internalType": "uint256",
          "name": "_vaultId",
          "type": "uint256"
        }
      ],
      "name": "getVaultWithDetails",
      "outputs": [
        {
          "components": [
            {
              "internalType": "address[]",
              "name": "shortOtokens",
              "type": "address[]"
            },
            {
              "internalType": "address[]",
              "name": "longOtokens",
              "type": "address[]"
            },
            {
              "internalType": "address[]",
              "name": "collateralAssets",
              "type": "address[]"
            },
            {
              "internalType": "uint256[]",
              "name": "shortAmounts",
              "type": "uint256[]"
            },
            {
              "internalType": "uint256[]",
              "name": "longAmounts",
              "type": "uint256[]"
            },
            {
              "internalType": "uint256[]",
              "name": "collateralAmounts",
              "type": "uint256[]"
            }
          ],
          "internalType": "struct MarginVault.Vault",
          "name": "",
          "type": "tuple"
        },
        {
          "internalType": "uint256",
          "name": "",
          "type": "uint256"
        },
        {
          "internalType": "uint256",
          "name": "",
          "type": "uint256"
        }
      ],
      "stateMutability": "view",
      "type": "function"
    },
    {
      "inputs": [
        {
          "internalType": "address",
          "name": "_otoken",
          "type": "address"
        }
      ],
      "name": "hasExpired",
      "outputs": [
        {
          "internalType": "bool",
          "name": "",
          "type": "bool"
        }
      ],
      "stateMutability": "view",
      "type": "function"
    },
    {
      "inputs": [
        {
          "internalType": "address",
          "name": "_addressBook",
          "type": "address"
        },
        {
          "internalType": "address",
          "name": "_owner",
          "type": "address"
        }
      ],
      "name": "initialize",
      "outputs": [],
      "stateMutability": "nonpayable",
      "type": "function"
    },
    {
      "inputs": [
        {
          "internalType": "address",
          "name": "_owner",
          "type": "address"
        },
        {
          "internalType": "uint256",
          "name": "_vaultId",
          "type": "uint256"
        },
        {
          "internalType": "uint256",
          "name": "_roundId",
          "type": "uint256"
        }
      ],
      "name": "isLiquidatable",
      "outputs": [
        {
          "internalType": "bool",
          "name": "",
          "type": "bool"
        },
        {
          "internalType": "uint256",
          "name": "",
          "type": "uint256"
        },
        {
          "internalType": "uint256",
          "name": "",
          "type": "uint256"
        }
      ],
      "stateMutability": "view",
      "type": "function"
    },
    {
      "inputs": [
        {
          "internalType": "address",
          "name": "_owner",
          "type": "address"
        },
        {
          "internalType": "address",
          "name": "_operator",
          "type": "address"
        }
      ],
      "name": "isOperator",
      "outputs": [
        {
          "internalType": "bool",
          "name": "",
          "type": "bool"
        }
      ],
      "stateMutability": "view",
      "type": "function"
    },
    {
      "inputs": [
        {
          "internalType": "address",
          "name": "_otoken",
          "type": "address"
        }
      ],
      "name": "isSettlementAllowed",
      "outputs": [
        {
          "internalType": "bool",
          "name": "",
          "type": "bool"
        }
      ],
      "stateMutability": "view",
      "type": "function"
    },
    {
      "inputs": [
        {
          "components": [
            {
              "internalType": "enum Actions.ActionType",
              "name": "actionType",
              "type": "uint8"
            },
            {
              "internalType": "address",
              "name": "owner",
              "type": "address"
            },
            {
              "internalType": "address",
              "name": "secondAddress",
              "type": "address"
            },
            {
              "internalType": "address",
              "name": "asset",
              "type": "address"
            },
            {
              "internalType": "uint256",
              "name": "vaultId",
              "type": "uint256"
            },
            {
              "internalType": "uint256",
              "name": "amount",
              "type": "uint256"
            },
            {
              "internalType": "uint256",
              "name": "index",
              "type": "uint256"
            },
            {
              "internalType": "bytes",
              "name": "data",
              "type": "bytes"
            }
          ],
          "internalType": "struct Actions.ActionArgs[]",
          "name": "_actions",
          "type": "tuple[]"
        }
      ],
      "name": "operate",
      "outputs": [],
      "stateMutability": "nonpayable",
      "type": "function"
    },
    {
      "inputs": [],
      "name": "oracle",
      "outputs": [
        {
          "internalType": "contract OracleInterface",
          "name": "",
          "type": "address"
        }
      ],
      "stateMutability": "view",
      "type": "function"
    },
    {
      "inputs": [],
      "name": "owner",
      "outputs": [
        {
          "internalType": "address",
          "name": "",
          "type": "address"
        }
      ],
      "stateMutability": "view",
      "type": "function"
    },
    {
      "inputs": [],
      "name": "partialPauser",
      "outputs": [
        {
          "internalType": "address",
          "name": "",
          "type": "address"
        }
      ],
      "stateMutability": "view",
      "type": "function"
    },
    {
      "inputs": [],
      "name": "pool",
      "outputs": [
        {
          "internalType": "contract MarginPoolInterface",
          "name": "",
          "type": "address"
        }
      ],
      "stateMutability": "view",
      "type": "function"
    },
    {
      "inputs": [],
      "name": "refreshConfiguration",
      "outputs": [],
      "stateMutability": "nonpayable",
      "type": "function"
    },
    {
      "inputs": [],
      "name": "renounceOwnership",
      "outputs": [],
      "stateMutability": "nonpayable",
      "type": "function"
    },
    {
      "inputs": [
        {
          "internalType": "bool",
          "name": "_isRestricted",
          "type": "bool"
        }
      ],
      "name": "setCallRestriction",
      "outputs": [],
      "stateMutability": "nonpayable",
      "type": "function"
    },
    {
      "inputs": [
        {
          "internalType": "address",
          "name": "_fullPauser",
          "type": "address"
        }
      ],
      "name": "setFullPauser",
      "outputs": [],
      "stateMutability": "nonpayable",
      "type": "function"
    },
    {
      "inputs": [
        {
          "internalType": "address",
          "name": "_collateral",
          "type": "address"
        },
        {
          "internalType": "uint256",
          "name": "_cap",
          "type": "uint256"
        }
      ],
      "name": "setNakedCap",
      "outputs": [],
      "stateMutability": "nonpayable",
      "type": "function"
    },
    {
      "inputs": [
        {
          "internalType": "address",
          "name": "_operator",
          "type": "address"
        },
        {
          "internalType": "bool",
          "name": "_isOperator",
          "type": "bool"
        }
      ],
      "name": "setOperator",
      "outputs": [],
      "stateMutability": "nonpayable",
      "type": "function"
    },
    {
      "inputs": [
        {
          "internalType": "address",
          "name": "_partialPauser",
          "type": "address"
        }
      ],
      "name": "setPartialPauser",
      "outputs": [],
      "stateMutability": "nonpayable",
      "type": "function"
    },
    {
      "inputs": [
        {
          "internalType": "bool",
          "name": "_fullyPaused",
          "type": "bool"
        }
      ],
      "name": "setSystemFullyPaused",
      "outputs": [],
      "stateMutability": "nonpayable",
      "type": "function"
    },
    {
      "inputs": [
        {
          "internalType": "bool",
          "name": "_partiallyPaused",
          "type": "bool"
        }
      ],
      "name": "setSystemPartiallyPaused",
      "outputs": [],
      "stateMutability": "nonpayable",
      "type": "function"
    },
    {
      "inputs": [
        {
          "internalType": "address",
          "name": "_owner",
          "type": "address"
        },
        {
          "internalType": "uint256",
          "name": "_vaultId",
          "type": "uint256"
        }
      ],
      "name": "sync",
      "outputs": [],
      "stateMutability": "nonpayable",
      "type": "function"
    },
    {
      "inputs": [],
      "name": "systemFullyPaused",
      "outputs": [
        {
          "internalType": "bool",
          "name": "",
          "type": "bool"
        }
      ],
      "stateMutability": "view",
      "type": "function"
    },
    {
      "inputs": [],
      "name": "systemPartiallyPaused",
      "outputs": [
        {
          "internalType": "bool",
          "name": "",
          "type": "bool"
        }
      ],
      "stateMutability": "view",
      "type": "function"
    },
    {
      "inputs": [
        {
          "internalType": "address",
          "name": "newOwner",
          "type": "address"
        }
      ],
      "name": "transferOwnership",
      "outputs": [],
      "stateMutability": "nonpayable",
      "type": "function"
    },
    {
      "inputs": [],
      "name": "whitelist",
      "outputs": [
        {
          "internalType": "contract WhitelistInterface",
          "name": "",
          "type": "address"
        }
      ],
      "stateMutability": "view",
      "type": "function"
    }
  ],
  "bytecode": "0x60806040523480156200001157600080fd5b5061a98280620000226000396000f3fe608060405234801561001057600080fd5b50600436106102325760003560e01c8063b617f0c611610130578063ce3e39c0116100b8578063eaa33e141161007c578063eaa33e1414610692578063eab7775b146106c4578063ef4fcafa146106e2578063f2fde38b146106fe578063f77bc88b1461071a57610232565b8063ce3e39c0146105c8578063d66dd43e146105e6578063d99d13f514610616578063e69d849d14610646578063e723406c1461066257610232565b8063c220101d116100ff578063c220101d146104fe578063c644d3a21461052e578063caa6d21a1461055e578063cab2e8051461058e578063cdee058a146105aa57610232565b8063b617f0c61461047a578063b6363cf214610496578063bc463a3d146104c6578063beca75d7146104e257610232565b80636bd50cef116101be5780638da5cb5b116101825780638da5cb5b146103d257806393e59dc1146103f05780639daafbe81461040e5780639db93891146104405780639f677ed91461045e57610232565b80636bd50cef1461034d5780636c0c3b991461036e57806370dc320c1461038c578063715018a6146103aa5780637dc0d1d0146103b457610232565b8063485cc95511610205578063485cc955146102bf578063558a7297146102db578063565eea19146102f7578063573c473e14610327578063646810831461034357610232565b806314b93faf1461023757806316f0115b1461026757806329729d88146102855780632eb1c3a7146102a3575b600080fd5b610251600480360381019061024c9190618264565b61074a565b60405161025e9190619ac9565b60405180910390f35b61026f610762565b60405161027c9190619b73565b60405180910390f35b61028d610788565b60405161029a9190619942565b60405180910390f35b6102bd60048036038101906102b8919061838c565b6107ae565b005b6102d960048036038101906102d49190618228565b61091e565b005b6102f560048036038101906102f09190618350565b610b5e565b005b610311600480360381019061030c919061838c565b610d2b565b60405161031e919061a58c565b60405180910390f35b610341600480360381019061033c9190618458565b610e08565b005b61034b610f51565b005b610355610ff2565b60405161036594939291906199ed565b60405180910390f35b610376611092565b6040516103839190619ac9565b60405180910390f35b6103946110a5565b6040516103a19190619b3d565b60405180910390f35b6103b26110cb565b005b6103bc611223565b6040516103c99190619b8e565b60405180910390f35b6103da611249565b6040516103e79190619942565b60405180910390f35b6103f8611273565b6040516104059190619ba9565b60405180910390f35b6104286004803603810190610423919061838c565b611299565b6040516104379392919061a478565b60405180910390f35b610448611663565b6040516104559190619942565b60405180910390f35b61047860048036038101906104739190618458565b611689565b005b610494600480360381019061048f9190618417565b6117d2565b005b6104b060048036038101906104ab9190618228565b6118df565b6040516104bd9190619ac9565b60405180910390f35b6104e060048036038101906104db91906181d6565b611973565b005b6104fc60048036038101906104f791906181d6565b611bcb565b005b6105186004803603810190610513919061838c565b611e23565b604051610525919061a58c565b60405180910390f35b610548600480360381019061054391906181d6565b611f11565b604051610555919061a58c565b60405180910390f35b610578600480360381019061057391906181d6565b611f5a565b604051610585919061a58c565b60405180910390f35b6105a860048036038101906105a39190618458565b611fa3565b005b6105b26120f3565b6040516105bf9190619ac9565b60405180910390f35b6105d0612106565b6040516105dd9190619b58565b60405180910390f35b61060060048036038101906105fb91906181d6565b61212c565b60405161060d919061a58c565b60405180910390f35b610630600480360381019061062b919061838c565b612175565b60405161063d919061a426565b60405180910390f35b610660600480360381019061065b919061838c565b612492565b005b61067c600480360381019061067791906181d6565b61258c565b6040516106899190619ac9565b60405180910390f35b6106ac60048036038101906106a791906183c8565b6125bc565b6040516106bb93929190619ae4565b60405180910390f35b6106cc6125ec565b6040516106d99190619ac9565b60405180910390f35b6106fc60048036038101906106f7919061838c565b6125ff565b005b610718600480360381019061071391906181d6565b6126ef565b005b610734600480360381019061072f91906181d6565b6128b6565b6040516107419190619ac9565b60405180910390f35b600061075885858585612940565b9050949350505050565b60cd60009054906101000a900473ffffffffffffffffffffffffffffffffffffffff1681565b60cf60009054906101000a900473ffffffffffffffffffffffffffffffffffffffff1681565b6107b6612b63565b73ffffffffffffffffffffffffffffffffffffffff16606560009054906101000a900473ffffffffffffffffffffffffffffffffffffffff1673ffffffffffffffffffffffffffffffffffffffff1614610845576040517f08c379a000000000000000000000000000000000000000000000000000000000815260040161083c9061a0a6565b60405180910390fd5b60008111610888576040517f08c379a000000000000000000000000000000000000000000000000000000000815260040161087f90619f66565b60405180910390fd5b8060d560008473ffffffffffffffffffffffffffffffffffffffff1673ffffffffffffffffffffffffffffffffffffffff168152602001908152602001600020819055508173ffffffffffffffffffffffffffffffffffffffff167f6ff730ba70e34bd5ca823424bd15ab869cadc6bad079b527c71bde444ad6402b82604051610912919061a58c565b60405180910390a25050565b600060019054906101000a900460ff168061093d575061093c612b6b565b5b8061095457506000809054906101000a900460ff16155b610993576040517f08c379a000000000000000000000000000000000000000000000000000000000815260040161098a9061a0e6565b60405180910390fd5b60008060019054906101000a900460ff1615905080156109e3576001600060016101000a81548160ff02191690831515021790555060016000806101000a81548160ff0219169083151502179055505b600073ffffffffffffffffffffffffffffffffffffffff168373ffffffffffffffffffffffffffffffffffffffff161415610a53576040517f08c379a0000000000000000000000000000000000000000000000000000000008152600401610a4a9061a026565b60405180910390fd5b600073ffffffffffffffffffffffffffffffffffffffff168273ffffffffffffffffffffffffffffffffffffffff161415610ac3576040517f08c379a0000000000000000000000000000000000000000000000000000000008152600401610aba9061a3c6565b60405180910390fd5b610acc82612b82565b610ad4612c7d565b8260c960006101000a81548173ffffffffffffffffffffffffffffffffffffffff021916908373ffffffffffffffffffffffffffffffffffffffff160217905550610b1d612d81565b600160cf60166101000a81548160ff0219169083151502179055508015610b595760008060016101000a81548160ff0219169083151502179055505b505050565b80151560d260003373ffffffffffffffffffffffffffffffffffffffff1673ffffffffffffffffffffffffffffffffffffffff16815260200190815260200160002060008473ffffffffffffffffffffffffffffffffffffffff1673ffffffffffffffffffffffffffffffffffffffff16815260200190815260200160002060009054906101000a900460ff1615151415610c2e576040517f08c379a0000000000000000000000000000000000000000000000000000000008152600401610c259061a2e6565b60405180910390fd5b8060d260003373ffffffffffffffffffffffffffffffffffffffff1673ffffffffffffffffffffffffffffffffffffffff16815260200190815260200160002060008473ffffffffffffffffffffffffffffffffffffffff1673ffffffffffffffffffffffffffffffffffffffff16815260200190815260200160002060006101000a81548160ff0219169083151502179055508173ffffffffffffffffffffffffffffffffffffffff163373ffffffffffffffffffffffffffffffffffffffff167f1ae45540b0875932452da603b351ce2f1758258ba1345e79f8fc94f044cb078783604051610d1f9190619ac9565b60405180910390a35050565b6000610e006008600a0a610df28460cc60009054906101000a900473ffffffffffffffffffffffffffffffffffffffff1673ffffffffffffffffffffffffffffffffffffffff166347840930886040518263ffffffff1660e01b8152600401610d949190619942565b60206040518083038186803b158015610dac57600080fd5b505afa158015610dc0573d6000803e3d6000fd5b505050506040513d601f19601f82011682018060405250810190610de491906184f9565b61310390919063ffffffff16565b61317390919063ffffffff16565b905092915050565b60ce60009054906101000a900473ffffffffffffffffffffffffffffffffffffffff1673ffffffffffffffffffffffffffffffffffffffff163373ffffffffffffffffffffffffffffffffffffffff1614610e98576040517f08c379a0000000000000000000000000000000000000000000000000000000008152600401610e8f90619d26565b60405180910390fd5b80151560cf60149054906101000a900460ff1615151415610eee576040517f08c379a0000000000000000000000000000000000000000000000000000000008152600401610ee59061a2e6565b60405180910390fd5b8060cf60146101000a81548160ff0219169083151502179055507f531c3d7229f510a8da00a0f5792686958cdd9c8a120c3c030a6053cd66b6855660cf60149054906101000a900460ff16604051610f469190619ac9565b60405180910390a150565b610f59612b63565b73ffffffffffffffffffffffffffffffffffffffff16606560009054906101000a900473ffffffffffffffffffffffffffffffffffffffff1673ffffffffffffffffffffffffffffffffffffffff1614610fe8576040517f08c379a0000000000000000000000000000000000000000000000000000000008152600401610fdf9061a0a6565b60405180910390fd5b610ff0612d81565b565b60008060008060ca60009054906101000a900473ffffffffffffffffffffffffffffffffffffffff1660cb60009054906101000a900473ffffffffffffffffffffffffffffffffffffffff1660cc60009054906101000a900473ffffffffffffffffffffffffffffffffffffffff1660cd60009054906101000a900473ffffffffffffffffffffffffffffffffffffffff16935093509350935090919293565b60cf60169054906101000a900460ff1681565b60c960009054906101000a900473ffffffffffffffffffffffffffffffffffffffff1681565b6110d3612b63565b73ffffffffffffffffffffffffffffffffffffffff16606560009054906101000a900473ffffffffffffffffffffffffffffffffffffffff1673ffffffffffffffffffffffffffffffffffffffff1614611162576040517f08c379a00000000000000000000000000000000000000000000000000000000081526004016111599061a0a6565b60405180910390fd5b600073ffffffffffffffffffffffffffffffffffffffff16606560009054906101000a900473ffffffffffffffffffffffffffffffffffffffff1673ffffffffffffffffffffffffffffffffffffffff167f8be0079c531659141344cd1fd0a4f28419497f9722a3daafe3b4186f6b6457e060405160405180910390a36000606560006101000a81548173ffffffffffffffffffffffffffffffffffffffff021916908373ffffffffffffffffffffffffffffffffffffffff160217905550565b60cb60009054906101000a900473ffffffffffffffffffffffffffffffffffffffff1681565b6000606560009054906101000a900473ffffffffffffffffffffffffffffffffffffffff16905090565b60ca60009054906101000a900473ffffffffffffffffffffffffffffffffffffffff1681565b6112a1617b32565b60008060d160008673ffffffffffffffffffffffffffffffffffffffff1673ffffffffffffffffffffffffffffffffffffffff168152602001908152602001600020600085815260200190815260200160002060d360008773ffffffffffffffffffffffffffffffffffffffff1673ffffffffffffffffffffffffffffffffffffffff16815260200190815260200160002060008681526020019081526020016000205460d460008873ffffffffffffffffffffffffffffffffffffffff1673ffffffffffffffffffffffffffffffffffffffff168152602001908152602001600020600087815260200190815260200160002054826040518060c00160405290816000820180548060200260200160405190810160405280929190818152602001828054801561142757602002820191906000526020600020905b8160009054906101000a900473ffffffffffffffffffffffffffffffffffffffff1673ffffffffffffffffffffffffffffffffffffffff16815260200190600101908083116113dd575b50505050508152602001600182018054806020026020016040519081016040528092919081815260200182805480156114b557602002820191906000526020600020905b8160009054906101000a900473ffffffffffffffffffffffffffffffffffffffff1673ffffffffffffffffffffffffffffffffffffffff168152602001906001019080831161146b575b505050505081526020016002820180548060200260200160405190810160405280929190818152602001828054801561154357602002820191906000526020600020905b8160009054906101000a900473ffffffffffffffffffffffffffffffffffffffff1673ffffffffffffffffffffffffffffffffffffffff16815260200190600101908083116114f9575b505050505081526020016003820180548060200260200160405190810160405280929190818152602001828054801561159b57602002820191906000526020600020905b815481526020019060010190808311611587575b50505050508152602001600482018054806020026020016040519081016040528092919081815260200182805480156115f357602002820191906000526020600020905b8154815260200190600101908083116115df575b505050505081526020016005820180548060200260200160405190810160405280929190818152602001828054801561164b57602002820191906000526020600020905b815481526020019060010190808311611637575b50505050508152505092509250925092509250925092565b60ce60009054906101000a900473ffffffffffffffffffffffffffffffffffffffff1681565b60cf60009054906101000a900473ffffffffffffffffffffffffffffffffffffffff1673ffffffffffffffffffffffffffffffffffffffff163373ffffffffffffffffffffffffffffffffffffffff1614611719576040517f08c379a000000000000000000000000000000000000000000000000000000000815260040161171090619f86565b60405180910390fd5b80151560cf60159054906101000a900460ff161515141561176f576040517f08c379a00000000000000000000000000000000000000000000000000000000081526004016117669061a2e6565b60405180910390fd5b8060cf60156101000a81548160ff0219169083151502179055507f4f1d0445688d95c99ca9fc036f551b205fd18ff26a4443b1979c16d1ba66b53560cf60159054906101000a900460ff166040516117c79190619ac9565b60405180910390a150565b609760009054906101000a900460ff16611821576040517f08c379a00000000000000000000000000000000000000000000000000000000081526004016118189061a3a6565b60405180910390fd5b6000609760006101000a81548160ff0219169083151502179055506118446131bd565b60008060006118528461320f565b92509250925082156118be576118688282613617565b4260d460008473ffffffffffffffffffffffffffffffffffffffff1673ffffffffffffffffffffffffffffffffffffffff1681526020019081526020016000206000838152602001908152602001600020819055505b5050506001609760006101000a81548160ff02191690831515021790555050565b600060d260008473ffffffffffffffffffffffffffffffffffffffff1673ffffffffffffffffffffffffffffffffffffffff16815260200190815260200160002060008373ffffffffffffffffffffffffffffffffffffffff1673ffffffffffffffffffffffffffffffffffffffff16815260200190815260200160002060009054906101000a900460ff16905092915050565b61197b612b63565b73ffffffffffffffffffffffffffffffffffffffff16606560009054906101000a900473ffffffffffffffffffffffffffffffffffffffff1673ffffffffffffffffffffffffffffffffffffffff1614611a0a576040517f08c379a0000000000000000000000000000000000000000000000000000000008152600401611a019061a0a6565b60405180910390fd5b600073ffffffffffffffffffffffffffffffffffffffff168173ffffffffffffffffffffffffffffffffffffffff161415611a7a576040517f08c379a0000000000000000000000000000000000000000000000000000000008152600401611a7190619e66565b60405180910390fd5b8073ffffffffffffffffffffffffffffffffffffffff1660ce60009054906101000a900473ffffffffffffffffffffffffffffffffffffffff1673ffffffffffffffffffffffffffffffffffffffff161415611b0b576040517f08c379a0000000000000000000000000000000000000000000000000000000008152600401611b029061a2e6565b60405180910390fd5b8073ffffffffffffffffffffffffffffffffffffffff1660ce60009054906101000a900473ffffffffffffffffffffffffffffffffffffffff1673ffffffffffffffffffffffffffffffffffffffff167f1440312dbc326ddc21bfa95078324bf5aaf6899e8a27cba3057c60adfc84e40b60405160405180910390a38060ce60006101000a81548173ffffffffffffffffffffffffffffffffffffffff021916908373ffffffffffffffffffffffffffffffffffffffff16021790555050565b611bd3612b63565b73ffffffffffffffffffffffffffffffffffffffff16606560009054906101000a900473ffffffffffffffffffffffffffffffffffffffff1673ffffffffffffffffffffffffffffffffffffffff1614611c62576040517f08c379a0000000000000000000000000000000000000000000000000000000008152600401611c599061a0a6565b60405180910390fd5b600073ffffffffffffffffffffffffffffffffffffffff168173ffffffffffffffffffffffffffffffffffffffff161415611cd2576040517f08c379a0000000000000000000000000000000000000000000000000000000008152600401611cc990619d86565b60405180910390fd5b8073ffffffffffffffffffffffffffffffffffffffff1660cf60009054906101000a900473ffffffffffffffffffffffffffffffffffffffff1673ffffffffffffffffffffffffffffffffffffffff161415611d63576040517f08c379a0000000000000000000000000000000000000000000000000000000008152600401611d5a9061a2e6565b60405180910390fd5b8073ffffffffffffffffffffffffffffffffffffffff1660cf60009054906101000a900473ffffffffffffffffffffffffffffffffffffffff1673ffffffffffffffffffffffffffffffffffffffff167f44f3e9e7b454118e9fcb2e3026396f57ca21d7bd7dcabd31d7f986806422f4df60405160405180910390a38060cf60006101000a81548173ffffffffffffffffffffffffffffffffffffffff021916908373ffffffffffffffffffffffffffffffffffffffff16021790555050565b6000611e2d617b32565b6000611e398585611299565b509150915060008060cc60009054906101000a900473ffffffffffffffffffffffffffffffffffffffff1673ffffffffffffffffffffffffffffffffffffffff1663cd43fbfb85856040518363ffffffff1660e01b8152600401611e9e92919061a448565b604080518083038186803b158015611eb557600080fd5b505afa158015611ec9573d6000803e3d6000fd5b505050506040513d601f19601f82011682018060405250810190611eed9190618522565b9150915080611f03576000945050505050611f0b565b819450505050505b92915050565b600060d560008373ffffffffffffffffffffffffffffffffffffffff1673ffffffffffffffffffffffffffffffffffffffff168152602001908152602001600020549050919050565b600060d060008373ffffffffffffffffffffffffffffffffffffffff1673ffffffffffffffffffffffffffffffffffffffff168152602001908152602001600020549050919050565b611fab612b63565b73ffffffffffffffffffffffffffffffffffffffff16606560009054906101000a900473ffffffffffffffffffffffffffffffffffffffff1673ffffffffffffffffffffffffffffffffffffffff161461203a576040517f08c379a00000000000000000000000000000000000000000000000000000000081526004016120319061a0a6565b60405180910390fd5b80151560cf60169054906101000a900460ff1615151415612090576040517f08c379a00000000000000000000000000000000000000000000000000000000081526004016120879061a2e6565b60405180910390fd5b8060cf60166101000a81548160ff0219169083151502179055507f26d614575a4c104c181c87003d4bb00cc7ade00d5b47bf8775171c12a376b25560cf60169054906101000a900460ff166040516120e89190619ac9565b60405180910390a150565b60cf60149054906101000a900460ff1681565b60cc60009054906101000a900473ffffffffffffffffffffffffffffffffffffffff1681565b600060d660008373ffffffffffffffffffffffffffffffffffffffff1673ffffffffffffffffffffffffffffffffffffffff168152602001908152602001600020549050919050565b61217d617b32565b60d160008473ffffffffffffffffffffffffffffffffffffffff1673ffffffffffffffffffffffffffffffffffffffff16815260200190815260200160002060008381526020019081526020016000206040518060c00160405290816000820180548060200260200160405190810160405280929190818152602001828054801561225d57602002820191906000526020600020905b8160009054906101000a900473ffffffffffffffffffffffffffffffffffffffff1673ffffffffffffffffffffffffffffffffffffffff1681526020019060010190808311612213575b50505050508152602001600182018054806020026020016040519081016040528092919081815260200182805480156122eb57602002820191906000526020600020905b8160009054906101000a900473ffffffffffffffffffffffffffffffffffffffff1673ffffffffffffffffffffffffffffffffffffffff16815260200190600101908083116122a1575b505050505081526020016002820180548060200260200160405190810160405280929190818152602001828054801561237957602002820191906000526020600020905b8160009054906101000a900473ffffffffffffffffffffffffffffffffffffffff1673ffffffffffffffffffffffffffffffffffffffff168152602001906001019080831161232f575b50505050508152602001600382018054806020026020016040519081016040528092919081815260200182805480156123d157602002820191906000526020600020905b8154815260200190600101908083116123bd575b505050505081526020016004820180548060200260200160405190810160405280929190818152602001828054801561242957602002820191906000526020600020905b815481526020019060010190808311612415575b505050505081526020016005820180548060200260200160405190810160405280929190818152602001828054801561248157602002820191906000526020600020905b81548152602001906001019080831161246d575b505050505081525050905092915050565b60cd60009054906101000a900473ffffffffffffffffffffffffffffffffffffffff1673ffffffffffffffffffffffffffffffffffffffff1663dd2c99f78333846040518463ffffffff1660e01b81526004016124f1939291906199b6565b600060405180830381600087803b15801561250b57600080fd5b505af115801561251f573d6000803e3d6000fd5b505050508173ffffffffffffffffffffffffffffffffffffffff163373ffffffffffffffffffffffffffffffffffffffff167f4dfff917e1fbb261a082e98cc7d43029621f6a6eb05ff3fef1510d5f1eb4857c83604051612580919061a58c565b60405180910390a35050565b600080600080600061259d86613728565b93509350935093506125b184848484612940565b945050505050919050565b6000806000806000806125d08989896139cf565b9350935093505082828295509550955050505093509350939050565b60cf60159054906101000a900460ff1681565b609760009054906101000a900460ff1661264e576040517f08c379a00000000000000000000000000000000000000000000000000000000081526004016126459061a3a6565b60405180910390fd5b6000609760006101000a81548160ff0219169083151502179055506126716131bd565b61267b8282613617565b4260d460008473ffffffffffffffffffffffffffffffffffffffff1673ffffffffffffffffffffffffffffffffffffffff1681526020019081526020016000206000838152602001908152602001600020819055506001609760006101000a81548160ff0219169083151502179055505050565b6126f7612b63565b73ffffffffffffffffffffffffffffffffffffffff16606560009054906101000a900473ffffffffffffffffffffffffffffffffffffffff1673ffffffffffffffffffffffffffffffffffffffff1614612786576040517f08c379a000000000000000000000000000000000000000000000000000000000815260040161277d9061a0a6565b60405180910390fd5b600073ffffffffffffffffffffffffffffffffffffffff168173ffffffffffffffffffffffffffffffffffffffff1614156127f6576040517f08c379a00000000000000000000000000000000000000000000000000000000081526004016127ed90619d06565b60405180910390fd5b8073ffffffffffffffffffffffffffffffffffffffff16606560009054906101000a900473ffffffffffffffffffffffffffffffffffffffff1673ffffffffffffffffffffffffffffffffffffffff167f8be0079c531659141344cd1fd0a4f28419497f9722a3daafe3b4186f6b6457e060405160405180910390a380606560006101000a81548173ffffffffffffffffffffffffffffffffffffffff021916908373ffffffffffffffffffffffffffffffffffffffff16021790555050565b60008173ffffffffffffffffffffffffffffffffffffffff1663ade6e2aa6040518163ffffffff1660e01b815260040160206040518083038186803b1580156128fe57600080fd5b505afa158015612912573d6000803e3d6000fd5b505050506040513d601f19601f8201168201806040525081019061293691906184f9565b4210159050919050565b600060cb60009054906101000a900473ffffffffffffffffffffffffffffffffffffffff1673ffffffffffffffffffffffffffffffffffffffff16635fdc714986846040518363ffffffff1660e01b815260040161299f929190619a69565b60206040518083038186803b1580156129b757600080fd5b505afa1580156129cb573d6000803e3d6000fd5b505050506040513d601f19601f820116820180604052508101906129ef9190618481565b8015612aa4575060cb60009054906101000a900473ffffffffffffffffffffffffffffffffffffffff1673ffffffffffffffffffffffffffffffffffffffff16635fdc714985846040518363ffffffff1660e01b8152600401612a53929190619a69565b60206040518083038186803b158015612a6b57600080fd5b505afa158015612a7f573d6000803e3d6000fd5b505050506040513d601f19601f82011682018060405250810190612aa39190618481565b5b8015612b59575060cb60009054906101000a900473ffffffffffffffffffffffffffffffffffffffff1673ffffffffffffffffffffffffffffffffffffffff16635fdc714984846040518363ffffffff1660e01b8152600401612b08929190619a69565b60206040518083038186803b158015612b2057600080fd5b505afa158015612b34573d6000803e3d6000fd5b505050506040513d601f19601f82011682018060405250810190612b589190618481565b5b9050949350505050565b600033905090565b6000803090506000813b9050600081149250505090565b600060019054906101000a900460ff1680612ba15750612ba0612b6b565b5b80612bb857506000809054906101000a900460ff16155b612bf7576040517f08c379a0000000000000000000000000000000000000000000000000000000008152600401612bee9061a0e6565b60405180910390fd5b60008060019054906101000a900460ff161590508015612c47576001600060016101000a81548160ff02191690831515021790555060016000806101000a81548160ff0219169083151502179055505b612c4f613ace565b612c5882613bb7565b8015612c795760008060016101000a81548160ff0219169083151502179055505b5050565b600060019054906101000a900460ff1680612c9c5750612c9b612b6b565b5b80612cb357506000809054906101000a900460ff16155b612cf2576040517f08c379a0000000000000000000000000000000000000000000000000000000008152600401612ce99061a0e6565b60405180910390fd5b60008060019054906101000a900460ff161590508015612d42576001600060016101000a81548160ff02191690831515021790555060016000806101000a81548160ff0219169083151502179055505b6001609760006101000a81548160ff0219169083151502179055508015612d7e5760008060016101000a81548160ff0219169083151502179055505b50565b60c960009054906101000a900473ffffffffffffffffffffffffffffffffffffffff1673ffffffffffffffffffffffffffffffffffffffff1663d01f63f56040518163ffffffff1660e01b815260040160206040518083038186803b158015612de957600080fd5b505afa158015612dfd573d6000803e3d6000fd5b505050506040513d601f19601f82011682018060405250810190612e2191906181ff565b60ca60006101000a81548173ffffffffffffffffffffffffffffffffffffffff021916908373ffffffffffffffffffffffffffffffffffffffff16021790555060c960009054906101000a900473ffffffffffffffffffffffffffffffffffffffff1673ffffffffffffffffffffffffffffffffffffffff1663833b1fce6040518163ffffffff1660e01b815260040160206040518083038186803b158015612ec957600080fd5b505afa158015612edd573d6000803e3d6000fd5b505050506040513d601f19601f82011682018060405250810190612f0191906181ff565b60cb60006101000a81548173ffffffffffffffffffffffffffffffffffffffff021916908373ffffffffffffffffffffffffffffffffffffffff16021790555060c960009054906101000a900473ffffffffffffffffffffffffffffffffffffffff1673ffffffffffffffffffffffffffffffffffffffff1663cf28493f6040518163ffffffff1660e01b815260040160206040518083038186803b158015612fa957600080fd5b505afa158015612fbd573d6000803e3d6000fd5b505050506040513d601f19601f82011682018060405250810190612fe191906181ff565b60cc60006101000a81548173ffffffffffffffffffffffffffffffffffffffff021916908373ffffffffffffffffffffffffffffffffffffffff16021790555060c960009054906101000a900473ffffffffffffffffffffffffffffffffffffffff1673ffffffffffffffffffffffffffffffffffffffff1663754863426040518163ffffffff1660e01b815260040160206040518083038186803b15801561308957600080fd5b505afa15801561309d573d6000803e3d6000fd5b505050506040513d601f19601f820116820180604052508101906130c191906181ff565b60cd60006101000a81548173ffffffffffffffffffffffffffffffffffffffff021916908373ffffffffffffffffffffffffffffffffffffffff160217905550565b600080831415613116576000905061316d565b600082840290508284828161312757fe5b0414613168576040517f08c379a000000000000000000000000000000000000000000000000000000000815260040161315f9061a066565b60405180910390fd5b809150505b92915050565b60006131b583836040518060400160405280601a81526020017f536166654d6174683a206469766973696f6e206279207a65726f000000000000815250613d3d565b905092915050565b60cf60159054906101000a900460ff161561320d576040517f08c379a00000000000000000000000000000000000000000000000000000000081526004016132049061a406565b60405180910390fd5b565b60008060008060008060008090505b87518110156136035761322f617b68565b88828151811061323b57fe5b602002602001015190506000816000015190506007600a81111561325b57fe5b81600a81111561326757fe5b1415801561328c57506008600a81111561327d57fe5b81600a81111561328957fe5b14155b80156132ae5750600a8081111561329f57fe5b81600a8111156132ab57fe5b14155b80156132d157506009600a8111156132c257fe5b81600a8111156132ce57fe5b14155b156133a857831561339557816020015173ffffffffffffffffffffffffffffffffffffffff168673ffffffffffffffffffffffffffffffffffffffff161461334e576040517f08c379a000000000000000000000000000000000000000000000000000000000815260040161334590619fe6565b60405180910390fd5b81608001518514613394576040517f08c379a000000000000000000000000000000000000000000000000000000000815260040161338b90619dc6565b60405180910390fd5b5b6001935081608001519450816020015195505b6000600a8111156133b557fe5b81600a8111156133c157fe5b14156133dd576133d86133d383613d9e565b613f26565b6135f4565b6003600a8111156133ea57fe5b81600a8111156133f657fe5b14156134125761340d613408836140e1565b61426d565b6135f3565b6004600a81111561341f57fe5b81600a81111561342b57fe5b14156134475761344261343d83614743565b614943565b6135f2565b6005600a81111561345457fe5b81600a81111561346057fe5b141561347c57613477613472836140e1565b614c7b565b6135f1565b6006600a81111561348957fe5b81600a81111561349557fe5b14156134b1576134ac6134a783614743565b615215565b6135f0565b6001600a8111156134be57fe5b81600a8111156134ca57fe5b14156134e6576134e16134dc83615642565b6157a9565b6135ef565b6002600a8111156134f357fe5b81600a8111156134ff57fe5b141561351b5761351661351183615ba7565b615d0e565b6135ee565b6008600a81111561352857fe5b81600a81111561353457fe5b14156135505761354b613546836160ce565b616201565b6135ed565b6007600a81111561355d57fe5b81600a81111561356957fe5b14156135855761358061357b8361654e565b6166f5565b6135ec565b600a8081111561359157fe5b81600a81111561359d57fe5b14156135b9576135b46135af83616d06565b616f21565b6135eb565b6009600a8111156135c657fe5b81600a8111156135d257fe5b14156135ea576135e96135e483617519565b61762c565b5b5b5b5b5b5b5b5b5b5b5b5050808060010191505061321e565b508083839550955095505050509193909250565b61361f617b32565b600061362b8484611299565b5091509150600060cc60009054906101000a900473ffffffffffffffffffffffffffffffffffffffff1673ffffffffffffffffffffffffffffffffffffffff1663cd43fbfb84846040518363ffffffff1660e01b815260040161368f92919061a448565b604080518083038186803b1580156136a657600080fd5b505afa1580156136ba573d6000803e3d6000fd5b505050506040513d601f19601f820116820180604052508101906136de9190618522565b91505080613721576040517f08c379a000000000000000000000000000000000000000000000000000000000815260040161371890619c06565b60405180910390fd5b5050505050565b60008060008060008590508073ffffffffffffffffffffffffffffffffffffffff1663af0968fc6040518163ffffffff1660e01b815260040160c06040518083038186803b15801561377957600080fd5b505afa9250505080156137aa57506040513d601f19601f820116820180604052508101906137a791906182c7565b60015b6139b4578073ffffffffffffffffffffffffffffffffffffffff1663aabaecd66040518163ffffffff1660e01b815260040160206040518083038186803b1580156137f457600080fd5b505afa158015613808573d6000803e3d6000fd5b505050506040513d601f19601f8201168201806040525081019061382c91906181ff565b8173ffffffffffffffffffffffffffffffffffffffff16637158da7c6040518163ffffffff1660e01b815260040160206040518083038186803b15801561387257600080fd5b505afa158015613886573d6000803e3d6000fd5b505050506040513d601f19601f820116820180604052508101906138aa91906181ff565b8273ffffffffffffffffffffffffffffffffffffffff166317d69bc86040518163ffffffff1660e01b815260040160206040518083038186803b1580156138f057600080fd5b505afa158015613904573d6000803e3d6000fd5b505050506040513d601f19601f8201168201806040525081019061392891906181ff565b8373ffffffffffffffffffffffffffffffffffffffff1663ade6e2aa6040518163ffffffff1660e01b815260040160206040518083038186803b15801561396e57600080fd5b505afa158015613982573d6000803e3d6000fd5b505050506040513d601f19601f820116820180604052508101906139a691906184f9565b9450945094509450506139c8565b858585849a509a509a509a50505050505050505b9193509193565b6139d7617b32565b60008060006139e4617b32565b6000806139f18a8a611299565b925092509250600080600060cc60009054906101000a900473ffffffffffffffffffffffffffffffffffffffff1673ffffffffffffffffffffffffffffffffffffffff1663a6c569078787878f6040518563ffffffff1660e01b8152600401613a5d949392919061a4b6565b60606040518083038186803b158015613a7557600080fd5b505afa158015613a89573d6000803e3d6000fd5b505050506040513d601f19601f82011682018060405250810190613aad91906184aa565b92509250925085838383995099509950995050505050505093509350935093565b600060019054906101000a900460ff1680613aed5750613aec612b6b565b5b80613b0457506000809054906101000a900460ff16155b613b43576040517f08c379a0000000000000000000000000000000000000000000000000000000008152600401613b3a9061a0e6565b60405180910390fd5b60008060019054906101000a900460ff161590508015613b93576001600060016101000a81548160ff02191690831515021790555060016000806101000a81548160ff0219169083151502179055505b8015613bb45760008060016101000a81548160ff0219169083151502179055505b50565b600060019054906101000a900460ff1680613bd65750613bd5612b6b565b5b80613bed57506000809054906101000a900460ff16155b613c2c576040517f08c379a0000000000000000000000000000000000000000000000000000000008152600401613c239061a0e6565b60405180910390fd5b60008060019054906101000a900460ff161590508015613c7c576001600060016101000a81548160ff02191690831515021790555060016000806101000a81548160ff0219169083151502179055505b81606560006101000a81548173ffffffffffffffffffffffffffffffffffffffff021916908373ffffffffffffffffffffffffffffffffffffffff1602179055508173ffffffffffffffffffffffffffffffffffffffff16600073ffffffffffffffffffffffffffffffffffffffff167f8be0079c531659141344cd1fd0a4f28419497f9722a3daafe3b4186f6b6457e060405160405180910390a38015613d395760008060016101000a81548160ff0219169083151502179055505b5050565b60008083118290613d84576040517f08c379a0000000000000000000000000000000000000000000000000000000008152600401613d7b9190619bc4565b60405180910390fd5b506000838581613d9057fe5b049050809150509392505050565b613da6617bfa565b6000600a811115613db357fe5b8260000151600a811115613dc357fe5b14613e03576040517f08c379a0000000000000000000000000000000000000000000000000000000008152600401613dfa90619e06565b60405180910390fd5b600073ffffffffffffffffffffffffffffffffffffffff16826020015173ffffffffffffffffffffffffffffffffffffffff161415613e77576040517f08c379a0000000000000000000000000000000000000000000000000000000008152600401613e6e90619ea6565b60405180910390fd5b600060208360e00151511415613ea2578260e00151806020019051810190613e9f91906184f9565b90505b60028110613ee5576040517f08c379a0000000000000000000000000000000000000000000000000000000008152600401613edc90619cc6565b60405180910390fd5b6040518060600160405280846020015173ffffffffffffffffffffffffffffffffffffffff1681526020018460800151815260200182815250915050919050565b613f2e61777d565b338160000151613f3e82826177cf565b6000613f97600160d06000876000015173ffffffffffffffffffffffffffffffffffffffff1673ffffffffffffffffffffffffffffffffffffffff168152602001908152602001600020546178d290919063ffffffff16565b905080846020015114613fdf576040517f08c379a0000000000000000000000000000000000000000000000000000000008152600401613fd690619fc6565b60405180910390fd5b8060d06000866000015173ffffffffffffffffffffffffffffffffffffffff1673ffffffffffffffffffffffffffffffffffffffff16815260200190815260200160002081905550836040015160d36000866000015173ffffffffffffffffffffffffffffffffffffffff1673ffffffffffffffffffffffffffffffffffffffff1681526020019081526020016000206000838152602001908152602001600020819055508360400151846000015173ffffffffffffffffffffffffffffffffffffffff167f5d66689e2c864b4f21efd3988c0ce5dc8a197981b68e81ce73660e92394fe25f836040516140d3919061a58c565b60405180910390a350505050565b6140e9617c31565b6003600a8111156140f657fe5b8260000151600a81111561410657fe5b148061412c57506005600a81111561411a57fe5b8260000151600a81111561412a57fe5b145b61416b576040517f08c379a00000000000000000000000000000000000000000000000000000000081526004016141629061a1c6565b60405180910390fd5b600073ffffffffffffffffffffffffffffffffffffffff16826020015173ffffffffffffffffffffffffffffffffffffffff1614156141df576040517f08c379a00000000000000000000000000000000000000000000000000000000081526004016141d69061a1e6565b60405180910390fd5b6040518060c00160405280836020015173ffffffffffffffffffffffffffffffffffffffff16815260200183608001518152602001836040015173ffffffffffffffffffffffffffffffffffffffff168152602001836060015173ffffffffffffffffffffffffffffffffffffffff1681526020018360c0015181526020018360a001518152509050919050565b61427561777d565b33816000015161428582826177cf565b61429783600001518460200151617927565b6142d6576040517f08c379a00000000000000000000000000000000000000000000000000000000081526004016142cd90619f26565b60405180910390fd5b3373ffffffffffffffffffffffffffffffffffffffff16836040015173ffffffffffffffffffffffffffffffffffffffff1614806143475750826000015173ffffffffffffffffffffffffffffffffffffffff16836040015173ffffffffffffffffffffffffffffffffffffffff16145b614386576040517f08c379a000000000000000000000000000000000000000000000000000000000815260040161437d90619d46565b60405180910390fd5b60ca60009054906101000a900473ffffffffffffffffffffffffffffffffffffffff1673ffffffffffffffffffffffffffffffffffffffff166311946b9884606001516040518263ffffffff1660e01b81526004016143e59190619942565b60206040518083038186803b1580156143fd57600080fd5b505afa158015614411573d6000803e3d6000fd5b505050506040513d601f19601f820116820180604052508101906144359190618481565b614474576040517f08c379a000000000000000000000000000000000000000000000000000000000815260040161446b9061a366565b60405180910390fd5b6000836060015190508073ffffffffffffffffffffffffffffffffffffffff1663ade6e2aa6040518163ffffffff1660e01b815260040160206040518083038186803b1580156144c357600080fd5b505afa1580156144d7573d6000803e3d6000fd5b505050506040513d601f19601f820116820180604052508101906144fb91906184f9565b421061453c576040517f08c379a000000000000000000000000000000000000000000000000000000000815260040161453390619ec6565b60405180910390fd5b60d16000856000015173ffffffffffffffffffffffffffffffffffffffff1673ffffffffffffffffffffffffffffffffffffffff16815260200190815260200160002060008560200151815260200190815260200160002073__$6273469f5bd9f88e32f4b846ef0a64c31e$__63aadf9398909186606001518760a0015188608001516040518563ffffffff1660e01b81526004016145de949392919061a547565b60006040518083038186803b1580156145f657600080fd5b505af415801561460a573d6000803e3d6000fd5b5050505060cd60009054906101000a900473ffffffffffffffffffffffffffffffffffffffff1673ffffffffffffffffffffffffffffffffffffffff1663dd2c99f7856060015186604001518760a001516040518463ffffffff1660e01b815260040161467993929190619a32565b600060405180830381600087803b15801561469357600080fd5b505af11580156146a7573d6000803e3d6000fd5b50505050836040015173ffffffffffffffffffffffffffffffffffffffff16846000015173ffffffffffffffffffffffffffffffffffffffff16856060015173ffffffffffffffffffffffffffffffffffffffff167f2607e210004cef0ad6b3e6aedb778bffb03c1586f8dcf55d49afffde210d8bb187602001518860a0015160405161473592919061a5a7565b60405180910390a450505050565b61474b617ca9565b6004600a81111561475857fe5b8260000151600a81111561476857fe5b148061478e57506006600a81111561477c57fe5b8260000151600a81111561478c57fe5b145b6147cd576040517f08c379a00000000000000000000000000000000000000000000000000000000081526004016147c49061a0c6565b60405180910390fd5b600073ffffffffffffffffffffffffffffffffffffffff16826020015173ffffffffffffffffffffffffffffffffffffffff161415614841576040517f08c379a000000000000000000000000000000000000000000000000000000000815260040161483890619c66565b60405180910390fd5b600073ffffffffffffffffffffffffffffffffffffffff16826040015173ffffffffffffffffffffffffffffffffffffffff1614156148b5576040517f08c379a00000000000000000000000000000000000000000000000000000000081526004016148ac9061a126565b60405180910390fd5b6040518060c00160405280836020015173ffffffffffffffffffffffffffffffffffffffff16815260200183608001518152602001836040015173ffffffffffffffffffffffffffffffffffffffff168152602001836060015173ffffffffffffffffffffffffffffffffffffffff1681526020018360c0015181526020018360a001518152509050919050565b61494b61777d565b33816000015161495b82826177cf565b61496d83600001518460200151617927565b6149ac576040517f08c379a00000000000000000000000000000000000000000000000000000000081526004016149a390619f26565b60405180910390fd5b6000836060015190508073ffffffffffffffffffffffffffffffffffffffff1663ade6e2aa6040518163ffffffff1660e01b815260040160206040518083038186803b1580156149fb57600080fd5b505afa158015614a0f573d6000803e3d6000fd5b505050506040513d601f19601f82011682018060405250810190614a3391906184f9565b4210614a74576040517f08c379a0000000000000000000000000000000000000000000000000000000008152600401614a6b9061a266565b60405180910390fd5b60d16000856000015173ffffffffffffffffffffffffffffffffffffffff1673ffffffffffffffffffffffffffffffffffffffff16815260200190815260200160002060008560200151815260200190815260200160002073__$6273469f5bd9f88e32f4b846ef0a64c31e$__63951dd8d3909186606001518760a0015188608001516040518563ffffffff1660e01b8152600401614b16949392919061a547565b60006040518083038186803b158015614b2e57600080fd5b505af4158015614b42573d6000803e3d6000fd5b5050505060cd60009054906101000a900473ffffffffffffffffffffffffffffffffffffffff1673ffffffffffffffffffffffffffffffffffffffff1663fa93b2a5856060015186604001518760a001516040518463ffffffff1660e01b8152600401614bb193929190619a32565b600060405180830381600087803b158015614bcb57600080fd5b505af1158015614bdf573d6000803e3d6000fd5b50505050836040015173ffffffffffffffffffffffffffffffffffffffff16846000015173ffffffffffffffffffffffffffffffffffffffff16856060015173ffffffffffffffffffffffffffffffffffffffff167fbd023c53d293da163d185720d4274f4ddabc09d5304491a55abb296cc811d9fa87602001518860a00151604051614c6d92919061a5a7565b60405180910390a450505050565b614c8361777d565b338160000151614c9382826177cf565b614ca583600001518460200151617927565b614ce4576040517f08c379a0000000000000000000000000000000000000000000000000000000008152600401614cdb90619f26565b60405180910390fd5b3373ffffffffffffffffffffffffffffffffffffffff16836040015173ffffffffffffffffffffffffffffffffffffffff161480614d555750826000015173ffffffffffffffffffffffffffffffffffffffff16836040015173ffffffffffffffffffffffffffffffffffffffff16145b614d94576040517f08c379a0000000000000000000000000000000000000000000000000000000008152600401614d8b90619c26565b60405180910390fd5b60ca60009054906101000a900473ffffffffffffffffffffffffffffffffffffffff1673ffffffffffffffffffffffffffffffffffffffff1663f9839d8984606001516040518263ffffffff1660e01b8152600401614df39190619942565b60206040518083038186803b158015614e0b57600080fd5b505afa158015614e1f573d6000803e3d6000fd5b505050506040513d601f19601f82011682018060405250810190614e439190618481565b614e82576040517f08c379a0000000000000000000000000000000000000000000000000000000008152600401614e7990619f06565b60405180910390fd5b6000614e9684600001518560200151611299565b50915050600181141561500e57614efd8460a0015160d66000876060015173ffffffffffffffffffffffffffffffffffffffff1673ffffffffffffffffffffffffffffffffffffffff168152602001908152602001600020546178d290919063ffffffff16565b60d66000866060015173ffffffffffffffffffffffffffffffffffffffff1673ffffffffffffffffffffffffffffffffffffffff1681526020019081526020016000208190555060d56000856060015173ffffffffffffffffffffffffffffffffffffffff1673ffffffffffffffffffffffffffffffffffffffff1681526020019081526020016000205460d66000866060015173ffffffffffffffffffffffffffffffffffffffff1673ffffffffffffffffffffffffffffffffffffffff16815260200190815260200160002054111561500d576040517f08c379a00000000000000000000000000000000000000000000000000000000081526004016150049061a086565b60405180910390fd5b5b60d16000856000015173ffffffffffffffffffffffffffffffffffffffff1673ffffffffffffffffffffffffffffffffffffffff16815260200190815260200160002060008560200151815260200190815260200160002073__$6273469f5bd9f88e32f4b846ef0a64c31e$__637e5d2ac0909186606001518760a0015188608001516040518563ffffffff1660e01b81526004016150b0949392919061a547565b60006040518083038186803b1580156150c857600080fd5b505af41580156150dc573d6000803e3d6000fd5b5050505060cd60009054906101000a900473ffffffffffffffffffffffffffffffffffffffff1673ffffffffffffffffffffffffffffffffffffffff1663dd2c99f7856060015186604001518760a001516040518463ffffffff1660e01b815260040161514b93929190619a32565b600060405180830381600087803b15801561516557600080fd5b505af1158015615179573d6000803e3d6000fd5b50505050836040015173ffffffffffffffffffffffffffffffffffffffff16846000015173ffffffffffffffffffffffffffffffffffffffff16856060015173ffffffffffffffffffffffffffffffffffffffff167fbfab88b861f171b7db714f00e5966131253918d55ddba816c3eb94657d10239087602001518860a0015160405161520792919061a5a7565b60405180910390a450505050565b61521d61777d565b33816000015161522d82826177cf565b61523f83600001518460200151617927565b61527e576040517f08c379a000000000000000000000000000000000000000000000000000000000815260040161527590619f26565b60405180910390fd5b615286617b32565b600061529a85600001518660200151611299565b50915091506152ac826000015161797f565b1561538f57600082600001516000815181106152c457fe5b602002602001015190508073ffffffffffffffffffffffffffffffffffffffff1663ade6e2aa6040518163ffffffff1660e01b815260040160206040518083038186803b15801561531457600080fd5b505afa158015615328573d6000803e3d6000fd5b505050506040513d601f19601f8201168201806040525081019061534c91906184f9565b421061538d576040517f08c379a00000000000000000000000000000000000000000000000000000000081526004016153849061a106565b60405180910390fd5b505b600181141561543a576153f28560a0015160d66000886060015173ffffffffffffffffffffffffffffffffffffffff1673ffffffffffffffffffffffffffffffffffffffff168152602001908152602001600020546179d990919063ffffffff16565b60d66000876060015173ffffffffffffffffffffffffffffffffffffffff1673ffffffffffffffffffffffffffffffffffffffff168152602001908152602001600020819055505b60d16000866000015173ffffffffffffffffffffffffffffffffffffffff1673ffffffffffffffffffffffffffffffffffffffff16815260200190815260200160002060008660200151815260200190815260200160002073__$6273469f5bd9f88e32f4b846ef0a64c31e$__63e02ff740909187606001518860a0015189608001516040518563ffffffff1660e01b81526004016154dc949392919061a547565b60006040518083038186803b1580156154f457600080fd5b505af4158015615508573d6000803e3d6000fd5b5050505060cd60009054906101000a900473ffffffffffffffffffffffffffffffffffffffff1673ffffffffffffffffffffffffffffffffffffffff1663fa93b2a5866060015187604001518860a001516040518463ffffffff1660e01b815260040161557793929190619a32565b600060405180830381600087803b15801561559157600080fd5b505af11580156155a5573d6000803e3d6000fd5b50505050846040015173ffffffffffffffffffffffffffffffffffffffff16856000015173ffffffffffffffffffffffffffffffffffffffff16866060015173ffffffffffffffffffffffffffffffffffffffff167ffe86f7694b6c54a528acbe27be61dd4a85e9a89aeef7f650a1b439045ccee5a488602001518960a0015160405161563392919061a5a7565b60405180910390a45050505050565b61564a617d21565b6001600a81111561565757fe5b8260000151600a81111561566757fe5b146156a7576040517f08c379a000000000000000000000000000000000000000000000000000000000815260040161569e9061a306565b60405180910390fd5b600073ffffffffffffffffffffffffffffffffffffffff16826020015173ffffffffffffffffffffffffffffffffffffffff16141561571b576040517f08c379a00000000000000000000000000000000000000000000000000000000081526004016157129061a346565b60405180910390fd5b6040518060c00160405280836020015173ffffffffffffffffffffffffffffffffffffffff16815260200183608001518152602001836040015173ffffffffffffffffffffffffffffffffffffffff168152602001836060015173ffffffffffffffffffffffffffffffffffffffff1681526020018360c0015181526020018360a001518152509050919050565b6157b161777d565b3381600001516157c182826177cf565b6157d383600001518460200151617927565b615812576040517f08c379a000000000000000000000000000000000000000000000000000000000815260040161580990619f26565b60405180910390fd5b60ca60009054906101000a900473ffffffffffffffffffffffffffffffffffffffff1673ffffffffffffffffffffffffffffffffffffffff166311946b9884606001516040518263ffffffff1660e01b81526004016158719190619942565b60206040518083038186803b15801561588957600080fd5b505afa15801561589d573d6000803e3d6000fd5b505050506040513d601f19601f820116820180604052508101906158c19190618481565b615900576040517f08c379a00000000000000000000000000000000000000000000000000000000081526004016158f790619e26565b60405180910390fd5b6000836060015190508073ffffffffffffffffffffffffffffffffffffffff1663ade6e2aa6040518163ffffffff1660e01b815260040160206040518083038186803b15801561594f57600080fd5b505afa158015615963573d6000803e3d6000fd5b505050506040513d601f19601f8201168201806040525081019061598791906184f9565b42106159c8576040517f08c379a00000000000000000000000000000000000000000000000000000000081526004016159bf9061a046565b60405180910390fd5b60d16000856000015173ffffffffffffffffffffffffffffffffffffffff1673ffffffffffffffffffffffffffffffffffffffff16815260200190815260200160002060008560200151815260200190815260200160002073__$6273469f5bd9f88e32f4b846ef0a64c31e$__63ef682c1b909186606001518760a0015188608001516040518563ffffffff1660e01b8152600401615a6a949392919061a547565b60006040518083038186803b158015615a8257600080fd5b505af4158015615a96573d6000803e3d6000fd5b505050508073ffffffffffffffffffffffffffffffffffffffff166351b0a41085604001518660a001516040518363ffffffff1660e01b8152600401615add929190619a69565b600060405180830381600087803b158015615af757600080fd5b505af1158015615b0b573d6000803e3d6000fd5b50505050836040015173ffffffffffffffffffffffffffffffffffffffff16846000015173ffffffffffffffffffffffffffffffffffffffff16856060015173ffffffffffffffffffffffffffffffffffffffff167f4d7f96086c92b2f9a254ad21548b1c1f2d99502c7949508866349b96bb1a8d8a87602001518860a00151604051615b9992919061a5a7565b60405180910390a450505050565b615baf617d99565b6002600a811115615bbc57fe5b8260000151600a811115615bcc57fe5b14615c0c576040517f08c379a0000000000000000000000000000000000000000000000000000000008152600401615c039061a226565b60405180910390fd5b600073ffffffffffffffffffffffffffffffffffffffff16826020015173ffffffffffffffffffffffffffffffffffffffff161415615c80576040517f08c379a0000000000000000000000000000000000000000000000000000000008152600401615c7790619e86565b60405180910390fd5b6040518060c00160405280836020015173ffffffffffffffffffffffffffffffffffffffff16815260200183608001518152602001836040015173ffffffffffffffffffffffffffffffffffffffff168152602001836060015173ffffffffffffffffffffffffffffffffffffffff1681526020018360c0015181526020018360a001518152509050919050565b615d1661777d565b338160000151615d2682826177cf565b615d3883600001518460200151617927565b615d77576040517f08c379a0000000000000000000000000000000000000000000000000000000008152600401615d6e90619f26565b60405180910390fd5b3373ffffffffffffffffffffffffffffffffffffffff16836040015173ffffffffffffffffffffffffffffffffffffffff161480615de85750826000015173ffffffffffffffffffffffffffffffffffffffff16836040015173ffffffffffffffffffffffffffffffffffffffff16145b615e27576040517f08c379a0000000000000000000000000000000000000000000000000000000008152600401615e1e90619e46565b60405180910390fd5b6000836060015190508073ffffffffffffffffffffffffffffffffffffffff1663ade6e2aa6040518163ffffffff1660e01b815260040160206040518083038186803b158015615e7657600080fd5b505afa158015615e8a573d6000803e3d6000fd5b505050506040513d601f19601f82011682018060405250810190615eae91906184f9565b4210615eef576040517f08c379a0000000000000000000000000000000000000000000000000000000008152600401615ee690619ca6565b60405180910390fd5b60d16000856000015173ffffffffffffffffffffffffffffffffffffffff1673ffffffffffffffffffffffffffffffffffffffff16815260200190815260200160002060008560200151815260200190815260200160002073__$6273469f5bd9f88e32f4b846ef0a64c31e$__637b5c2835909186606001518760a0015188608001516040518563ffffffff1660e01b8152600401615f91949392919061a547565b60006040518083038186803b158015615fa957600080fd5b505af4158015615fbd573d6000803e3d6000fd5b505050508073ffffffffffffffffffffffffffffffffffffffff166356d878f785604001518660a001516040518363ffffffff1660e01b8152600401616004929190619a69565b600060405180830381600087803b15801561601e57600080fd5b505af1158015616032573d6000803e3d6000fd5b50505050836040015173ffffffffffffffffffffffffffffffffffffffff16846000015173ffffffffffffffffffffffffffffffffffffffff16856060015173ffffffffffffffffffffffffffffffffffffffff167fdd96b18f26fd9950581b9fd821fa907fc318845fc4d220b825a7b19bfdd174e887602001518860a001516040516160c092919061a5a7565b60405180910390a450505050565b6160d6617e11565b6008600a8111156160e357fe5b8260000151600a8111156160f357fe5b14616133576040517f08c379a000000000000000000000000000000000000000000000000000000000815260040161612a9061a326565b60405180910390fd5b600073ffffffffffffffffffffffffffffffffffffffff16826040015173ffffffffffffffffffffffffffffffffffffffff1614156161a7576040517f08c379a000000000000000000000000000000000000000000000000000000000815260040161619e90619f46565b60405180910390fd5b6040518060600160405280836040015173ffffffffffffffffffffffffffffffffffffffff168152602001836060015173ffffffffffffffffffffffffffffffffffffffff1681526020018360a001518152509050919050565b60008160200151905060ca60009054906101000a900473ffffffffffffffffffffffffffffffffffffffff1673ffffffffffffffffffffffffffffffffffffffff166311946b9883602001516040518263ffffffff1660e01b81526004016162699190619942565b60206040518083038186803b15801561628157600080fd5b505afa158015616295573d6000803e3d6000fd5b505050506040513d601f19601f820116820180604052508101906162b99190618481565b6162f8576040517f08c379a00000000000000000000000000000000000000000000000000000000081526004016162ef9061a386565b60405180910390fd5b60008060008061630785613728565b935093509350935080421015616352576040517f08c379a00000000000000000000000000000000000000000000000000000000081526004016163499061a206565b60405180910390fd5b61635e83838684612940565b61639d576040517f08c379a00000000000000000000000000000000000000000000000000000000081526004016163949061a146565b60405180910390fd5b60006163b187602001518860400151610d2b565b90508573ffffffffffffffffffffffffffffffffffffffff166356d878f73389604001516040518363ffffffff1660e01b81526004016163f292919061998d565b600060405180830381600087803b15801561640c57600080fd5b505af1158015616420573d6000803e3d6000fd5b5050505060cd60009054906101000a900473ffffffffffffffffffffffffffffffffffffffff1673ffffffffffffffffffffffffffffffffffffffff1663fa93b2a5868960000151846040518463ffffffff1660e01b815260040161648793929190619a32565b600060405180830381600087803b1580156164a157600080fd5b505af11580156164b5573d6000803e3d6000fd5b50505050866000015173ffffffffffffffffffffffffffffffffffffffff163373ffffffffffffffffffffffffffffffffffffffff16886020015173ffffffffffffffffffffffffffffffffffffffff167f18fd144d7dbcbaa6f00fd47a84adc7dc3cc64a326ffa2dc7691a25e3837dba03888b604001518660405161653d93929190619a92565b60405180910390a450505050505050565b616556617e5e565b6007600a81111561656357fe5b8260000151600a81111561657357fe5b146165b3576040517f08c379a00000000000000000000000000000000000000000000000000000000081526004016165aa9061a1a6565b60405180910390fd5b600073ffffffffffffffffffffffffffffffffffffffff16826020015173ffffffffffffffffffffffffffffffffffffffff161415616627576040517f08c379a000000000000000000000000000000000000000000000000000000000815260040161661e90619ce6565b60405180910390fd5b600073ffffffffffffffffffffffffffffffffffffffff16826040015173ffffffffffffffffffffffffffffffffffffffff16141561669b576040517f08c379a00000000000000000000000000000000000000000000000000000000081526004016166929061a286565b60405180910390fd5b6040518060600160405280836020015173ffffffffffffffffffffffffffffffffffffffff16815260200183608001518152602001836040015173ffffffffffffffffffffffffffffffffffffffff168152509050919050565b33816000015161670582826177cf565b61671783600001518460200151617927565b616756576040517f08c379a000000000000000000000000000000000000000000000000000000000815260040161674d90619f26565b60405180910390fd5b61675e617b32565b600061677285600001518660200151611299565b5091509150600080616787846000015161797f565b90506000616798856020015161797f565b905081806167a35750805b6167e2576040517f08c379a00000000000000000000000000000000000000000000000000000000081526004016167d99061a166565b60405180910390fd5b816168055784602001516000815181106167f857fe5b602002602001015161681f565b846000015160008151811061681657fe5b60200260200101515b925080156168ed576000856020015160008151811061683a57fe5b602002602001015190508073ffffffffffffffffffffffffffffffffffffffff166356d878f760cd60009054906101000a900473ffffffffffffffffffffffffffffffffffffffff16886080015160008151811061689457fe5b60200260200101516040518363ffffffff1660e01b81526004016168b9929190619a69565b600060405180830381600087803b1580156168d357600080fd5b505af11580156168e7573d6000803e3d6000fd5b50505050505b50506000806000806168fe85613728565b935093509350935080421015616949576040517f08c379a000000000000000000000000000000000000000000000000000000000815260040161694090619ee6565b60405180910390fd5b61695583838684612940565b616994576040517f08c379a000000000000000000000000000000000000000000000000000000000815260040161698b9061a146565b60405180910390fd5b60008060cc60009054906101000a900473ffffffffffffffffffffffffffffffffffffffff1673ffffffffffffffffffffffffffffffffffffffff1663cd43fbfb8a8a6040518363ffffffff1660e01b81526004016169f492919061a448565b604080518083038186803b158015616a0b57600080fd5b505afa158015616a1f573d6000803e3d6000fd5b505050506040513d601f19601f82011682018060405250810190616a439190618522565b9150915080616a87576040517f08c379a0000000000000000000000000000000000000000000000000000000008152600401616a7e90619de6565b60405180910390fd5b60d160008d6000015173ffffffffffffffffffffffffffffffffffffffff1673ffffffffffffffffffffffffffffffffffffffff16815260200190815260200160002060008d60200151815260200190815260200160002060008082016000616af09190617eab565b600182016000616b009190617eab565b600282016000616b109190617eab565b600382016000616b209190617ecc565b600482016000616b309190617ecc565b600582016000616b409190617ecc565b50506001881415616be157616b9d8260d660008973ffffffffffffffffffffffffffffffffffffffff1673ffffffffffffffffffffffffffffffffffffffff168152602001908152602001600020546179d990919063ffffffff16565b60d660008873ffffffffffffffffffffffffffffffffffffffff1673ffffffffffffffffffffffffffffffffffffffff168152602001908152602001600020819055505b60cd60009054906101000a900473ffffffffffffffffffffffffffffffffffffffff1673ffffffffffffffffffffffffffffffffffffffff1663fa93b2a5878e60400151856040518463ffffffff1660e01b8152600401616c4493929190619a32565b600060405180830381600087803b158015616c5e57600080fd5b505af1158015616c72573d6000803e3d6000fd5b5050505060008c60200151905060008d604001519050898973ffffffffffffffffffffffffffffffffffffffff168f6000015173ffffffffffffffffffffffffffffffffffffffff167f522cda7dd0677ee4c9512efd8aa92af93de64b4c2fe2f8bfe7a9234a655a9bf5848887604051616cee93929190619a92565b60405180910390a45050505050505050505050505050565b616d0e617eed565b600a80811115616d1a57fe5b8260000151600a811115616d2a57fe5b14616d6a576040517f08c379a0000000000000000000000000000000000000000000000000000000008152600401616d6190619c46565b60405180910390fd5b600073ffffffffffffffffffffffffffffffffffffffff16826020015173ffffffffffffffffffffffffffffffffffffffff161415616dde576040517f08c379a0000000000000000000000000000000000000000000000000000000008152600401616dd590619da6565b60405180910390fd5b600073ffffffffffffffffffffffffffffffffffffffff16826040015173ffffffffffffffffffffffffffffffffffffffff161415616e52576040517f08c379a0000000000000000000000000000000000000000000000000000000008152600401616e4990619c86565b60405180910390fd5b60208260e001515114616e9a576040517f08c379a0000000000000000000000000000000000000000000000000000000008152600401616e919061a246565b60405180910390fd5b60008260e00151806020019051810190616eb491906184f9565b90506040518060a00160405280846020015173ffffffffffffffffffffffffffffffffffffffff168152602001846040015173ffffffffffffffffffffffffffffffffffffffff168152602001846080015181526020018460a00151815260200182815250915050919050565b616f2961777d565b616f3b81600001518260400151617927565b616f7a576040517f08c379a0000000000000000000000000000000000000000000000000000000008152600401616f7190619f26565b60405180910390fd5b616f82617b32565b6000806000616f9e8560000151866040015187608001516139cf565b935093509350935082616fe6576040517f08c379a0000000000000000000000000000000000000000000000000000000008152600401616fdd9061a2a6565b60405180910390fd5b60006170156305f5e10061700785896060015161310390919063ffffffff16565b61317390919063ffffffff16565b905060006170488760600151876060015160008151811061703257fe5b60200260200101516179d990919063ffffffff16565b11156170bc578161707a828760a0015160008151811061706457fe5b60200260200101516179d990919063ffffffff16565b10156170bb576040517f08c379a00000000000000000000000000000000000000000000000000000000081526004016170b290619fa6565b60405180910390fd5b5b84600001516000815181106170cd57fe5b602002602001015173ffffffffffffffffffffffffffffffffffffffff166356d878f73388606001516040518363ffffffff1660e01b815260040161711392919061998d565b600060405180830381600087803b15801561712d57600080fd5b505af1158015617141573d6000803e3d6000fd5b5050505060d16000876000015173ffffffffffffffffffffffffffffffffffffffff1673ffffffffffffffffffffffffffffffffffffffff16815260200190815260200160002060008760400151815260200190815260200160002073__$6273469f5bd9f88e32f4b846ef0a64c31e$__63e02ff740909187604001516000815181106171ca57fe5b60200260200101518460006040518563ffffffff1660e01b81526004016171f4949392919061a502565b60006040518083038186803b15801561720c57600080fd5b505af4158015617220573d6000803e3d6000fd5b5050505060d16000876000015173ffffffffffffffffffffffffffffffffffffffff1673ffffffffffffffffffffffffffffffffffffffff16815260200190815260200160002060008760400151815260200190815260200160002073__$6273469f5bd9f88e32f4b846ef0a64c31e$__637b5c2835909187600001516000815181106172a957fe5b6020026020010151896060015160006040518563ffffffff1660e01b81526004016172d7949392919061a502565b60006040518083038186803b1580156172ef57600080fd5b505af4158015617303573d6000803e3d6000fd5b505050506173718160d66000886040015160008151811061732057fe5b602002602001015173ffffffffffffffffffffffffffffffffffffffff1673ffffffffffffffffffffffffffffffffffffffff168152602001908152602001600020546179d990919063ffffffff16565b60d66000876040015160008151811061738657fe5b602002602001015173ffffffffffffffffffffffffffffffffffffffff1673ffffffffffffffffffffffffffffffffffffffff1681526020019081526020016000208190555060cd60009054906101000a900473ffffffffffffffffffffffffffffffffffffffff1673ffffffffffffffffffffffffffffffffffffffff1663fa93b2a5866040015160008151811061741b57fe5b60200260200101518860200151846040518463ffffffff1660e01b815260040161744793929190619a32565b600060405180830381600087803b15801561746157600080fd5b505af1158015617475573d6000803e3d6000fd5b50505050856000015173ffffffffffffffffffffffffffffffffffffffff16866020015173ffffffffffffffffffffffffffffffffffffffff163373ffffffffffffffffffffffffffffffffffffffff167f93e59ec97820bb1ed9fb6ddc10619d1574e803b1f79b937414feb8f6b7051f9d868a60800151868c606001518d6040015160405161750995949392919061a5d0565b60405180910390a4505050505050565b617521617f48565b6009600a81111561752e57fe5b8260000151600a81111561753e57fe5b1461757e576040517f08c379a00000000000000000000000000000000000000000000000000000000081526004016175759061a006565b60405180910390fd5b600073ffffffffffffffffffffffffffffffffffffffff16826040015173ffffffffffffffffffffffffffffffffffffffff1614156175f2576040517f08c379a00000000000000000000000000000000000000000000000000000000081526004016175e99061a186565b60405180910390fd5b6040518060400160405280836040015173ffffffffffffffffffffffffffffffffffffffff1681526020018360e001518152509050919050565b61763461777d565b806000015160cf60169054906101000a900460ff16156176975761765781617a23565b617696576040517f08c379a000000000000000000000000000000000000000000000000000000000815260040161768d9061a3e6565b60405180910390fd5b5b816000015173ffffffffffffffffffffffffffffffffffffffff16639c23da503384602001516040518363ffffffff1660e01b81526004016176da92919061995d565b600060405180830381600087803b1580156176f457600080fd5b505af1158015617708573d6000803e3d6000fd5b50505050816000015173ffffffffffffffffffffffffffffffffffffffff163373ffffffffffffffffffffffffffffffffffffffff167f8750bdaf6e88201790ee2765fea3ac73b514a52658c818723a30de91029ad00084602001516040516177719190619b1b565b60405180910390a35050565b60cf60149054906101000a900460ff16156177cd576040517f08c379a00000000000000000000000000000000000000000000000000000000081526004016177c49061a2c6565b60405180910390fd5b565b8073ffffffffffffffffffffffffffffffffffffffff168273ffffffffffffffffffffffffffffffffffffffff16148061788f575060d260008273ffffffffffffffffffffffffffffffffffffffff1673ffffffffffffffffffffffffffffffffffffffff16815260200190815260200160002060008373ffffffffffffffffffffffffffffffffffffffff1673ffffffffffffffffffffffffffffffffffffffff16815260200190815260200160002060009054906101000a900460ff165b6178ce576040517f08c379a00000000000000000000000000000000000000000000000000000000081526004016178c590619be6565b60405180910390fd5b5050565b60008082840190508381101561791d576040517f08c379a000000000000000000000000000000000000000000000000000000000815260040161791490619d66565b60405180910390fd5b8091505092915050565b60008082118015617977575060d060008473ffffffffffffffffffffffffffffffffffffffff1673ffffffffffffffffffffffffffffffffffffffff168152602001908152602001600020548211155b905092915050565b60008082511180156179d25750600073ffffffffffffffffffffffffffffffffffffffff16826000815181106179b157fe5b602002602001015173ffffffffffffffffffffffffffffffffffffffff1614155b9050919050565b6000617a1b83836040518060400160405280601e81526020017f536166654d6174683a207375627472616374696f6e206f766572666c6f770000815250617ad7565b905092915050565b600060ca60009054906101000a900473ffffffffffffffffffffffffffffffffffffffff1673ffffffffffffffffffffffffffffffffffffffff1663a2ae545a836040518263ffffffff1660e01b8152600401617a809190619942565b60206040518083038186803b158015617a9857600080fd5b505afa158015617aac573d6000803e3d6000fd5b505050506040513d601f19601f82011682018060405250810190617ad09190618481565b9050919050565b6000838311158290617b1f576040517f08c379a0000000000000000000000000000000000000000000000000000000008152600401617b169190619bc4565b60405180910390fd5b5060008385039050809150509392505050565b6040518060c001604052806060815260200160608152602001606081526020016060815260200160608152602001606081525090565b6040518061010001604052806000600a811115617b8157fe5b8152602001600073ffffffffffffffffffffffffffffffffffffffff168152602001600073ffffffffffffffffffffffffffffffffffffffff168152602001600073ffffffffffffffffffffffffffffffffffffffff168152602001600081526020016000815260200160008152602001606081525090565b6040518060600160405280600073ffffffffffffffffffffffffffffffffffffffff16815260200160008152602001600081525090565b6040518060c00160405280600073ffffffffffffffffffffffffffffffffffffffff16815260200160008152602001600073ffffffffffffffffffffffffffffffffffffffff168152602001600073ffffffffffffffffffffffffffffffffffffffff16815260200160008152602001600081525090565b6040518060c00160405280600073ffffffffffffffffffffffffffffffffffffffff16815260200160008152602001600073ffffffffffffffffffffffffffffffffffffffff168152602001600073ffffffffffffffffffffffffffffffffffffffff16815260200160008152602001600081525090565b6040518060c00160405280600073ffffffffffffffffffffffffffffffffffffffff16815260200160008152602001600073ffffffffffffffffffffffffffffffffffffffff168152602001600073ffffffffffffffffffffffffffffffffffffffff16815260200160008152602001600081525090565b6040518060c00160405280600073ffffffffffffffffffffffffffffffffffffffff16815260200160008152602001600073ffffffffffffffffffffffffffffffffffffffff168152602001600073ffffffffffffffffffffffffffffffffffffffff16815260200160008152602001600081525090565b6040518060600160405280600073ffffffffffffffffffffffffffffffffffffffff168152602001600073ffffffffffffffffffffffffffffffffffffffff168152602001600081525090565b6040518060600160405280600073ffffffffffffffffffffffffffffffffffffffff16815260200160008152602001600073ffffffffffffffffffffffffffffffffffffffff1681525090565b5080546000825590600052602060002090810190617ec99190617f78565b50565b5080546000825590600052602060002090810190617eea9190617f78565b50565b6040518060a00160405280600073ffffffffffffffffffffffffffffffffffffffff168152602001600073ffffffffffffffffffffffffffffffffffffffff1681526020016000815260200160008152602001600081525090565b6040518060400160405280600073ffffffffffffffffffffffffffffffffffffffff168152602001606081525090565b617f9a91905b80821115617f96576000816000905550600101617f7e565b5090565b90565b600081359050617fac8161a8f7565b92915050565b600081519050617fc18161a8f7565b92915050565b600082601f830112617fd857600080fd5b8135617feb617fe68261a650565b61a623565b9150818183526020840193506020810190508360005b83811015618031578135860161801788826180ce565b845260208401935060208301925050600181019050618001565b5050505092915050565b60008135905061804a8161a90e565b92915050565b60008151905061805f8161a90e565b92915050565b600082601f83011261807657600080fd5b81356180896180848261a678565b61a623565b915080825260208301602083018583830111156180a557600080fd5b6180b083828461a8a4565b50505092915050565b6000813590506180c88161a925565b92915050565b600061010082840312156180e157600080fd5b6180ec61010061a623565b905060006180fc848285016180b9565b600083015250602061811084828501617f9d565b602083015250604061812484828501617f9d565b604083015250606061813884828501617f9d565b606083015250608061814c848285016181ac565b60808301525060a0618160848285016181ac565b60a08301525060c0618174848285016181ac565b60c08301525060e082013567ffffffffffffffff81111561819457600080fd5b6181a084828501618065565b60e08301525092915050565b6000813590506181bb8161a935565b92915050565b6000815190506181d08161a935565b92915050565b6000602082840312156181e857600080fd5b60006181f684828501617f9d565b91505092915050565b60006020828403121561821157600080fd5b600061821f84828501617fb2565b91505092915050565b6000806040838503121561823b57600080fd5b600061824985828601617f9d565b925050602061825a85828601617f9d565b9150509250929050565b6000806000806080858703121561827a57600080fd5b600061828887828801617f9d565b945050602061829987828801617f9d565b93505060406182aa87828801617f9d565b92505060606182bb878288016181ac565b91505092959194509250565b60008060008060008060c087890312156182e057600080fd5b60006182ee89828a01617fb2565b96505060206182ff89828a01617fb2565b955050604061831089828a01617fb2565b945050606061832189828a016181c1565b935050608061833289828a016181c1565b92505060a061834389828a01618050565b9150509295509295509295565b6000806040838503121561836357600080fd5b600061837185828601617f9d565b92505060206183828582860161803b565b9150509250929050565b6000806040838503121561839f57600080fd5b60006183ad85828601617f9d565b92505060206183be858286016181ac565b9150509250929050565b6000806000606084860312156183dd57600080fd5b60006183eb86828701617f9d565b93505060206183fc868287016181ac565b925050604061840d868287016181ac565b9150509250925092565b60006020828403121561842957600080fd5b600082013567ffffffffffffffff81111561844357600080fd5b61844f84828501617fc7565b91505092915050565b60006020828403121561846a57600080fd5b60006184788482850161803b565b91505092915050565b60006020828403121561849357600080fd5b60006184a184828501618050565b91505092915050565b6000806000606084860312156184bf57600080fd5b60006184cd86828701618050565b93505060206184de868287016181c1565b92505060406184ef868287016181c1565b9150509250925092565b60006020828403121561850b57600080fd5b6000618519848285016181c1565b91505092915050565b6000806040838503121561853557600080fd5b6000618543858286016181c1565b925050602061855485828601618050565b9150509250929050565b600061856a83836185ac565b60208301905092915050565b60006185828383619915565b60208301905092915050565b6185978161a7a8565b82525050565b6185a68161a760565b82525050565b6185b58161a74e565b82525050565b6185c48161a74e565b82525050565b6185d38161a74e565b82525050565b60006185e48261a6c4565b6185ee818561a70a565b93506185f98361a6a4565b8060005b8381101561862a578151618611888261855e565b975061861c8361a6f0565b9250506001810190506185fd565b5085935050505092915050565b60006186428261a6cf565b61864c818561a71b565b93506186578361a6b4565b8060005b8381101561868857815161866f8882618576565b975061867a8361a6fd565b92505060018101905061865b565b5085935050505092915050565b61869e8161a772565b82525050565b60006186af8261a6da565b6186b9818561a72c565b93506186c981856020860161a8b3565b6186d28161a8e6565b840191505092915050565b6186e68161a7ba565b82525050565b6186f58161a7de565b82525050565b6187048161a802565b82525050565b6187138161a826565b82525050565b6187228161a84a565b82525050565b6187318161a86e565b82525050565b60006187428261a6e5565b61874c818561a73d565b935061875c81856020860161a8b3565b6187658161a8e6565b840191505092915050565b600061877d60028361a73d565b91507f43360000000000000000000000000000000000000000000000000000000000006000830152602082019050919050565b60006187bd60038361a73d565b91507f43313400000000000000000000000000000000000000000000000000000000006000830152602082019050919050565b60006187fd60038361a73d565b91507f43323000000000000000000000000000000000000000000000000000000000006000830152602082019050919050565b600061883d60038361a73d565b91507f41313800000000000000000000000000000000000000000000000000000000006000830152602082019050919050565b600061887d60038361a73d565b91507f41313100000000000000000000000000000000000000000000000000000000006000830152602082019050919050565b60006188bd60038361a73d565b91507f41323000000000000000000000000000000000000000000000000000000000006000830152602082019050919050565b60006188fd60038361a73d565b91507f43323600000000000000000000000000000000000000000000000000000000006000830152602082019050919050565b600061893d60028361a73d565b91507f41330000000000000000000000000000000000000000000000000000000000006000830152602082019050919050565b600061897d60038361a73d565b91507f41313600000000000000000000000000000000000000000000000000000000006000830152602082019050919050565b60006189bd60268361a73d565b91507f4f776e61626c653a206e6577206f776e657220697320746865207a65726f206160008301527f64647265737300000000000000000000000000000000000000000000000000006020830152604082019050919050565b6000618a2360028361a73d565b91507f43320000000000000000000000000000000000000000000000000000000000006000830152602082019050919050565b6000618a6360038361a73d565b91507f43313600000000000000000000000000000000000000000000000000000000006000830152602082019050919050565b6000618aa3601b8361a73d565b91507f536166654d6174683a206164646974696f6e206f766572666c6f7700000000006000830152602082019050919050565b6000618ae360038361a73d565b91507f43313000000000000000000000000000000000000000000000000000000000006000830152602082019050919050565b6000618b2360038361a73d565b91507f41313900000000000000000000000000000000000000000000000000000000006000830152602082019050919050565b6000618b6360038361a73d565b91507f43313300000000000000000000000000000000000000000000000000000000006000830152602082019050919050565b6000618ba360038361a73d565b91507f43333200000000000000000000000000000000000000000000000000000000006000830152602082019050919050565b6000618be360028361a73d565b91507f41310000000000000000000000000000000000000000000000000000000000006000830152602082019050919050565b6000618c2360038361a73d565b91507f43323300000000000000000000000000000000000000000000000000000000006000830152602082019050919050565b6000618c6360038361a73d565b91507f43323500000000000000000000000000000000000000000000000000000000006000830152602082019050919050565b6000618ca360038361a73d565b91507f43313100000000000000000000000000000000000000000000000000000000006000830152602082019050919050565b6000618ce360028361a73d565b91507f41370000000000000000000000000000000000000000000000000000000000006000830152602082019050919050565b6000618d2360028361a73d565b91507f41320000000000000000000000000000000000000000000000000000000000006000830152602082019050919050565b6000618d6360038361a73d565b91507f43313800000000000000000000000000000000000000000000000000000000006000830152602082019050919050565b6000618da360038361a73d565b91507f43333100000000000000000000000000000000000000000000000000000000006000830152602082019050919050565b6000618de360038361a73d565b91507f43323100000000000000000000000000000000000000000000000000000000006000830152602082019050919050565b6000618e2360038361a73d565b91507f43333500000000000000000000000000000000000000000000000000000000006000830152602082019050919050565b6000618e6360038361a73d565b91507f41313400000000000000000000000000000000000000000000000000000000006000830152602082019050919050565b6000618ea360038361a73d565b91507f43333600000000000000000000000000000000000000000000000000000000006000830152602082019050919050565b6000618ee360028361a73d565b91507f43310000000000000000000000000000000000000000000000000000000000006000830152602082019050919050565b6000618f2360038361a73d565b91507f43333400000000000000000000000000000000000000000000000000000000006000830152602082019050919050565b6000618f6360038361a73d565b91507f43313500000000000000000000000000000000000000000000000000000000006000830152602082019050919050565b6000618fa360038361a73d565b91507f43313200000000000000000000000000000000000000000000000000000000006000830152602082019050919050565b6000618fe360038361a73d565b91507f41323200000000000000000000000000000000000000000000000000000000006000830152602082019050919050565b600061902360028361a73d565b91507f43370000000000000000000000000000000000000000000000000000000000006000830152602082019050919050565b600061906360038361a73d565b91507f43323400000000000000000000000000000000000000000000000000000000006000830152602082019050919050565b60006190a360218361a73d565b91507f536166654d6174683a206d756c7469706c69636174696f6e206f766572666c6f60008301527f77000000000000000000000000000000000000000000000000000000000000006020830152604082019050919050565b600061910960038361a73d565b91507f43333700000000000000000000000000000000000000000000000000000000006000830152602082019050919050565b600061914960208361a73d565b91507f4f776e61626c653a2063616c6c6572206973206e6f7420746865206f776e65726000830152602082019050919050565b600061918960038361a73d565b91507f41313000000000000000000000000000000000000000000000000000000000006000830152602082019050919050565b60006191c9602e8361a73d565b91507f436f6e747261637420696e7374616e63652068617320616c726561647920626560008301527f656e20696e697469616c697a65640000000000000000000000000000000000006020830152604082019050919050565b600061922f60038361a73d565b91507f43323200000000000000000000000000000000000000000000000000000000006000830152602082019050919050565b600061926f60038361a73d565b91507f41313200000000000000000000000000000000000000000000000000000000006000830152602082019050919050565b60006192af60038361a73d565b91507f43323900000000000000000000000000000000000000000000000000000000006000830152602082019050919050565b60006192ef60038361a73d565b91507f43333000000000000000000000000000000000000000000000000000000000006000830152602082019050919050565b600061932f60038361a73d565b91507f41323300000000000000000000000000000000000000000000000000000000006000830152602082019050919050565b600061936f60038361a73d565b91507f41313500000000000000000000000000000000000000000000000000000000006000830152602082019050919050565b60006193af60028361a73d565b91507f41380000000000000000000000000000000000000000000000000000000000006000830152602082019050919050565b60006193ef60028361a73d565b91507f41390000000000000000000000000000000000000000000000000000000000006000830152602082019050919050565b600061942f60038361a73d565b91507f43323800000000000000000000000000000000000000000000000000000000006000830152602082019050919050565b600061946f60028361a73d565b91507f41360000000000000000000000000000000000000000000000000000000000006000830152602082019050919050565b60006194af60038361a73d565b91507f41323100000000000000000000000000000000000000000000000000000000006000830152602082019050919050565b60006194ef60038361a73d565b91507f43313900000000000000000000000000000000000000000000000000000000006000830152602082019050919050565b600061952f60038361a73d565b91507f41313700000000000000000000000000000000000000000000000000000000006000830152602082019050919050565b600061956f60038361a73d565b91507f43333300000000000000000000000000000000000000000000000000000000006000830152602082019050919050565b60006195af60028361a73d565b91507f43340000000000000000000000000000000000000000000000000000000000006000830152602082019050919050565b60006195ef60028361a73d565b91507f43390000000000000000000000000000000000000000000000000000000000006000830152602082019050919050565b600061962f60028361a73d565b91507f41340000000000000000000000000000000000000000000000000000000000006000830152602082019050919050565b600061966f60038361a73d565b91507f41313300000000000000000000000000000000000000000000000000000000006000830152602082019050919050565b60006196af60028361a73d565b91507f41350000000000000000000000000000000000000000000000000000000000006000830152602082019050919050565b60006196ef60038361a73d565b91507f43313700000000000000000000000000000000000000000000000000000000006000830152602082019050919050565b600061972f60038361a73d565b91507f43323700000000000000000000000000000000000000000000000000000000006000830152602082019050919050565b600061976f601f8361a73d565b91507f5265656e7472616e637947756172643a207265656e7472616e742063616c6c006000830152602082019050919050565b60006197af60028361a73d565b91507f43380000000000000000000000000000000000000000000000000000000000006000830152602082019050919050565b60006197ef60028361a73d565b91507f43330000000000000000000000000000000000000000000000000000000000006000830152602082019050919050565b600061982f60028361a73d565b91507f43350000000000000000000000000000000000000000000000000000000000006000830152602082019050919050565b600060c083016000830151848203600086015261987f82826185d9565b9150506020830151848203602086015261989982826185d9565b915050604083015184820360408601526198b382826185d9565b915050606083015184820360608601526198cd8282618637565b915050608083015184820360808601526198e78282618637565b91505060a083015184820360a08601526199018282618637565b9150508091505092915050565b8082525050565b61991e8161a79e565b82525050565b61992d8161a79e565b82525050565b61993c8161a79e565b82525050565b600060208201905061995760008301846185bb565b92915050565b6000604082019050619972600083018561859d565b818103602083015261998481846186a4565b90509392505050565b60006040820190506199a2600083018561858e565b6199af6020830184619924565b9392505050565b60006060820190506199cb60008301866185bb565b6199d8602083018561858e565b6199e56040830184619924565b949350505050565b6000608082019050619a0260008301876185bb565b619a0f60208301866185bb565b619a1c60408301856185bb565b619a2960608301846185bb565b95945050505050565b6000606082019050619a4760008301866185bb565b619a5460208301856185bb565b619a616040830184619924565b949350505050565b6000604082019050619a7e60008301856185bb565b619a8b6020830184619924565b9392505050565b6000606082019050619aa760008301866185bb565b619ab46020830185619924565b619ac16040830184619924565b949350505050565b6000602082019050619ade6000830184618695565b92915050565b6000606082019050619af96000830186618695565b619b066020830185619924565b619b136040830184619924565b949350505050565b60006020820190508181036000830152619b3581846186a4565b905092915050565b6000602082019050619b5260008301846186dd565b92915050565b6000602082019050619b6d60008301846186ec565b92915050565b6000602082019050619b8860008301846186fb565b92915050565b6000602082019050619ba3600083018461870a565b92915050565b6000602082019050619bbe6000830184618719565b92915050565b60006020820190508181036000830152619bde8184618737565b905092915050565b60006020820190508181036000830152619bff81618770565b9050919050565b60006020820190508181036000830152619c1f816187b0565b9050919050565b60006020820190508181036000830152619c3f816187f0565b9050919050565b60006020820190508181036000830152619c5f81618830565b9050919050565b60006020820190508181036000830152619c7f81618870565b9050919050565b60006020820190508181036000830152619c9f816188b0565b9050919050565b60006020820190508181036000830152619cbf816188f0565b9050919050565b60006020820190508181036000830152619cdf81618930565b9050919050565b60006020820190508181036000830152619cff81618970565b9050919050565b60006020820190508181036000830152619d1f816189b0565b9050919050565b60006020820190508181036000830152619d3f81618a16565b9050919050565b60006020820190508181036000830152619d5f81618a56565b9050919050565b60006020820190508181036000830152619d7f81618a96565b9050919050565b60006020820190508181036000830152619d9f81618ad6565b9050919050565b60006020820190508181036000830152619dbf81618b16565b9050919050565b60006020820190508181036000830152619ddf81618b56565b9050919050565b60006020820190508181036000830152619dff81618b96565b9050919050565b60006020820190508181036000830152619e1f81618bd6565b9050919050565b60006020820190508181036000830152619e3f81618c16565b9050919050565b60006020820190508181036000830152619e5f81618c56565b9050919050565b60006020820190508181036000830152619e7f81618c96565b9050919050565b60006020820190508181036000830152619e9f81618cd6565b9050919050565b60006020820190508181036000830152619ebf81618d16565b9050919050565b60006020820190508181036000830152619edf81618d56565b9050919050565b60006020820190508181036000830152619eff81618d96565b9050919050565b60006020820190508181036000830152619f1f81618dd6565b9050919050565b60006020820190508181036000830152619f3f81618e16565b9050919050565b60006020820190508181036000830152619f5f81618e56565b9050919050565b60006020820190508181036000830152619f7f81618e96565b9050919050565b60006020820190508181036000830152619f9f81618ed6565b9050919050565b60006020820190508181036000830152619fbf81618f16565b9050919050565b60006020820190508181036000830152619fdf81618f56565b9050919050565b60006020820190508181036000830152619fff81618f96565b9050919050565b6000602082019050818103600083015261a01f81618fd6565b9050919050565b6000602082019050818103600083015261a03f81619016565b9050919050565b6000602082019050818103600083015261a05f81619056565b9050919050565b6000602082019050818103600083015261a07f81619096565b9050919050565b6000602082019050818103600083015261a09f816190fc565b9050919050565b6000602082019050818103600083015261a0bf8161913c565b9050919050565b6000602082019050818103600083015261a0df8161917c565b9050919050565b6000602082019050818103600083015261a0ff816191bc565b9050919050565b6000602082019050818103600083015261a11f81619222565b9050919050565b6000602082019050818103600083015261a13f81619262565b9050919050565b6000602082019050818103600083015261a15f816192a2565b9050919050565b6000602082019050818103600083015261a17f816192e2565b9050919050565b6000602082019050818103600083015261a19f81619322565b9050919050565b6000602082019050818103600083015261a1bf81619362565b9050919050565b6000602082019050818103600083015261a1df816193a2565b9050919050565b6000602082019050818103600083015261a1ff816193e2565b9050919050565b6000602082019050818103600083015261a21f81619422565b9050919050565b6000602082019050818103600083015261a23f81619462565b9050919050565b6000602082019050818103600083015261a25f816194a2565b9050919050565b6000602082019050818103600083015261a27f816194e2565b9050919050565b6000602082019050818103600083015261a29f81619522565b9050919050565b6000602082019050818103600083015261a2bf81619562565b9050919050565b6000602082019050818103600083015261a2df816195a2565b9050919050565b6000602082019050818103600083015261a2ff816195e2565b9050919050565b6000602082019050818103600083015261a31f81619622565b9050919050565b6000602082019050818103600083015261a33f81619662565b9050919050565b6000602082019050818103600083015261a35f816196a2565b9050919050565b6000602082019050818103600083015261a37f816196e2565b9050919050565b6000602082019050818103600083015261a39f81619722565b9050919050565b6000602082019050818103600083015261a3bf81619762565b9050919050565b6000602082019050818103600083015261a3df816197a2565b9050919050565b6000602082019050818103600083015261a3ff816197e2565b9050919050565b6000602082019050818103600083015261a41f81619822565b9050919050565b6000602082019050818103600083015261a4408184619862565b905092915050565b6000604082019050818103600083015261a4628185619862565b905061a4716020830184619924565b9392505050565b6000606082019050818103600083015261a4928186619862565b905061a4a16020830185619924565b61a4ae6040830184619924565b949350505050565b6000608082019050818103600083015261a4d08187619862565b905061a4df6020830186619924565b61a4ec6040830185619924565b61a4f96060830184619924565b95945050505050565b600060808201905061a517600083018761990e565b61a52460208301866185ca565b61a5316040830185619933565b61a53e6060830184618728565b95945050505050565b600060808201905061a55c600083018761990e565b61a56960208301866185ca565b61a5766040830185619933565b61a5836060830184619933565b95945050505050565b600060208201905061a5a16000830184619924565b92915050565b600060408201905061a5bc6000830185619924565b61a5c96020830184619924565b9392505050565b600060a08201905061a5e56000830188619924565b61a5f26020830187619924565b61a5ff6040830186619924565b61a60c6060830185619924565b61a6196080830184619924565b9695505050505050565b6000604051905081810181811067ffffffffffffffff8211171561a64657600080fd5b8060405250919050565b600067ffffffffffffffff82111561a66757600080fd5b602082029050602081019050919050565b600067ffffffffffffffff82111561a68f57600080fd5b601f19601f8301169050602081019050919050565b6000819050602082019050919050565b6000819050602082019050919050565b600081519050919050565b600081519050919050565b600081519050919050565b600081519050919050565b6000602082019050919050565b6000602082019050919050565b600082825260208201905092915050565b600082825260208201905092915050565b600082825260208201905092915050565b600082825260208201905092915050565b600061a7598261a77e565b9050919050565b600061a76b8261a77e565b9050919050565b60008115159050919050565b600073ffffffffffffffffffffffffffffffffffffffff82169050919050565b6000819050919050565b600061a7b38261a880565b9050919050565b600061a7c58261a7cc565b9050919050565b600061a7d78261a77e565b9050919050565b600061a7e98261a7f0565b9050919050565b600061a7fb8261a77e565b9050919050565b600061a80d8261a814565b9050919050565b600061a81f8261a77e565b9050919050565b600061a8318261a838565b9050919050565b600061a8438261a77e565b9050919050565b600061a8558261a85c565b9050919050565b600061a8678261a77e565b9050919050565b600061a8798261a79e565b9050919050565b600061a88b8261a892565b9050919050565b600061a89d8261a77e565b9050919050565b82818337600083830152505050565b60005b8381101561a8d157808201518184015260208101905061a8b6565b8381111561a8e0576000848401525b50505050565b6000601f19601f8301169050919050565b61a9008161a74e565b811461a90b57600080fd5b50565b61a9178161a772565b811461a92257600080fd5b50565b600b811061a93257600080fd5b50565b61a93e8161a79e565b811461a94957600080fd5b5056fea264697066735822122060c640f6a46f0846ac501054e9ce1168ec9d29f2640f745608214aa177c1c1d564736f6c634300060a0033",
  "linkReferences": {
    "contracts/Gamma/libs/MarginVault.sol": {
      "MarginVault": [
        {
          "length": 20,
          "start": 17848
        },
        {
          "length": 20,
          "start": 19184
        },
        {
          "length": 20,
          "start": 20618
        },
        {
          "length": 20,
          "start": 21686
        },
        {
          "length": 20,
          "start": 23108
        },
        {
          "length": 20,
          "start": 24427
        },
        {
          "length": 20,
          "start": 29121
        },
        {
          "length": 20,
          "start": 29344
        }
      ]
    }
  },
  "deployedLinkReferences": {
    "contracts/Gamma/libs/MarginVault.sol": {
      "MarginVault": [
        {
          "length": 20,
          "start": 17814
        },
        {
          "length": 20,
          "start": 19150
        },
        {
          "length": 20,
          "start": 20584
        },
        {
          "length": 20,
          "start": 21652
        },
        {
          "length": 20,
          "start": 23074
        },
        {
          "length": 20,
          "start": 24393
        },
        {
          "length": 20,
          "start": 29087
        },
        {
          "length": 20,
          "start": 29310
        }
      ]
    }
  }
}