{
  "_format": "hh-sol-artifact-1",
  "contractName": "CalculatorTester",
  "sourceName": "contracts/Gamma/tests/CalculatorTester.sol",
  "abi": [
    {
      "inputs": [
        {
          "internalType": "address",
          "name": "_addressBook",
          "type": "address"
        }
      ],
      "stateMutability": "nonpayable",
      "type": "constructor"
    },
    {
      "anonymous": false,
      "inputs": [
        {
          "indexed": true,
          "internalType": "address",
          "name": "collateral",
          "type": "address"
        },
        {
          "indexed": false,
          "internalType": "uint256",
          "name": "dust",
          "type": "uint256"
        }
      ],
      "name": "CollateralDustUpdated",
      "type": "event"
    },
    {
      "anonymous": false,
      "inputs": [
        {
          "indexed": true,
          "internalType": "bytes32",
          "name": "productHash",
          "type": "bytes32"
        },
        {
          "indexed": false,
          "internalType": "uint256",
          "name": "timeToExpiry",
          "type": "uint256"
        },
        {
          "indexed": false,
          "internalType": "uint256",
          "name": "value",
          "type": "uint256"
        }
      ],
      "name": "MaxPriceAdded",
      "type": "event"
    },
    {
      "anonymous": false,
      "inputs": [
        {
          "indexed": true,
          "internalType": "bytes32",
          "name": "productHash",
          "type": "bytes32"
        },
        {
          "indexed": false,
          "internalType": "uint256",
          "name": "timeToExpiry",
          "type": "uint256"
        },
        {
          "indexed": false,
          "internalType": "uint256",
          "name": "oldValue",
          "type": "uint256"
        },
        {
          "indexed": false,
          "internalType": "uint256",
          "name": "newValue",
          "type": "uint256"
        }
      ],
      "name": "MaxPriceUpdated",
      "type": "event"
    },
    {
      "anonymous": false,
      "inputs": [
        {
          "indexed": false,
          "internalType": "uint256",
          "name": "oracleDeviation",
          "type": "uint256"
        }
      ],
      "name": "OracleDeviationUpdated",
      "type": "event"
    },
    {
      "anonymous": false,
      "inputs": [
        {
          "indexed": true,
          "internalType": "address",
          "name": "previousOwner",
          "type": "address"
        },
        {
          "indexed": true,
          "internalType": "address",
          "name": "newOwner",
          "type": "address"
        }
      ],
      "name": "OwnershipTransferred",
      "type": "event"
    },
    {
      "anonymous": false,
      "inputs": [
        {
          "indexed": true,
          "internalType": "bytes32",
          "name": "product",
          "type": "bytes32"
        },
        {
          "indexed": false,
          "internalType": "uint256",
          "name": "spotShock",
          "type": "uint256"
        }
      ],
      "name": "SpotShockUpdated",
      "type": "event"
    },
    {
      "anonymous": false,
      "inputs": [
        {
          "indexed": true,
          "internalType": "bytes32",
          "name": "productHash",
          "type": "bytes32"
        },
        {
          "indexed": false,
          "internalType": "uint256",
          "name": "timeToExpiry",
          "type": "uint256"
        }
      ],
      "name": "TimeToExpiryAdded",
      "type": "event"
    },
    {
      "inputs": [],
      "name": "AUCTION_TIME",
      "outputs": [
        {
          "internalType": "uint256",
          "name": "",
          "type": "uint256"
        }
      ],
      "stateMutability": "view",
      "type": "function"
    },
    {
      "inputs": [
        {
          "internalType": "address",
          "name": "_underlying",
          "type": "address"
        },
        {
          "internalType": "address",
          "name": "_strike",
          "type": "address"
        },
        {
          "internalType": "address",
          "name": "_collateral",
          "type": "address"
        },
        {
          "internalType": "bool",
          "name": "_isPut",
          "type": "bool"
        },
        {
          "internalType": "uint256",
          "name": "_expiryTimestamp",
          "type": "uint256"
        }
      ],
      "name": "findUpperBoundValue",
      "outputs": [
        {
          "internalType": "uint256",
          "name": "",
          "type": "uint256"
        }
      ],
      "stateMutability": "view",
      "type": "function"
    },
    {
      "inputs": [
        {
          "internalType": "address",
          "name": "_collateral",
          "type": "address"
        }
      ],
      "name": "getCollateralDust",
      "outputs": [
        {
          "internalType": "uint256",
          "name": "",
          "type": "uint256"
        }
      ],
      "stateMutability": "view",
      "type": "function"
    },
    {
      "inputs": [
        {
          "components": [
            {
              "internalType": "address[]",
              "name": "shortOtokens",
              "type": "address[]"
            },
            {
              "internalType": "address[]",
              "name": "longOtokens",
              "type": "address[]"
            },
            {
              "internalType": "address[]",
              "name": "collateralAssets",
              "type": "address[]"
            },
            {
              "internalType": "uint256[]",
              "name": "shortAmounts",
              "type": "uint256[]"
            },
            {
              "internalType": "uint256[]",
              "name": "longAmounts",
              "type": "uint256[]"
            },
            {
              "internalType": "uint256[]",
              "name": "collateralAmounts",
              "type": "uint256[]"
            }
          ],
          "internalType": "struct MarginVault.Vault",
          "name": "_vault",
          "type": "tuple"
        },
        {
          "internalType": "uint256",
          "name": "_vaultType",
          "type": "uint256"
        }
      ],
      "name": "getExcessCollateral",
      "outputs": [
        {
          "internalType": "uint256",
          "name": "",
          "type": "uint256"
        },
        {
          "internalType": "bool",
          "name": "",
          "type": "bool"
        }
      ],
      "stateMutability": "view",
      "type": "function"
    },
    {
      "inputs": [
        {
          "internalType": "address",
          "name": "_underlying",
          "type": "address"
        },
        {
          "internalType": "address",
          "name": "_strike",
          "type": "address"
        },
        {
          "internalType": "uint256",
          "name": "_expiryTimestamp",
          "type": "uint256"
        },
        {
          "internalType": "uint256",
          "name": "_strikePrice",
          "type": "uint256"
        },
        {
          "internalType": "bool",
          "name": "_isPut",
          "type": "bool"
        }
      ],
      "name": "getExpiredCashValue",
      "outputs": [
        {
          "internalType": "uint256",
          "name": "",
          "type": "uint256"
        }
      ],
      "stateMutability": "view",
      "type": "function"
    },
    {
      "inputs": [
        {
          "internalType": "address",
          "name": "_otoken",
          "type": "address"
        }
      ],
      "name": "getExpiredPayoutRate",
      "outputs": [
        {
          "internalType": "uint256",
          "name": "",
          "type": "uint256"
        }
      ],
      "stateMutability": "view",
      "type": "function"
    },
    {
      "inputs": [
        {
          "components": [
            {
              "internalType": "address[]",
              "name": "shortOtokens",
              "type": "address[]"
            },
            {
              "internalType": "address[]",
              "name": "longOtokens",
              "type": "address[]"
            },
            {
              "internalType": "address[]",
              "name": "collateralAssets",
              "type": "address[]"
            },
            {
              "internalType": "uint256[]",
              "name": "shortAmounts",
              "type": "uint256[]"
            },
            {
              "internalType": "uint256[]",
              "name": "longAmounts",
              "type": "uint256[]"
            },
            {
              "internalType": "uint256[]",
              "name": "collateralAmounts",
              "type": "uint256[]"
            }
          ],
          "internalType": "struct MarginVault.Vault",
          "name": "_vault",
          "type": "tuple"
        },
        {
          "internalType": "uint256",
          "name": "_vaultType",
          "type": "uint256"
        }
      ],
      "name": "getMarginRequired",
      "outputs": [
        {
          "components": [
            {
              "internalType": "int256",
              "name": "value",
              "type": "int256"
            }
          ],
          "internalType": "struct FixedPointInt256.FixedPointInt",
          "name": "",
          "type": "tuple"
        },
        {
          "components": [
            {
              "internalType": "int256",
              "name": "value",
              "type": "int256"
            }
          ],
          "internalType": "struct FixedPointInt256.FixedPointInt",
          "name": "",
          "type": "tuple"
        }
      ],
      "stateMutability": "view",
      "type": "function"
    },
    {
      "inputs": [
        {
          "internalType": "address",
          "name": "_underlying",
          "type": "address"
        },
        {
          "internalType": "address",
          "name": "_strike",
          "type": "address"
        },
        {
          "internalType": "address",
          "name": "_collateral",
          "type": "address"
        },
        {
          "internalType": "bool",
          "name": "_isPut",
          "type": "bool"
        },
        {
          "internalType": "uint256",
          "name": "_timeToExpiry",
          "type": "uint256"
        }
      ],
      "name": "getMaxPrice",
      "outputs": [
        {
          "internalType": "uint256",
          "name": "",
          "type": "uint256"
        }
      ],
      "stateMutability": "view",
      "type": "function"
    },
    {
      "inputs": [
        {
          "internalType": "address",
          "name": "_underlying",
          "type": "address"
        },
        {
          "internalType": "address",
          "name": "_strike",
          "type": "address"
        },
        {
          "internalType": "address",
          "name": "_collateral",
          "type": "address"
        },
        {
          "internalType": "uint256",
          "name": "_shortAmount",
          "type": "uint256"
        },
        {
          "internalType": "uint256",
          "name": "_strikePrice",
          "type": "uint256"
        },
        {
          "internalType": "uint256",
          "name": "_underlyingPrice",
          "type": "uint256"
        },
        {
          "internalType": "uint256",
          "name": "_shortExpiryTimestamp",
          "type": "uint256"
        },
        {
          "internalType": "uint256",
          "name": "_collateralDecimals",
          "type": "uint256"
        },
        {
          "internalType": "bool",
          "name": "_isPut",
          "type": "bool"
        }
      ],
      "name": "getNakedMarginRequired",
      "outputs": [
        {
          "internalType": "uint256",
          "name": "",
          "type": "uint256"
        }
      ],
      "stateMutability": "view",
      "type": "function"
    },
    {
      "inputs": [],
      "name": "getOracleDeviation",
      "outputs": [
        {
          "internalType": "uint256",
          "name": "",
          "type": "uint256"
        }
      ],
      "stateMutability": "view",
      "type": "function"
    },
    {
      "inputs": [
        {
          "internalType": "address",
          "name": "_underlying",
          "type": "address"
        },
        {
          "internalType": "address",
          "name": "_strike",
          "type": "address"
        },
        {
          "internalType": "address",
          "name": "_collateral",
          "type": "address"
        },
        {
          "internalType": "bool",
          "name": "_isPut",
          "type": "bool"
        }
      ],
      "name": "getSpotShock",
      "outputs": [
        {
          "internalType": "uint256",
          "name": "",
          "type": "uint256"
        }
      ],
      "stateMutability": "view",
      "type": "function"
    },
    {
      "inputs": [
        {
          "internalType": "address",
          "name": "_underlying",
          "type": "address"
        },
        {
          "internalType": "address",
          "name": "_strike",
          "type": "address"
        },
        {
          "internalType": "address",
          "name": "_collateral",
          "type": "address"
        },
        {
          "internalType": "bool",
          "name": "_isPut",
          "type": "bool"
        }
      ],
      "name": "getTimesToExpiry",
      "outputs": [
        {
          "internalType": "uint256[]",
          "name": "",
          "type": "uint256[]"
        }
      ],
      "stateMutability": "view",
      "type": "function"
    },
    {
      "inputs": [
        {
          "components": [
            {
              "internalType": "address[]",
              "name": "shortOtokens",
              "type": "address[]"
            },
            {
              "internalType": "address[]",
              "name": "longOtokens",
              "type": "address[]"
            },
            {
              "internalType": "address[]",
              "name": "collateralAssets",
              "type": "address[]"
            },
            {
              "internalType": "uint256[]",
              "name": "shortAmounts",
              "type": "uint256[]"
            },
            {
              "internalType": "uint256[]",
              "name": "longAmounts",
              "type": "uint256[]"
            },
            {
              "internalType": "uint256[]",
              "name": "collateralAmounts",
              "type": "uint256[]"
            }
          ],
          "internalType": "struct MarginVault.Vault",
          "name": "_vault",
          "type": "tuple"
        },
        {
          "internalType": "uint256",
          "name": "_vaultType",
          "type": "uint256"
        },
        {
          "internalType": "uint256",
          "name": "_vaultLatestUpdate",
          "type": "uint256"
        },
        {
          "internalType": "uint256",
          "name": "_roundId",
          "type": "uint256"
        }
      ],
      "name": "isLiquidatable",
      "outputs": [
        {
          "internalType": "bool",
          "name": "",
          "type": "bool"
        },
        {
          "internalType": "uint256",
          "name": "",
          "type": "uint256"
        },
        {
          "internalType": "uint256",
          "name": "",
          "type": "uint256"
        }
      ],
      "stateMutability": "view",
      "type": "function"
    },
    {
      "inputs": [],
      "name": "oracle",
      "outputs": [
        {
          "internalType": "contract OracleInterface",
          "name": "",
          "type": "address"
        }
      ],
      "stateMutability": "view",
      "type": "function"
    },
    {
      "inputs": [],
      "name": "owner",
      "outputs": [
        {
          "internalType": "address",
          "name": "",
          "type": "address"
        }
      ],
      "stateMutability": "view",
      "type": "function"
    },
    {
      "inputs": [
        {
          "internalType": "uint256",
          "name": "_vaultCollateral",
          "type": "uint256"
        },
        {
          "internalType": "uint256",
          "name": "_vaultDebt",
          "type": "uint256"
        },
        {
          "internalType": "uint256",
          "name": "_cv",
          "type": "uint256"
        },
        {
          "internalType": "uint256",
          "name": "_spotPrice",
          "type": "uint256"
        },
        {
          "internalType": "uint256",
          "name": "_auctionStartingTime",
          "type": "uint256"
        },
        {
          "internalType": "uint256",
          "name": "_collateralDecimals",
          "type": "uint256"
        },
        {
          "internalType": "bool",
          "name": "_isPut",
          "type": "bool"
        }
      ],
      "name": "price",
      "outputs": [
        {
          "internalType": "uint256",
          "name": "",
          "type": "uint256"
        }
      ],
      "stateMutability": "view",
      "type": "function"
    },
    {
      "inputs": [],
      "name": "renounceOwnership",
      "outputs": [],
      "stateMutability": "nonpayable",
      "type": "function"
    },
    {
      "inputs": [
        {
          "internalType": "address",
          "name": "_collateral",
          "type": "address"
        },
        {
          "internalType": "uint256",
          "name": "_dust",
          "type": "uint256"
        }
      ],
      "name": "setCollateralDust",
      "outputs": [],
      "stateMutability": "nonpayable",
      "type": "function"
    },
    {
      "inputs": [
        {
          "internalType": "uint256",
          "name": "_deviation",
          "type": "uint256"
        }
      ],
      "name": "setOracleDeviation",
      "outputs": [],
      "stateMutability": "nonpayable",
      "type": "function"
    },
    {
      "inputs": [
        {
          "internalType": "address",
          "name": "_underlying",
          "type": "address"
        },
        {
          "internalType": "address",
          "name": "_strike",
          "type": "address"
        },
        {
          "internalType": "address",
          "name": "_collateral",
          "type": "address"
        },
        {
          "internalType": "bool",
          "name": "_isPut",
          "type": "bool"
        },
        {
          "internalType": "uint256",
          "name": "_shockValue",
          "type": "uint256"
        }
      ],
      "name": "setSpotShock",
      "outputs": [],
      "stateMutability": "nonpayable",
      "type": "function"
    },
    {
      "inputs": [
        {
          "internalType": "address",
          "name": "_underlying",
          "type": "address"
        },
        {
          "internalType": "address",
          "name": "_strike",
          "type": "address"
        },
        {
          "internalType": "address",
          "name": "_collateral",
          "type": "address"
        },
        {
          "internalType": "bool",
          "name": "_isPut",
          "type": "bool"
        },
        {
          "internalType": "uint256[]",
          "name": "_timesToExpiry",
          "type": "uint256[]"
        },
        {
          "internalType": "uint256[]",
          "name": "_values",
          "type": "uint256[]"
        }
      ],
      "name": "setUpperBoundValues",
      "outputs": [],
      "stateMutability": "nonpayable",
      "type": "function"
    },
    {
      "inputs": [
        {
          "internalType": "address",
          "name": "newOwner",
          "type": "address"
        }
      ],
      "name": "transferOwnership",
      "outputs": [],
      "stateMutability": "nonpayable",
      "type": "function"
    },
    {
      "inputs": [
        {
          "internalType": "address",
          "name": "_underlying",
          "type": "address"
        },
        {
          "internalType": "address",
          "name": "_strike",
          "type": "address"
        },
        {
          "internalType": "address",
          "name": "_collateral",
          "type": "address"
        },
        {
          "internalType": "bool",
          "name": "_isPut",
          "type": "bool"
        },
        {
          "internalType": "uint256",
          "name": "_timeToExpiry",
          "type": "uint256"
        },
        {
          "internalType": "uint256",
          "name": "_value",
          "type": "uint256"
        }
      ],
      "name": "updateUpperBoundValue",
      "outputs": [],
      "stateMutability": "nonpayable",
      "type": "function"
    }
  ],
  "bytecode": "0x60806040526200001d60006008620001cb60201b62001ad61760201c565b60026000820151816000015550503480156200003857600080fd5b50604051620070bc380380620070bc83398181016040528101906200005e91906200055c565b80600062000071620002de60201b60201c565b9050806000806101000a81548173ffffffffffffffffffffffffffffffffffffffff021916908373ffffffffffffffffffffffffffffffffffffffff1602179055508073ffffffffffffffffffffffffffffffffffffffff16600073ffffffffffffffffffffffffffffffffffffffff167f8be0079c531659141344cd1fd0a4f28419497f9722a3daafe3b4186f6b6457e060405160405180910390a350600073ffffffffffffffffffffffffffffffffffffffff168173ffffffffffffffffffffffffffffffffffffffff16141562000182576040517f08c379a0000000000000000000000000000000000000000000000000000000008152600401620001799062000769565b60405180910390fd5b80600760006101000a81548173ffffffffffffffffffffffffffffffffffffffff021916908373ffffffffffffffffffffffffffffffffffffffff16021790555050506200083c565b620001d562000532565b620001df62000532565b601b831415620002155760405180602001604052806200020a86620002e660201b62001ba51760201c565b8152509050620002d4565b601b831115620002875760006200023c601b856200035560201b62001c111790919060201c565b905060405180602001604052806200027b6200026a84600a0a89620003a760201b62001c5b1790919060201c565b620002e660201b62001ba51760201c565b815250915050620002d3565b600083601b0390506040518060200160405280620002cc620002bb84600a0a89620003f960201b62001ca51790919060201c565b620002e660201b62001ba51760201c565b8152509150505b5b8091505092915050565b600033905090565b60007f800000000000000000000000000000000000000000000000000000000000000082106200034d576040517f08c379a0000000000000000000000000000000000000000000000000000000008152600401620003449062000725565b60405180910390fd5b819050919050565b60006200039f83836040518060400160405280601e81526020017f536166654d6174683a207375627472616374696f6e206f766572666c6f7700008152506200046f60201b60201c565b905092915050565b6000620003f183836040518060400160405280601a81526020017f536166654d6174683a206469766973696f6e206279207a65726f000000000000815250620004cd60201b60201c565b905092915050565b6000808314156200040e576000905062000469565b60008284029050828482816200042057fe5b041462000464576040517f08c379a00000000000000000000000000000000000000000000000000000000081526004016200045b9062000747565b60405180910390fd5b809150505b92915050565b6000838311158290620004ba576040517f08c379a0000000000000000000000000000000000000000000000000000000008152600401620004b1919062000701565b60405180910390fd5b5060008385039050809150509392505050565b6000808311829062000517576040517f08c379a00000000000000000000000000000000000000000000000000000000081526004016200050e919062000701565b60405180910390fd5b5060008385816200052457fe5b049050809150509392505050565b6040518060200160405280600081525090565b600081519050620005568162000822565b92915050565b6000602082840312156200056f57600080fd5b60006200057f8482850162000545565b91505092915050565b600062000595826200078b565b620005a1818562000796565b9350620005b3818560208601620007db565b620005be8162000811565b840191505092915050565b6000620005d860228362000796565b91507f4669786564506f696e74496e743235363a206f7574206f6620696e742072616e60008301527f67650000000000000000000000000000000000000000000000000000000000006020830152604082019050919050565b60006200064060218362000796565b91507f536166654d6174683a206d756c7469706c69636174696f6e206f766572666c6f60008301527f77000000000000000000000000000000000000000000000000000000000000006020830152604082019050919050565b6000620006a860288362000796565b91507f4d617267696e43616c63756c61746f723a20696e76616c6964206f7261636c6560008301527f20616464726573730000000000000000000000000000000000000000000000006020830152604082019050919050565b600060208201905081810360008301526200071d818462000588565b905092915050565b600060208201905081810360008301526200074081620005c9565b9050919050565b60006020820190508181036000830152620007628162000631565b9050919050565b60006020820190508181036000830152620007848162000699565b9050919050565b600081519050919050565b600082825260208201905092915050565b6000620007b482620007bb565b9050919050565b600073ffffffffffffffffffffffffffffffffffffffff82169050919050565b60005b83811015620007fb578082015181840152602081019050620007de565b838111156200080b576000848401525b50505050565b6000601f19601f8301169050919050565b6200082d81620007a7565b81146200083957600080fd5b50565b616870806200084c6000396000f3fe608060405234801561001057600080fd5b506004361061014d5760003560e01c80638da5cb5b116100c3578063c73547e31161007c578063c73547e3146103d9578063cd43fbfb146103f5578063dc1b3f0014610426578063e592301a14610456578063e842063114610474578063f2fde38b146104a45761014d565b80638da5cb5b146102ef578063958c32341461030d5780639a783d111461033d578063a101bca114610359578063a6c5690714610389578063b29d5ee8146103bb5761014d565b80636ccb9506116101155780636ccb950614610243578063715018a6146102735780637ad7f8001461027d5780637dc0d1d0146102995780637f519b72146102b75780638aab8fa5146102d35761014d565b8063053fe57c146101525780630b0509fb1461018357806346345900146101b357806347840930146101e357806347d438a514610213575b600080fd5b61016c60048036038101906101679190614e0e565b6104c0565b60405161017a929190616562565b60405180910390f35b61019d60048036038101906101989190614c6c565b6104fa565b6040516101aa919061658b565b60405180910390f35b6101cd60048036038101906101c891906149bd565b610576565b6040516101da919061658b565b60405180910390f35b6101fd60048036038101906101f8919061496b565b6105a6565b60405161020a919061658b565b60405180910390f35b61022d600480360381019061022891906149bd565b610750565b60405161023a919061606c565b60405180910390f35b61025d6004803603810190610258919061496b565b6107cf565b60405161026a919061658b565b60405180910390f35b61027b610818565b005b61029760048036038101906102929190614b5a565b61096d565b005b6102a1610b32565b6040516102ae91906160c5565b60405180910390f35b6102d160048036038101906102cc9190614a20565b610b58565b005b6102ed60048036038101906102e89190614ae3565b610f7b565b005b6102f76110bc565b6040516103049190615fba565b60405180910390f35b61032760048036038101906103229190614fa7565b6110e5565b604051610334919061658b565b60405180910390f35b61035760048036038101906103529190614da9565b61115a565b005b610373600480360381019061036e9190614ae3565b6112c9565b604051610380919061658b565b60405180910390f35b6103a3600480360381019061039e9190614e62565b61131d565b6040516103b29392919061608e565b60405180910390f35b6103c3611694565b6040516103d0919061658b565b60405180910390f35b6103f360048036038101906103ee9190614edd565b61169e565b005b61040f600480360381019061040a9190614e0e565b611775565b60405161041d9291906165a6565b60405180910390f35b610440600480360381019061043b9190614ae3565b6118a4565b60405161044d919061658b565b60405180910390f35b61045e6118e6565b60405161046b919061658b565b60405180910390f35b61048e60048036038101906104899190614d32565b6118ec565b60405161049b919061658b565b60405180910390f35b6104be60048036038101906104b9919061496b565b611912565b005b6104c8614483565b6104d0614483565b6104d8614496565b6104e28585611d15565b90506104ee8582612263565b92509250509250929050565b6000806105098b8b8b86612853565b9050610513614483565b61051e896008611ad6565b9050610528614483565b610533896008611ad6565b905061053d614483565b610548896008611ad6565b905061056361055b858584868d8c61288c565b886000612a8a565b9450505050509998505050505050505050565b60008061058586868686612853565b90506006600082815260200190815260200160002054915050949350505050565b60008073ffffffffffffffffffffffffffffffffffffffff168273ffffffffffffffffffffffffffffffffffffffff161415610617576040517f08c379a000000000000000000000000000000000000000000000000000000000815260040161060e90616142565b60405180910390fd5b60008060008060008061062988612b6f565b95509550955095509550955081421015610678576040517f08c379a000000000000000000000000000000000000000000000000000000000815260040161066f90616162565b60405180910390fd5b610680614483565b61068d8686858786612f21565b9050610697614483565b6106a382878a87612f83565b905060008873ffffffffffffffffffffffffffffffffffffffff1663313ce5676040518163ffffffff1660e01b815260040160206040518083038186803b1580156106ed57600080fd5b505afa158015610701573d6000803e3d6000fd5b505050506040513d601f19601f820116820180604052508101906107259190615045565b60ff16905061074081600184612a8a9092919063ffffffff16565b9950505050505050505050919050565b6060600061076086868686612853565b9050600460008281526020019081526020016000208054806020026020016040519081016040528092919081815260200182805480156107bf57602002820191906000526020600020905b8154815260200190600101908083116107ab575b5050505050915050949350505050565b6000600360008373ffffffffffffffffffffffffffffffffffffffff1673ffffffffffffffffffffffffffffffffffffffff168152602001908152602001600020549050919050565b6108206131be565b73ffffffffffffffffffffffffffffffffffffffff166000809054906101000a900473ffffffffffffffffffffffffffffffffffffffff1673ffffffffffffffffffffffffffffffffffffffff16146108ae576040517f08c379a00000000000000000000000000000000000000000000000000000000081526004016108a5906163a2565b60405180910390fd5b600073ffffffffffffffffffffffffffffffffffffffff166000809054906101000a900473ffffffffffffffffffffffffffffffffffffffff1673ffffffffffffffffffffffffffffffffffffffff167f8be0079c531659141344cd1fd0a4f28419497f9722a3daafe3b4186f6b6457e060405160405180910390a360008060006101000a81548173ffffffffffffffffffffffffffffffffffffffff021916908373ffffffffffffffffffffffffffffffffffffffff160217905550565b6109756131be565b73ffffffffffffffffffffffffffffffffffffffff166000809054906101000a900473ffffffffffffffffffffffffffffffffffffffff1673ffffffffffffffffffffffffffffffffffffffff1614610a03576040517f08c379a00000000000000000000000000000000000000000000000000000000081526004016109fa906163a2565b60405180910390fd5b60008111610a46576040517f08c379a0000000000000000000000000000000000000000000000000000000008152600401610a3d906162e2565b60405180910390fd5b6000610a5487878787612853565b905060006005600083815260200190815260200160002060008581526020019081526020016000205490506000811415610ac3576040517f08c379a0000000000000000000000000000000000000000000000000000000008152600401610aba90616462565b60405180910390fd5b8260056000848152602001908152602001600020600086815260200190815260200160002081905550817f39bab32d3b88604bdfbf6e8c3b1aaaf9bb6013da4fd5206dee9e3b00ee6f2cf9858386604051610b20939291906165f8565b60405180910390a25050505050505050565b600760009054906101000a900473ffffffffffffffffffffffffffffffffffffffff1681565b610b606131be565b73ffffffffffffffffffffffffffffffffffffffff166000809054906101000a900473ffffffffffffffffffffffffffffffffffffffff1673ffffffffffffffffffffffffffffffffffffffff1614610bee576040517f08c379a0000000000000000000000000000000000000000000000000000000008152600401610be5906163a2565b60405180910390fd5b60008484905011610c34576040517f08c379a0000000000000000000000000000000000000000000000000000000008152600401610c2b906161a2565b60405180910390fd5b818190508484905014610c7c576040517f08c379a0000000000000000000000000000000000000000000000000000000008152600401610c7390616242565b60405180910390fd5b6000610c8a89898989612853565b90506000600460008381526020019081526020016000209050600081805490501480610cf5575080610cca60018380549050611c1190919063ffffffff16565b81548110610cd457fe5b906000526020600020015486866000818110610cec57fe5b90506020020135115b610d34576040517f08c379a0000000000000000000000000000000000000000000000000000000008152600401610d2b90616482565b60405180910390fd5b60008090505b86869050811015610f6e5786869050610d5d6001836131c690919063ffffffff16565b1015610ddd578686610d796001846131c690919063ffffffff16565b818110610d8257fe5b90506020020135878783818110610d9557fe5b9050602002013510610ddc576040517f08c379a0000000000000000000000000000000000000000000000000000000008152600401610dd390616402565b60405180910390fd5b5b6000858583818110610deb57fe5b9050602002013511610e32576040517f08c379a0000000000000000000000000000000000000000000000000000000008152600401610e2990616182565b60405180910390fd5b848482818110610e3e57fe5b90506020020135600560008581526020019081526020016000206000898985818110610e6657fe5b9050602002013581526020019081526020016000208190555081878783818110610e8c57fe5b905060200201359080600181540180825580915050600190039060005260206000200160009091909190915055827fcaae9881bd3ac6f531c9e6021f1f873b93a83648e348624eef8f9ba9757fcb62888884818110610ee757fe5b90506020020135604051610efb919061658b565b60405180910390a2827fcbb8d688de73727385afee9d53a2771ae5fe45293ff6de0ba46b201ab29df115888884818110610f3157fe5b90506020020135878785818110610f4457fe5b90506020020135604051610f599291906165cf565b60405180910390a28080600101915050610d3a565b5050505050505050505050565b610f836131be565b73ffffffffffffffffffffffffffffffffffffffff166000809054906101000a900473ffffffffffffffffffffffffffffffffffffffff1673ffffffffffffffffffffffffffffffffffffffff1614611011576040517f08c379a0000000000000000000000000000000000000000000000000000000008152600401611008906163a2565b60405180910390fd5b60008111611054576040517f08c379a000000000000000000000000000000000000000000000000000000000815260040161104b906164e2565b60405180910390fd5b600061106286868686612853565b9050816006600083815260200190815260200160002081905550807f78d22b4a9e4e0e1db30e7762696456ca380dc80efc59f416a299b97213b6d316836040516110ac919061658b565b60405180910390a2505050505050565b60008060009054906101000a900473ffffffffffffffffffffffffffffffffffffffff16905090565b60006110ef614483565b6110f98985611ad6565b9050611103614483565b61110e896008611ad6565b9050611118614483565b611123896008611ad6565b905061112d614483565b611138896008611ad6565b9050611149848484848c8c8c61321b565b945050505050979650505050505050565b6111626131be565b73ffffffffffffffffffffffffffffffffffffffff166000809054906101000a900473ffffffffffffffffffffffffffffffffffffffff1673ffffffffffffffffffffffffffffffffffffffff16146111f0576040517f08c379a00000000000000000000000000000000000000000000000000000000081526004016111e7906163a2565b60405180910390fd5b60008111611233576040517f08c379a000000000000000000000000000000000000000000000000000000000815260040161122a906161e2565b60405180910390fd5b80600360008473ffffffffffffffffffffffffffffffffffffffff1673ffffffffffffffffffffffffffffffffffffffff168152602001908152602001600020819055508173ffffffffffffffffffffffffffffffffffffffff167f8ef429e6cec4339c5f0187fb930764fb967114bf09bc8bb06a552ba32923fd86826040516112bd919061658b565b60405180910390a25050565b600080868686866040516020016112e39493929190615fd5565b60405160208183030381529060405280519060200120905061131161130882856133f1565b601b6000612a8a565b91505095945050505050565b600080600060018614611365576040517f08c379a000000000000000000000000000000000000000000000000000000000815260040161135c90616422565b60405180910390fd5b61136d614496565b6113778888611d15565b905080610220015161139a5760008060008191508090509350935093505061168a565b8060e0015142106113e0576040517f08c379a00000000000000000000000000000000000000000000000000000000081526004016113d790616362565b60405180910390fd5b600080600760009054906101000a900473ffffffffffffffffffffffffffffffffffffffff1673ffffffffffffffffffffffffffffffffffffffff16631b85462d8460000151896040518363ffffffff1660e01b8152600401611444929190616043565b604080518083038186803b15801561145b57600080fd5b505afa15801561146f573d6000803e3d6000fd5b505050506040513d601f19601f820116820180604052508101906114939190614f6b565b915091508781116114d9576040517f08c379a00000000000000000000000000000000000000000000000000000000081526004016114d090616122565b60405180910390fd5b6114e16145b6565b604051806060016040528061150f8d6060015160008151811061150057fe5b60200260200101516008611ad6565b81526020016115238660c001516008611ad6565b8152602001611533856008611ad6565b81525090506000611557856000015186602001518760400151886101c00151612853565b9050611561614483565b6115888d60a0015160008151811061157557fe5b6020026020010151876101800151611ad6565b9050611592614483565b6115b5838560000151866040015187602001518b60e001518c6101c0015161288c565b90506115ca82826135ba90919063ffffffff16565b156115ec5760008060008191508090509950995099505050505050505061168a565b6115f4614483565b61160c856020015186604001518a6101c001516135d0565b905060006116318487600001518489604001518b8e61018001518f6101c0015161321b565b9050600181600360008c6040015173ffffffffffffffffffffffffffffffffffffffff1673ffffffffffffffffffffffffffffffffffffffff168152602001908152602001600020549b509b509b505050505050505050505b9450945094915050565b6000600154905090565b6116a66131be565b73ffffffffffffffffffffffffffffffffffffffff166000809054906101000a900473ffffffffffffffffffffffffffffffffffffffff1673ffffffffffffffffffffffffffffffffffffffff1614611734576040517f08c379a000000000000000000000000000000000000000000000000000000000815260040161172b906163a2565b60405180910390fd5b806001819055507fe44c6dd1fc3826ad24b81f17cf04849cedd368e002a52e89a845d14d3474e20a8160405161176a919061658b565b60405180910390a150565b600080611780614496565b61178a8585611d15565b9050611796858261367d565b8061022001511580156117ac5750806102000151155b156117ee5760008161024001516117c45760006117de565b8560a001516000815181106117d557fe5b60200260200101515b905080600193509350505061189d565b6117f6614483565b6117fe614483565b6118088784612263565b91509150611814614483565b61182782846138d290919063ffffffff16565b9050600061185460026040518060200160405290816000820154815250508361390b90919063ffffffff16565b9050600085610200015161186d57856101000151611874565b8561016001515b9050600061188d828486612a8a9092919063ffffffff16565b9050808398509850505050505050505b9250929050565b6000806118b387878787612853565b90506005600082815260200190815260200160002060008481526020019081526020016000205491505095945050505050565b610e1081565b60006119076118fe8787878787612f21565b60086001612a8a565b905095945050505050565b61191a6131be565b73ffffffffffffffffffffffffffffffffffffffff166000809054906101000a900473ffffffffffffffffffffffffffffffffffffffff1673ffffffffffffffffffffffffffffffffffffffff16146119a8576040517f08c379a000000000000000000000000000000000000000000000000000000000815260040161199f906163a2565b60405180910390fd5b600073ffffffffffffffffffffffffffffffffffffffff168173ffffffffffffffffffffffffffffffffffffffff161415611a18576040517f08c379a0000000000000000000000000000000000000000000000000000000008152600401611a0f906161c2565b60405180910390fd5b8073ffffffffffffffffffffffffffffffffffffffff166000809054906101000a900473ffffffffffffffffffffffffffffffffffffffff1673ffffffffffffffffffffffffffffffffffffffff167f8be0079c531659141344cd1fd0a4f28419497f9722a3daafe3b4186f6b6457e060405160405180910390a3806000806101000a81548173ffffffffffffffffffffffffffffffffffffffff021916908373ffffffffffffffffffffffffffffffffffffffff16021790555050565b611ade614483565b611ae6614483565b601b831415611b0d576040518060200160405280611b0386611ba5565b8152509050611b9b565b601b831115611b62576000611b2c601b85611c1190919063ffffffff16565b90506040518060200160405280611b57611b5284600a0a89611c5b90919063ffffffff16565b611ba5565b815250915050611b9a565b600083601b0390506040518060200160405280611b93611b8e84600a0a89611ca590919063ffffffff16565b611ba5565b8152509150505b5b8091505092915050565b60007f80000000000000000000000000000000000000000000000000000000000000008210611c09576040517f08c379a0000000000000000000000000000000000000000000000000000000008152600401611c0090616202565b60405180910390fd5b819050919050565b6000611c5383836040518060400160405280601e81526020017f536166654d6174683a207375627472616374696f6e206f766572666c6f770000815250613921565b905092915050565b6000611c9d83836040518060400160405280601a81526020017f536166654d6174683a206469766973696f6e206279207a65726f00000000000081525061397c565b905092915050565b600080831415611cb85760009050611d0f565b6000828402905082848281611cc957fe5b0414611d0a576040517f08c379a0000000000000000000000000000000000000000000000000000000008152600401611d0190616382565b60405180910390fd5b809150505b92915050565b611d1d614496565b611d25614496565b604051806102600160405280600073ffffffffffffffffffffffffffffffffffffffff168152602001600073ffffffffffffffffffffffffffffffffffffffff168152602001600073ffffffffffffffffffffffffffffffffffffffff168152602001600073ffffffffffffffffffffffffffffffffffffffff168152602001600073ffffffffffffffffffffffffffffffffffffffff168152602001600073ffffffffffffffffffffffffffffffffffffffff1681526020016000815260200160008152602001600081526020016000815260200160008152602001600081526020016000815260200160008152602001600015158152602001600015158152602001600015158152602001600015158152602001600015158152509050611e5184602001516139dd565b81610200019015159081151581525050611e6e84600001516139dd565b81610220019015159081151581525050611e8b84604001516139dd565b8161024001901515908115158152505082816101a0018181525050806102000151156120295760008460200151600081518110611ec457fe5b60200260200101519050611ed781612b6f565b8760a00188606001896080018a610120018b610140018c6101e001861515151581525086815250868152508673ffffffffffffffffffffffffffffffffffffffff1673ffffffffffffffffffffffffffffffffffffffff168152508673ffffffffffffffffffffffffffffffffffffffff1673ffffffffffffffffffffffffffffffffffffffff168152508673ffffffffffffffffffffffffffffffffffffffff1673ffffffffffffffffffffffffffffffffffffffff168152505050505050508160a0015173ffffffffffffffffffffffffffffffffffffffff1663313ce5676040518163ffffffff1660e01b815260040160206040518083038186803b158015611fe257600080fd5b505afa158015611ff6573d6000803e3d6000fd5b505050506040513d601f19601f8201168201806040525081019061201a9190615045565b60ff1682610160018181525050505b806102200151156121aa576000846000015160008151811061204757fe5b6020026020010151905061205a81612b6f565b8760400188600001896020018a60c0018b60e0018c6101c001861515151581525086815250868152508673ffffffffffffffffffffffffffffffffffffffff1673ffffffffffffffffffffffffffffffffffffffff168152508673ffffffffffffffffffffffffffffffffffffffff1673ffffffffffffffffffffffffffffffffffffffff168152508673ffffffffffffffffffffffffffffffffffffffff1673ffffffffffffffffffffffffffffffffffffffff16815250505050505050816040015173ffffffffffffffffffffffffffffffffffffffff1663313ce5676040518163ffffffff1660e01b815260040160206040518083038186803b15801561216357600080fd5b505afa158015612177573d6000803e3d6000fd5b505050506040513d601f19601f8201168201806040525081019061219b9190615045565b60ff1682610100018181525050505b806102400151156122595783604001516000815181106121c657fe5b602002602001015173ffffffffffffffffffffffffffffffffffffffff1663313ce5676040518163ffffffff1660e01b815260040160206040518083038186803b15801561221357600080fd5b505afa158015612227573d6000803e3d6000fd5b505050506040513d601f19601f8201168201806040525081019061224b9190615045565b60ff16816101800181815250505b8091505092915050565b61226b614483565b612273614483565b61227b614483565b8361022001516122a15760026040518060200160405290816000820154815250506122c5565b6122c485606001516000815181106122b557fe5b60200260200101516008611ad6565b5b90506122cf614483565b8461020001516122f5576002604051806020016040529081600082015481525050612319565b612318866080015160008151811061230957fe5b60200260200101516008611ad6565b5b9050612323614483565b856102400151612349576002604051806020016040529081600082015481525050612371565b6123708760a0015160008151811061235d57fe5b6020026020010151876101800151611ad6565b5b905061237b614483565b8661022001516123a15760026040518060200160405290816000820154815250506123b1565b6123b08760c001516008611ad6565b5b90506123bb6145e9565b6040518060a001604052808961022001516123da5789606001516123e0565b89600001515b73ffffffffffffffffffffffffffffffffffffffff16815260200189610220015161240f578960a00151612415565b89604001515b73ffffffffffffffffffffffffffffffffffffffff16815260200189610220015161244457896080015161244a565b89602001515b73ffffffffffffffffffffffffffffffffffffffff16815260200189610220015161247a57896101400151612480565b8960e001515b815260200189610220015161249a57896101e001516124a1565b896101c001515b15158152509050806060015142101561276a576001886101a0015114156126ab576124ca614483565b61251c600360008b6040015173ffffffffffffffffffffffffffffffffffffffff1673ffffffffffffffffffffffffffffffffffffffff168152602001908152602001600020548a6101800151611ad6565b9050612547600260405180602001604052908160008201548152505085613a3790919063ffffffff16565b1561259f5761255f8185613a3790919063ffffffff16565b61259e576040517f08c379a0000000000000000000000000000000000000000000000000000000008152600401612595906162c2565b60405180910390fd5b5b6125a7614483565b612660600760009054906101000a900473ffffffffffffffffffffffffffffffffffffffff1673ffffffffffffffffffffffffffffffffffffffff166341976e098c600001516040518263ffffffff1660e01b81526004016126099190615fba565b60206040518083038186803b15801561262157600080fd5b505afa158015612635573d6000803e3d6000fd5b505050506040513d601f19601f820116820180604052508101906126599190614f06565b6008611ad6565b905060006126818b600001518c602001518d604001518e6101c00151612853565b90508561269a828a858989606001518a6080015161288c565b99509950505050505050505061284c565b6126b3614483565b8861020001516126d95760026040518060200160405290816000820154815250506126ea565b6126e98961012001516008611ad6565b5b9050816080015115612730576126fe614483565b61270a87878685613a4c565b9050846127208285604001518660200151613abd565b985098505050505050505061284c565b612738614483565b61274487878685613ca4565b90508461275a8285600001518660200151613abd565b985098505050505050505061284c565b612772614483565b8861022001516127985760026040518060200160405290816000820154815250506127ba565b6127b989600001518a602001518b60e001518c60c001518660800151612f21565b5b90506127c4614483565b8961020001516127ea57600260405180602001604052908160008201548152505061280e565b61280d8a606001518b608001518c61014001518d61012001518760800151612f21565b5b9050612818614483565b61282488888585613da7565b90508561283f82866040015187602001518860600151612f83565b9950995050505050505050505b9250929050565b60008484848460405160200161286c9493929190615fd5565b604051602081830303815290604052805190602001209050949350505050565b612894614483565b61289c614483565b6128a688856133f1565b90506128b0614483565b6040518060200160405280600660008c81526020019081526020016000205481525090506128dc614483565b6128e4614483565b6128ec614483565b86156129945761290e896129098c87613df090919063ffffffff16565b613e3e565b92506129546129386129298c87613df090919063ffffffff16565b8b6138d290919063ffffffff16565b6002604051806020016040529081600082015481525050613e65565b915061298d8b61297f84612971878a613df090919063ffffffff16565b613e8c90919063ffffffff16565b613df090919063ffffffff16565b9050612a78565b61299c614483565b6129b36b033b2e3c9fd0803ce8000000601b611ad6565b90506129e3816129de8d6129d0898f613df090919063ffffffff16565b613ec590919063ffffffff16565b613e3e565b9350612a3b612a1f612a108d612a02898f613df090919063ffffffff16565b613ec590919063ffffffff16565b836138d290919063ffffffff16565b6002604051806020016040529081600082015481525050613e65565b9250612a748c612a6685612a58888b613df090919063ffffffff16565b613e8c90919063ffffffff16565b613df090919063ffffffff16565b9150505b80955050505050509695505050505050565b600080601b841415612aaa57612aa38560000151613f13565b9050612b64565b601b841115612ae5576000601b85039050612add81600a0a612acf8860000151613f13565b611ca590919063ffffffff16565b915050612b63565b600084601b039050600084612b2a576000612b1883600a0a612b0a8a60000151613f13565b613f3190919063ffffffff16565b90506000811115612b2857600191505b505b612b5e81612b5084600a0a612b428b60000151613f13565b611c5b90919063ffffffff16565b6131c690919063ffffffff16565b925050505b5b809150509392505050565b60008060008060008060008790508073ffffffffffffffffffffffffffffffffffffffff1663af0968fc6040518163ffffffff1660e01b815260040160c06040518083038186803b158015612bc357600080fd5b505afa925050508015612bf457506040513d601f19601f82011682018060405250810190612bf19190614be3565b60015b612efe578073ffffffffffffffffffffffffffffffffffffffff1663aabaecd66040518163ffffffff1660e01b815260040160206040518083038186803b158015612c3e57600080fd5b505afa158015612c52573d6000803e3d6000fd5b505050506040513d601f19601f82011682018060405250810190612c769190614994565b8173ffffffffffffffffffffffffffffffffffffffff16637158da7c6040518163ffffffff1660e01b815260040160206040518083038186803b158015612cbc57600080fd5b505afa158015612cd0573d6000803e3d6000fd5b505050506040513d601f19601f82011682018060405250810190612cf49190614994565b8273ffffffffffffffffffffffffffffffffffffffff166317d69bc86040518163ffffffff1660e01b815260040160206040518083038186803b158015612d3a57600080fd5b505afa158015612d4e573d6000803e3d6000fd5b505050506040513d601f19601f82011682018060405250810190612d729190614994565b8373ffffffffffffffffffffffffffffffffffffffff1663c52987cf6040518163ffffffff1660e01b815260040160206040518083038186803b158015612db857600080fd5b505afa158015612dcc573d6000803e3d6000fd5b505050506040513d601f19601f82011682018060405250810190612df09190614f06565b8473ffffffffffffffffffffffffffffffffffffffff1663ade6e2aa6040518163ffffffff1660e01b815260040160206040518083038186803b158015612e3657600080fd5b505afa158015612e4a573d6000803e3d6000fd5b505050506040513d601f19601f82011682018060405250810190612e6e9190614f06565b8573ffffffffffffffffffffffffffffffffffffffff1663f3c274a66040518163ffffffff1660e01b815260040160206040518083038186803b158015612eb457600080fd5b505afa158015612ec8573d6000803e3d6000fd5b505050506040513d601f19601f82011682018060405250810190612eec9190614de5565b96509650965096509650965050612f18565b8585858585859c509c509c509c509c509c50505050505050505b91939550919395565b612f29614483565b612f31614483565b612f3c846008611ad6565b9050612f46614483565b612f5260016000611ad6565b9050612f5c614483565b612f68828a8a8a612f83565b9050612f758382876135d0565b935050505095945050505050565b612f8b614483565b8273ffffffffffffffffffffffffffffffffffffffff168473ffffffffffffffffffffffffffffffffffffffff161415612fc7578490506131b6565b600080600760009054906101000a900473ffffffffffffffffffffffffffffffffffffffff1673ffffffffffffffffffffffffffffffffffffffff166301957f8187866040518363ffffffff1660e01b815260040161302792919061601a565b604080518083038186803b15801561303e57600080fd5b505afa158015613052573d6000803e3d6000fd5b505050506040513d601f19601f820116820180604052508101906130769190614f2f565b91509150600080600760009054906101000a900473ffffffffffffffffffffffffffffffffffffffff1673ffffffffffffffffffffffffffffffffffffffff166301957f8188886040518363ffffffff1660e01b81526004016130da92919061601a565b604080518083038186803b1580156130f157600080fd5b505afa158015613105573d6000803e3d6000fd5b505050506040513d601f19601f820116820180604052508101906131299190614f2f565b915091508280156131375750805b613176576040517f08c379a000000000000000000000000000000000000000000000000000000000815260040161316d90616322565b60405180910390fd5b6131af613184836008611ad6565b6131a1613192876008611ad6565b8c613df090919063ffffffff16565b613ec590919063ffffffff16565b9450505050505b949350505050565b600033905090565b600080828401905083811015613211576040517f08c379a000000000000000000000000000000000000000000000000000000000815260040161320890616222565b60405180910390fd5b8091505092915050565b6000613225614483565b61322d614483565b613240898b613ec590919063ffffffff16565b905060006132578742611c1190919063ffffffff16565b9050610e10811061326a578192506133cb565b613272614483565b61327a614483565b613287600154601b611ad6565b905086156132da576132d36132b76132a88c84613df090919063ffffffff16565b8d6138d290919063ffffffff16565b6002604051806020016040529081600082015481525050613e65565b9150613333565b6133308a6133226133066132f78e86613df090919063ffffffff16565b8f6138d290919063ffffffff16565b6002604051806020016040529081600082015481525050613e65565b613ec590919063ffffffff16565b91505b5061333c614483565b613347836012611ad6565b9050613351614483565b61335e610e106012611ad6565b90506133a961339a8261338c8561337e888b6138d290919063ffffffff16565b613df090919063ffffffff16565b613ec590919063ffffffff16565b84613e8c90919063ffffffff16565b95506133be8587613a3790919063ffffffff16565b156133c7578495505b5050505b6133e186600185612a8a9092919063ffffffff16565b9350505050979650505050505050565b6133f9614483565b60606004600085815260200190815260200160002080548060200260200160405190810160405280929190818152602001828054801561345857602002820191906000526020600020905b815481526020019060010190808311613444575b505050505090506000815114156134a4576040517f08c379a000000000000000000000000000000000000000000000000000000000815260040161349b90616102565b60405180910390fd5b60006134b94285611c1190919063ffffffff16565b905080826134d260018551611c1190919063ffffffff16565b815181106134dc57fe5b60200260200101511015613525576040517f08c379a000000000000000000000000000000000000000000000000000000000815260040161351c90616542565b60405180910390fd5b60008090505b82518160ff1610156135b05781838260ff168151811061354757fe5b6020026020010151106135a357613599600560008881526020019081526020016000206000858460ff168151811061357b57fe5b6020026020010151815260200190815260200160002054601b611ad6565b93505050506135b4565b808060010191505061352b565b5050505b92915050565b6000816000015183600001511315905092915050565b6135d8614483565b811561362c576135f18385613a3790919063ffffffff16565b613611576002604051806020016040529081600082015481525050613625565b61362483856138d290919063ffffffff16565b5b9050613676565b61363f8484613a3790919063ffffffff16565b61365f576002604051806020016040529081600082015481525050613673565b61367284846138d290919063ffffffff16565b5b90505b9392505050565b600182600001515111156136c6576040517f08c379a00000000000000000000000000000000000000000000000000000000081526004016136bd906164a2565b60405180910390fd5b6001826020015151111561370f576040517f08c379a000000000000000000000000000000000000000000000000000000000815260040161370690616262565b60405180910390fd5b60018260400151511115613758576040517f08c379a000000000000000000000000000000000000000000000000000000000815260040161374f90616442565b60405180910390fd5b816060015151826000015151146137a4576040517f08c379a000000000000000000000000000000000000000000000000000000000815260040161379b906162a2565b60405180910390fd5b816080015151826020015151146137f0576040517f08c379a00000000000000000000000000000000000000000000000000000000081526004016137e790616502565b60405180910390fd5b8160a00151518260400151511461383c576040517f08c379a000000000000000000000000000000000000000000000000000000000815260040161383390616522565b60405180910390fd5b6138468282613f7b565b613885576040517f08c379a000000000000000000000000000000000000000000000000000000000815260040161387c90616342565b60405180910390fd5b61388f8282614148565b6138ce576040517f08c379a00000000000000000000000000000000000000000000000000000000081526004016138c5906163e2565b60405180910390fd5b5050565b6138da614483565b60405180602001604052806139008460000151866000015161422490919063ffffffff16565b815250905092915050565b6000816000015183600001511215905092915050565b6000838311158290613969576040517f08c379a000000000000000000000000000000000000000000000000000000000815260040161396091906160e0565b60405180910390fd5b5060008385039050809150509392505050565b600080831182906139c3576040517f08c379a00000000000000000000000000000000000000000000000000000000081526004016139ba91906160e0565b60405180910390fd5b5060008385816139cf57fe5b049050809150509392505050565b6000808251118015613a305750600073ffffffffffffffffffffffffffffffffffffffff1682600081518110613a0f57fe5b602002602001015173ffffffffffffffffffffffffffffffffffffffff1614155b9050919050565b60008160000151836000015113905092915050565b613a54614483565b613ab3613a97613a76613a678888613e3e565b85613df090919063ffffffff16565b613a898689613df090919063ffffffff16565b6138d290919063ffffffff16565b6002604051806020016040529081600082015481525050613e65565b9050949350505050565b613ac5614483565b8173ffffffffffffffffffffffffffffffffffffffff168373ffffffffffffffffffffffffffffffffffffffff161415613b0157839050613c9d565b6000600760009054906101000a900473ffffffffffffffffffffffffffffffffffffffff1673ffffffffffffffffffffffffffffffffffffffff166341976e09856040518263ffffffff1660e01b8152600401613b5e9190615fba565b60206040518083038186803b158015613b7657600080fd5b505afa158015613b8a573d6000803e3d6000fd5b505050506040513d601f19601f82011682018060405250810190613bae9190614f06565b90506000600760009054906101000a900473ffffffffffffffffffffffffffffffffffffffff1673ffffffffffffffffffffffffffffffffffffffff166341976e09856040518263ffffffff1660e01b8152600401613c0d9190615fba565b60206040518083038186803b158015613c2557600080fd5b505afa158015613c39573d6000803e3d6000fd5b505050506040513d601f19601f82011682018060405250810190613c5d9190614f06565b9050613c98613c6d826008611ad6565b613c8a613c7b856008611ad6565b89613df090919063ffffffff16565b613ec590919063ffffffff16565b925050505b9392505050565b613cac614483565b613cd560026040518060200160405290816000820154815250508361429c90919063ffffffff16565b15613d1357613d0c613cf085876138d290919063ffffffff16565b6002604051806020016040529081600082015481525050613e65565b9050613d9f565b613d1b614483565b613d5283613d4488613d3688886138d290919063ffffffff16565b613df090919063ffffffff16565b613ec590919063ffffffff16565b9050613d5c614483565b613d8e613d7287896138d290919063ffffffff16565b6002604051806020016040529081600082015481525050613e65565b9050613d9a8282613e65565b925050505b949350505050565b613daf614483565b613de6613dc58584613df090919063ffffffff16565b613dd88786613df090919063ffffffff16565b6138d290919063ffffffff16565b9050949350505050565b613df8614483565b60405180602001604052806b033b2e3c9fd0803ce8000000613e2b856000015187600001516142b190919063ffffffff16565b81613e3257fe5b05815250905092915050565b613e46614483565b8160000151836000015112613e5b5781613e5d565b825b905092915050565b613e6d614483565b8160000151836000015113613e825781613e84565b825b905092915050565b613e94614483565b6040518060200160405280613eba846000015186600001516143af90919063ffffffff16565b815250905092915050565b613ecd614483565b60405180602001604052808360000151613f006b033b2e3c9fd0803ce800000087600001516142b190919063ffffffff16565b81613f0757fe5b05815250905092915050565b600080821215613f2857816000039050613f2c565b8190505b919050565b6000613f7383836040518060400160405280601881526020017f536166654d6174683a206d6f64756c6f206279207a65726f0000000000000000815250614427565b905092915050565b60006001826101a001511415613fd25781610200015115613fd1576040517f08c379a0000000000000000000000000000000000000000000000000000000008152600401613fc890616302565b60405180910390fd5b5b8161020001511580613fe75750816102200151155b15613ff55760019050614142565b826000015160008151811061400657fe5b602002602001015173ffffffffffffffffffffffffffffffffffffffff16836020015160008151811061403557fe5b602002602001015173ffffffffffffffffffffffffffffffffffffffff16141580156140945750816000015173ffffffffffffffffffffffffffffffffffffffff16826060015173ffffffffffffffffffffffffffffffffffffffff16145b80156140d35750816020015173ffffffffffffffffffffffffffffffffffffffff16826080015173ffffffffffffffffffffffffffffffffffffffff16145b80156141125750816040015173ffffffffffffffffffffffffffffffffffffffff168260a0015173ffffffffffffffffffffffffffffffffffffffff16145b801561412657508160e00151826101400151145b801561413f5750816101c001511515826101e001511515145b90505b92915050565b60008060019050826102400151614162578091505061421e565b826102200151156141bf57836040015160008151811061417e57fe5b602002602001015173ffffffffffffffffffffffffffffffffffffffff16836040015173ffffffffffffffffffffffffffffffffffffffff16149050614219565b826102000151156142185783604001516000815181106141db57fe5b602002602001015173ffffffffffffffffffffffffffffffffffffffff168360a0015173ffffffffffffffffffffffffffffffffffffffff161490505b5b809150505b92915050565b60008082840390506000831215801561423d5750838113155b80614253575060008312801561425257508381135b5b614292576040517f08c379a0000000000000000000000000000000000000000000000000000000008152600401614289906164c2565b60405180910390fd5b8091505092915050565b60008160000151836000015114905092915050565b6000808314156142c457600090506143a9565b7fffffffffffffffffffffffffffffffffffffffffffffffffffffffffffffffff8314801561431257507f800000000000000000000000000000000000000000000000000000000000000082145b15614352576040517f08c379a0000000000000000000000000000000000000000000000000000000008152600401614349906163c2565b60405180910390fd5b600082840290508284828161436357fe5b05146143a4576040517f08c379a000000000000000000000000000000000000000000000000000000000815260040161439b906163c2565b60405180910390fd5b809150505b92915050565b6000808284019050600083121580156143c85750838112155b806143de57506000831280156143dd57508381125b5b61441d576040517f08c379a000000000000000000000000000000000000000000000000000000000815260040161441490616282565b60405180910390fd5b8091505092915050565b600080831415829061446f576040517f08c379a000000000000000000000000000000000000000000000000000000000815260040161446691906160e0565b60405180910390fd5b5082848161447957fe5b0690509392505050565b6040518060200160405280600081525090565b604051806102600160405280600073ffffffffffffffffffffffffffffffffffffffff168152602001600073ffffffffffffffffffffffffffffffffffffffff168152602001600073ffffffffffffffffffffffffffffffffffffffff168152602001600073ffffffffffffffffffffffffffffffffffffffff168152602001600073ffffffffffffffffffffffffffffffffffffffff168152602001600073ffffffffffffffffffffffffffffffffffffffff16815260200160008152602001600081526020016000815260200160008152602001600081526020016000815260200160008152602001600081526020016000151581526020016000151581526020016000151581526020016000151581526020016000151581525090565b60405180606001604052806145c9614483565b81526020016145d6614483565b81526020016145e3614483565b81525090565b6040518060a00160405280600073ffffffffffffffffffffffffffffffffffffffff168152602001600073ffffffffffffffffffffffffffffffffffffffff168152602001600073ffffffffffffffffffffffffffffffffffffffff168152602001600081526020016000151581525090565b60008135905061466b816167de565b92915050565b600081519050614680816167de565b92915050565b600082601f83011261469757600080fd5b81356146aa6146a58261665c565b61662f565b915081818352602084019350602081019050838560208402820111156146cf57600080fd5b60005b838110156146ff57816146e5888261465c565b8452602084019350602083019250506001810190506146d2565b5050505092915050565b60008083601f84011261471b57600080fd5b8235905067ffffffffffffffff81111561473457600080fd5b60208301915083602082028301111561474c57600080fd5b9250929050565b600082601f83011261476457600080fd5b813561477761477282616684565b61662f565b9150818183526020840193506020810190508385602084028201111561479c57600080fd5b60005b838110156147cc57816147b2888261492c565b84526020840193506020830192505060018101905061479f565b5050505092915050565b6000813590506147e5816167f5565b92915050565b6000815190506147fa816167f5565b92915050565b600060c0828403121561481257600080fd5b61481c60c061662f565b9050600082013567ffffffffffffffff81111561483857600080fd5b61484484828501614686565b600083015250602082013567ffffffffffffffff81111561486457600080fd5b61487084828501614686565b602083015250604082013567ffffffffffffffff81111561489057600080fd5b61489c84828501614686565b604083015250606082013567ffffffffffffffff8111156148bc57600080fd5b6148c884828501614753565b606083015250608082013567ffffffffffffffff8111156148e857600080fd5b6148f484828501614753565b60808301525060a082013567ffffffffffffffff81111561491457600080fd5b61492084828501614753565b60a08301525092915050565b60008135905061493b8161680c565b92915050565b6000815190506149508161680c565b92915050565b60008151905061496581616823565b92915050565b60006020828403121561497d57600080fd5b600061498b8482850161465c565b91505092915050565b6000602082840312156149a657600080fd5b60006149b484828501614671565b91505092915050565b600080600080608085870312156149d357600080fd5b60006149e18782880161465c565b94505060206149f28782880161465c565b9350506040614a038782880161465c565b9250506060614a14878288016147d6565b91505092959194509250565b60008060008060008060008060c0898b031215614a3c57600080fd5b6000614a4a8b828c0161465c565b9850506020614a5b8b828c0161465c565b9750506040614a6c8b828c0161465c565b9650506060614a7d8b828c016147d6565b955050608089013567ffffffffffffffff811115614a9a57600080fd5b614aa68b828c01614709565b945094505060a089013567ffffffffffffffff811115614ac557600080fd5b614ad18b828c01614709565b92509250509295985092959890939650565b600080600080600060a08688031215614afb57600080fd5b6000614b098882890161465c565b9550506020614b1a8882890161465c565b9450506040614b2b8882890161465c565b9350506060614b3c888289016147d6565b9250506080614b4d8882890161492c565b9150509295509295909350565b60008060008060008060c08789031215614b7357600080fd5b6000614b8189828a0161465c565b9650506020614b9289828a0161465c565b9550506040614ba389828a0161465c565b9450506060614bb489828a016147d6565b9350506080614bc589828a0161492c565b92505060a0614bd689828a0161492c565b9150509295509295509295565b60008060008060008060c08789031215614bfc57600080fd5b6000614c0a89828a01614671565b9650506020614c1b89828a01614671565b9550506040614c2c89828a01614671565b9450506060614c3d89828a01614941565b9350506080614c4e89828a01614941565b92505060a0614c5f89828a016147eb565b9150509295509295509295565b60008060008060008060008060006101208a8c031215614c8b57600080fd5b6000614c998c828d0161465c565b9950506020614caa8c828d0161465c565b9850506040614cbb8c828d0161465c565b9750506060614ccc8c828d0161492c565b9650506080614cdd8c828d0161492c565b95505060a0614cee8c828d0161492c565b94505060c0614cff8c828d0161492c565b93505060e0614d108c828d0161492c565b925050610100614d228c828d016147d6565b9150509295985092959850929598565b600080600080600060a08688031215614d4a57600080fd5b6000614d588882890161465c565b9550506020614d698882890161465c565b9450506040614d7a8882890161492c565b9350506060614d8b8882890161492c565b9250506080614d9c888289016147d6565b9150509295509295909350565b60008060408385031215614dbc57600080fd5b6000614dca8582860161465c565b9250506020614ddb8582860161492c565b9150509250929050565b600060208284031215614df757600080fd5b6000614e05848285016147eb565b91505092915050565b60008060408385031215614e2157600080fd5b600083013567ffffffffffffffff811115614e3b57600080fd5b614e4785828601614800565b9250506020614e588582860161492c565b9150509250929050565b60008060008060808587031215614e7857600080fd5b600085013567ffffffffffffffff811115614e9257600080fd5b614e9e87828801614800565b9450506020614eaf8782880161492c565b9350506040614ec08782880161492c565b9250506060614ed18782880161492c565b91505092959194509250565b600060208284031215614eef57600080fd5b6000614efd8482850161492c565b91505092915050565b600060208284031215614f1857600080fd5b6000614f2684828501614941565b91505092915050565b60008060408385031215614f4257600080fd5b6000614f5085828601614941565b9250506020614f61858286016147eb565b9150509250929050565b60008060408385031215614f7e57600080fd5b6000614f8c85828601614941565b9250506020614f9d85828601614941565b9150509250929050565b600080600080600080600060e0888a031215614fc257600080fd5b6000614fd08a828b0161492c565b9750506020614fe18a828b0161492c565b9650506040614ff28a828b0161492c565b95505060606150038a828b0161492c565b94505060806150148a828b0161492c565b93505060a06150258a828b0161492c565b92505060c06150368a828b016147d6565b91505092959891949750929550565b60006020828403121561505757600080fd5b600061506584828501614956565b91505092915050565b600061507a8383615f8d565b60208301905092915050565b61508f81616701565b82525050565b60006150a0826166bc565b6150aa81856166df565b93506150b5836166ac565b8060005b838110156150e65781516150cd888261506e565b97506150d8836166d2565b9250506001810190506150b9565b5085935050505092915050565b6150fc81616713565b82525050565b61510b81616776565b82525050565b61511a8161671f565b82525050565b600061512b826166c7565b61513581856166f0565b935061514581856020860161679a565b61514e816167cd565b840191505092915050565b6000615166602f836166f0565b91507f4d617267696e43616c63756c61746f723a2070726f647563742068617665206e60008301527f6f206578706972792076616c75657300000000000000000000000000000000006020830152604082019050919050565b60006151cc6046836166f0565b91507f4d617267696e43616c63756c61746f723a2061756374696f6e2074696d65737460008301527f616d702073686f756c6420626520706f7374207661756c74206c61746573742060208301527f75706461746500000000000000000000000000000000000000000000000000006040830152606082019050919050565b60006152586027836166f0565b91507f4d617267696e43616c63756c61746f723a20496e76616c696420746f6b656e2060008301527f61646472657373000000000000000000000000000000000000000000000000006020830152604082019050919050565b60006152be6028836166f0565b91507f4d617267696e43616c63756c61746f723a204f746f6b656e206e6f742065787060008301527f69726564207965740000000000000000000000000000000000000000000000006020830152604082019050919050565b60006153246033836166f0565b91507f4d617267696e43616c63756c61746f723a206e6f20657870697279207570706560008301527f7220626f756e642076616c756520666f756e64000000000000000000000000006020830152604082019050919050565b600061538a602f836166f0565b91507f4d617267696e43616c63756c61746f723a20696e76616c69642074696d65732060008301527f746f2065787069727920617272617900000000000000000000000000000000006020830152604082019050919050565b60006153f06026836166f0565b91507f4f776e61626c653a206e6577206f776e657220697320746865207a65726f206160008301527f64647265737300000000000000000000000000000000000000000000000000006020830152604082019050919050565b60006154566039836166f0565b91507f4d617267696e43616c63756c61746f723a206475737420616d6f756e7420736860008301527f6f756c642062652067726561746572207468616e207a65726f000000000000006020830152604082019050919050565b60006154bc6022836166f0565b91507f4669786564506f696e74496e743235363a206f7574206f6620696e742072616e60008301527f67650000000000000000000000000000000000000000000000000000000000006020830152604082019050919050565b6000615522601b836166f0565b91507f536166654d6174683a206164646974696f6e206f766572666c6f7700000000006000830152602082019050919050565b60006155626026836166f0565b91507f4d617267696e43616c63756c61746f723a20696e76616c69642076616c75657360008301527f20617272617900000000000000000000000000000000000000000000000000006020830152604082019050919050565b60006155c86034836166f0565b91507f4d617267696e43616c63756c61746f723a20546f6f206d616e79206c6f6e672060008301527f6f746f6b656e7320696e20746865207661756c740000000000000000000000006020830152604082019050919050565b600061562e6021836166f0565b91507f5369676e6564536166654d6174683a206164646974696f6e206f766572666c6f60008301527f77000000000000000000000000000000000000000000000000000000000000006020830152604082019050919050565b60006156946031836166f0565b91507f4d617267696e43616c63756c61746f723a2053686f727420617373657420616e60008301527f6420616d6f756e74206d69736d617463680000000000000000000000000000006020830152604082019050919050565b60006156fa605b836166f0565b91507f4d617267696e43616c63756c61746f723a206e616b6564206d617267696e207660008301527f61756c742073686f756c64206861766520636f6c6c61746572616c20616d6f7560208301527f6e742067726561746572207468616e206475737420616d6f756e7400000000006040830152606082019050919050565b60006157866032836166f0565b91507f4d617267696e43616c63756c61746f723a20696e76616c6964206f7074696f6e60008301527f20757070657220626f756e642076616c756500000000000000000000000000006020830152604082019050919050565b60006157ec603c836166f0565b91507f4d617267696e43616c63756c61746f723a206e616b6564206d617267696e207660008301527f61756c742063616e6e6f742068617665206c6f6e67206f746f6b656e000000006020830152604082019050919050565b60006158526033836166f0565b91507f4d617267696e43616c63756c61746f723a20707269636520617420657870697260008301527f79206e6f742066696e616c697a656420796574000000000000000000000000006020830152604082019050919050565b60006158b8603b836166f0565b91507f4d617267696e43616c63756c61746f723a206c6f6e67206173736574206e6f7460008301527f206d617267696e61626c6520666f722073686f727420617373657400000000006020830152604082019050919050565b600061591e6034836166f0565b91507f4d617267696e43616c63756c61746f723a2063616e206e6f74206c697175696460008301527f617465206578706972656420706f736974696f6e0000000000000000000000006020830152604082019050919050565b60006159846021836166f0565b91507f536166654d6174683a206d756c7469706c69636174696f6e206f766572666c6f60008301527f77000000000000000000000000000000000000000000000000000000000000006020830152604082019050919050565b60006159ea6020836166f0565b91507f4f776e61626c653a2063616c6c6572206973206e6f7420746865206f776e65726000830152602082019050919050565b6000615a2a6027836166f0565b91507f5369676e6564536166654d6174683a206d756c7469706c69636174696f6e206f60008301527f766572666c6f77000000000000000000000000000000000000000000000000006020830152604082019050919050565b6000615a906041836166f0565b91507f4d617267696e43616c63756c61746f723a20636f6c6c61746572616c2061737360008301527f6574206e6f74206d617267696e61626c6520666f722073686f7274206173736560208301527f74000000000000000000000000000000000000000000000000000000000000006040830152606082019050919050565b6000615b1c6029836166f0565b91507f4d617267696e43616c63756c61746f723a2074696d652073686f756c6420626560008301527f20696e206f7264657200000000000000000000000000000000000000000000006020830152604082019050919050565b6000615b826031836166f0565b91507f4d617267696e43616c63756c61746f723a20696e76616c6964207661756c742060008301527f7479706520746f206c69717569646174650000000000000000000000000000006020830152604082019050919050565b6000615be86039836166f0565b91507f4d617267696e43616c63756c61746f723a20546f6f206d616e7920636f6c6c6160008301527f746572616c2061737365747320696e20746865207661756c74000000000000006020830152604082019050919050565b6000615c4e602d836166f0565b91507f4d617267696e43616c63756c61746f723a20757070657220626f756e6420766160008301527f6c7565206e6f7420666f756e64000000000000000000000000000000000000006020830152604082019050919050565b6000615cb4602e836166f0565b91507f4d617267696e43616c63756c61746f723a20657870697279206172726179206960008301527f73206e6f7420696e206f726465720000000000000000000000000000000000006020830152604082019050919050565b6000615d1a6035836166f0565b91507f4d617267696e43616c63756c61746f723a20546f6f206d616e792073686f727460008301527f206f746f6b656e7320696e20746865207661756c7400000000000000000000006020830152604082019050919050565b6000615d806024836166f0565b91507f5369676e6564536166654d6174683a207375627472616374696f6e206f76657260008301527f666c6f77000000000000000000000000000000000000000000000000000000006020830152604082019050919050565b6000615de6602a836166f0565b91507f4d617267696e43616c63756c61746f723a20696e76616c69642073706f74207360008301527f686f636b2076616c7565000000000000000000000000000000000000000000006020830152604082019050919050565b6000615e4c6030836166f0565b91507f4d617267696e43616c63756c61746f723a204c6f6e6720617373657420616e6460008301527f20616d6f756e74206d69736d61746368000000000000000000000000000000006020830152604082019050919050565b6000615eb26036836166f0565b91507f4d617267696e43616c63756c61746f723a20436f6c6c61746572616c2061737360008301527f657420616e6420616d6f756e74206d69736d61746368000000000000000000006020830152604082019050919050565b6000615f186033836166f0565b91507f4d617267696e43616c63756c61746f723a2070726f647563742068617665206e60008301527f6f20757070657220626f756e642076616c7565000000000000000000000000006020830152604082019050919050565b602082016000820151615f876000850182615111565b50505050565b615f9681616749565b82525050565b615fa581616749565b82525050565b615fb481616760565b82525050565b6000602082019050615fcf6000830184615086565b92915050565b6000608082019050615fea6000830187615086565b615ff76020830186615086565b6160046040830185615086565b61601160608301846150f3565b95945050505050565b600060408201905061602f6000830185615086565b61603c6020830184615f9c565b9392505050565b60006040820190506160586000830185615086565b6160656020830184615fab565b9392505050565b600060208201905081810360008301526160868184615095565b905092915050565b60006060820190506160a360008301866150f3565b6160b06020830185615f9c565b6160bd6040830184615f9c565b949350505050565b60006020820190506160da6000830184615102565b92915050565b600060208201905081810360008301526160fa8184615120565b905092915050565b6000602082019050818103600083015261611b81615159565b9050919050565b6000602082019050818103600083015261613b816151bf565b9050919050565b6000602082019050818103600083015261615b8161524b565b9050919050565b6000602082019050818103600083015261617b816152b1565b9050919050565b6000602082019050818103600083015261619b81615317565b9050919050565b600060208201905081810360008301526161bb8161537d565b9050919050565b600060208201905081810360008301526161db816153e3565b9050919050565b600060208201905081810360008301526161fb81615449565b9050919050565b6000602082019050818103600083015261621b816154af565b9050919050565b6000602082019050818103600083015261623b81615515565b9050919050565b6000602082019050818103600083015261625b81615555565b9050919050565b6000602082019050818103600083015261627b816155bb565b9050919050565b6000602082019050818103600083015261629b81615621565b9050919050565b600060208201905081810360008301526162bb81615687565b9050919050565b600060208201905081810360008301526162db816156ed565b9050919050565b600060208201905081810360008301526162fb81615779565b9050919050565b6000602082019050818103600083015261631b816157df565b9050919050565b6000602082019050818103600083015261633b81615845565b9050919050565b6000602082019050818103600083015261635b816158ab565b9050919050565b6000602082019050818103600083015261637b81615911565b9050919050565b6000602082019050818103600083015261639b81615977565b9050919050565b600060208201905081810360008301526163bb816159dd565b9050919050565b600060208201905081810360008301526163db81615a1d565b9050919050565b600060208201905081810360008301526163fb81615a83565b9050919050565b6000602082019050818103600083015261641b81615b0f565b9050919050565b6000602082019050818103600083015261643b81615b75565b9050919050565b6000602082019050818103600083015261645b81615bdb565b9050919050565b6000602082019050818103600083015261647b81615c41565b9050919050565b6000602082019050818103600083015261649b81615ca7565b9050919050565b600060208201905081810360008301526164bb81615d0d565b9050919050565b600060208201905081810360008301526164db81615d73565b9050919050565b600060208201905081810360008301526164fb81615dd9565b9050919050565b6000602082019050818103600083015261651b81615e3f565b9050919050565b6000602082019050818103600083015261653b81615ea5565b9050919050565b6000602082019050818103600083015261655b81615f0b565b9050919050565b60006040820190506165776000830185615f71565b6165846020830184615f71565b9392505050565b60006020820190506165a06000830184615f9c565b92915050565b60006040820190506165bb6000830185615f9c565b6165c860208301846150f3565b9392505050565b60006040820190506165e46000830185615f9c565b6165f16020830184615f9c565b9392505050565b600060608201905061660d6000830186615f9c565b61661a6020830185615f9c565b6166276040830184615f9c565b949350505050565b6000604051905081810181811067ffffffffffffffff8211171561665257600080fd5b8060405250919050565b600067ffffffffffffffff82111561667357600080fd5b602082029050602081019050919050565b600067ffffffffffffffff82111561669b57600080fd5b602082029050602081019050919050565b6000819050602082019050919050565b600081519050919050565b600081519050919050565b6000602082019050919050565b600082825260208201905092915050565b600082825260208201905092915050565b600061670c82616729565b9050919050565b60008115159050919050565b6000819050919050565b600073ffffffffffffffffffffffffffffffffffffffff82169050919050565b6000819050919050565b600060ff82169050919050565b600069ffffffffffffffffffff82169050919050565b600061678182616788565b9050919050565b600061679382616729565b9050919050565b60005b838110156167b857808201518184015260208101905061679d565b838111156167c7576000848401525b50505050565b6000601f19601f8301169050919050565b6167e781616701565b81146167f257600080fd5b50565b6167fe81616713565b811461680957600080fd5b50565b61681581616749565b811461682057600080fd5b50565b61682c81616753565b811461683757600080fd5b5056fea2646970667358221220f7c2d4bbdb3b45200dcfd0562230bcccdf89f2b94836569233c3f6caa340a3c864736f6c634300060a0033",
  "linkReferences": {},
  "deployedLinkReferences": {}
}