{
  "_format": "hh-sol-artifact-1",
  "contractName": "MarginCalculator",
  "sourceName": "contracts/Gamma/core/MarginCalculator.sol",
  "abi": [
    {
      "inputs": [
        {
          "internalType": "address",
          "name": "_oracle",
          "type": "address"
        }
      ],
      "stateMutability": "nonpayable",
      "type": "constructor"
    },
    {
      "anonymous": false,
      "inputs": [
        {
          "indexed": true,
          "internalType": "address",
          "name": "collateral",
          "type": "address"
        },
        {
          "indexed": false,
          "internalType": "uint256",
          "name": "dust",
          "type": "uint256"
        }
      ],
      "name": "CollateralDustUpdated",
      "type": "event"
    },
    {
      "anonymous": false,
      "inputs": [
        {
          "indexed": true,
          "internalType": "bytes32",
          "name": "productHash",
          "type": "bytes32"
        },
        {
          "indexed": false,
          "internalType": "uint256",
          "name": "timeToExpiry",
          "type": "uint256"
        },
        {
          "indexed": false,
          "internalType": "uint256",
          "name": "value",
          "type": "uint256"
        }
      ],
      "name": "MaxPriceAdded",
      "type": "event"
    },
    {
      "anonymous": false,
      "inputs": [
        {
          "indexed": true,
          "internalType": "bytes32",
          "name": "productHash",
          "type": "bytes32"
        },
        {
          "indexed": false,
          "internalType": "uint256",
          "name": "timeToExpiry",
          "type": "uint256"
        },
        {
          "indexed": false,
          "internalType": "uint256",
          "name": "oldValue",
          "type": "uint256"
        },
        {
          "indexed": false,
          "internalType": "uint256",
          "name": "newValue",
          "type": "uint256"
        }
      ],
      "name": "MaxPriceUpdated",
      "type": "event"
    },
    {
      "anonymous": false,
      "inputs": [
        {
          "indexed": false,
          "internalType": "uint256",
          "name": "oracleDeviation",
          "type": "uint256"
        }
      ],
      "name": "OracleDeviationUpdated",
      "type": "event"
    },
    {
      "anonymous": false,
      "inputs": [
        {
          "indexed": true,
          "internalType": "address",
          "name": "previousOwner",
          "type": "address"
        },
        {
          "indexed": true,
          "internalType": "address",
          "name": "newOwner",
          "type": "address"
        }
      ],
      "name": "OwnershipTransferred",
      "type": "event"
    },
    {
      "anonymous": false,
      "inputs": [
        {
          "indexed": true,
          "internalType": "bytes32",
          "name": "product",
          "type": "bytes32"
        },
        {
          "indexed": false,
          "internalType": "uint256",
          "name": "spotShock",
          "type": "uint256"
        }
      ],
      "name": "SpotShockUpdated",
      "type": "event"
    },
    {
      "anonymous": false,
      "inputs": [
        {
          "indexed": true,
          "internalType": "bytes32",
          "name": "productHash",
          "type": "bytes32"
        },
        {
          "indexed": false,
          "internalType": "uint256",
          "name": "timeToExpiry",
          "type": "uint256"
        }
      ],
      "name": "TimeToExpiryAdded",
      "type": "event"
    },
    {
      "inputs": [],
      "name": "AUCTION_TIME",
      "outputs": [
        {
          "internalType": "uint256",
          "name": "",
          "type": "uint256"
        }
      ],
      "stateMutability": "view",
      "type": "function"
    },
    {
      "inputs": [
        {
          "internalType": "address",
          "name": "_collateral",
          "type": "address"
        }
      ],
      "name": "getCollateralDust",
      "outputs": [
        {
          "internalType": "uint256",
          "name": "",
          "type": "uint256"
        }
      ],
      "stateMutability": "view",
      "type": "function"
    },
    {
      "inputs": [
        {
          "components": [
            {
              "internalType": "address[]",
              "name": "shortOtokens",
              "type": "address[]"
            },
            {
              "internalType": "address[]",
              "name": "longOtokens",
              "type": "address[]"
            },
            {
              "internalType": "address[]",
              "name": "collateralAssets",
              "type": "address[]"
            },
            {
              "internalType": "uint256[]",
              "name": "shortAmounts",
              "type": "uint256[]"
            },
            {
              "internalType": "uint256[]",
              "name": "longAmounts",
              "type": "uint256[]"
            },
            {
              "internalType": "uint256[]",
              "name": "collateralAmounts",
              "type": "uint256[]"
            }
          ],
          "internalType": "struct MarginVault.Vault",
          "name": "_vault",
          "type": "tuple"
        },
        {
          "internalType": "uint256",
          "name": "_vaultType",
          "type": "uint256"
        }
      ],
      "name": "getExcessCollateral",
      "outputs": [
        {
          "internalType": "uint256",
          "name": "",
          "type": "uint256"
        },
        {
          "internalType": "bool",
          "name": "",
          "type": "bool"
        }
      ],
      "stateMutability": "view",
      "type": "function"
    },
    {
      "inputs": [
        {
          "internalType": "address",
          "name": "_otoken",
          "type": "address"
        }
      ],
      "name": "getExpiredPayoutRate",
      "outputs": [
        {
          "internalType": "uint256",
          "name": "",
          "type": "uint256"
        }
      ],
      "stateMutability": "view",
      "type": "function"
    },
    {
      "inputs": [
        {
          "components": [
            {
              "internalType": "address[]",
              "name": "shortOtokens",
              "type": "address[]"
            },
            {
              "internalType": "address[]",
              "name": "longOtokens",
              "type": "address[]"
            },
            {
              "internalType": "address[]",
              "name": "collateralAssets",
              "type": "address[]"
            },
            {
              "internalType": "uint256[]",
              "name": "shortAmounts",
              "type": "uint256[]"
            },
            {
              "internalType": "uint256[]",
              "name": "longAmounts",
              "type": "uint256[]"
            },
            {
              "internalType": "uint256[]",
              "name": "collateralAmounts",
              "type": "uint256[]"
            }
          ],
          "internalType": "struct MarginVault.Vault",
          "name": "_vault",
          "type": "tuple"
        },
        {
          "internalType": "uint256",
          "name": "_vaultType",
          "type": "uint256"
        }
      ],
      "name": "getMarginRequired",
      "outputs": [
        {
          "components": [
            {
              "internalType": "int256",
              "name": "value",
              "type": "int256"
            }
          ],
          "internalType": "struct FixedPointInt256.FixedPointInt",
          "name": "",
          "type": "tuple"
        },
        {
          "components": [
            {
              "internalType": "int256",
              "name": "value",
              "type": "int256"
            }
          ],
          "internalType": "struct FixedPointInt256.FixedPointInt",
          "name": "",
          "type": "tuple"
        }
      ],
      "stateMutability": "view",
      "type": "function"
    },
    {
      "inputs": [
        {
          "internalType": "address",
          "name": "_underlying",
          "type": "address"
        },
        {
          "internalType": "address",
          "name": "_strike",
          "type": "address"
        },
        {
          "internalType": "address",
          "name": "_collateral",
          "type": "address"
        },
        {
          "internalType": "bool",
          "name": "_isPut",
          "type": "bool"
        },
        {
          "internalType": "uint256",
          "name": "_timeToExpiry",
          "type": "uint256"
        }
      ],
      "name": "getMaxPrice",
      "outputs": [
        {
          "internalType": "uint256",
          "name": "",
          "type": "uint256"
        }
      ],
      "stateMutability": "view",
      "type": "function"
    },
    {
      "inputs": [
        {
          "internalType": "address",
          "name": "_underlying",
          "type": "address"
        },
        {
          "internalType": "address",
          "name": "_strike",
          "type": "address"
        },
        {
          "internalType": "address",
          "name": "_collateral",
          "type": "address"
        },
        {
          "internalType": "uint256",
          "name": "_shortAmount",
          "type": "uint256"
        },
        {
          "internalType": "uint256",
          "name": "_strikePrice",
          "type": "uint256"
        },
        {
          "internalType": "uint256",
          "name": "_underlyingPrice",
          "type": "uint256"
        },
        {
          "internalType": "uint256",
          "name": "_shortExpiryTimestamp",
          "type": "uint256"
        },
        {
          "internalType": "uint256",
          "name": "_collateralDecimals",
          "type": "uint256"
        },
        {
          "internalType": "bool",
          "name": "_isPut",
          "type": "bool"
        }
      ],
      "name": "getNakedMarginRequired",
      "outputs": [
        {
          "internalType": "uint256",
          "name": "",
          "type": "uint256"
        }
      ],
      "stateMutability": "view",
      "type": "function"
    },
    {
      "inputs": [],
      "name": "getOracleDeviation",
      "outputs": [
        {
          "internalType": "uint256",
          "name": "",
          "type": "uint256"
        }
      ],
      "stateMutability": "view",
      "type": "function"
    },
    {
      "inputs": [
        {
          "internalType": "address",
          "name": "_underlying",
          "type": "address"
        },
        {
          "internalType": "address",
          "name": "_strike",
          "type": "address"
        },
        {
          "internalType": "address",
          "name": "_collateral",
          "type": "address"
        },
        {
          "internalType": "bool",
          "name": "_isPut",
          "type": "bool"
        }
      ],
      "name": "getSpotShock",
      "outputs": [
        {
          "internalType": "uint256",
          "name": "",
          "type": "uint256"
        }
      ],
      "stateMutability": "view",
      "type": "function"
    },
    {
      "inputs": [
        {
          "internalType": "address",
          "name": "_underlying",
          "type": "address"
        },
        {
          "internalType": "address",
          "name": "_strike",
          "type": "address"
        },
        {
          "internalType": "address",
          "name": "_collateral",
          "type": "address"
        },
        {
          "internalType": "bool",
          "name": "_isPut",
          "type": "bool"
        }
      ],
      "name": "getTimesToExpiry",
      "outputs": [
        {
          "internalType": "uint256[]",
          "name": "",
          "type": "uint256[]"
        }
      ],
      "stateMutability": "view",
      "type": "function"
    },
    {
      "inputs": [
        {
          "components": [
            {
              "internalType": "address[]",
              "name": "shortOtokens",
              "type": "address[]"
            },
            {
              "internalType": "address[]",
              "name": "longOtokens",
              "type": "address[]"
            },
            {
              "internalType": "address[]",
              "name": "collateralAssets",
              "type": "address[]"
            },
            {
              "internalType": "uint256[]",
              "name": "shortAmounts",
              "type": "uint256[]"
            },
            {
              "internalType": "uint256[]",
              "name": "longAmounts",
              "type": "uint256[]"
            },
            {
              "internalType": "uint256[]",
              "name": "collateralAmounts",
              "type": "uint256[]"
            }
          ],
          "internalType": "struct MarginVault.Vault",
          "name": "_vault",
          "type": "tuple"
        },
        {
          "internalType": "uint256",
          "name": "_vaultType",
          "type": "uint256"
        },
        {
          "internalType": "uint256",
          "name": "_vaultLatestUpdate",
          "type": "uint256"
        },
        {
          "internalType": "uint256",
          "name": "_roundId",
          "type": "uint256"
        }
      ],
      "name": "isLiquidatable",
      "outputs": [
        {
          "internalType": "bool",
          "name": "",
          "type": "bool"
        },
        {
          "internalType": "uint256",
          "name": "",
          "type": "uint256"
        },
        {
          "internalType": "uint256",
          "name": "",
          "type": "uint256"
        }
      ],
      "stateMutability": "view",
      "type": "function"
    },
    {
      "inputs": [],
      "name": "oracle",
      "outputs": [
        {
          "internalType": "contract OracleInterface",
          "name": "",
          "type": "address"
        }
      ],
      "stateMutability": "view",
      "type": "function"
    },
    {
      "inputs": [],
      "name": "owner",
      "outputs": [
        {
          "internalType": "address",
          "name": "",
          "type": "address"
        }
      ],
      "stateMutability": "view",
      "type": "function"
    },
    {
      "inputs": [],
      "name": "renounceOwnership",
      "outputs": [],
      "stateMutability": "nonpayable",
      "type": "function"
    },
    {
      "inputs": [
        {
          "internalType": "address",
          "name": "_collateral",
          "type": "address"
        },
        {
          "internalType": "uint256",
          "name": "_dust",
          "type": "uint256"
        }
      ],
      "name": "setCollateralDust",
      "outputs": [],
      "stateMutability": "nonpayable",
      "type": "function"
    },
    {
      "inputs": [
        {
          "internalType": "uint256",
          "name": "_deviation",
          "type": "uint256"
        }
      ],
      "name": "setOracleDeviation",
      "outputs": [],
      "stateMutability": "nonpayable",
      "type": "function"
    },
    {
      "inputs": [
        {
          "internalType": "address",
          "name": "_underlying",
          "type": "address"
        },
        {
          "internalType": "address",
          "name": "_strike",
          "type": "address"
        },
        {
          "internalType": "address",
          "name": "_collateral",
          "type": "address"
        },
        {
          "internalType": "bool",
          "name": "_isPut",
          "type": "bool"
        },
        {
          "internalType": "uint256",
          "name": "_shockValue",
          "type": "uint256"
        }
      ],
      "name": "setSpotShock",
      "outputs": [],
      "stateMutability": "nonpayable",
      "type": "function"
    },
    {
      "inputs": [
        {
          "internalType": "address",
          "name": "_underlying",
          "type": "address"
        },
        {
          "internalType": "address",
          "name": "_strike",
          "type": "address"
        },
        {
          "internalType": "address",
          "name": "_collateral",
          "type": "address"
        },
        {
          "internalType": "bool",
          "name": "_isPut",
          "type": "bool"
        },
        {
          "internalType": "uint256[]",
          "name": "_timesToExpiry",
          "type": "uint256[]"
        },
        {
          "internalType": "uint256[]",
          "name": "_values",
          "type": "uint256[]"
        }
      ],
      "name": "setUpperBoundValues",
      "outputs": [],
      "stateMutability": "nonpayable",
      "type": "function"
    },
    {
      "inputs": [
        {
          "internalType": "address",
          "name": "newOwner",
          "type": "address"
        }
      ],
      "name": "transferOwnership",
      "outputs": [],
      "stateMutability": "nonpayable",
      "type": "function"
    },
    {
      "inputs": [
        {
          "internalType": "address",
          "name": "_underlying",
          "type": "address"
        },
        {
          "internalType": "address",
          "name": "_strike",
          "type": "address"
        },
        {
          "internalType": "address",
          "name": "_collateral",
          "type": "address"
        },
        {
          "internalType": "bool",
          "name": "_isPut",
          "type": "bool"
        },
        {
          "internalType": "uint256",
          "name": "_timeToExpiry",
          "type": "uint256"
        },
        {
          "internalType": "uint256",
          "name": "_value",
          "type": "uint256"
        }
      ],
      "name": "updateUpperBoundValue",
      "outputs": [],
      "stateMutability": "nonpayable",
      "type": "function"
    }
  ],
  "bytecode": "0x60806040526200001d60006008620001c960201b620019361760201c565b60026000820151816000015550503480156200003857600080fd5b5060405162006e0538038062006e0583398181016040528101906200005e91906200055a565b600062000070620002dc60201b60201c565b9050806000806101000a81548173ffffffffffffffffffffffffffffffffffffffff021916908373ffffffffffffffffffffffffffffffffffffffff1602179055508073ffffffffffffffffffffffffffffffffffffffff16600073ffffffffffffffffffffffffffffffffffffffff167f8be0079c531659141344cd1fd0a4f28419497f9722a3daafe3b4186f6b6457e060405160405180910390a350600073ffffffffffffffffffffffffffffffffffffffff168173ffffffffffffffffffffffffffffffffffffffff16141562000181576040517f08c379a0000000000000000000000000000000000000000000000000000000008152600401620001789062000767565b60405180910390fd5b80600760006101000a81548173ffffffffffffffffffffffffffffffffffffffff021916908373ffffffffffffffffffffffffffffffffffffffff160217905550506200083a565b620001d362000530565b620001dd62000530565b601b831415620002135760405180602001604052806200020886620002e460201b62001a051760201c565b8152509050620002d2565b601b831115620002855760006200023a601b856200035360201b62001a711790919060201c565b90506040518060200160405280620002796200026884600a0a89620003a560201b62001abb1790919060201c565b620002e460201b62001a051760201c565b815250915050620002d1565b600083601b0390506040518060200160405280620002ca620002b984600a0a89620003f760201b62001b051790919060201c565b620002e460201b62001a051760201c565b8152509150505b5b8091505092915050565b600033905090565b60007f800000000000000000000000000000000000000000000000000000000000000082106200034b576040517f08c379a0000000000000000000000000000000000000000000000000000000008152600401620003429062000723565b60405180910390fd5b819050919050565b60006200039d83836040518060400160405280601e81526020017f536166654d6174683a207375627472616374696f6e206f766572666c6f7700008152506200046d60201b60201c565b905092915050565b6000620003ef83836040518060400160405280601a81526020017f536166654d6174683a206469766973696f6e206279207a65726f000000000000815250620004cb60201b60201c565b905092915050565b6000808314156200040c576000905062000467565b60008284029050828482816200041e57fe5b041462000462576040517f08c379a0000000000000000000000000000000000000000000000000000000008152600401620004599062000745565b60405180910390fd5b809150505b92915050565b6000838311158290620004b8576040517f08c379a0000000000000000000000000000000000000000000000000000000008152600401620004af9190620006ff565b60405180910390fd5b5060008385039050809150509392505050565b6000808311829062000515576040517f08c379a00000000000000000000000000000000000000000000000000000000081526004016200050c9190620006ff565b60405180910390fd5b5060008385816200052257fe5b049050809150509392505050565b6040518060200160405280600081525090565b600081519050620005548162000820565b92915050565b6000602082840312156200056d57600080fd5b60006200057d8482850162000543565b91505092915050565b6000620005938262000789565b6200059f818562000794565b9350620005b1818560208601620007d9565b620005bc816200080f565b840191505092915050565b6000620005d660228362000794565b91507f4669786564506f696e74496e743235363a206f7574206f6620696e742072616e60008301527f67650000000000000000000000000000000000000000000000000000000000006020830152604082019050919050565b60006200063e60218362000794565b91507f536166654d6174683a206d756c7469706c69636174696f6e206f766572666c6f60008301527f77000000000000000000000000000000000000000000000000000000000000006020830152604082019050919050565b6000620006a660288362000794565b91507f4d617267696e43616c63756c61746f723a20696e76616c6964206f7261636c6560008301527f20616464726573730000000000000000000000000000000000000000000000006020830152604082019050919050565b600060208201905081810360008301526200071b818462000586565b905092915050565b600060208201905081810360008301526200073e81620005c7565b9050919050565b6000602082019050818103600083015262000760816200062f565b9050919050565b60006020820190508181036000830152620007828162000697565b9050919050565b600081519050919050565b600082825260208201905092915050565b6000620007b282620007b9565b9050919050565b600073ffffffffffffffffffffffffffffffffffffffff82169050919050565b60005b83811015620007f9578082015181840152602081019050620007dc565b8381111562000809576000848401525b50505050565b6000601f19601f8301169050919050565b6200082b81620007a5565b81146200083757600080fd5b50565b6165bb806200084a6000396000f3fe608060405234801561001057600080fd5b506004361061012c5760003560e01c80638aab8fa5116100ad578063c73547e311610071578063c73547e314610358578063cd43fbfb14610374578063dc1b3f00146103a5578063e592301a146103d5578063f2fde38b146103f35761012c565b80638aab8fa5146102b25780638da5cb5b146102ce5780639a783d11146102ec578063a6c5690714610308578063b29d5ee81461033a5761012c565b80636ccb9506116100f45780636ccb950614610222578063715018a6146102525780637ad7f8001461025c5780637dc0d1d0146102785780637f519b72146102965761012c565b8063053fe57c146101315780630b0509fb14610162578063463459001461019257806347840930146101c257806347d438a5146101f2575b600080fd5b61014b60048036038101906101469190614bf7565b61040f565b6040516101599291906162ad565b60405180910390f35b61017c60048036038101906101779190614acc565b610449565b60405161018991906162d6565b60405180910390f35b6101ac60048036038101906101a7919061481d565b6104c5565b6040516101b991906162d6565b60405180910390f35b6101dc60048036038101906101d791906147cb565b6104f5565b6040516101e991906162d6565b60405180910390f35b61020c6004803603810190610207919061481d565b61069f565b6040516102199190615db7565b60405180910390f35b61023c600480360381019061023791906147cb565b61071e565b60405161024991906162d6565b60405180910390f35b61025a610767565b005b610276600480360381019061027191906149ba565b6108bc565b005b610280610a81565b60405161028d9190615e10565b60405180910390f35b6102b060048036038101906102ab9190614880565b610aa7565b005b6102cc60048036038101906102c79190614943565b610eca565b005b6102d661100b565b6040516102e39190615d05565b60405180910390f35b61030660048036038101906103019190614b92565b611034565b005b610322600480360381019061031d9190614c4b565b6111a3565b60405161033193929190615dd9565b60405180910390f35b61034261151a565b60405161034f91906162d6565b60405180910390f35b610372600480360381019061036d9190614cc6565b611524565b005b61038e60048036038101906103899190614bf7565b6115fb565b60405161039c9291906162f1565b60405180910390f35b6103bf60048036038101906103ba9190614943565b61172a565b6040516103cc91906162d6565b60405180910390f35b6103dd61176c565b6040516103ea91906162d6565b60405180910390f35b61040d600480360381019061040891906147cb565b611772565b005b6104176142e3565b61041f6142e3565b6104276142f6565b6104318585611b75565b905061043d85826120c3565b92509250509250929050565b6000806104588b8b8b866126b3565b90506104626142e3565b61046d896008611936565b90506104776142e3565b610482896008611936565b905061048c6142e3565b610497896008611936565b90506104b26104aa858584868d8c6126ec565b8860006128ea565b9450505050509998505050505050505050565b6000806104d4868686866126b3565b90506006600082815260200190815260200160002054915050949350505050565b60008073ffffffffffffffffffffffffffffffffffffffff168273ffffffffffffffffffffffffffffffffffffffff161415610566576040517f08c379a000000000000000000000000000000000000000000000000000000000815260040161055d90615e8d565b60405180910390fd5b600080600080600080610578886129cf565b955095509550955095509550814210156105c7576040517f08c379a00000000000000000000000000000000000000000000000000000000081526004016105be90615ead565b60405180910390fd5b6105cf6142e3565b6105dc8686858786612d81565b90506105e66142e3565b6105f282878a87612de3565b905060008873ffffffffffffffffffffffffffffffffffffffff1663313ce5676040518163ffffffff1660e01b815260040160206040518083038186803b15801561063c57600080fd5b505afa158015610650573d6000803e3d6000fd5b505050506040513d601f19601f820116820180604052508101906106749190614d90565b60ff16905061068f816001846128ea9092919063ffffffff16565b9950505050505050505050919050565b606060006106af868686866126b3565b90506004600082815260200190815260200160002080548060200260200160405190810160405280929190818152602001828054801561070e57602002820191906000526020600020905b8154815260200190600101908083116106fa575b5050505050915050949350505050565b6000600360008373ffffffffffffffffffffffffffffffffffffffff1673ffffffffffffffffffffffffffffffffffffffff168152602001908152602001600020549050919050565b61076f61301e565b73ffffffffffffffffffffffffffffffffffffffff166000809054906101000a900473ffffffffffffffffffffffffffffffffffffffff1673ffffffffffffffffffffffffffffffffffffffff16146107fd576040517f08c379a00000000000000000000000000000000000000000000000000000000081526004016107f4906160ed565b60405180910390fd5b600073ffffffffffffffffffffffffffffffffffffffff166000809054906101000a900473ffffffffffffffffffffffffffffffffffffffff1673ffffffffffffffffffffffffffffffffffffffff167f8be0079c531659141344cd1fd0a4f28419497f9722a3daafe3b4186f6b6457e060405160405180910390a360008060006101000a81548173ffffffffffffffffffffffffffffffffffffffff021916908373ffffffffffffffffffffffffffffffffffffffff160217905550565b6108c461301e565b73ffffffffffffffffffffffffffffffffffffffff166000809054906101000a900473ffffffffffffffffffffffffffffffffffffffff1673ffffffffffffffffffffffffffffffffffffffff1614610952576040517f08c379a0000000000000000000000000000000000000000000000000000000008152600401610949906160ed565b60405180910390fd5b60008111610995576040517f08c379a000000000000000000000000000000000000000000000000000000000815260040161098c9061602d565b60405180910390fd5b60006109a3878787876126b3565b905060006005600083815260200190815260200160002060008581526020019081526020016000205490506000811415610a12576040517f08c379a0000000000000000000000000000000000000000000000000000000008152600401610a09906161ad565b60405180910390fd5b8260056000848152602001908152602001600020600086815260200190815260200160002081905550817f39bab32d3b88604bdfbf6e8c3b1aaaf9bb6013da4fd5206dee9e3b00ee6f2cf9858386604051610a6f93929190616343565b60405180910390a25050505050505050565b600760009054906101000a900473ffffffffffffffffffffffffffffffffffffffff1681565b610aaf61301e565b73ffffffffffffffffffffffffffffffffffffffff166000809054906101000a900473ffffffffffffffffffffffffffffffffffffffff1673ffffffffffffffffffffffffffffffffffffffff1614610b3d576040517f08c379a0000000000000000000000000000000000000000000000000000000008152600401610b34906160ed565b60405180910390fd5b60008484905011610b83576040517f08c379a0000000000000000000000000000000000000000000000000000000008152600401610b7a90615eed565b60405180910390fd5b818190508484905014610bcb576040517f08c379a0000000000000000000000000000000000000000000000000000000008152600401610bc290615f8d565b60405180910390fd5b6000610bd9898989896126b3565b90506000600460008381526020019081526020016000209050600081805490501480610c44575080610c1960018380549050611a7190919063ffffffff16565b81548110610c2357fe5b906000526020600020015486866000818110610c3b57fe5b90506020020135115b610c83576040517f08c379a0000000000000000000000000000000000000000000000000000000008152600401610c7a906161cd565b60405180910390fd5b60008090505b86869050811015610ebd5786869050610cac60018361302690919063ffffffff16565b1015610d2c578686610cc860018461302690919063ffffffff16565b818110610cd157fe5b90506020020135878783818110610ce457fe5b9050602002013510610d2b576040517f08c379a0000000000000000000000000000000000000000000000000000000008152600401610d229061614d565b60405180910390fd5b5b6000858583818110610d3a57fe5b9050602002013511610d81576040517f08c379a0000000000000000000000000000000000000000000000000000000008152600401610d7890615ecd565b60405180910390fd5b848482818110610d8d57fe5b90506020020135600560008581526020019081526020016000206000898985818110610db557fe5b9050602002013581526020019081526020016000208190555081878783818110610ddb57fe5b905060200201359080600181540180825580915050600190039060005260206000200160009091909190915055827fcaae9881bd3ac6f531c9e6021f1f873b93a83648e348624eef8f9ba9757fcb62888884818110610e3657fe5b90506020020135604051610e4a91906162d6565b60405180910390a2827fcbb8d688de73727385afee9d53a2771ae5fe45293ff6de0ba46b201ab29df115888884818110610e8057fe5b90506020020135878785818110610e9357fe5b90506020020135604051610ea892919061631a565b60405180910390a28080600101915050610c89565b5050505050505050505050565b610ed261301e565b73ffffffffffffffffffffffffffffffffffffffff166000809054906101000a900473ffffffffffffffffffffffffffffffffffffffff1673ffffffffffffffffffffffffffffffffffffffff1614610f60576040517f08c379a0000000000000000000000000000000000000000000000000000000008152600401610f57906160ed565b60405180910390fd5b60008111610fa3576040517f08c379a0000000000000000000000000000000000000000000000000000000008152600401610f9a9061622d565b60405180910390fd5b6000610fb1868686866126b3565b9050816006600083815260200190815260200160002081905550807f78d22b4a9e4e0e1db30e7762696456ca380dc80efc59f416a299b97213b6d31683604051610ffb91906162d6565b60405180910390a2505050505050565b60008060009054906101000a900473ffffffffffffffffffffffffffffffffffffffff16905090565b61103c61301e565b73ffffffffffffffffffffffffffffffffffffffff166000809054906101000a900473ffffffffffffffffffffffffffffffffffffffff1673ffffffffffffffffffffffffffffffffffffffff16146110ca576040517f08c379a00000000000000000000000000000000000000000000000000000000081526004016110c1906160ed565b60405180910390fd5b6000811161110d576040517f08c379a000000000000000000000000000000000000000000000000000000000815260040161110490615f2d565b60405180910390fd5b80600360008473ffffffffffffffffffffffffffffffffffffffff1673ffffffffffffffffffffffffffffffffffffffff168152602001908152602001600020819055508173ffffffffffffffffffffffffffffffffffffffff167f8ef429e6cec4339c5f0187fb930764fb967114bf09bc8bb06a552ba32923fd868260405161119791906162d6565b60405180910390a25050565b6000806000600186146111eb576040517f08c379a00000000000000000000000000000000000000000000000000000000081526004016111e29061616d565b60405180910390fd5b6111f36142f6565b6111fd8888611b75565b905080610220015161122057600080600081915080905093509350935050611510565b8060e001514210611266576040517f08c379a000000000000000000000000000000000000000000000000000000000815260040161125d906160ad565b60405180910390fd5b600080600760009054906101000a900473ffffffffffffffffffffffffffffffffffffffff1673ffffffffffffffffffffffffffffffffffffffff16631b85462d8460000151896040518363ffffffff1660e01b81526004016112ca929190615d8e565b604080518083038186803b1580156112e157600080fd5b505afa1580156112f5573d6000803e3d6000fd5b505050506040513d601f19601f820116820180604052508101906113199190614d54565b9150915087811161135f576040517f08c379a000000000000000000000000000000000000000000000000000000000815260040161135690615e6d565b60405180910390fd5b611367614416565b60405180606001604052806113958d6060015160008151811061138657fe5b60200260200101516008611936565b81526020016113a98660c001516008611936565b81526020016113b9856008611936565b815250905060006113dd856000015186602001518760400151886101c001516126b3565b90506113e76142e3565b61140e8d60a001516000815181106113fb57fe5b6020026020010151876101800151611936565b90506114186142e3565b61143b838560000151866040015187602001518b60e001518c6101c001516126ec565b9050611450828261307b90919063ffffffff16565b1561147257600080600081915080905099509950995050505050505050611510565b61147a6142e3565b611492856020015186604001518a6101c00151613091565b905060006114b78487600001518489604001518b8e61018001518f6101c0015161313e565b9050600181600360008c6040015173ffffffffffffffffffffffffffffffffffffffff1673ffffffffffffffffffffffffffffffffffffffff168152602001908152602001600020549b509b509b505050505050505050505b9450945094915050565b6000600154905090565b61152c61301e565b73ffffffffffffffffffffffffffffffffffffffff166000809054906101000a900473ffffffffffffffffffffffffffffffffffffffff1673ffffffffffffffffffffffffffffffffffffffff16146115ba576040517f08c379a00000000000000000000000000000000000000000000000000000000081526004016115b1906160ed565b60405180910390fd5b806001819055507fe44c6dd1fc3826ad24b81f17cf04849cedd368e002a52e89a845d14d3474e20a816040516115f091906162d6565b60405180910390a150565b6000806116066142f6565b6116108585611b75565b905061161c8582613314565b8061022001511580156116325750806102000151155b1561167457600081610240015161164a576000611664565b8560a0015160008151811061165b57fe5b60200260200101515b9050806001935093505050611723565b61167c6142e3565b6116846142e3565b61168e87846120c3565b9150915061169a6142e3565b6116ad828461356990919063ffffffff16565b905060006116da6002604051806020016040529081600082015481525050836135a290919063ffffffff16565b905060008561020001516116f3578561010001516116fa565b8561016001515b905060006117138284866128ea9092919063ffffffff16565b9050808398509850505050505050505b9250929050565b600080611739878787876126b3565b90506005600082815260200190815260200160002060008481526020019081526020016000205491505095945050505050565b610e1081565b61177a61301e565b73ffffffffffffffffffffffffffffffffffffffff166000809054906101000a900473ffffffffffffffffffffffffffffffffffffffff1673ffffffffffffffffffffffffffffffffffffffff1614611808576040517f08c379a00000000000000000000000000000000000000000000000000000000081526004016117ff906160ed565b60405180910390fd5b600073ffffffffffffffffffffffffffffffffffffffff168173ffffffffffffffffffffffffffffffffffffffff161415611878576040517f08c379a000000000000000000000000000000000000000000000000000000000815260040161186f90615f0d565b60405180910390fd5b8073ffffffffffffffffffffffffffffffffffffffff166000809054906101000a900473ffffffffffffffffffffffffffffffffffffffff1673ffffffffffffffffffffffffffffffffffffffff167f8be0079c531659141344cd1fd0a4f28419497f9722a3daafe3b4186f6b6457e060405160405180910390a3806000806101000a81548173ffffffffffffffffffffffffffffffffffffffff021916908373ffffffffffffffffffffffffffffffffffffffff16021790555050565b61193e6142e3565b6119466142e3565b601b83141561196d57604051806020016040528061196386611a05565b81525090506119fb565b601b8311156119c257600061198c601b85611a7190919063ffffffff16565b905060405180602001604052806119b76119b284600a0a89611abb90919063ffffffff16565b611a05565b8152509150506119fa565b600083601b03905060405180602001604052806119f36119ee84600a0a89611b0590919063ffffffff16565b611a05565b8152509150505b5b8091505092915050565b60007f80000000000000000000000000000000000000000000000000000000000000008210611a69576040517f08c379a0000000000000000000000000000000000000000000000000000000008152600401611a6090615f4d565b60405180910390fd5b819050919050565b6000611ab383836040518060400160405280601e81526020017f536166654d6174683a207375627472616374696f6e206f766572666c6f7700008152506135b8565b905092915050565b6000611afd83836040518060400160405280601a81526020017f536166654d6174683a206469766973696f6e206279207a65726f000000000000815250613613565b905092915050565b600080831415611b185760009050611b6f565b6000828402905082848281611b2957fe5b0414611b6a576040517f08c379a0000000000000000000000000000000000000000000000000000000008152600401611b61906160cd565b60405180910390fd5b809150505b92915050565b611b7d6142f6565b611b856142f6565b604051806102600160405280600073ffffffffffffffffffffffffffffffffffffffff168152602001600073ffffffffffffffffffffffffffffffffffffffff168152602001600073ffffffffffffffffffffffffffffffffffffffff168152602001600073ffffffffffffffffffffffffffffffffffffffff168152602001600073ffffffffffffffffffffffffffffffffffffffff168152602001600073ffffffffffffffffffffffffffffffffffffffff1681526020016000815260200160008152602001600081526020016000815260200160008152602001600081526020016000815260200160008152602001600015158152602001600015158152602001600015158152602001600015158152602001600015158152509050611cb18460200151613674565b81610200019015159081151581525050611cce8460000151613674565b81610220019015159081151581525050611ceb8460400151613674565b8161024001901515908115158152505082816101a001818152505080610200015115611e895760008460200151600081518110611d2457fe5b60200260200101519050611d37816129cf565b8760a00188606001896080018a610120018b610140018c6101e001861515151581525086815250868152508673ffffffffffffffffffffffffffffffffffffffff1673ffffffffffffffffffffffffffffffffffffffff168152508673ffffffffffffffffffffffffffffffffffffffff1673ffffffffffffffffffffffffffffffffffffffff168152508673ffffffffffffffffffffffffffffffffffffffff1673ffffffffffffffffffffffffffffffffffffffff168152505050505050508160a0015173ffffffffffffffffffffffffffffffffffffffff1663313ce5676040518163ffffffff1660e01b815260040160206040518083038186803b158015611e4257600080fd5b505afa158015611e56573d6000803e3d6000fd5b505050506040513d601f19601f82011682018060405250810190611e7a9190614d90565b60ff1682610160018181525050505b8061022001511561200a5760008460000151600081518110611ea757fe5b60200260200101519050611eba816129cf565b8760400188600001896020018a60c0018b60e0018c6101c001861515151581525086815250868152508673ffffffffffffffffffffffffffffffffffffffff1673ffffffffffffffffffffffffffffffffffffffff168152508673ffffffffffffffffffffffffffffffffffffffff1673ffffffffffffffffffffffffffffffffffffffff168152508673ffffffffffffffffffffffffffffffffffffffff1673ffffffffffffffffffffffffffffffffffffffff16815250505050505050816040015173ffffffffffffffffffffffffffffffffffffffff1663313ce5676040518163ffffffff1660e01b815260040160206040518083038186803b158015611fc357600080fd5b505afa158015611fd7573d6000803e3d6000fd5b505050506040513d601f19601f82011682018060405250810190611ffb9190614d90565b60ff1682610100018181525050505b806102400151156120b957836040015160008151811061202657fe5b602002602001015173ffffffffffffffffffffffffffffffffffffffff1663313ce5676040518163ffffffff1660e01b815260040160206040518083038186803b15801561207357600080fd5b505afa158015612087573d6000803e3d6000fd5b505050506040513d601f19601f820116820180604052508101906120ab9190614d90565b60ff16816101800181815250505b8091505092915050565b6120cb6142e3565b6120d36142e3565b6120db6142e3565b836102200151612101576002604051806020016040529081600082015481525050612125565b612124856060015160008151811061211557fe5b60200260200101516008611936565b5b905061212f6142e3565b846102000151612155576002604051806020016040529081600082015481525050612179565b612178866080015160008151811061216957fe5b60200260200101516008611936565b5b90506121836142e3565b8561024001516121a95760026040518060200160405290816000820154815250506121d1565b6121d08760a001516000815181106121bd57fe5b6020026020010151876101800151611936565b5b90506121db6142e3565b866102200151612201576002604051806020016040529081600082015481525050612211565b6122108760c001516008611936565b5b905061221b614449565b6040518060a0016040528089610220015161223a578960600151612240565b89600001515b73ffffffffffffffffffffffffffffffffffffffff16815260200189610220015161226f578960a00151612275565b89604001515b73ffffffffffffffffffffffffffffffffffffffff1681526020018961022001516122a45789608001516122aa565b89602001515b73ffffffffffffffffffffffffffffffffffffffff1681526020018961022001516122da578961014001516122e0565b8960e001515b81526020018961022001516122fa57896101e00151612301565b896101c001515b1515815250905080606001514210156125ca576001886101a00151141561250b5761232a6142e3565b61237c600360008b6040015173ffffffffffffffffffffffffffffffffffffffff1673ffffffffffffffffffffffffffffffffffffffff168152602001908152602001600020548a6101800151611936565b90506123a76002604051806020016040529081600082015481525050856136ce90919063ffffffff16565b156123ff576123bf81856136ce90919063ffffffff16565b6123fe576040517f08c379a00000000000000000000000000000000000000000000000000000000081526004016123f59061600d565b60405180910390fd5b5b6124076142e3565b6124c0600760009054906101000a900473ffffffffffffffffffffffffffffffffffffffff1673ffffffffffffffffffffffffffffffffffffffff166341976e098c600001516040518263ffffffff1660e01b81526004016124699190615d05565b60206040518083038186803b15801561248157600080fd5b505afa158015612495573d6000803e3d6000fd5b505050506040513d601f19601f820116820180604052508101906124b99190614cef565b6008611936565b905060006124e18b600001518c602001518d604001518e6101c001516126b3565b9050856124fa828a858989606001518a608001516126ec565b9950995050505050505050506126ac565b6125136142e3565b88610200015161253957600260405180602001604052908160008201548152505061254a565b6125498961012001516008611936565b5b90508160800151156125905761255e6142e3565b61256a878786856136e3565b9050846125808285604001518660200151613754565b98509850505050505050506126ac565b6125986142e3565b6125a48787868561393b565b9050846125ba8285600001518660200151613754565b98509850505050505050506126ac565b6125d26142e3565b8861022001516125f857600260405180602001604052908160008201548152505061261a565b61261989600001518a602001518b60e001518c60c001518660800151612d81565b5b90506126246142e3565b89610200015161264a57600260405180602001604052908160008201548152505061266e565b61266d8a606001518b608001518c61014001518d61012001518760800151612d81565b5b90506126786142e3565b61268488888585613a3e565b90508561269f82866040015187602001518860600151612de3565b9950995050505050505050505b9250929050565b6000848484846040516020016126cc9493929190615d20565b604051602081830303815290604052805190602001209050949350505050565b6126f46142e3565b6126fc6142e3565b6127068885613a87565b90506127106142e3565b6040518060200160405280600660008c815260200190815260200160002054815250905061273c6142e3565b6127446142e3565b61274c6142e3565b86156127f45761276e896127698c87613c5090919063ffffffff16565b613c9e565b92506127b46127986127898c87613c5090919063ffffffff16565b8b61356990919063ffffffff16565b6002604051806020016040529081600082015481525050613cc5565b91506127ed8b6127df846127d1878a613c5090919063ffffffff16565b613cec90919063ffffffff16565b613c5090919063ffffffff16565b90506128d8565b6127fc6142e3565b6128136b033b2e3c9fd0803ce8000000601b611936565b90506128438161283e8d612830898f613c5090919063ffffffff16565b613d2590919063ffffffff16565b613c9e565b935061289b61287f6128708d612862898f613c5090919063ffffffff16565b613d2590919063ffffffff16565b8361356990919063ffffffff16565b6002604051806020016040529081600082015481525050613cc5565b92506128d48c6128c6856128b8888b613c5090919063ffffffff16565b613cec90919063ffffffff16565b613c5090919063ffffffff16565b9150505b80955050505050509695505050505050565b600080601b84141561290a576129038560000151613d73565b90506129c4565b601b841115612945576000601b8503905061293d81600a0a61292f8860000151613d73565b611b0590919063ffffffff16565b9150506129c3565b600084601b03905060008461298a57600061297883600a0a61296a8a60000151613d73565b613d9190919063ffffffff16565b9050600081111561298857600191505b505b6129be816129b084600a0a6129a28b60000151613d73565b611abb90919063ffffffff16565b61302690919063ffffffff16565b925050505b5b809150509392505050565b60008060008060008060008790508073ffffffffffffffffffffffffffffffffffffffff1663af0968fc6040518163ffffffff1660e01b815260040160c06040518083038186803b158015612a2357600080fd5b505afa925050508015612a5457506040513d601f19601f82011682018060405250810190612a519190614a43565b60015b612d5e578073ffffffffffffffffffffffffffffffffffffffff1663aabaecd66040518163ffffffff1660e01b815260040160206040518083038186803b158015612a9e57600080fd5b505afa158015612ab2573d6000803e3d6000fd5b505050506040513d601f19601f82011682018060405250810190612ad691906147f4565b8173ffffffffffffffffffffffffffffffffffffffff16637158da7c6040518163ffffffff1660e01b815260040160206040518083038186803b158015612b1c57600080fd5b505afa158015612b30573d6000803e3d6000fd5b505050506040513d601f19601f82011682018060405250810190612b5491906147f4565b8273ffffffffffffffffffffffffffffffffffffffff166317d69bc86040518163ffffffff1660e01b815260040160206040518083038186803b158015612b9a57600080fd5b505afa158015612bae573d6000803e3d6000fd5b505050506040513d601f19601f82011682018060405250810190612bd291906147f4565b8373ffffffffffffffffffffffffffffffffffffffff1663c52987cf6040518163ffffffff1660e01b815260040160206040518083038186803b158015612c1857600080fd5b505afa158015612c2c573d6000803e3d6000fd5b505050506040513d601f19601f82011682018060405250810190612c509190614cef565b8473ffffffffffffffffffffffffffffffffffffffff1663ade6e2aa6040518163ffffffff1660e01b815260040160206040518083038186803b158015612c9657600080fd5b505afa158015612caa573d6000803e3d6000fd5b505050506040513d601f19601f82011682018060405250810190612cce9190614cef565b8573ffffffffffffffffffffffffffffffffffffffff1663f3c274a66040518163ffffffff1660e01b815260040160206040518083038186803b158015612d1457600080fd5b505afa158015612d28573d6000803e3d6000fd5b505050506040513d601f19601f82011682018060405250810190612d4c9190614bce565b96509650965096509650965050612d78565b8585858585859c509c509c509c509c509c50505050505050505b91939550919395565b612d896142e3565b612d916142e3565b612d9c846008611936565b9050612da66142e3565b612db260016000611936565b9050612dbc6142e3565b612dc8828a8a8a612de3565b9050612dd5838287613091565b935050505095945050505050565b612deb6142e3565b8273ffffffffffffffffffffffffffffffffffffffff168473ffffffffffffffffffffffffffffffffffffffff161415612e2757849050613016565b600080600760009054906101000a900473ffffffffffffffffffffffffffffffffffffffff1673ffffffffffffffffffffffffffffffffffffffff166301957f8187866040518363ffffffff1660e01b8152600401612e87929190615d65565b604080518083038186803b158015612e9e57600080fd5b505afa158015612eb2573d6000803e3d6000fd5b505050506040513d601f19601f82011682018060405250810190612ed69190614d18565b91509150600080600760009054906101000a900473ffffffffffffffffffffffffffffffffffffffff1673ffffffffffffffffffffffffffffffffffffffff166301957f8188886040518363ffffffff1660e01b8152600401612f3a929190615d65565b604080518083038186803b158015612f5157600080fd5b505afa158015612f65573d6000803e3d6000fd5b505050506040513d601f19601f82011682018060405250810190612f899190614d18565b91509150828015612f975750805b612fd6576040517f08c379a0000000000000000000000000000000000000000000000000000000008152600401612fcd9061606d565b60405180910390fd5b61300f612fe4836008611936565b613001612ff2876008611936565b8c613c5090919063ffffffff16565b613d2590919063ffffffff16565b9450505050505b949350505050565b600033905090565b600080828401905083811015613071576040517f08c379a000000000000000000000000000000000000000000000000000000000815260040161306890615f6d565b60405180910390fd5b8091505092915050565b6000816000015183600001511315905092915050565b6130996142e3565b81156130ed576130b283856136ce90919063ffffffff16565b6130d25760026040518060200160405290816000820154815250506130e6565b6130e5838561356990919063ffffffff16565b5b9050613137565b61310084846136ce90919063ffffffff16565b613120576002604051806020016040529081600082015481525050613134565b613133848461356990919063ffffffff16565b5b90505b9392505050565b60006131486142e3565b6131506142e3565b613163898b613d2590919063ffffffff16565b9050600061317a8742611a7190919063ffffffff16565b9050610e10811061318d578192506132ee565b6131956142e3565b61319d6142e3565b6131aa600154601b611936565b905086156131fd576131f66131da6131cb8c84613c5090919063ffffffff16565b8d61356990919063ffffffff16565b6002604051806020016040529081600082015481525050613cc5565b9150613256565b6132538a61324561322961321a8e86613c5090919063ffffffff16565b8f61356990919063ffffffff16565b6002604051806020016040529081600082015481525050613cc5565b613d2590919063ffffffff16565b91505b5061325f6142e3565b61326a836012611936565b90506132746142e3565b613281610e106012611936565b90506132cc6132bd826132af856132a1888b61356990919063ffffffff16565b613c5090919063ffffffff16565b613d2590919063ffffffff16565b84613cec90919063ffffffff16565b95506132e185876136ce90919063ffffffff16565b156132ea578495505b5050505b613304866001856128ea9092919063ffffffff16565b9350505050979650505050505050565b6001826000015151111561335d576040517f08c379a0000000000000000000000000000000000000000000000000000000008152600401613354906161ed565b60405180910390fd5b600182602001515111156133a6576040517f08c379a000000000000000000000000000000000000000000000000000000000815260040161339d90615fad565b60405180910390fd5b600182604001515111156133ef576040517f08c379a00000000000000000000000000000000000000000000000000000000081526004016133e69061618d565b60405180910390fd5b8160600151518260000151511461343b576040517f08c379a000000000000000000000000000000000000000000000000000000000815260040161343290615fed565b60405180910390fd5b81608001515182602001515114613487576040517f08c379a000000000000000000000000000000000000000000000000000000000815260040161347e9061624d565b60405180910390fd5b8160a0015151826040015151146134d3576040517f08c379a00000000000000000000000000000000000000000000000000000000081526004016134ca9061626d565b60405180910390fd5b6134dd8282613ddb565b61351c576040517f08c379a00000000000000000000000000000000000000000000000000000000081526004016135139061608d565b60405180910390fd5b6135268282613fa8565b613565576040517f08c379a000000000000000000000000000000000000000000000000000000000815260040161355c9061612d565b60405180910390fd5b5050565b6135716142e3565b60405180602001604052806135978460000151866000015161408490919063ffffffff16565b815250905092915050565b6000816000015183600001511215905092915050565b6000838311158290613600576040517f08c379a00000000000000000000000000000000000000000000000000000000081526004016135f79190615e2b565b60405180910390fd5b5060008385039050809150509392505050565b6000808311829061365a576040517f08c379a00000000000000000000000000000000000000000000000000000000081526004016136519190615e2b565b60405180910390fd5b50600083858161366657fe5b049050809150509392505050565b60008082511180156136c75750600073ffffffffffffffffffffffffffffffffffffffff16826000815181106136a657fe5b602002602001015173ffffffffffffffffffffffffffffffffffffffff1614155b9050919050565b60008160000151836000015113905092915050565b6136eb6142e3565b61374a61372e61370d6136fe8888613c9e565b85613c5090919063ffffffff16565b6137208689613c5090919063ffffffff16565b61356990919063ffffffff16565b6002604051806020016040529081600082015481525050613cc5565b9050949350505050565b61375c6142e3565b8173ffffffffffffffffffffffffffffffffffffffff168373ffffffffffffffffffffffffffffffffffffffff16141561379857839050613934565b6000600760009054906101000a900473ffffffffffffffffffffffffffffffffffffffff1673ffffffffffffffffffffffffffffffffffffffff166341976e09856040518263ffffffff1660e01b81526004016137f59190615d05565b60206040518083038186803b15801561380d57600080fd5b505afa158015613821573d6000803e3d6000fd5b505050506040513d601f19601f820116820180604052508101906138459190614cef565b90506000600760009054906101000a900473ffffffffffffffffffffffffffffffffffffffff1673ffffffffffffffffffffffffffffffffffffffff166341976e09856040518263ffffffff1660e01b81526004016138a49190615d05565b60206040518083038186803b1580156138bc57600080fd5b505afa1580156138d0573d6000803e3d6000fd5b505050506040513d601f19601f820116820180604052508101906138f49190614cef565b905061392f613904826008611936565b613921613912856008611936565b89613c5090919063ffffffff16565b613d2590919063ffffffff16565b925050505b9392505050565b6139436142e3565b61396c6002604051806020016040529081600082015481525050836140fc90919063ffffffff16565b156139aa576139a3613987858761356990919063ffffffff16565b6002604051806020016040529081600082015481525050613cc5565b9050613a36565b6139b26142e3565b6139e9836139db886139cd888861356990919063ffffffff16565b613c5090919063ffffffff16565b613d2590919063ffffffff16565b90506139f36142e3565b613a25613a09878961356990919063ffffffff16565b6002604051806020016040529081600082015481525050613cc5565b9050613a318282613cc5565b925050505b949350505050565b613a466142e3565b613a7d613a5c8584613c5090919063ffffffff16565b613a6f8786613c5090919063ffffffff16565b61356990919063ffffffff16565b9050949350505050565b613a8f6142e3565b606060046000858152602001908152602001600020805480602002602001604051908101604052809291908181526020018280548015613aee57602002820191906000526020600020905b815481526020019060010190808311613ada575b50505050509050600081511415613b3a576040517f08c379a0000000000000000000000000000000000000000000000000000000008152600401613b3190615e4d565b60405180910390fd5b6000613b4f4285611a7190919063ffffffff16565b90508082613b6860018551611a7190919063ffffffff16565b81518110613b7257fe5b60200260200101511015613bbb576040517f08c379a0000000000000000000000000000000000000000000000000000000008152600401613bb29061628d565b60405180910390fd5b60008090505b82518160ff161015613c465781838260ff1681518110613bdd57fe5b602002602001015110613c3957613c2f600560008881526020019081526020016000206000858460ff1681518110613c1157fe5b6020026020010151815260200190815260200160002054601b611936565b9350505050613c4a565b8080600101915050613bc1565b5050505b92915050565b613c586142e3565b60405180602001604052806b033b2e3c9fd0803ce8000000613c8b8560000151876000015161411190919063ffffffff16565b81613c9257fe5b05815250905092915050565b613ca66142e3565b8160000151836000015112613cbb5781613cbd565b825b905092915050565b613ccd6142e3565b8160000151836000015113613ce25781613ce4565b825b905092915050565b613cf46142e3565b6040518060200160405280613d1a8460000151866000015161420f90919063ffffffff16565b815250905092915050565b613d2d6142e3565b60405180602001604052808360000151613d606b033b2e3c9fd0803ce8000000876000015161411190919063ffffffff16565b81613d6757fe5b05815250905092915050565b600080821215613d8857816000039050613d8c565b8190505b919050565b6000613dd383836040518060400160405280601881526020017f536166654d6174683a206d6f64756c6f206279207a65726f0000000000000000815250614287565b905092915050565b60006001826101a001511415613e325781610200015115613e31576040517f08c379a0000000000000000000000000000000000000000000000000000000008152600401613e289061604d565b60405180910390fd5b5b8161020001511580613e475750816102200151155b15613e555760019050613fa2565b8260000151600081518110613e6657fe5b602002602001015173ffffffffffffffffffffffffffffffffffffffff168360200151600081518110613e9557fe5b602002602001015173ffffffffffffffffffffffffffffffffffffffff1614158015613ef45750816000015173ffffffffffffffffffffffffffffffffffffffff16826060015173ffffffffffffffffffffffffffffffffffffffff16145b8015613f335750816020015173ffffffffffffffffffffffffffffffffffffffff16826080015173ffffffffffffffffffffffffffffffffffffffff16145b8015613f725750816040015173ffffffffffffffffffffffffffffffffffffffff168260a0015173ffffffffffffffffffffffffffffffffffffffff16145b8015613f8657508160e00151826101400151145b8015613f9f5750816101c001511515826101e001511515145b90505b92915050565b60008060019050826102400151613fc2578091505061407e565b8261022001511561401f578360400151600081518110613fde57fe5b602002602001015173ffffffffffffffffffffffffffffffffffffffff16836040015173ffffffffffffffffffffffffffffffffffffffff16149050614079565b8261020001511561407857836040015160008151811061403b57fe5b602002602001015173ffffffffffffffffffffffffffffffffffffffff168360a0015173ffffffffffffffffffffffffffffffffffffffff161490505b5b809150505b92915050565b60008082840390506000831215801561409d5750838113155b806140b357506000831280156140b257508381135b5b6140f2576040517f08c379a00000000000000000000000000000000000000000000000000000000081526004016140e99061620d565b60405180910390fd5b8091505092915050565b60008160000151836000015114905092915050565b6000808314156141245760009050614209565b7fffffffffffffffffffffffffffffffffffffffffffffffffffffffffffffffff8314801561417257507f800000000000000000000000000000000000000000000000000000000000000082145b156141b2576040517f08c379a00000000000000000000000000000000000000000000000000000000081526004016141a99061610d565b60405180910390fd5b60008284029050828482816141c357fe5b0514614204576040517f08c379a00000000000000000000000000000000000000000000000000000000081526004016141fb9061610d565b60405180910390fd5b809150505b92915050565b6000808284019050600083121580156142285750838112155b8061423e575060008312801561423d57508381125b5b61427d576040517f08c379a000000000000000000000000000000000000000000000000000000000815260040161427490615fcd565b60405180910390fd5b8091505092915050565b60008083141582906142cf576040517f08c379a00000000000000000000000000000000000000000000000000000000081526004016142c69190615e2b565b60405180910390fd5b508284816142d957fe5b0690509392505050565b6040518060200160405280600081525090565b604051806102600160405280600073ffffffffffffffffffffffffffffffffffffffff168152602001600073ffffffffffffffffffffffffffffffffffffffff168152602001600073ffffffffffffffffffffffffffffffffffffffff168152602001600073ffffffffffffffffffffffffffffffffffffffff168152602001600073ffffffffffffffffffffffffffffffffffffffff168152602001600073ffffffffffffffffffffffffffffffffffffffff16815260200160008152602001600081526020016000815260200160008152602001600081526020016000815260200160008152602001600081526020016000151581526020016000151581526020016000151581526020016000151581526020016000151581525090565b60405180606001604052806144296142e3565b81526020016144366142e3565b81526020016144436142e3565b81525090565b6040518060a00160405280600073ffffffffffffffffffffffffffffffffffffffff168152602001600073ffffffffffffffffffffffffffffffffffffffff168152602001600073ffffffffffffffffffffffffffffffffffffffff168152602001600081526020016000151581525090565b6000813590506144cb81616529565b92915050565b6000815190506144e081616529565b92915050565b600082601f8301126144f757600080fd5b813561450a614505826163a7565b61637a565b9150818183526020840193506020810190508385602084028201111561452f57600080fd5b60005b8381101561455f578161454588826144bc565b845260208401935060208301925050600181019050614532565b5050505092915050565b60008083601f84011261457b57600080fd5b8235905067ffffffffffffffff81111561459457600080fd5b6020830191508360208202830111156145ac57600080fd5b9250929050565b600082601f8301126145c457600080fd5b81356145d76145d2826163cf565b61637a565b915081818352602084019350602081019050838560208402820111156145fc57600080fd5b60005b8381101561462c5781614612888261478c565b8452602084019350602083019250506001810190506145ff565b5050505092915050565b60008135905061464581616540565b92915050565b60008151905061465a81616540565b92915050565b600060c0828403121561467257600080fd5b61467c60c061637a565b9050600082013567ffffffffffffffff81111561469857600080fd5b6146a4848285016144e6565b600083015250602082013567ffffffffffffffff8111156146c457600080fd5b6146d0848285016144e6565b602083015250604082013567ffffffffffffffff8111156146f057600080fd5b6146fc848285016144e6565b604083015250606082013567ffffffffffffffff81111561471c57600080fd5b614728848285016145b3565b606083015250608082013567ffffffffffffffff81111561474857600080fd5b614754848285016145b3565b60808301525060a082013567ffffffffffffffff81111561477457600080fd5b614780848285016145b3565b60a08301525092915050565b60008135905061479b81616557565b92915050565b6000815190506147b081616557565b92915050565b6000815190506147c58161656e565b92915050565b6000602082840312156147dd57600080fd5b60006147eb848285016144bc565b91505092915050565b60006020828403121561480657600080fd5b6000614814848285016144d1565b91505092915050565b6000806000806080858703121561483357600080fd5b6000614841878288016144bc565b9450506020614852878288016144bc565b9350506040614863878288016144bc565b925050606061487487828801614636565b91505092959194509250565b60008060008060008060008060c0898b03121561489c57600080fd5b60006148aa8b828c016144bc565b98505060206148bb8b828c016144bc565b97505060406148cc8b828c016144bc565b96505060606148dd8b828c01614636565b955050608089013567ffffffffffffffff8111156148fa57600080fd5b6149068b828c01614569565b945094505060a089013567ffffffffffffffff81111561492557600080fd5b6149318b828c01614569565b92509250509295985092959890939650565b600080600080600060a0868803121561495b57600080fd5b6000614969888289016144bc565b955050602061497a888289016144bc565b945050604061498b888289016144bc565b935050606061499c88828901614636565b92505060806149ad8882890161478c565b9150509295509295909350565b60008060008060008060c087890312156149d357600080fd5b60006149e189828a016144bc565b96505060206149f289828a016144bc565b9550506040614a0389828a016144bc565b9450506060614a1489828a01614636565b9350506080614a2589828a0161478c565b92505060a0614a3689828a0161478c565b9150509295509295509295565b60008060008060008060c08789031215614a5c57600080fd5b6000614a6a89828a016144d1565b9650506020614a7b89828a016144d1565b9550506040614a8c89828a016144d1565b9450506060614a9d89828a016147a1565b9350506080614aae89828a016147a1565b92505060a0614abf89828a0161464b565b9150509295509295509295565b60008060008060008060008060006101208a8c031215614aeb57600080fd5b6000614af98c828d016144bc565b9950506020614b0a8c828d016144bc565b9850506040614b1b8c828d016144bc565b9750506060614b2c8c828d0161478c565b9650506080614b3d8c828d0161478c565b95505060a0614b4e8c828d0161478c565b94505060c0614b5f8c828d0161478c565b93505060e0614b708c828d0161478c565b925050610100614b828c828d01614636565b9150509295985092959850929598565b60008060408385031215614ba557600080fd5b6000614bb3858286016144bc565b9250506020614bc48582860161478c565b9150509250929050565b600060208284031215614be057600080fd5b6000614bee8482850161464b565b91505092915050565b60008060408385031215614c0a57600080fd5b600083013567ffffffffffffffff811115614c2457600080fd5b614c3085828601614660565b9250506020614c418582860161478c565b9150509250929050565b60008060008060808587031215614c6157600080fd5b600085013567ffffffffffffffff811115614c7b57600080fd5b614c8787828801614660565b9450506020614c988782880161478c565b9350506040614ca98782880161478c565b9250506060614cba8782880161478c565b91505092959194509250565b600060208284031215614cd857600080fd5b6000614ce68482850161478c565b91505092915050565b600060208284031215614d0157600080fd5b6000614d0f848285016147a1565b91505092915050565b60008060408385031215614d2b57600080fd5b6000614d39858286016147a1565b9250506020614d4a8582860161464b565b9150509250929050565b60008060408385031215614d6757600080fd5b6000614d75858286016147a1565b9250506020614d86858286016147a1565b9150509250929050565b600060208284031215614da257600080fd5b6000614db0848285016147b6565b91505092915050565b6000614dc58383615cd8565b60208301905092915050565b614dda8161644c565b82525050565b6000614deb82616407565b614df5818561642a565b9350614e00836163f7565b8060005b83811015614e31578151614e188882614db9565b9750614e238361641d565b925050600181019050614e04565b5085935050505092915050565b614e478161645e565b82525050565b614e56816164c1565b82525050565b614e658161646a565b82525050565b6000614e7682616412565b614e80818561643b565b9350614e908185602086016164e5565b614e9981616518565b840191505092915050565b6000614eb1602f8361643b565b91507f4d617267696e43616c63756c61746f723a2070726f647563742068617665206e60008301527f6f206578706972792076616c75657300000000000000000000000000000000006020830152604082019050919050565b6000614f1760468361643b565b91507f4d617267696e43616c63756c61746f723a2061756374696f6e2074696d65737460008301527f616d702073686f756c6420626520706f7374207661756c74206c61746573742060208301527f75706461746500000000000000000000000000000000000000000000000000006040830152606082019050919050565b6000614fa360278361643b565b91507f4d617267696e43616c63756c61746f723a20496e76616c696420746f6b656e2060008301527f61646472657373000000000000000000000000000000000000000000000000006020830152604082019050919050565b600061500960288361643b565b91507f4d617267696e43616c63756c61746f723a204f746f6b656e206e6f742065787060008301527f69726564207965740000000000000000000000000000000000000000000000006020830152604082019050919050565b600061506f60338361643b565b91507f4d617267696e43616c63756c61746f723a206e6f20657870697279207570706560008301527f7220626f756e642076616c756520666f756e64000000000000000000000000006020830152604082019050919050565b60006150d5602f8361643b565b91507f4d617267696e43616c63756c61746f723a20696e76616c69642074696d65732060008301527f746f2065787069727920617272617900000000000000000000000000000000006020830152604082019050919050565b600061513b60268361643b565b91507f4f776e61626c653a206e6577206f776e657220697320746865207a65726f206160008301527f64647265737300000000000000000000000000000000000000000000000000006020830152604082019050919050565b60006151a160398361643b565b91507f4d617267696e43616c63756c61746f723a206475737420616d6f756e7420736860008301527f6f756c642062652067726561746572207468616e207a65726f000000000000006020830152604082019050919050565b600061520760228361643b565b91507f4669786564506f696e74496e743235363a206f7574206f6620696e742072616e60008301527f67650000000000000000000000000000000000000000000000000000000000006020830152604082019050919050565b600061526d601b8361643b565b91507f536166654d6174683a206164646974696f6e206f766572666c6f7700000000006000830152602082019050919050565b60006152ad60268361643b565b91507f4d617267696e43616c63756c61746f723a20696e76616c69642076616c75657360008301527f20617272617900000000000000000000000000000000000000000000000000006020830152604082019050919050565b600061531360348361643b565b91507f4d617267696e43616c63756c61746f723a20546f6f206d616e79206c6f6e672060008301527f6f746f6b656e7320696e20746865207661756c740000000000000000000000006020830152604082019050919050565b600061537960218361643b565b91507f5369676e6564536166654d6174683a206164646974696f6e206f766572666c6f60008301527f77000000000000000000000000000000000000000000000000000000000000006020830152604082019050919050565b60006153df60318361643b565b91507f4d617267696e43616c63756c61746f723a2053686f727420617373657420616e60008301527f6420616d6f756e74206d69736d617463680000000000000000000000000000006020830152604082019050919050565b6000615445605b8361643b565b91507f4d617267696e43616c63756c61746f723a206e616b6564206d617267696e207660008301527f61756c742073686f756c64206861766520636f6c6c61746572616c20616d6f7560208301527f6e742067726561746572207468616e206475737420616d6f756e7400000000006040830152606082019050919050565b60006154d160328361643b565b91507f4d617267696e43616c63756c61746f723a20696e76616c6964206f7074696f6e60008301527f20757070657220626f756e642076616c756500000000000000000000000000006020830152604082019050919050565b6000615537603c8361643b565b91507f4d617267696e43616c63756c61746f723a206e616b6564206d617267696e207660008301527f61756c742063616e6e6f742068617665206c6f6e67206f746f6b656e000000006020830152604082019050919050565b600061559d60338361643b565b91507f4d617267696e43616c63756c61746f723a20707269636520617420657870697260008301527f79206e6f742066696e616c697a656420796574000000000000000000000000006020830152604082019050919050565b6000615603603b8361643b565b91507f4d617267696e43616c63756c61746f723a206c6f6e67206173736574206e6f7460008301527f206d617267696e61626c6520666f722073686f727420617373657400000000006020830152604082019050919050565b600061566960348361643b565b91507f4d617267696e43616c63756c61746f723a2063616e206e6f74206c697175696460008301527f617465206578706972656420706f736974696f6e0000000000000000000000006020830152604082019050919050565b60006156cf60218361643b565b91507f536166654d6174683a206d756c7469706c69636174696f6e206f766572666c6f60008301527f77000000000000000000000000000000000000000000000000000000000000006020830152604082019050919050565b600061573560208361643b565b91507f4f776e61626c653a2063616c6c6572206973206e6f7420746865206f776e65726000830152602082019050919050565b600061577560278361643b565b91507f5369676e6564536166654d6174683a206d756c7469706c69636174696f6e206f60008301527f766572666c6f77000000000000000000000000000000000000000000000000006020830152604082019050919050565b60006157db60418361643b565b91507f4d617267696e43616c63756c61746f723a20636f6c6c61746572616c2061737360008301527f6574206e6f74206d617267696e61626c6520666f722073686f7274206173736560208301527f74000000000000000000000000000000000000000000000000000000000000006040830152606082019050919050565b600061586760298361643b565b91507f4d617267696e43616c63756c61746f723a2074696d652073686f756c6420626560008301527f20696e206f7264657200000000000000000000000000000000000000000000006020830152604082019050919050565b60006158cd60318361643b565b91507f4d617267696e43616c63756c61746f723a20696e76616c6964207661756c742060008301527f7479706520746f206c69717569646174650000000000000000000000000000006020830152604082019050919050565b600061593360398361643b565b91507f4d617267696e43616c63756c61746f723a20546f6f206d616e7920636f6c6c6160008301527f746572616c2061737365747320696e20746865207661756c74000000000000006020830152604082019050919050565b6000615999602d8361643b565b91507f4d617267696e43616c63756c61746f723a20757070657220626f756e6420766160008301527f6c7565206e6f7420666f756e64000000000000000000000000000000000000006020830152604082019050919050565b60006159ff602e8361643b565b91507f4d617267696e43616c63756c61746f723a20657870697279206172726179206960008301527f73206e6f7420696e206f726465720000000000000000000000000000000000006020830152604082019050919050565b6000615a6560358361643b565b91507f4d617267696e43616c63756c61746f723a20546f6f206d616e792073686f727460008301527f206f746f6b656e7320696e20746865207661756c7400000000000000000000006020830152604082019050919050565b6000615acb60248361643b565b91507f5369676e6564536166654d6174683a207375627472616374696f6e206f76657260008301527f666c6f77000000000000000000000000000000000000000000000000000000006020830152604082019050919050565b6000615b31602a8361643b565b91507f4d617267696e43616c63756c61746f723a20696e76616c69642073706f74207360008301527f686f636b2076616c7565000000000000000000000000000000000000000000006020830152604082019050919050565b6000615b9760308361643b565b91507f4d617267696e43616c63756c61746f723a204c6f6e6720617373657420616e6460008301527f20616d6f756e74206d69736d61746368000000000000000000000000000000006020830152604082019050919050565b6000615bfd60368361643b565b91507f4d617267696e43616c63756c61746f723a20436f6c6c61746572616c2061737360008301527f657420616e6420616d6f756e74206d69736d61746368000000000000000000006020830152604082019050919050565b6000615c6360338361643b565b91507f4d617267696e43616c63756c61746f723a2070726f647563742068617665206e60008301527f6f20757070657220626f756e642076616c7565000000000000000000000000006020830152604082019050919050565b602082016000820151615cd26000850182614e5c565b50505050565b615ce181616494565b82525050565b615cf081616494565b82525050565b615cff816164ab565b82525050565b6000602082019050615d1a6000830184614dd1565b92915050565b6000608082019050615d356000830187614dd1565b615d426020830186614dd1565b615d4f6040830185614dd1565b615d5c6060830184614e3e565b95945050505050565b6000604082019050615d7a6000830185614dd1565b615d876020830184615ce7565b9392505050565b6000604082019050615da36000830185614dd1565b615db06020830184615cf6565b9392505050565b60006020820190508181036000830152615dd18184614de0565b905092915050565b6000606082019050615dee6000830186614e3e565b615dfb6020830185615ce7565b615e086040830184615ce7565b949350505050565b6000602082019050615e256000830184614e4d565b92915050565b60006020820190508181036000830152615e458184614e6b565b905092915050565b60006020820190508181036000830152615e6681614ea4565b9050919050565b60006020820190508181036000830152615e8681614f0a565b9050919050565b60006020820190508181036000830152615ea681614f96565b9050919050565b60006020820190508181036000830152615ec681614ffc565b9050919050565b60006020820190508181036000830152615ee681615062565b9050919050565b60006020820190508181036000830152615f06816150c8565b9050919050565b60006020820190508181036000830152615f268161512e565b9050919050565b60006020820190508181036000830152615f4681615194565b9050919050565b60006020820190508181036000830152615f66816151fa565b9050919050565b60006020820190508181036000830152615f8681615260565b9050919050565b60006020820190508181036000830152615fa6816152a0565b9050919050565b60006020820190508181036000830152615fc681615306565b9050919050565b60006020820190508181036000830152615fe68161536c565b9050919050565b60006020820190508181036000830152616006816153d2565b9050919050565b6000602082019050818103600083015261602681615438565b9050919050565b60006020820190508181036000830152616046816154c4565b9050919050565b600060208201905081810360008301526160668161552a565b9050919050565b6000602082019050818103600083015261608681615590565b9050919050565b600060208201905081810360008301526160a6816155f6565b9050919050565b600060208201905081810360008301526160c68161565c565b9050919050565b600060208201905081810360008301526160e6816156c2565b9050919050565b6000602082019050818103600083015261610681615728565b9050919050565b6000602082019050818103600083015261612681615768565b9050919050565b60006020820190508181036000830152616146816157ce565b9050919050565b600060208201905081810360008301526161668161585a565b9050919050565b60006020820190508181036000830152616186816158c0565b9050919050565b600060208201905081810360008301526161a681615926565b9050919050565b600060208201905081810360008301526161c68161598c565b9050919050565b600060208201905081810360008301526161e6816159f2565b9050919050565b6000602082019050818103600083015261620681615a58565b9050919050565b6000602082019050818103600083015261622681615abe565b9050919050565b6000602082019050818103600083015261624681615b24565b9050919050565b6000602082019050818103600083015261626681615b8a565b9050919050565b6000602082019050818103600083015261628681615bf0565b9050919050565b600060208201905081810360008301526162a681615c56565b9050919050565b60006040820190506162c26000830185615cbc565b6162cf6020830184615cbc565b9392505050565b60006020820190506162eb6000830184615ce7565b92915050565b60006040820190506163066000830185615ce7565b6163136020830184614e3e565b9392505050565b600060408201905061632f6000830185615ce7565b61633c6020830184615ce7565b9392505050565b60006060820190506163586000830186615ce7565b6163656020830185615ce7565b6163726040830184615ce7565b949350505050565b6000604051905081810181811067ffffffffffffffff8211171561639d57600080fd5b8060405250919050565b600067ffffffffffffffff8211156163be57600080fd5b602082029050602081019050919050565b600067ffffffffffffffff8211156163e657600080fd5b602082029050602081019050919050565b6000819050602082019050919050565b600081519050919050565b600081519050919050565b6000602082019050919050565b600082825260208201905092915050565b600082825260208201905092915050565b600061645782616474565b9050919050565b60008115159050919050565b6000819050919050565b600073ffffffffffffffffffffffffffffffffffffffff82169050919050565b6000819050919050565b600060ff82169050919050565b600069ffffffffffffffffffff82169050919050565b60006164cc826164d3565b9050919050565b60006164de82616474565b9050919050565b60005b838110156165035780820151818401526020810190506164e8565b83811115616512576000848401525b50505050565b6000601f19601f8301169050919050565b6165328161644c565b811461653d57600080fd5b50565b6165498161645e565b811461655457600080fd5b50565b61656081616494565b811461656b57600080fd5b50565b6165778161649e565b811461658257600080fd5b5056fea26469706673582212201aa5bffff0655051174a2e532e93bae293aab28fd9d35b08ba3b31df74a45c4a64736f6c634300060a0033",
  "linkReferences": {},
  "deployedLinkReferences": {}
}