{
  "_format": "hh-sol-artifact-1",
  "contractName": "Mock0xERC20Proxy",
  "sourceName": "contracts/Gamma/mocks/Mock0xERC20Proxy.sol",
  "abi": [
    {
      "inputs": [
        {
          "internalType": "address",
          "name": "token",
          "type": "address"
        },
        {
          "internalType": "address",
          "name": "from",
          "type": "address"
        },
        {
          "internalType": "address",
          "name": "to",
          "type": "address"
        },
        {
          "internalType": "uint256",
          "name": "amount",
          "type": "uint256"
        }
      ],
      "name": "transferToken",
      "outputs": [],
      "stateMutability": "nonpayable",
      "type": "function"
    }
  ],
  "bytecode": "0x608060405234801561001057600080fd5b506106ff806100206000396000f3fe608060405234801561001057600080fd5b506004361061002b5760003560e01c80632c54de4f14610030575b600080fd5b61004a6004803603810190610045919061035c565b61004c565b005b6100798383838773ffffffffffffffffffffffffffffffffffffffff1661007f909392919063ffffffff16565b50505050565b610102846323b872dd60e01b8585856040516024016100a09392919061052d565b604051602081830303815290604052907bffffffffffffffffffffffffffffffffffffffffffffffffffffffff19166020820180517bffffffffffffffffffffffffffffffffffffffffffffffffffffffff8381831617835250505050610108565b50505050565b606061016a826040518060400160405280602081526020017f5361666545524332303a206c6f772d6c6576656c2063616c6c206661696c65648152508573ffffffffffffffffffffffffffffffffffffffff166101cf9092919063ffffffff16565b90506000815111156101ca578080602001905181019061018a91906103bf565b6101c9576040517f08c379a00000000000000000000000000000000000000000000000000000000081526004016101c0906105a6565b60405180910390fd5b5b505050565b60606101de84846000856101e7565b90509392505050565b60606101f28561030a565b610231576040517f08c379a000000000000000000000000000000000000000000000000000000000815260040161022890610586565b60405180910390fd5b600060608673ffffffffffffffffffffffffffffffffffffffff16858760405161025b9190610516565b60006040518083038185875af1925050503d8060008114610298576040519150601f19603f3d011682016040523d82523d6000602084013e61029d565b606091505b509150915081156102b2578092505050610302565b6000815111156102c55780518082602001fd5b836040517f08c379a00000000000000000000000000000000000000000000000000000000081526004016102f99190610564565b60405180910390fd5b949350505050565b600080823b905060008111915050919050565b60008135905061032c81610684565b92915050565b6000815190506103418161069b565b92915050565b600081359050610356816106b2565b92915050565b6000806000806080858703121561037257600080fd5b60006103808782880161031d565b94505060206103918782880161031d565b93505060406103a28782880161031d565b92505060606103b387828801610347565b91505092959194509250565b6000602082840312156103d157600080fd5b60006103df84828501610332565b91505092915050565b6103f1816105f8565b82525050565b6000610402826105c6565b61040c81856105dc565b935061041c818560208601610640565b80840191505092915050565b6000610433826105d1565b61043d81856105e7565b935061044d818560208601610640565b61045681610673565b840191505092915050565b600061046e601d836105e7565b91507f416464726573733a2063616c6c20746f206e6f6e2d636f6e74726163740000006000830152602082019050919050565b60006104ae602a836105e7565b91507f5361666545524332303a204552433230206f7065726174696f6e20646964206e60008301527f6f742073756363656564000000000000000000000000000000000000000000006020830152604082019050919050565b61051081610636565b82525050565b600061052282846103f7565b915081905092915050565b600060608201905061054260008301866103e8565b61054f60208301856103e8565b61055c6040830184610507565b949350505050565b6000602082019050818103600083015261057e8184610428565b905092915050565b6000602082019050818103600083015261059f81610461565b9050919050565b600060208201905081810360008301526105bf816104a1565b9050919050565b600081519050919050565b600081519050919050565b600081905092915050565b600082825260208201905092915050565b600061060382610616565b9050919050565b60008115159050919050565b600073ffffffffffffffffffffffffffffffffffffffff82169050919050565b6000819050919050565b60005b8381101561065e578082015181840152602081019050610643565b8381111561066d576000848401525b50505050565b6000601f19601f8301169050919050565b61068d816105f8565b811461069857600080fd5b50565b6106a48161060a565b81146106af57600080fd5b50565b6106bb81610636565b81146106c657600080fd5b5056fea2646970667358221220b2e4ab76d6d8a1b0a539fee4c5b652ebb21fc9a391b059457372b02f2b15842d64736f6c634300060a0033",
  "linkReferences": {},
  "deployedLinkReferences": {}
}