{
  "_format": "hh-sol-artifact-1",
  "contractName": "Otoken",
  "sourceName": "contracts/Gamma/core/Otoken.sol",
  "abi": [
    {
      "anonymous": false,
      "inputs": [
        {
          "indexed": true,
          "internalType": "address",
          "name": "owner",
          "type": "address"
        },
        {
          "indexed": true,
          "internalType": "address",
          "name": "spender",
          "type": "address"
        },
        {
          "indexed": false,
          "internalType": "uint256",
          "name": "value",
          "type": "uint256"
        }
      ],
      "name": "Approval",
      "type": "event"
    },
    {
      "anonymous": false,
      "inputs": [
        {
          "indexed": true,
          "internalType": "address",
          "name": "from",
          "type": "address"
        },
        {
          "indexed": true,
          "internalType": "address",
          "name": "to",
          "type": "address"
        },
        {
          "indexed": false,
          "internalType": "uint256",
          "name": "value",
          "type": "uint256"
        }
      ],
      "name": "Transfer",
      "type": "event"
    },
    {
      "inputs": [],
      "name": "DOMAIN_SEPARATOR",
      "outputs": [
        {
          "internalType": "bytes32",
          "name": "",
          "type": "bytes32"
        }
      ],
      "stateMutability": "view",
      "type": "function"
    },
    {
      "inputs": [
        {
          "internalType": "address",
          "name": "owner",
          "type": "address"
        },
        {
          "internalType": "address",
          "name": "spender",
          "type": "address"
        }
      ],
      "name": "allowance",
      "outputs": [
        {
          "internalType": "uint256",
          "name": "",
          "type": "uint256"
        }
      ],
      "stateMutability": "view",
      "type": "function"
    },
    {
      "inputs": [
        {
          "internalType": "address",
          "name": "spender",
          "type": "address"
        },
        {
          "internalType": "uint256",
          "name": "amount",
          "type": "uint256"
        }
      ],
      "name": "approve",
      "outputs": [
        {
          "internalType": "bool",
          "name": "",
          "type": "bool"
        }
      ],
      "stateMutability": "nonpayable",
      "type": "function"
    },
    {
      "inputs": [
        {
          "internalType": "address",
          "name": "account",
          "type": "address"
        }
      ],
      "name": "balanceOf",
      "outputs": [
        {
          "internalType": "uint256",
          "name": "",
          "type": "uint256"
        }
      ],
      "stateMutability": "view",
      "type": "function"
    },
    {
      "inputs": [
        {
          "internalType": "address",
          "name": "account",
          "type": "address"
        },
        {
          "internalType": "uint256",
          "name": "amount",
          "type": "uint256"
        }
      ],
      "name": "burnOtoken",
      "outputs": [],
      "stateMutability": "nonpayable",
      "type": "function"
    },
    {
      "inputs": [],
      "name": "collateralAsset",
      "outputs": [
        {
          "internalType": "address",
          "name": "",
          "type": "address"
        }
      ],
      "stateMutability": "view",
      "type": "function"
    },
    {
      "inputs": [],
      "name": "controller",
      "outputs": [
        {
          "internalType": "address",
          "name": "",
          "type": "address"
        }
      ],
      "stateMutability": "view",
      "type": "function"
    },
    {
      "inputs": [],
      "name": "decimals",
      "outputs": [
        {
          "internalType": "uint8",
          "name": "",
          "type": "uint8"
        }
      ],
      "stateMutability": "view",
      "type": "function"
    },
    {
      "inputs": [
        {
          "internalType": "address",
          "name": "spender",
          "type": "address"
        },
        {
          "internalType": "uint256",
          "name": "subtractedValue",
          "type": "uint256"
        }
      ],
      "name": "decreaseAllowance",
      "outputs": [
        {
          "internalType": "bool",
          "name": "",
          "type": "bool"
        }
      ],
      "stateMutability": "nonpayable",
      "type": "function"
    },
    {
      "inputs": [],
      "name": "expiryTimestamp",
      "outputs": [
        {
          "internalType": "uint256",
          "name": "",
          "type": "uint256"
        }
      ],
      "stateMutability": "view",
      "type": "function"
    },
    {
      "inputs": [],
      "name": "getOtokenDetails",
      "outputs": [
        {
          "internalType": "address",
          "name": "",
          "type": "address"
        },
        {
          "internalType": "address",
          "name": "",
          "type": "address"
        },
        {
          "internalType": "address",
          "name": "",
          "type": "address"
        },
        {
          "internalType": "uint256",
          "name": "",
          "type": "uint256"
        },
        {
          "internalType": "uint256",
          "name": "",
          "type": "uint256"
        },
        {
          "internalType": "bool",
          "name": "",
          "type": "bool"
        }
      ],
      "stateMutability": "view",
      "type": "function"
    },
    {
      "inputs": [
        {
          "internalType": "address",
          "name": "spender",
          "type": "address"
        },
        {
          "internalType": "uint256",
          "name": "addedValue",
          "type": "uint256"
        }
      ],
      "name": "increaseAllowance",
      "outputs": [
        {
          "internalType": "bool",
          "name": "",
          "type": "bool"
        }
      ],
      "stateMutability": "nonpayable",
      "type": "function"
    },
    {
      "inputs": [
        {
          "internalType": "address",
          "name": "_addressBook",
          "type": "address"
        },
        {
          "internalType": "address",
          "name": "_underlyingAsset",
          "type": "address"
        },
        {
          "internalType": "address",
          "name": "_strikeAsset",
          "type": "address"
        },
        {
          "internalType": "address",
          "name": "_collateralAsset",
          "type": "address"
        },
        {
          "internalType": "uint256",
          "name": "_strikePrice",
          "type": "uint256"
        },
        {
          "internalType": "uint256",
          "name": "_expiryTimestamp",
          "type": "uint256"
        },
        {
          "internalType": "bool",
          "name": "_isPut",
          "type": "bool"
        }
      ],
      "name": "init",
      "outputs": [],
      "stateMutability": "nonpayable",
      "type": "function"
    },
    {
      "inputs": [],
      "name": "isPut",
      "outputs": [
        {
          "internalType": "bool",
          "name": "",
          "type": "bool"
        }
      ],
      "stateMutability": "view",
      "type": "function"
    },
    {
      "inputs": [
        {
          "internalType": "address",
          "name": "account",
          "type": "address"
        },
        {
          "internalType": "uint256",
          "name": "amount",
          "type": "uint256"
        }
      ],
      "name": "mintOtoken",
      "outputs": [],
      "stateMutability": "nonpayable",
      "type": "function"
    },
    {
      "inputs": [],
      "name": "name",
      "outputs": [
        {
          "internalType": "string",
          "name": "",
          "type": "string"
        }
      ],
      "stateMutability": "view",
      "type": "function"
    },
    {
      "inputs": [
        {
          "internalType": "address",
          "name": "owner",
          "type": "address"
        }
      ],
      "name": "nonces",
      "outputs": [
        {
          "internalType": "uint256",
          "name": "",
          "type": "uint256"
        }
      ],
      "stateMutability": "view",
      "type": "function"
    },
    {
      "inputs": [
        {
          "internalType": "address",
          "name": "owner",
          "type": "address"
        },
        {
          "internalType": "address",
          "name": "spender",
          "type": "address"
        },
        {
          "internalType": "uint256",
          "name": "amount",
          "type": "uint256"
        },
        {
          "internalType": "uint256",
          "name": "deadline",
          "type": "uint256"
        },
        {
          "internalType": "uint8",
          "name": "v",
          "type": "uint8"
        },
        {
          "internalType": "bytes32",
          "name": "r",
          "type": "bytes32"
        },
        {
          "internalType": "bytes32",
          "name": "s",
          "type": "bytes32"
        }
      ],
      "name": "permit",
      "outputs": [],
      "stateMutability": "nonpayable",
      "type": "function"
    },
    {
      "inputs": [],
      "name": "strikeAsset",
      "outputs": [
        {
          "internalType": "address",
          "name": "",
          "type": "address"
        }
      ],
      "stateMutability": "view",
      "type": "function"
    },
    {
      "inputs": [],
      "name": "strikePrice",
      "outputs": [
        {
          "internalType": "uint256",
          "name": "",
          "type": "uint256"
        }
      ],
      "stateMutability": "view",
      "type": "function"
    },
    {
      "inputs": [],
      "name": "symbol",
      "outputs": [
        {
          "internalType": "string",
          "name": "",
          "type": "string"
        }
      ],
      "stateMutability": "view",
      "type": "function"
    },
    {
      "inputs": [],
      "name": "totalSupply",
      "outputs": [
        {
          "internalType": "uint256",
          "name": "",
          "type": "uint256"
        }
      ],
      "stateMutability": "view",
      "type": "function"
    },
    {
      "inputs": [
        {
          "internalType": "address",
          "name": "recipient",
          "type": "address"
        },
        {
          "internalType": "uint256",
          "name": "amount",
          "type": "uint256"
        }
      ],
      "name": "transfer",
      "outputs": [
        {
          "internalType": "bool",
          "name": "",
          "type": "bool"
        }
      ],
      "stateMutability": "nonpayable",
      "type": "function"
    },
    {
      "inputs": [
        {
          "internalType": "address",
          "name": "sender",
          "type": "address"
        },
        {
          "internalType": "address",
          "name": "recipient",
          "type": "address"
        },
        {
          "internalType": "uint256",
          "name": "amount",
          "type": "uint256"
        }
      ],
      "name": "transferFrom",
      "outputs": [
        {
          "internalType": "bool",
          "name": "",
          "type": "bool"
        }
      ],
      "stateMutability": "nonpayable",
      "type": "function"
    },
    {
      "inputs": [],
      "name": "underlyingAsset",
      "outputs": [
        {
          "internalType": "address",
          "name": "",
          "type": "address"
        }
      ],
      "stateMutability": "view",
      "type": "function"
    }
  ],
  "bytecode": "0x608060405234801561001057600080fd5b506148f0806100206000396000f3fe608060405234801561001057600080fd5b50600436106101735760003560e01c80637ecebe00116100de578063af0968fc11610097578063dd62ed3e11610071578063dd62ed3e146108c4578063f3c274a61461093c578063f630df341461095e578063f77c479114610a2257610173565b8063af0968fc14610744578063c52987cf1461080d578063d505accf1461082b57610173565b80637ecebe001461053557806395d89b411461058d578063a457c2d714610610578063a9059cbb14610676578063aabaecd6146106dc578063ade6e2aa1461072657610173565b80633644e515116101305780633644e51514610373578063395093511461039157806351b0a410146103f757806356d878f71461044557806370a08231146104935780637158da7c146104eb57610173565b806306fdde0314610178578063095ea7b3146101fb57806317d69bc81461026157806318160ddd146102ab57806323b872dd146102c9578063313ce5671461034f575b600080fd5b610180610a6c565b6040518080602001828103825283818151815260200191508051906020019080838360005b838110156101c05780820151818401526020810190506101a5565b50505050905090810190601f1680156101ed5780820380516001836020036101000a031916815260200191505b509250505060405180910390f35b6102476004803603604081101561021157600080fd5b81019080803573ffffffffffffffffffffffffffffffffffffffff16906020019092919080359060200190929190505050610b0e565b604051808215151515815260200191505060405180910390f35b610269610b2c565b604051808273ffffffffffffffffffffffffffffffffffffffff1673ffffffffffffffffffffffffffffffffffffffff16815260200191505060405180910390f35b6102b3610b53565b6040518082815260200191505060405180910390f35b610335600480360360608110156102df57600080fd5b81019080803573ffffffffffffffffffffffffffffffffffffffff169060200190929190803573ffffffffffffffffffffffffffffffffffffffff16906020019092919080359060200190929190505050610b5d565b604051808215151515815260200191505060405180910390f35b610357610c36565b604051808260ff1660ff16815260200191505060405180910390f35b61037b610c4d565b6040518082815260200191505060405180910390f35b6103dd600480360360408110156103a757600080fd5b81019080803573ffffffffffffffffffffffffffffffffffffffff16906020019092919080359060200190929190505050610c5c565b604051808215151515815260200191505060405180910390f35b6104436004803603604081101561040d57600080fd5b81019080803573ffffffffffffffffffffffffffffffffffffffff16906020019092919080359060200190929190505050610d0f565b005b6104916004803603604081101561045b57600080fd5b81019080803573ffffffffffffffffffffffffffffffffffffffff16906020019092919080359060200190929190505050610dc3565b005b6104d5600480360360208110156104a957600080fd5b81019080803573ffffffffffffffffffffffffffffffffffffffff169060200190929190505050610e77565b6040518082815260200191505060405180910390f35b6104f3610ec0565b604051808273ffffffffffffffffffffffffffffffffffffffff1673ffffffffffffffffffffffffffffffffffffffff16815260200191505060405180910390f35b6105776004803603602081101561054b57600080fd5b81019080803573ffffffffffffffffffffffffffffffffffffffff169060200190929190505050610ee6565b6040518082815260200191505060405180910390f35b610595610f36565b6040518080602001828103825283818151815260200191508051906020019080838360005b838110156105d55780820151818401526020810190506105ba565b50505050905090810190601f1680156106025780820380516001836020036101000a031916815260200191505b509250505060405180910390f35b61065c6004803603604081101561062657600080fd5b81019080803573ffffffffffffffffffffffffffffffffffffffff16906020019092919080359060200190929190505050610fd8565b604051808215151515815260200191505060405180910390f35b6106c26004803603604081101561068c57600080fd5b81019080803573ffffffffffffffffffffffffffffffffffffffff169060200190929190803590602001909291905050506110a5565b604051808215151515815260200191505060405180910390f35b6106e46110c3565b604051808273ffffffffffffffffffffffffffffffffffffffff1673ffffffffffffffffffffffffffffffffffffffff16815260200191505060405180910390f35b61072e6110ea565b6040518082815260200191505060405180910390f35b61074c6110f1565b604051808773ffffffffffffffffffffffffffffffffffffffff1673ffffffffffffffffffffffffffffffffffffffff1681526020018673ffffffffffffffffffffffffffffffffffffffff1673ffffffffffffffffffffffffffffffffffffffff1681526020018573ffffffffffffffffffffffffffffffffffffffff1673ffffffffffffffffffffffffffffffffffffffff16815260200184815260200183815260200182151515158152602001965050505050505060405180910390f35b610815611192565b6040518082815260200191505060405180910390f35b6108c2600480360360e081101561084157600080fd5b81019080803573ffffffffffffffffffffffffffffffffffffffff169060200190929190803573ffffffffffffffffffffffffffffffffffffffff1690602001909291908035906020019092919080359060200190929190803560ff1690602001909291908035906020019092919080359060200190929190505050611199565b005b610926600480360360408110156108da57600080fd5b81019080803573ffffffffffffffffffffffffffffffffffffffff169060200190929190803573ffffffffffffffffffffffffffffffffffffffff16906020019092919050505061141e565b6040518082815260200191505060405180910390f35b6109446114a5565b604051808215151515815260200191505060405180910390f35b610a20600480360360e081101561097457600080fd5b81019080803573ffffffffffffffffffffffffffffffffffffffff169060200190929190803573ffffffffffffffffffffffffffffffffffffffff169060200190929190803573ffffffffffffffffffffffffffffffffffffffff169060200190929190803573ffffffffffffffffffffffffffffffffffffffff16906020019092919080359060200190929190803590602001909291908035151590602001909291905050506114b9565b005b610a2a61179e565b604051808273ffffffffffffffffffffffffffffffffffffffff1673ffffffffffffffffffffffffffffffffffffffff16815260200191505060405180910390f35b606060688054600181600116156101000203166002900480601f016020809104026020016040519081016040528092919081815260200182805460018160011615610100020316600290048015610b045780601f10610ad957610100808354040283529160200191610b04565b820191906000526020600020905b815481529060010190602001808311610ae757829003601f168201915b5050505050905090565b6000610b22610b1b6117c4565b84846117cc565b6001905092915050565b61010060009054906101000a900473ffffffffffffffffffffffffffffffffffffffff1681565b6000606754905090565b6000610b6a8484846119c3565b610c2b84610b766117c4565b610c26856040518060600160405280602881526020016147d660289139606660008b73ffffffffffffffffffffffffffffffffffffffff1673ffffffffffffffffffffffffffffffffffffffff1681526020019081526020016000206000610bdc6117c4565b73ffffffffffffffffffffffffffffffffffffffff1673ffffffffffffffffffffffffffffffffffffffff16815260200190815260200160002054611c889092919063ffffffff16565b6117cc565b600190509392505050565b6000606a60009054906101000a900460ff16905090565b6000610c57611d48565b905090565b6000610d05610c696117c4565b84610d008560666000610c7a6117c4565b73ffffffffffffffffffffffffffffffffffffffff1673ffffffffffffffffffffffffffffffffffffffff16815260200190815260200160002060008973ffffffffffffffffffffffffffffffffffffffff1673ffffffffffffffffffffffffffffffffffffffff16815260200190815260200160002054611d8090919063ffffffff16565b6117cc565b6001905092915050565b60fe60009054906101000a900473ffffffffffffffffffffffffffffffffffffffff1673ffffffffffffffffffffffffffffffffffffffff163373ffffffffffffffffffffffffffffffffffffffff1614610db5576040517f08c379a000000000000000000000000000000000000000000000000000000000815260040180806020018281038252602881526020018061475c6028913960400191505060405180910390fd5b610dbf8282611e08565b5050565b60fe60009054906101000a900473ffffffffffffffffffffffffffffffffffffffff1673ffffffffffffffffffffffffffffffffffffffff163373ffffffffffffffffffffffffffffffffffffffff1614610e69576040517f08c379a00000000000000000000000000000000000000000000000000000000081526004018080602001828103825260288152602001806146c06028913960400191505060405180910390fd5b610e738282611fd1565b5050565b6000606560008373ffffffffffffffffffffffffffffffffffffffff1673ffffffffffffffffffffffffffffffffffffffff168152602001908152602001600020549050919050565b60ff60009054906101000a900473ffffffffffffffffffffffffffffffffffffffff1681565b6000610f2f60cb60008473ffffffffffffffffffffffffffffffffffffffff1673ffffffffffffffffffffffffffffffffffffffff168152602001908152602001600020612197565b9050919050565b606060698054600181600116156101000203166002900480601f016020809104026020016040519081016040528092919081815260200182805460018160011615610100020316600290048015610fce5780601f10610fa357610100808354040283529160200191610fce565b820191906000526020600020905b815481529060010190602001808311610fb157829003601f168201915b5050505050905090565b600061109b610fe56117c4565b8461109685604051806060016040528060258152602001614896602591396066600061100f6117c4565b73ffffffffffffffffffffffffffffffffffffffff1673ffffffffffffffffffffffffffffffffffffffff16815260200190815260200160002060008a73ffffffffffffffffffffffffffffffffffffffff1673ffffffffffffffffffffffffffffffffffffffff16815260200190815260200160002054611c889092919063ffffffff16565b6117cc565b6001905092915050565b60006110b96110b26117c4565b84846119c3565b6001905092915050565b61010160009054906101000a900473ffffffffffffffffffffffffffffffffffffffff1681565b6101035481565b60008060008060008061010160009054906101000a900473ffffffffffffffffffffffffffffffffffffffff1660ff60009054906101000a900473ffffffffffffffffffffffffffffffffffffffff1661010060009054906101000a900473ffffffffffffffffffffffffffffffffffffffff16610102546101035461010460009054906101000a900460ff16955095509550955095509550909192939495565b6101025481565b8342111561120f576040517f08c379a000000000000000000000000000000000000000000000000000000000815260040180806020018281038252601d8152602001807f45524332305065726d69743a206578706972656420646561646c696e6500000081525060200191505060405180910390fd5b600060cc5488888861125e60cb60008e73ffffffffffffffffffffffffffffffffffffffff1673ffffffffffffffffffffffffffffffffffffffff168152602001908152602001600020612197565b89604051602001808781526020018673ffffffffffffffffffffffffffffffffffffffff1673ffffffffffffffffffffffffffffffffffffffff1681526020018573ffffffffffffffffffffffffffffffffffffffff1673ffffffffffffffffffffffffffffffffffffffff1681526020018481526020018381526020018281526020019650505050505050604051602081830303815290604052805190602001209050600061130d826121a5565b9050600061131d8287878761220c565b90508973ffffffffffffffffffffffffffffffffffffffff168173ffffffffffffffffffffffffffffffffffffffff16146113c0576040517f08c379a000000000000000000000000000000000000000000000000000000000815260040180806020018281038252601e8152602001807f45524332305065726d69743a20696e76616c6964207369676e6174757265000081525060200191505060405180910390fd5b61140760cb60008c73ffffffffffffffffffffffffffffffffffffffff1673ffffffffffffffffffffffffffffffffffffffff16815260200190815260200160002061240e565b6114128a8a8a6117cc565b50505050505050505050565b6000606660008473ffffffffffffffffffffffffffffffffffffffff1673ffffffffffffffffffffffffffffffffffffffff16815260200190815260200160002060008373ffffffffffffffffffffffffffffffffffffffff1673ffffffffffffffffffffffffffffffffffffffff16815260200190815260200160002054905092915050565b61010460009054906101000a900460ff1681565b600060019054906101000a900460ff16806114d857506114d7612424565b5b806114ef57506000809054906101000a900460ff16155b611544576040517f08c379a000000000000000000000000000000000000000000000000000000000815260040180806020018281038252602e8152602001806147fe602e913960400191505060405180910390fd5b60008060019054906101000a900460ff161590508015611594576001600060016101000a81548160ff02191690831515021790555060016000806101000a81548160ff0219169083151502179055505b8773ffffffffffffffffffffffffffffffffffffffff16633018205f6040518163ffffffff1660e01b815260040160206040518083038186803b1580156115da57600080fd5b505afa1580156115ee573d6000803e3d6000fd5b505050506040513d602081101561160457600080fd5b810190808051906020019092919050505060fe60006101000a81548173ffffffffffffffffffffffffffffffffffffffff021916908373ffffffffffffffffffffffffffffffffffffffff1602179055508660ff60006101000a81548173ffffffffffffffffffffffffffffffffffffffff021916908373ffffffffffffffffffffffffffffffffffffffff1602179055508561010060006101000a81548173ffffffffffffffffffffffffffffffffffffffff021916908373ffffffffffffffffffffffffffffffffffffffff1602179055508461010160006101000a81548173ffffffffffffffffffffffffffffffffffffffff021916908373ffffffffffffffffffffffffffffffffffffffff160217905550836101028190555082610103819055508161010460006101000a81548160ff02191690831515021790555060608061175061243b565b9150915061175e8282612fe9565b61176782613134565b6117716008613284565b505080156117945760008060016101000a81548160ff0219169083151502179055505b5050505050505050565b60fe60009054906101000a900473ffffffffffffffffffffffffffffffffffffffff1681565b600033905090565b600073ffffffffffffffffffffffffffffffffffffffff168373ffffffffffffffffffffffffffffffffffffffff161415611852576040517f08c379a00000000000000000000000000000000000000000000000000000000081526004018080602001828103825260248152602001806148726024913960400191505060405180910390fd5b600073ffffffffffffffffffffffffffffffffffffffff168273ffffffffffffffffffffffffffffffffffffffff1614156118d8576040517f08c379a00000000000000000000000000000000000000000000000000000000081526004018080602001828103825260228152602001806146566022913960400191505060405180910390fd5b80606660008573ffffffffffffffffffffffffffffffffffffffff1673ffffffffffffffffffffffffffffffffffffffff16815260200190815260200160002060008473ffffffffffffffffffffffffffffffffffffffff1673ffffffffffffffffffffffffffffffffffffffff168152602001908152602001600020819055508173ffffffffffffffffffffffffffffffffffffffff168373ffffffffffffffffffffffffffffffffffffffff167f8c5be1e5ebec7d5bd14f71427d1e84f3dd0314c0f7b2291e5b200ac8c7c3b925836040518082815260200191505060405180910390a3505050565b600073ffffffffffffffffffffffffffffffffffffffff168373ffffffffffffffffffffffffffffffffffffffff161415611a49576040517f08c379a000000000000000000000000000000000000000000000000000000000815260040180806020018281038252602581526020018061484d6025913960400191505060405180910390fd5b600073ffffffffffffffffffffffffffffffffffffffff168273ffffffffffffffffffffffffffffffffffffffff161415611acf576040517f08c379a00000000000000000000000000000000000000000000000000000000081526004018080602001828103825260238152602001806146116023913960400191505060405180910390fd5b611ada8383836132a2565b611b468160405180606001604052806026815260200161467860269139606560008773ffffffffffffffffffffffffffffffffffffffff1673ffffffffffffffffffffffffffffffffffffffff16815260200190815260200160002054611c889092919063ffffffff16565b606560008573ffffffffffffffffffffffffffffffffffffffff1673ffffffffffffffffffffffffffffffffffffffff16815260200190815260200160002081905550611bdb81606560008573ffffffffffffffffffffffffffffffffffffffff1673ffffffffffffffffffffffffffffffffffffffff16815260200190815260200160002054611d8090919063ffffffff16565b606560008473ffffffffffffffffffffffffffffffffffffffff1673ffffffffffffffffffffffffffffffffffffffff168152602001908152602001600020819055508173ffffffffffffffffffffffffffffffffffffffff168373ffffffffffffffffffffffffffffffffffffffff167fddf252ad1be2c89b69c2b068fc378daa952ba7f163c4a11628f55a4df523b3ef836040518082815260200191505060405180910390a3505050565b6000838311158290611d35576040517f08c379a00000000000000000000000000000000000000000000000000000000081526004018080602001828103825283818151815260200191508051906020019080838360005b83811015611cfa578082015181840152602081019050611cdf565b50505050905090810190601f168015611d275780820380516001836020036101000a031916815260200191505b509250505060405180910390fd5b5060008385039050809150509392505050565b6000611d7b60405180806147846052913960520190506040518091039020611d6e6132a7565b611d766132b1565b6132bb565b905090565b600080828401905083811015611dfe576040517f08c379a000000000000000000000000000000000000000000000000000000000815260040180806020018281038252601b8152602001807f536166654d6174683a206164646974696f6e206f766572666c6f77000000000081525060200191505060405180910390fd5b8091505092915050565b600073ffffffffffffffffffffffffffffffffffffffff168273ffffffffffffffffffffffffffffffffffffffff161415611eab576040517f08c379a000000000000000000000000000000000000000000000000000000000815260040180806020018281038252601f8152602001807f45524332303a206d696e7420746f20746865207a65726f20616464726573730081525060200191505060405180910390fd5b611eb7600083836132a2565b611ecc81606754611d8090919063ffffffff16565b606781905550611f2481606560008573ffffffffffffffffffffffffffffffffffffffff1673ffffffffffffffffffffffffffffffffffffffff16815260200190815260200160002054611d8090919063ffffffff16565b606560008473ffffffffffffffffffffffffffffffffffffffff1673ffffffffffffffffffffffffffffffffffffffff168152602001908152602001600020819055508173ffffffffffffffffffffffffffffffffffffffff16600073ffffffffffffffffffffffffffffffffffffffff167fddf252ad1be2c89b69c2b068fc378daa952ba7f163c4a11628f55a4df523b3ef836040518082815260200191505060405180910390a35050565b600073ffffffffffffffffffffffffffffffffffffffff168273ffffffffffffffffffffffffffffffffffffffff161415612057576040517f08c379a000000000000000000000000000000000000000000000000000000000815260040180806020018281038252602181526020018061482c6021913960400191505060405180910390fd5b612063826000836132a2565b6120cf8160405180606001604052806022815260200161463460229139606560008673ffffffffffffffffffffffffffffffffffffffff1673ffffffffffffffffffffffffffffffffffffffff16815260200190815260200160002054611c889092919063ffffffff16565b606560008473ffffffffffffffffffffffffffffffffffffffff1673ffffffffffffffffffffffffffffffffffffffff168152602001908152602001600020819055506121278160675461334090919063ffffffff16565b606781905550600073ffffffffffffffffffffffffffffffffffffffff168273ffffffffffffffffffffffffffffffffffffffff167fddf252ad1be2c89b69c2b068fc378daa952ba7f163c4a11628f55a4df523b3ef836040518082815260200191505060405180910390a35050565b600081600001549050919050565b60006121af611d48565b8260405160200180807f190100000000000000000000000000000000000000000000000000000000000081525060020183815260200182815260200192505050604051602081830303815290604052805190602001209050919050565b60007f7fffffffffffffffffffffffffffffff5d576e7357a4501ddfe92f46681b20a08260001c111561228a576040517f08c379a000000000000000000000000000000000000000000000000000000000815260040180806020018281038252602281526020018061469e6022913960400191505060405180910390fd5b601b8460ff16148061229f5750601c8460ff16145b6122f4576040517f08c379a000000000000000000000000000000000000000000000000000000000815260040180806020018281038252602281526020018061473a6022913960400191505060405180910390fd5b600060018686868660405160008152602001604052604051808581526020018460ff1660ff1681526020018381526020018281526020019450505050506020604051602081039080840390855afa158015612353573d6000803e3d6000fd5b505050602060405103519050600073ffffffffffffffffffffffffffffffffffffffff168173ffffffffffffffffffffffffffffffffffffffff161415612402576040517f08c379a00000000000000000000000000000000000000000000000000000000081526004018080602001828103825260188152602001807f45434453413a20696e76616c6964207369676e6174757265000000000000000081525060200191505060405180910390fd5b80915050949350505050565b6001816000016000828254019250508190555050565b6000803090506000813b9050600081149250505090565b606080606060ff60009054906101000a900473ffffffffffffffffffffffffffffffffffffffff1673ffffffffffffffffffffffffffffffffffffffff166395d89b416040518163ffffffff1660e01b815260040160006040518083038186803b1580156124a857600080fd5b505afa1580156124bc573d6000803e3d6000fd5b505050506040513d6000823e3d601f19601f8201168201806040525060208110156124e657600080fd5b810190808051604051939291908464010000000082111561250657600080fd5b8382019150602082018581111561251c57600080fd5b825186600182028301116401000000008211171561253957600080fd5b8083526020830192505050908051906020019080838360005b8381101561256d578082015181840152602081019050612552565b50505050905090810190601f16801561259a5780820380516001836020036101000a031916815260200191505b506040525050509050606061010060009054906101000a900473ffffffffffffffffffffffffffffffffffffffff1673ffffffffffffffffffffffffffffffffffffffff166395d89b416040518163ffffffff1660e01b815260040160006040518083038186803b15801561260e57600080fd5b505afa158015612622573d6000803e3d6000fd5b505050506040513d6000823e3d601f19601f82011682018060405250602081101561264c57600080fd5b810190808051604051939291908464010000000082111561266c57600080fd5b8382019150602082018581111561268257600080fd5b825186600182028301116401000000008211171561269f57600080fd5b8083526020830192505050908051906020019080838360005b838110156126d35780820151818401526020810190506126b8565b50505050905090810190601f1680156127005780820380516001836020036101000a031916815260200191505b506040525050509050606061010160009054906101000a900473ffffffffffffffffffffffffffffffffffffffff1673ffffffffffffffffffffffffffffffffffffffff166395d89b416040518163ffffffff1660e01b815260040160006040518083038186803b15801561277457600080fd5b505afa158015612788573d6000803e3d6000fd5b505050506040513d6000823e3d601f19601f8201168201806040525060208110156127b257600080fd5b81019080805160405193929190846401000000008211156127d257600080fd5b838201915060208201858111156127e857600080fd5b825186600182028301116401000000008211171561280557600080fd5b8083526020830192505050908051906020019080838360005b8381101561283957808201518184015260208101905061281e565b50505050905090810190601f1680156128665780820380516001836020036101000a031916815260200191505b506040525050509050606061287d6101025461338a565b905060008060006128906101035461353f565b9250925092506060806128b261010460009054906101000a900460ff1661356c565b915091506060806128c286613660565b915091508a8a6128d187613c43565b836128db8b613d17565b8c888f6040516020018089805190602001908083835b6020831061291457805182526020820191506020810190506020830392506128f1565b6001836020036101000a03801982511681845116808217855250505050505090500188805190602001908083835b602083106129655780518252602082019150602081019050602083039250612942565b6001836020036101000a038019825116818451168082178552505050505050905001807f200000000000000000000000000000000000000000000000000000000000000081525060010187805190602001908083835b602083106129de57805182526020820191506020810190506020830392506129bb565b6001836020036101000a038019825116818451168082178552505050505050905001807f2d0000000000000000000000000000000000000000000000000000000000000081525060010186805190602001908083835b60208310612a575780518252602082019150602081019050602083039250612a34565b6001836020036101000a038019825116818451168082178552505050505050905001807f2d0000000000000000000000000000000000000000000000000000000000000081525060010185805190602001908083835b60208310612ad05780518252602082019150602081019050602083039250612aad565b6001836020036101000a038019825116818451168082178552505050505050905001807f200000000000000000000000000000000000000000000000000000000000000081525060010184805190602001908083835b60208310612b495780518252602082019150602081019050602083039250612b26565b6001836020036101000a03801982511681845116808217855250505050505090500183805190602001908083835b60208310612b9a5780518252602082019150602081019050602083039250612b77565b6001836020036101000a038019825116818451168082178552505050505050905001807f200000000000000000000000000000000000000000000000000000000000000081525060010182805190602001908083835b60208310612c135780518252602082019150602081019050602083039250612bf0565b6001836020036101000a038019825116818451168082178552505050505050905001807f20436f6c6c61746572616c000000000000000000000000000000000000000000815250600b01985050505050505050506040516020818303038152906040529c508a8a8a612c8488613c43565b85612c8e8c613c43565b8d8a60405160200180807f6f0000000000000000000000000000000000000000000000000000000000000081525060010189805190602001908083835b60208310612cee5780518252602082019150602081019050602083039250612ccb565b6001836020036101000a03801982511681845116808217855250505050505090500188805190602001908083835b60208310612d3f5780518252602082019150602081019050602083039250612d1c565b6001836020036101000a038019825116818451168082178552505050505050905001807f2f0000000000000000000000000000000000000000000000000000000000000081525060010187805190602001908083835b60208310612db85780518252602082019150602081019050602083039250612d95565b6001836020036101000a038019825116818451168082178552505050505050905001807f2d0000000000000000000000000000000000000000000000000000000000000081525060010186805190602001908083835b60208310612e315780518252602082019150602081019050602083039250612e0e565b6001836020036101000a03801982511681845116808217855250505050505090500185805190602001908083835b60208310612e825780518252602082019150602081019050602083039250612e5f565b6001836020036101000a03801982511681845116808217855250505050505090500184805190602001908083835b60208310612ed35780518252602082019150602081019050602083039250612eb0565b6001836020036101000a038019825116818451168082178552505050505050905001807f2d0000000000000000000000000000000000000000000000000000000000000081525060010183805190602001908083835b60208310612f4c5780518252602082019150602081019050602083039250612f29565b6001836020036101000a03801982511681845116808217855250505050505090500182805190602001908083835b60208310612f9d5780518252602082019150602081019050602083039250612f7a565b6001836020036101000a038019825116818451168082178552505050505050905001985050505050505050506040516020818303038152906040529b5050505050505050505050509091565b600060019054906101000a900460ff16806130085750613007612424565b5b8061301f57506000809054906101000a900460ff16155b613074576040517f08c379a000000000000000000000000000000000000000000000000000000000815260040180806020018281038252602e8152602001806147fe602e913960400191505060405180910390fd5b60008060019054906101000a900460ff1615905080156130c4576001600060016101000a81548160ff02191690831515021790555060016000806101000a81548160ff0219169083151502179055505b82606890805190602001906130da92919061456b565b5081606990805190602001906130f192919061456b565b506012606a60006101000a81548160ff021916908360ff160217905550801561312f5760008060016101000a81548160ff0219169083151502179055505b505050565b600060019054906101000a900460ff16806131535750613152612424565b5b8061316a57506000809054906101000a900460ff16155b6131bf576040517f08c379a000000000000000000000000000000000000000000000000000000000815260040180806020018281038252602e8152602001806147fe602e913960400191505060405180910390fd5b60008060019054906101000a900460ff16159050801561320f576001600060016101000a81548160ff02191690831515021790555060016000806101000a81548160ff0219169083151502179055505b613217613e5e565b613256826040518060400160405280600181526020017f3100000000000000000000000000000000000000000000000000000000000000815250613f5d565b61325f82614086565b80156132805760008060016101000a81548160ff0219169083151502179055505b5050565b80606a60006101000a81548160ff021916908360ff16021790555050565b505050565b6000609754905090565b6000609854905090565b60008383836132c86141a5565b30604051602001808681526020018581526020018481526020018381526020018273ffffffffffffffffffffffffffffffffffffffff1673ffffffffffffffffffffffffffffffffffffffff168152602001955050505050506040516020818303038152906040528051906020012090509392505050565b600061338283836040518060400160405280601e81526020017f536166654d6174683a207375627472616374696f6e206f766572666c6f770000815250611c88565b905092915050565b606060006133a56305f5e100846141ad90919063ffffffff16565b905060006133c06305f5e100856141f790919063ffffffff16565b905060606133cd82613d17565b905060008314156133e35780935050505061353a565b60005b60006133fc600a866141ad90919063ffffffff16565b141561341a57600a848161340c57fe5b0493506001810190506133e6565b80600803600a0a84019350606061343085613d17565b905061344481600184600860010103614241565b9050606083826040516020018083805190602001908083835b60208310613480578051825260208201915060208101905060208303925061345d565b6001836020036101000a038019825116818451168082178552505050505050905001807f2e0000000000000000000000000000000000000000000000000000000000000081525060010182805190602001908083835b602083106134f957805182526020820191506020810190506020830392506134d6565b6001836020036101000a0380198251168184511680821785525050505050509050019250505060405160208183030381529060405290508096505050505050505b919050565b600080600061355962015180858161355357fe5b04614310565b8093508194508295505050509193909250565b60608082156135ea576040518060400160405280600181526020017f50000000000000000000000000000000000000000000000000000000000000008152506040518060400160405280600381526020017f50757400000000000000000000000000000000000000000000000000000000008152509150915061365b565b6040518060400160405280600181526020017f43000000000000000000000000000000000000000000000000000000000000008152506040518060400160405280600481526020017f43616c6c00000000000000000000000000000000000000000000000000000000815250915091505b915091565b60608060018314156136e1576040518060400160405280600381526020017f4a414e00000000000000000000000000000000000000000000000000000000008152506040518060400160405280600781526020017f4a616e756172790000000000000000000000000000000000000000000000000081525091509150613c3e565b600283141561375f576040518060400160405280600381526020017f46454200000000000000000000000000000000000000000000000000000000008152506040518060400160405280600881526020017f466562727561727900000000000000000000000000000000000000000000000081525091509150613c3e565b60038314156137dd576040518060400160405280600381526020017f4d415200000000000000000000000000000000000000000000000000000000008152506040518060400160405280600581526020017f4d6172636800000000000000000000000000000000000000000000000000000081525091509150613c3e565b600483141561385b576040518060400160405280600381526020017f41505200000000000000000000000000000000000000000000000000000000008152506040518060400160405280600581526020017f417072696c00000000000000000000000000000000000000000000000000000081525091509150613c3e565b60058314156138d9576040518060400160405280600381526020017f4d415900000000000000000000000000000000000000000000000000000000008152506040518060400160405280600381526020017f4d6179000000000000000000000000000000000000000000000000000000000081525091509150613c3e565b6006831415613957576040518060400160405280600381526020017f4a554e00000000000000000000000000000000000000000000000000000000008152506040518060400160405280600481526020017f4a756e650000000000000000000000000000000000000000000000000000000081525091509150613c3e565b60078314156139d5576040518060400160405280600381526020017f4a554c00000000000000000000000000000000000000000000000000000000008152506040518060400160405280600481526020017f4a756c790000000000000000000000000000000000000000000000000000000081525091509150613c3e565b6008831415613a53576040518060400160405280600381526020017f41554700000000000000000000000000000000000000000000000000000000008152506040518060400160405280600681526020017f417567757374000000000000000000000000000000000000000000000000000081525091509150613c3e565b6009831415613ad1576040518060400160405280600381526020017f53455000000000000000000000000000000000000000000000000000000000008152506040518060400160405280600981526020017f53657074656d626572000000000000000000000000000000000000000000000081525091509150613c3e565b600a831415613b4f576040518060400160405280600381526020017f4f435400000000000000000000000000000000000000000000000000000000008152506040518060400160405280600781526020017f4f63746f6265720000000000000000000000000000000000000000000000000081525091509150613c3e565b600b831415613bcd576040518060400160405280600381526020017f4e4f5600000000000000000000000000000000000000000000000000000000008152506040518060400160405280600881526020017f4e6f76656d62657200000000000000000000000000000000000000000000000081525091509150613c3e565b6040518060400160405280600381526020017f44454300000000000000000000000000000000000000000000000000000000008152506040518060400160405280600881526020017f446563656d626572000000000000000000000000000000000000000000000000815250915091505b915091565b60606063821115613c5c5760648281613c5857fe5b0691505b6060613c6783613d17565b9050600a831015613d0d578060405160200180807f300000000000000000000000000000000000000000000000000000000000000081525060010182805190602001908083835b60208310613cd15780518252602082019150602081019050602083039250613cae565b6001836020036101000a038019825116818451168082178552505050505050905001915050604051602081830303815290604052915050613d12565b809150505b919050565b60606000821415613d5f576040518060400160405280600181526020017f30000000000000000000000000000000000000000000000000000000000000008152509050613e59565b600082905060005b60008214613d89578080600101915050600a8281613d8157fe5b049150613d67565b60608167ffffffffffffffff81118015613da257600080fd5b506040519080825280601f01601f191660200182016040528015613dd55781602001600182028036833780820191505090505b50905060006001830390508593505b60008414613e5157600a8481613df657fe5b0660300160f81b82828060019003935081518110613e1057fe5b60200101907effffffffffffffffffffffffffffffffffffffffffffffffffffffffffffff1916908160001a905350600a8481613e4957fe5b049350613de4565b819450505050505b919050565b600060019054906101000a900460ff1680613e7d5750613e7c612424565b5b80613e9457506000809054906101000a900460ff16155b613ee9576040517f08c379a000000000000000000000000000000000000000000000000000000000815260040180806020018281038252602e8152602001806147fe602e913960400191505060405180910390fd5b60008060019054906101000a900460ff161590508015613f39576001600060016101000a81548160ff02191690831515021790555060016000806101000a81548160ff0219169083151502179055505b8015613f5a5760008060016101000a81548160ff0219169083151502179055505b50565b600060019054906101000a900460ff1680613f7c5750613f7b612424565b5b80613f9357506000809054906101000a900460ff16155b613fe8576040517f08c379a000000000000000000000000000000000000000000000000000000000815260040180806020018281038252602e8152602001806147fe602e913960400191505060405180910390fd5b60008060019054906101000a900460ff161590508015614038576001600060016101000a81548160ff02191690831515021790555060016000806101000a81548160ff0219169083151502179055505b6000838051906020012090506000838051906020012090508160978190555080609881905550505080156140815760008060016101000a81548160ff0219169083151502179055505b505050565b600060019054906101000a900460ff16806140a557506140a4612424565b5b806140bc57506000809054906101000a900460ff16155b614111576040517f08c379a000000000000000000000000000000000000000000000000000000000815260040180806020018281038252602e8152602001806147fe602e913960400191505060405180910390fd5b60008060019054906101000a900460ff161590508015614161576001600060016101000a81548160ff02191690831515021790555060016000806101000a81548160ff0219169083151502179055505b60405180806146e8605291396052019050604051809103902060cc8190555080156141a15760008060016101000a81548160ff0219169083151502179055505b5050565b600046905090565b60006141ef83836040518060400160405280601881526020017f536166654d6174683a206d6f64756c6f206279207a65726f00000000000000008152506143e4565b905092915050565b600061423983836040518060400160405280601a81526020017f536166654d6174683a206469766973696f6e206279207a65726f0000000000008152506144a5565b905092915050565b60608083830367ffffffffffffffff8111801561425d57600080fd5b506040519080825280601f01601f1916602001820160405280156142905781602001600182028036833780820191505090505b50905060008090505b8484038110156143045785818601815181106142b157fe5b602001015160f81c60f81b8282815181106142c857fe5b60200101907effffffffffffffffffffffffffffffffffffffffffffffffffffffffffffff1916908160001a9053508080600101915050614299565b50809150509392505050565b600080600080849050600062253d8c62010bd98301019050600062023ab1826004028161433957fe5b059050600460038262023ab102018161434e57fe5b0582039150600062164b0960018401610fa0028161436857fe5b059050601f6004826105b5028161437b57fe5b058403019250600061098f846050028161439157fe5b059050600060508261098f02816143a457fe5b0585039050600b82816143b357fe5b05945084600c0260028301039150848360318603606402010192508298508197508096505050505050509193909250565b6000808314158290614491576040517f08c379a00000000000000000000000000000000000000000000000000000000081526004018080602001828103825283818151815260200191508051906020019080838360005b8381101561445657808201518184015260208101905061443b565b50505050905090810190601f1680156144835780820380516001836020036101000a031916815260200191505b509250505060405180910390fd5b5082848161449b57fe5b0690509392505050565b60008083118290614551576040517f08c379a00000000000000000000000000000000000000000000000000000000081526004018080602001828103825283818151815260200191508051906020019080838360005b838110156145165780820151818401526020810190506144fb565b50505050905090810190601f1680156145435780820380516001836020036101000a031916815260200191505b509250505060405180910390fd5b50600083858161455d57fe5b049050809150509392505050565b828054600181600116156101000203166002900490600052602060002090601f016020900481019282601f106145ac57805160ff19168380011785556145da565b828001600101855582156145da579182015b828111156145d95782518255916020019190600101906145be565b5b5090506145e791906145eb565b5090565b61460d91905b808211156146095760008160009055506001016145f1565b5090565b9056fe45524332303a207472616e7366657220746f20746865207a65726f206164647265737345524332303a206275726e20616d6f756e7420657863656564732062616c616e636545524332303a20617070726f766520746f20746865207a65726f206164647265737345524332303a207472616e7366657220616d6f756e7420657863656564732062616c616e636545434453413a20696e76616c6964207369676e6174757265202773272076616c75654f746f6b656e3a204f6e6c7920436f6e74726f6c6c65722063616e206275726e204f746f6b656e735065726d69742861646472657373206f776e65722c61646472657373207370656e6465722c75696e743235362076616c75652c75696e74323536206e6f6e63652c75696e7432353620646561646c696e652945434453413a20696e76616c6964207369676e6174757265202776272076616c75654f746f6b656e3a204f6e6c7920436f6e74726f6c6c65722063616e206d696e74204f746f6b656e73454950373132446f6d61696e28737472696e67206e616d652c737472696e672076657273696f6e2c75696e7432353620636861696e49642c6164647265737320766572696679696e67436f6e74726163742945524332303a207472616e7366657220616d6f756e74206578636565647320616c6c6f77616e6365436f6e747261637420696e7374616e63652068617320616c7265616479206265656e20696e697469616c697a656445524332303a206275726e2066726f6d20746865207a65726f206164647265737345524332303a207472616e736665722066726f6d20746865207a65726f206164647265737345524332303a20617070726f76652066726f6d20746865207a65726f206164647265737345524332303a2064656372656173656420616c6c6f77616e63652062656c6f77207a65726fa2646970667358221220be65d266b327cf4fe5b066499a8ded9ce90d292d8d8b86c6d07b8adf7afdf3f864736f6c634300060a0033",
  "linkReferences": {},
  "deployedLinkReferences": {}
}