{
  "_format": "hh-sol-artifact-1",
  "contractName": "MockOtoken",
  "sourceName": "contracts/Gamma/mocks/MockOtoken.sol",
  "abi": [
    {
      "anonymous": false,
      "inputs": [
        {
          "indexed": true,
          "internalType": "address",
          "name": "owner",
          "type": "address"
        },
        {
          "indexed": true,
          "internalType": "address",
          "name": "spender",
          "type": "address"
        },
        {
          "indexed": false,
          "internalType": "uint256",
          "name": "value",
          "type": "uint256"
        }
      ],
      "name": "Approval",
      "type": "event"
    },
    {
      "anonymous": false,
      "inputs": [
        {
          "indexed": true,
          "internalType": "address",
          "name": "from",
          "type": "address"
        },
        {
          "indexed": true,
          "internalType": "address",
          "name": "to",
          "type": "address"
        },
        {
          "indexed": false,
          "internalType": "uint256",
          "name": "value",
          "type": "uint256"
        }
      ],
      "name": "Transfer",
      "type": "event"
    },
    {
      "inputs": [],
      "name": "DOMAIN_SEPARATOR",
      "outputs": [
        {
          "internalType": "bytes32",
          "name": "",
          "type": "bytes32"
        }
      ],
      "stateMutability": "view",
      "type": "function"
    },
    {
      "inputs": [],
      "name": "addressBook",
      "outputs": [
        {
          "internalType": "address",
          "name": "",
          "type": "address"
        }
      ],
      "stateMutability": "view",
      "type": "function"
    },
    {
      "inputs": [
        {
          "internalType": "address",
          "name": "owner",
          "type": "address"
        },
        {
          "internalType": "address",
          "name": "spender",
          "type": "address"
        }
      ],
      "name": "allowance",
      "outputs": [
        {
          "internalType": "uint256",
          "name": "",
          "type": "uint256"
        }
      ],
      "stateMutability": "view",
      "type": "function"
    },
    {
      "inputs": [
        {
          "internalType": "address",
          "name": "spender",
          "type": "address"
        },
        {
          "internalType": "uint256",
          "name": "amount",
          "type": "uint256"
        }
      ],
      "name": "approve",
      "outputs": [
        {
          "internalType": "bool",
          "name": "",
          "type": "bool"
        }
      ],
      "stateMutability": "nonpayable",
      "type": "function"
    },
    {
      "inputs": [
        {
          "internalType": "address",
          "name": "account",
          "type": "address"
        }
      ],
      "name": "balanceOf",
      "outputs": [
        {
          "internalType": "uint256",
          "name": "",
          "type": "uint256"
        }
      ],
      "stateMutability": "view",
      "type": "function"
    },
    {
      "inputs": [
        {
          "internalType": "address",
          "name": "account",
          "type": "address"
        },
        {
          "internalType": "uint256",
          "name": "amount",
          "type": "uint256"
        }
      ],
      "name": "burnOtoken",
      "outputs": [],
      "stateMutability": "nonpayable",
      "type": "function"
    },
    {
      "inputs": [],
      "name": "collateralAsset",
      "outputs": [
        {
          "internalType": "address",
          "name": "",
          "type": "address"
        }
      ],
      "stateMutability": "view",
      "type": "function"
    },
    {
      "inputs": [],
      "name": "controller",
      "outputs": [
        {
          "internalType": "address",
          "name": "",
          "type": "address"
        }
      ],
      "stateMutability": "view",
      "type": "function"
    },
    {
      "inputs": [],
      "name": "decimals",
      "outputs": [
        {
          "internalType": "uint8",
          "name": "",
          "type": "uint8"
        }
      ],
      "stateMutability": "view",
      "type": "function"
    },
    {
      "inputs": [
        {
          "internalType": "address",
          "name": "spender",
          "type": "address"
        },
        {
          "internalType": "uint256",
          "name": "subtractedValue",
          "type": "uint256"
        }
      ],
      "name": "decreaseAllowance",
      "outputs": [
        {
          "internalType": "bool",
          "name": "",
          "type": "bool"
        }
      ],
      "stateMutability": "nonpayable",
      "type": "function"
    },
    {
      "inputs": [],
      "name": "expiryTimestamp",
      "outputs": [
        {
          "internalType": "uint256",
          "name": "",
          "type": "uint256"
        }
      ],
      "stateMutability": "view",
      "type": "function"
    },
    {
      "inputs": [],
      "name": "getChainId",
      "outputs": [
        {
          "internalType": "uint256",
          "name": "chainId",
          "type": "uint256"
        }
      ],
      "stateMutability": "view",
      "type": "function"
    },
    {
      "inputs": [],
      "name": "getOtokenDetails",
      "outputs": [
        {
          "internalType": "address",
          "name": "",
          "type": "address"
        },
        {
          "internalType": "address",
          "name": "",
          "type": "address"
        },
        {
          "internalType": "address",
          "name": "",
          "type": "address"
        },
        {
          "internalType": "uint256",
          "name": "",
          "type": "uint256"
        },
        {
          "internalType": "uint256",
          "name": "",
          "type": "uint256"
        },
        {
          "internalType": "bool",
          "name": "",
          "type": "bool"
        }
      ],
      "stateMutability": "view",
      "type": "function"
    },
    {
      "inputs": [
        {
          "internalType": "address",
          "name": "spender",
          "type": "address"
        },
        {
          "internalType": "uint256",
          "name": "addedValue",
          "type": "uint256"
        }
      ],
      "name": "increaseAllowance",
      "outputs": [
        {
          "internalType": "bool",
          "name": "",
          "type": "bool"
        }
      ],
      "stateMutability": "nonpayable",
      "type": "function"
    },
    {
      "inputs": [
        {
          "internalType": "address",
          "name": "_addressBook",
          "type": "address"
        },
        {
          "internalType": "address",
          "name": "_underlyingAsset",
          "type": "address"
        },
        {
          "internalType": "address",
          "name": "_strikeAsset",
          "type": "address"
        },
        {
          "internalType": "address",
          "name": "_collateralAsset",
          "type": "address"
        },
        {
          "internalType": "uint256",
          "name": "_strikePrice",
          "type": "uint256"
        },
        {
          "internalType": "uint256",
          "name": "_expiryTimestamp",
          "type": "uint256"
        },
        {
          "internalType": "bool",
          "name": "_isPut",
          "type": "bool"
        }
      ],
      "name": "init",
      "outputs": [],
      "stateMutability": "nonpayable",
      "type": "function"
    },
    {
      "inputs": [],
      "name": "inited",
      "outputs": [
        {
          "internalType": "bool",
          "name": "",
          "type": "bool"
        }
      ],
      "stateMutability": "view",
      "type": "function"
    },
    {
      "inputs": [],
      "name": "isPut",
      "outputs": [
        {
          "internalType": "bool",
          "name": "",
          "type": "bool"
        }
      ],
      "stateMutability": "view",
      "type": "function"
    },
    {
      "inputs": [
        {
          "internalType": "address",
          "name": "_to",
          "type": "address"
        },
        {
          "internalType": "uint256",
          "name": "_amount",
          "type": "uint256"
        }
      ],
      "name": "mintOtoken",
      "outputs": [],
      "stateMutability": "nonpayable",
      "type": "function"
    },
    {
      "inputs": [],
      "name": "name",
      "outputs": [
        {
          "internalType": "string",
          "name": "",
          "type": "string"
        }
      ],
      "stateMutability": "view",
      "type": "function"
    },
    {
      "inputs": [
        {
          "internalType": "address",
          "name": "owner",
          "type": "address"
        }
      ],
      "name": "nonces",
      "outputs": [
        {
          "internalType": "uint256",
          "name": "",
          "type": "uint256"
        }
      ],
      "stateMutability": "view",
      "type": "function"
    },
    {
      "inputs": [
        {
          "internalType": "address",
          "name": "owner",
          "type": "address"
        },
        {
          "internalType": "address",
          "name": "spender",
          "type": "address"
        },
        {
          "internalType": "uint256",
          "name": "amount",
          "type": "uint256"
        },
        {
          "internalType": "uint256",
          "name": "deadline",
          "type": "uint256"
        },
        {
          "internalType": "uint8",
          "name": "v",
          "type": "uint8"
        },
        {
          "internalType": "bytes32",
          "name": "r",
          "type": "bytes32"
        },
        {
          "internalType": "bytes32",
          "name": "s",
          "type": "bytes32"
        }
      ],
      "name": "permit",
      "outputs": [],
      "stateMutability": "nonpayable",
      "type": "function"
    },
    {
      "inputs": [],
      "name": "strikeAsset",
      "outputs": [
        {
          "internalType": "address",
          "name": "",
          "type": "address"
        }
      ],
      "stateMutability": "view",
      "type": "function"
    },
    {
      "inputs": [],
      "name": "strikePrice",
      "outputs": [
        {
          "internalType": "uint256",
          "name": "",
          "type": "uint256"
        }
      ],
      "stateMutability": "view",
      "type": "function"
    },
    {
      "inputs": [],
      "name": "symbol",
      "outputs": [
        {
          "internalType": "string",
          "name": "",
          "type": "string"
        }
      ],
      "stateMutability": "view",
      "type": "function"
    },
    {
      "inputs": [],
      "name": "totalSupply",
      "outputs": [
        {
          "internalType": "uint256",
          "name": "",
          "type": "uint256"
        }
      ],
      "stateMutability": "view",
      "type": "function"
    },
    {
      "inputs": [
        {
          "internalType": "address",
          "name": "recipient",
          "type": "address"
        },
        {
          "internalType": "uint256",
          "name": "amount",
          "type": "uint256"
        }
      ],
      "name": "transfer",
      "outputs": [
        {
          "internalType": "bool",
          "name": "",
          "type": "bool"
        }
      ],
      "stateMutability": "nonpayable",
      "type": "function"
    },
    {
      "inputs": [
        {
          "internalType": "address",
          "name": "sender",
          "type": "address"
        },
        {
          "internalType": "address",
          "name": "recipient",
          "type": "address"
        },
        {
          "internalType": "uint256",
          "name": "amount",
          "type": "uint256"
        }
      ],
      "name": "transferFrom",
      "outputs": [
        {
          "internalType": "bool",
          "name": "",
          "type": "bool"
        }
      ],
      "stateMutability": "nonpayable",
      "type": "function"
    },
    {
      "inputs": [],
      "name": "underlyingAsset",
      "outputs": [
        {
          "internalType": "address",
          "name": "",
          "type": "address"
        }
      ],
      "stateMutability": "view",
      "type": "function"
    }
  ],
  "bytecode": "0x6080604052600061010560016101000a81548160ff02191690831515021790555034801561002c57600080fd5b50612eb58061003c6000396000f3fe608060405234801561001057600080fd5b50600436106101c45760003560e01c80637ecebe00116100f9578063c52987cf11610097578063f3c274a611610071578063f3c274a6146109cd578063f5887cdd146109ef578063f630df3414610a39578063f77c479114610afd576101c4565b8063c52987cf1461089e578063d505accf146108bc578063dd62ed3e14610955576101c4565b8063a9059cbb116100d3578063a9059cbb14610707578063aabaecd61461076d578063ade6e2aa146107b7578063af0968fc146107d5576101c4565b80637ecebe00146105c657806395d89b411461061e578063a457c2d7146106a1576101c4565b80633644e5151161016657806351b0a4101161014057806351b0a4101461048857806356d878f7146104d657806370a08231146105245780637158da7c1461057c576101c4565b80633644e515146103e2578063395093511461040057806343c885ba14610466576101c4565b806318160ddd116101a257806318160ddd146102fc57806323b872dd1461031a578063313ce567146103a05780633408e470146103c4576101c4565b806306fdde03146101c9578063095ea7b31461024c57806317d69bc8146102b2575b600080fd5b6101d1610b47565b6040518080602001828103825283818151815260200191508051906020019080838360005b838110156102115780820151818401526020810190506101f6565b50505050905090810190601f16801561023e5780820380516001836020036101000a031916815260200191505b509250505060405180910390f35b6102986004803603604081101561026257600080fd5b81019080803573ffffffffffffffffffffffffffffffffffffffff16906020019092919080359060200190929190505050610be9565b604051808215151515815260200191505060405180910390f35b6102ba610c07565b604051808273ffffffffffffffffffffffffffffffffffffffff1673ffffffffffffffffffffffffffffffffffffffff16815260200191505060405180910390f35b610304610c2e565b6040518082815260200191505060405180910390f35b6103866004803603606081101561033057600080fd5b81019080803573ffffffffffffffffffffffffffffffffffffffff169060200190929190803573ffffffffffffffffffffffffffffffffffffffff16906020019092919080359060200190929190505050610c38565b604051808215151515815260200191505060405180910390f35b6103a8610d11565b604051808260ff1660ff16815260200191505060405180910390f35b6103cc610d28565b6040518082815260200191505060405180910390f35b6103ea610d30565b6040518082815260200191505060405180910390f35b61044c6004803603604081101561041657600080fd5b81019080803573ffffffffffffffffffffffffffffffffffffffff16906020019092919080359060200190929190505050610d3f565b604051808215151515815260200191505060405180910390f35b61046e610df2565b604051808215151515815260200191505060405180910390f35b6104d46004803603604081101561049e57600080fd5b81019080803573ffffffffffffffffffffffffffffffffffffffff16906020019092919080359060200190929190505050610e06565b005b610522600480360360408110156104ec57600080fd5b81019080803573ffffffffffffffffffffffffffffffffffffffff16906020019092919080359060200190929190505050610e14565b005b6105666004803603602081101561053a57600080fd5b81019080803573ffffffffffffffffffffffffffffffffffffffff169060200190929190505050610e22565b6040518082815260200191505060405180910390f35b610584610e6b565b604051808273ffffffffffffffffffffffffffffffffffffffff1673ffffffffffffffffffffffffffffffffffffffff16815260200191505060405180910390f35b610608600480360360208110156105dc57600080fd5b81019080803573ffffffffffffffffffffffffffffffffffffffff169060200190929190505050610e92565b6040518082815260200191505060405180910390f35b610626610ee2565b6040518080602001828103825283818151815260200191508051906020019080838360005b8381101561066657808201518184015260208101905061064b565b50505050905090810190601f1680156106935780820380516001836020036101000a031916815260200191505b509250505060405180910390f35b6106ed600480360360408110156106b757600080fd5b81019080803573ffffffffffffffffffffffffffffffffffffffff16906020019092919080359060200190929190505050610f84565b604051808215151515815260200191505060405180910390f35b6107536004803603604081101561071d57600080fd5b81019080803573ffffffffffffffffffffffffffffffffffffffff16906020019092919080359060200190929190505050611051565b604051808215151515815260200191505060405180910390f35b61077561106f565b604051808273ffffffffffffffffffffffffffffffffffffffff1673ffffffffffffffffffffffffffffffffffffffff16815260200191505060405180910390f35b6107bf611096565b6040518082815260200191505060405180910390f35b6107dd61109d565b604051808773ffffffffffffffffffffffffffffffffffffffff1673ffffffffffffffffffffffffffffffffffffffff1681526020018673ffffffffffffffffffffffffffffffffffffffff1673ffffffffffffffffffffffffffffffffffffffff1681526020018573ffffffffffffffffffffffffffffffffffffffff1673ffffffffffffffffffffffffffffffffffffffff16815260200184815260200183815260200182151515158152602001965050505050505060405180910390f35b6108a661113f565b6040518082815260200191505060405180910390f35b610953600480360360e08110156108d257600080fd5b81019080803573ffffffffffffffffffffffffffffffffffffffff169060200190929190803573ffffffffffffffffffffffffffffffffffffffff1690602001909291908035906020019092919080359060200190929190803560ff1690602001909291908035906020019092919080359060200190929190505050611146565b005b6109b76004803603604081101561096b57600080fd5b81019080803573ffffffffffffffffffffffffffffffffffffffff169060200190929190803573ffffffffffffffffffffffffffffffffffffffff1690602001909291905050506113cb565b6040518082815260200191505060405180910390f35b6109d5611452565b604051808215151515815260200191505060405180910390f35b6109f7611466565b604051808273ffffffffffffffffffffffffffffffffffffffff1673ffffffffffffffffffffffffffffffffffffffff16815260200191505060405180910390f35b610afb600480360360e0811015610a4f57600080fd5b81019080803573ffffffffffffffffffffffffffffffffffffffff169060200190929190803573ffffffffffffffffffffffffffffffffffffffff169060200190929190803573ffffffffffffffffffffffffffffffffffffffff169060200190929190803573ffffffffffffffffffffffffffffffffffffffff169060200190929190803590602001909291908035906020019092919080351515906020019092919050505061148c565b005b610b056117f3565b604051808273ffffffffffffffffffffffffffffffffffffffff1673ffffffffffffffffffffffffffffffffffffffff16815260200191505060405180910390f35b606060688054600181600116156101000203166002900480601f016020809104026020016040519081016040528092919081815260200182805460018160011615610100020316600290048015610bdf5780601f10610bb457610100808354040283529160200191610bdf565b820191906000526020600020905b815481529060010190602001808311610bc257829003601f168201915b5050505050905090565b6000610bfd610bf6611819565b8484611821565b6001905092915050565b61010160009054906101000a900473ffffffffffffffffffffffffffffffffffffffff1681565b6000606754905090565b6000610c45848484611a18565b610d0684610c51611819565b610d0185604051806060016040528060288152602001612d9b60289139606660008b73ffffffffffffffffffffffffffffffffffffffff1673ffffffffffffffffffffffffffffffffffffffff1681526020019081526020016000206000610cb7611819565b73ffffffffffffffffffffffffffffffffffffffff1673ffffffffffffffffffffffffffffffffffffffff16815260200190815260200160002054611cdd9092919063ffffffff16565b611821565b600190509392505050565b6000606a60009054906101000a900460ff16905090565b600046905090565b6000610d3a611d9d565b905090565b6000610de8610d4c611819565b84610de38560666000610d5d611819565b73ffffffffffffffffffffffffffffffffffffffff1673ffffffffffffffffffffffffffffffffffffffff16815260200190815260200160002060008973ffffffffffffffffffffffffffffffffffffffff1673ffffffffffffffffffffffffffffffffffffffff16815260200190815260200160002054611dd590919063ffffffff16565b611821565b6001905092915050565b61010560019054906101000a900460ff1681565b610e108282611e5d565b5050565b610e1e8282612026565b5050565b6000606560008373ffffffffffffffffffffffffffffffffffffffff1673ffffffffffffffffffffffffffffffffffffffff168152602001908152602001600020549050919050565b61010060009054906101000a900473ffffffffffffffffffffffffffffffffffffffff1681565b6000610edb60cb60008473ffffffffffffffffffffffffffffffffffffffff1673ffffffffffffffffffffffffffffffffffffffff1681526020019081526020016000206121ec565b9050919050565b606060698054600181600116156101000203166002900480601f016020809104026020016040519081016040528092919081815260200182805460018160011615610100020316600290048015610f7a5780601f10610f4f57610100808354040283529160200191610f7a565b820191906000526020600020905b815481529060010190602001808311610f5d57829003601f168201915b5050505050905090565b6000611047610f91611819565b8461104285604051806060016040528060258152602001612e5b6025913960666000610fbb611819565b73ffffffffffffffffffffffffffffffffffffffff1673ffffffffffffffffffffffffffffffffffffffff16815260200190815260200160002060008a73ffffffffffffffffffffffffffffffffffffffff1673ffffffffffffffffffffffffffffffffffffffff16815260200190815260200160002054611cdd9092919063ffffffff16565b611821565b6001905092915050565b600061106561105e611819565b8484611a18565b6001905092915050565b61010260009054906101000a900473ffffffffffffffffffffffffffffffffffffffff1681565b6101045481565b60008060008060008061010260009054906101000a900473ffffffffffffffffffffffffffffffffffffffff1661010060009054906101000a900473ffffffffffffffffffffffffffffffffffffffff1661010160009054906101000a900473ffffffffffffffffffffffffffffffffffffffff16610103546101045461010560009054906101000a900460ff16955095509550955095509550909192939495565b6101035481565b834211156111bc576040517f08c379a000000000000000000000000000000000000000000000000000000000815260040180806020018281038252601d8152602001807f45524332305065726d69743a206578706972656420646561646c696e6500000081525060200191505060405180910390fd5b600060cc5488888861120b60cb60008e73ffffffffffffffffffffffffffffffffffffffff1673ffffffffffffffffffffffffffffffffffffffff1681526020019081526020016000206121ec565b89604051602001808781526020018673ffffffffffffffffffffffffffffffffffffffff1673ffffffffffffffffffffffffffffffffffffffff1681526020018573ffffffffffffffffffffffffffffffffffffffff1673ffffffffffffffffffffffffffffffffffffffff168152602001848152602001838152602001828152602001965050505050505060405160208183030381529060405280519060200120905060006112ba826121fa565b905060006112ca82878787612261565b90508973ffffffffffffffffffffffffffffffffffffffff168173ffffffffffffffffffffffffffffffffffffffff161461136d576040517f08c379a000000000000000000000000000000000000000000000000000000000815260040180806020018281038252601e8152602001807f45524332305065726d69743a20696e76616c6964207369676e6174757265000081525060200191505060405180910390fd5b6113b460cb60008c73ffffffffffffffffffffffffffffffffffffffff1673ffffffffffffffffffffffffffffffffffffffff168152602001908152602001600020612463565b6113bf8a8a8a611821565b50505050505050505050565b6000606660008473ffffffffffffffffffffffffffffffffffffffff1673ffffffffffffffffffffffffffffffffffffffff16815260200190815260200160002060008373ffffffffffffffffffffffffffffffffffffffff1673ffffffffffffffffffffffffffffffffffffffff16815260200190815260200160002054905092915050565b61010560009054906101000a900460ff1681565b60fe60009054906101000a900473ffffffffffffffffffffffffffffffffffffffff1681565b600060019054906101000a900460ff16806114ab57506114aa612479565b5b806114c257506000809054906101000a900460ff16155b611517576040517f08c379a000000000000000000000000000000000000000000000000000000000815260040180806020018281038252602e815260200180612dc3602e913960400191505060405180910390fd5b60008060019054906101000a900460ff161590508015611567576001600060016101000a81548160ff02191690831515021790555060016000806101000a81548160ff0219169083151502179055505b600161010560016101000a81548160ff0219169083151502179055508773ffffffffffffffffffffffffffffffffffffffff16633018205f6040518163ffffffff1660e01b815260040160206040518083038186803b1580156115c957600080fd5b505afa1580156115dd573d6000803e3d6000fd5b505050506040513d60208110156115f357600080fd5b810190808051906020019092919050505060ff60006101000a81548173ffffffffffffffffffffffffffffffffffffffff021916908373ffffffffffffffffffffffffffffffffffffffff1602179055508661010060006101000a81548173ffffffffffffffffffffffffffffffffffffffff021916908373ffffffffffffffffffffffffffffffffffffffff1602179055508561010160006101000a81548173ffffffffffffffffffffffffffffffffffffffff021916908373ffffffffffffffffffffffffffffffffffffffff1602179055508461010260006101000a81548173ffffffffffffffffffffffffffffffffffffffff021916908373ffffffffffffffffffffffffffffffffffffffff160217905550836101038190555082610104819055508161010560006101000a81548160ff02191690831515021790555060606040518060400160405280601c81526020017f455448555344432f313539373531313935352f323030502f5553444300000000815250905060606040518060400160405280600981526020017f6f4554485553444350000000000000000000000000000000000000000000000081525090506117b38282612490565b6117bc826125db565b6117c6600861272b565b505080156117e95760008060016101000a81548160ff0219169083151502179055505b5050505050505050565b60ff60009054906101000a900473ffffffffffffffffffffffffffffffffffffffff1681565b600033905090565b600073ffffffffffffffffffffffffffffffffffffffff168373ffffffffffffffffffffffffffffffffffffffff1614156118a7576040517f08c379a0000000000000000000000000000000000000000000000000000000008152600401808060200182810382526024815260200180612e376024913960400191505060405180910390fd5b600073ffffffffffffffffffffffffffffffffffffffff168273ffffffffffffffffffffffffffffffffffffffff16141561192d576040517f08c379a0000000000000000000000000000000000000000000000000000000008152600401808060200182810382526022815260200180612c6b6022913960400191505060405180910390fd5b80606660008573ffffffffffffffffffffffffffffffffffffffff1673ffffffffffffffffffffffffffffffffffffffff16815260200190815260200160002060008473ffffffffffffffffffffffffffffffffffffffff1673ffffffffffffffffffffffffffffffffffffffff168152602001908152602001600020819055508173ffffffffffffffffffffffffffffffffffffffff168373ffffffffffffffffffffffffffffffffffffffff167f8c5be1e5ebec7d5bd14f71427d1e84f3dd0314c0f7b2291e5b200ac8c7c3b925836040518082815260200191505060405180910390a3505050565b600073ffffffffffffffffffffffffffffffffffffffff168373ffffffffffffffffffffffffffffffffffffffff161415611a9e576040517f08c379a0000000000000000000000000000000000000000000000000000000008152600401808060200182810382526025815260200180612e126025913960400191505060405180910390fd5b600073ffffffffffffffffffffffffffffffffffffffff168273ffffffffffffffffffffffffffffffffffffffff161415611b24576040517f08c379a0000000000000000000000000000000000000000000000000000000008152600401808060200182810382526023815260200180612c266023913960400191505060405180910390fd5b611b2f838383612749565b611b9b81604051806060016040528060268152602001612c8d60269139606560008773ffffffffffffffffffffffffffffffffffffffff1673ffffffffffffffffffffffffffffffffffffffff16815260200190815260200160002054611cdd9092919063ffffffff16565b606560008573ffffffffffffffffffffffffffffffffffffffff1673ffffffffffffffffffffffffffffffffffffffff16815260200190815260200160002081905550611c3081606560008573ffffffffffffffffffffffffffffffffffffffff1673ffffffffffffffffffffffffffffffffffffffff16815260200190815260200160002054611dd590919063ffffffff16565b606560008473ffffffffffffffffffffffffffffffffffffffff1673ffffffffffffffffffffffffffffffffffffffff168152602001908152602001600020819055508173ffffffffffffffffffffffffffffffffffffffff168373ffffffffffffffffffffffffffffffffffffffff167fddf252ad1be2c89b69c2b068fc378daa952ba7f163c4a11628f55a4df523b3ef836040518082815260200191505060405180910390a3505050565b6000838311158290611d8a576040517f08c379a00000000000000000000000000000000000000000000000000000000081526004018080602001828103825283818151815260200191508051906020019080838360005b83811015611d4f578082015181840152602081019050611d34565b50505050905090810190601f168015611d7c5780820380516001836020036101000a031916815260200191505b509250505060405180910390fd5b5060008385039050809150509392505050565b6000611dd06040518080612d496052913960520190506040518091039020611dc361274e565b611dcb612758565b612762565b905090565b600080828401905083811015611e53576040517f08c379a000000000000000000000000000000000000000000000000000000000815260040180806020018281038252601b8152602001807f536166654d6174683a206164646974696f6e206f766572666c6f77000000000081525060200191505060405180910390fd5b8091505092915050565b600073ffffffffffffffffffffffffffffffffffffffff168273ffffffffffffffffffffffffffffffffffffffff161415611f00576040517f08c379a000000000000000000000000000000000000000000000000000000000815260040180806020018281038252601f8152602001807f45524332303a206d696e7420746f20746865207a65726f20616464726573730081525060200191505060405180910390fd5b611f0c60008383612749565b611f2181606754611dd590919063ffffffff16565b606781905550611f7981606560008573ffffffffffffffffffffffffffffffffffffffff1673ffffffffffffffffffffffffffffffffffffffff16815260200190815260200160002054611dd590919063ffffffff16565b606560008473ffffffffffffffffffffffffffffffffffffffff1673ffffffffffffffffffffffffffffffffffffffff168152602001908152602001600020819055508173ffffffffffffffffffffffffffffffffffffffff16600073ffffffffffffffffffffffffffffffffffffffff167fddf252ad1be2c89b69c2b068fc378daa952ba7f163c4a11628f55a4df523b3ef836040518082815260200191505060405180910390a35050565b600073ffffffffffffffffffffffffffffffffffffffff168273ffffffffffffffffffffffffffffffffffffffff1614156120ac576040517f08c379a0000000000000000000000000000000000000000000000000000000008152600401808060200182810382526021815260200180612df16021913960400191505060405180910390fd5b6120b882600083612749565b61212481604051806060016040528060228152602001612c4960229139606560008673ffffffffffffffffffffffffffffffffffffffff1673ffffffffffffffffffffffffffffffffffffffff16815260200190815260200160002054611cdd9092919063ffffffff16565b606560008473ffffffffffffffffffffffffffffffffffffffff1673ffffffffffffffffffffffffffffffffffffffff1681526020019081526020016000208190555061217c816067546127e790919063ffffffff16565b606781905550600073ffffffffffffffffffffffffffffffffffffffff168273ffffffffffffffffffffffffffffffffffffffff167fddf252ad1be2c89b69c2b068fc378daa952ba7f163c4a11628f55a4df523b3ef836040518082815260200191505060405180910390a35050565b600081600001549050919050565b6000612204611d9d565b8260405160200180807f190100000000000000000000000000000000000000000000000000000000000081525060020183815260200182815260200192505050604051602081830303815290604052805190602001209050919050565b60007f7fffffffffffffffffffffffffffffff5d576e7357a4501ddfe92f46681b20a08260001c11156122df576040517f08c379a0000000000000000000000000000000000000000000000000000000008152600401808060200182810382526022815260200180612cb36022913960400191505060405180910390fd5b601b8460ff1614806122f45750601c8460ff16145b612349576040517f08c379a0000000000000000000000000000000000000000000000000000000008152600401808060200182810382526022815260200180612d276022913960400191505060405180910390fd5b600060018686868660405160008152602001604052604051808581526020018460ff1660ff1681526020018381526020018281526020019450505050506020604051602081039080840390855afa1580156123a8573d6000803e3d6000fd5b505050602060405103519050600073ffffffffffffffffffffffffffffffffffffffff168173ffffffffffffffffffffffffffffffffffffffff161415612457576040517f08c379a00000000000000000000000000000000000000000000000000000000081526004018080602001828103825260188152602001807f45434453413a20696e76616c6964207369676e6174757265000000000000000081525060200191505060405180910390fd5b80915050949350505050565b6001816000016000828254019250508190555050565b6000803090506000813b9050600081149250505090565b600060019054906101000a900460ff16806124af57506124ae612479565b5b806124c657506000809054906101000a900460ff16155b61251b576040517f08c379a000000000000000000000000000000000000000000000000000000000815260040180806020018281038252602e815260200180612dc3602e913960400191505060405180910390fd5b60008060019054906101000a900460ff16159050801561256b576001600060016101000a81548160ff02191690831515021790555060016000806101000a81548160ff0219169083151502179055505b8260689080519060200190612581929190612b80565b508160699080519060200190612598929190612b80565b506012606a60006101000a81548160ff021916908360ff16021790555080156125d65760008060016101000a81548160ff0219169083151502179055505b505050565b600060019054906101000a900460ff16806125fa57506125f9612479565b5b8061261157506000809054906101000a900460ff16155b612666576040517f08c379a000000000000000000000000000000000000000000000000000000000815260040180806020018281038252602e815260200180612dc3602e913960400191505060405180910390fd5b60008060019054906101000a900460ff1615905080156126b6576001600060016101000a81548160ff02191690831515021790555060016000806101000a81548160ff0219169083151502179055505b6126be612831565b6126fd826040518060400160405280600181526020017f3100000000000000000000000000000000000000000000000000000000000000815250612930565b61270682612a59565b80156127275760008060016101000a81548160ff0219169083151502179055505b5050565b80606a60006101000a81548160ff021916908360ff16021790555050565b505050565b6000609754905090565b6000609854905090565b600083838361276f612b78565b30604051602001808681526020018581526020018481526020018381526020018273ffffffffffffffffffffffffffffffffffffffff1673ffffffffffffffffffffffffffffffffffffffff168152602001955050505050506040516020818303038152906040528051906020012090509392505050565b600061282983836040518060400160405280601e81526020017f536166654d6174683a207375627472616374696f6e206f766572666c6f770000815250611cdd565b905092915050565b600060019054906101000a900460ff1680612850575061284f612479565b5b8061286757506000809054906101000a900460ff16155b6128bc576040517f08c379a000000000000000000000000000000000000000000000000000000000815260040180806020018281038252602e815260200180612dc3602e913960400191505060405180910390fd5b60008060019054906101000a900460ff16159050801561290c576001600060016101000a81548160ff02191690831515021790555060016000806101000a81548160ff0219169083151502179055505b801561292d5760008060016101000a81548160ff0219169083151502179055505b50565b600060019054906101000a900460ff168061294f575061294e612479565b5b8061296657506000809054906101000a900460ff16155b6129bb576040517f08c379a000000000000000000000000000000000000000000000000000000000815260040180806020018281038252602e815260200180612dc3602e913960400191505060405180910390fd5b60008060019054906101000a900460ff161590508015612a0b576001600060016101000a81548160ff02191690831515021790555060016000806101000a81548160ff0219169083151502179055505b600083805190602001209050600083805190602001209050816097819055508060988190555050508015612a545760008060016101000a81548160ff0219169083151502179055505b505050565b600060019054906101000a900460ff1680612a785750612a77612479565b5b80612a8f57506000809054906101000a900460ff16155b612ae4576040517f08c379a000000000000000000000000000000000000000000000000000000000815260040180806020018281038252602e815260200180612dc3602e913960400191505060405180910390fd5b60008060019054906101000a900460ff161590508015612b34576001600060016101000a81548160ff02191690831515021790555060016000806101000a81548160ff0219169083151502179055505b6040518080612cd5605291396052019050604051809103902060cc819055508015612b745760008060016101000a81548160ff0219169083151502179055505b5050565b600046905090565b828054600181600116156101000203166002900490600052602060002090601f016020900481019282601f10612bc157805160ff1916838001178555612bef565b82800160010185558215612bef579182015b82811115612bee578251825591602001919060010190612bd3565b5b509050612bfc9190612c00565b5090565b612c2291905b80821115612c1e576000816000905550600101612c06565b5090565b9056fe45524332303a207472616e7366657220746f20746865207a65726f206164647265737345524332303a206275726e20616d6f756e7420657863656564732062616c616e636545524332303a20617070726f766520746f20746865207a65726f206164647265737345524332303a207472616e7366657220616d6f756e7420657863656564732062616c616e636545434453413a20696e76616c6964207369676e6174757265202773272076616c75655065726d69742861646472657373206f776e65722c61646472657373207370656e6465722c75696e743235362076616c75652c75696e74323536206e6f6e63652c75696e7432353620646561646c696e652945434453413a20696e76616c6964207369676e6174757265202776272076616c7565454950373132446f6d61696e28737472696e67206e616d652c737472696e672076657273696f6e2c75696e7432353620636861696e49642c6164647265737320766572696679696e67436f6e74726163742945524332303a207472616e7366657220616d6f756e74206578636565647320616c6c6f77616e6365436f6e747261637420696e7374616e63652068617320616c7265616479206265656e20696e697469616c697a656445524332303a206275726e2066726f6d20746865207a65726f206164647265737345524332303a207472616e736665722066726f6d20746865207a65726f206164647265737345524332303a20617070726f76652066726f6d20746865207a65726f206164647265737345524332303a2064656372656173656420616c6c6f77616e63652062656c6f77207a65726fa26469706673582212204ca324ace2a1cd5fb9f848f47d2683ae2b2d045830d81a98c8e9e213d658355364736f6c634300060a0033",
  "linkReferences": {},
  "deployedLinkReferences": {}
}