{
  "_format": "hh-sol-artifact-1",
  "contractName": "FixedPointInt256Tester",
  "sourceName": "contracts/Gamma/tests/FixedPointInt256Tester.sol",
  "abi": [
    {
      "inputs": [
        {
          "components": [
            {
              "internalType": "int256",
              "name": "value",
              "type": "int256"
            }
          ],
          "internalType": "struct FixedPointInt256.FixedPointInt",
          "name": "a",
          "type": "tuple"
        },
        {
          "components": [
            {
              "internalType": "int256",
              "name": "value",
              "type": "int256"
            }
          ],
          "internalType": "struct FixedPointInt256.FixedPointInt",
          "name": "b",
          "type": "tuple"
        }
      ],
      "name": "testAdd",
      "outputs": [
        {
          "components": [
            {
              "internalType": "int256",
              "name": "value",
              "type": "int256"
            }
          ],
          "internalType": "struct FixedPointInt256.FixedPointInt",
          "name": "",
          "type": "tuple"
        }
      ],
      "stateMutability": "pure",
      "type": "function"
    },
    {
      "inputs": [
        {
          "components": [
            {
              "internalType": "int256",
              "name": "value",
              "type": "int256"
            }
          ],
          "internalType": "struct FixedPointInt256.FixedPointInt",
          "name": "a",
          "type": "tuple"
        },
        {
          "components": [
            {
              "internalType": "int256",
              "name": "value",
              "type": "int256"
            }
          ],
          "internalType": "struct FixedPointInt256.FixedPointInt",
          "name": "b",
          "type": "tuple"
        }
      ],
      "name": "testDiv",
      "outputs": [
        {
          "components": [
            {
              "internalType": "int256",
              "name": "value",
              "type": "int256"
            }
          ],
          "internalType": "struct FixedPointInt256.FixedPointInt",
          "name": "",
          "type": "tuple"
        }
      ],
      "stateMutability": "pure",
      "type": "function"
    },
    {
      "inputs": [
        {
          "internalType": "int256",
          "name": "a",
          "type": "int256"
        }
      ],
      "name": "testFromUnscaledInt",
      "outputs": [
        {
          "components": [
            {
              "internalType": "int256",
              "name": "value",
              "type": "int256"
            }
          ],
          "internalType": "struct FixedPointInt256.FixedPointInt",
          "name": "",
          "type": "tuple"
        }
      ],
      "stateMutability": "pure",
      "type": "function"
    },
    {
      "inputs": [
        {
          "components": [
            {
              "internalType": "int256",
              "name": "value",
              "type": "int256"
            }
          ],
          "internalType": "struct FixedPointInt256.FixedPointInt",
          "name": "a",
          "type": "tuple"
        },
        {
          "components": [
            {
              "internalType": "int256",
              "name": "value",
              "type": "int256"
            }
          ],
          "internalType": "struct FixedPointInt256.FixedPointInt",
          "name": "b",
          "type": "tuple"
        }
      ],
      "name": "testIsEqual",
      "outputs": [
        {
          "internalType": "bool",
          "name": "",
          "type": "bool"
        }
      ],
      "stateMutability": "pure",
      "type": "function"
    },
    {
      "inputs": [
        {
          "components": [
            {
              "internalType": "int256",
              "name": "value",
              "type": "int256"
            }
          ],
          "internalType": "struct FixedPointInt256.FixedPointInt",
          "name": "a",
          "type": "tuple"
        },
        {
          "components": [
            {
              "internalType": "int256",
              "name": "value",
              "type": "int256"
            }
          ],
          "internalType": "struct FixedPointInt256.FixedPointInt",
          "name": "b",
          "type": "tuple"
        }
      ],
      "name": "testIsGreaterThan",
      "outputs": [
        {
          "internalType": "bool",
          "name": "",
          "type": "bool"
        }
      ],
      "stateMutability": "pure",
      "type": "function"
    },
    {
      "inputs": [
        {
          "components": [
            {
              "internalType": "int256",
              "name": "value",
              "type": "int256"
            }
          ],
          "internalType": "struct FixedPointInt256.FixedPointInt",
          "name": "a",
          "type": "tuple"
        },
        {
          "components": [
            {
              "internalType": "int256",
              "name": "value",
              "type": "int256"
            }
          ],
          "internalType": "struct FixedPointInt256.FixedPointInt",
          "name": "b",
          "type": "tuple"
        }
      ],
      "name": "testIsGreaterThanOrEqual",
      "outputs": [
        {
          "internalType": "bool",
          "name": "",
          "type": "bool"
        }
      ],
      "stateMutability": "pure",
      "type": "function"
    },
    {
      "inputs": [
        {
          "components": [
            {
              "internalType": "int256",
              "name": "value",
              "type": "int256"
            }
          ],
          "internalType": "struct FixedPointInt256.FixedPointInt",
          "name": "a",
          "type": "tuple"
        },
        {
          "components": [
            {
              "internalType": "int256",
              "name": "value",
              "type": "int256"
            }
          ],
          "internalType": "struct FixedPointInt256.FixedPointInt",
          "name": "b",
          "type": "tuple"
        }
      ],
      "name": "testIsLessThan",
      "outputs": [
        {
          "internalType": "bool",
          "name": "",
          "type": "bool"
        }
      ],
      "stateMutability": "pure",
      "type": "function"
    },
    {
      "inputs": [
        {
          "components": [
            {
              "internalType": "int256",
              "name": "value",
              "type": "int256"
            }
          ],
          "internalType": "struct FixedPointInt256.FixedPointInt",
          "name": "a",
          "type": "tuple"
        },
        {
          "components": [
            {
              "internalType": "int256",
              "name": "value",
              "type": "int256"
            }
          ],
          "internalType": "struct FixedPointInt256.FixedPointInt",
          "name": "b",
          "type": "tuple"
        }
      ],
      "name": "testIsLessThanOrEqual",
      "outputs": [
        {
          "internalType": "bool",
          "name": "",
          "type": "bool"
        }
      ],
      "stateMutability": "pure",
      "type": "function"
    },
    {
      "inputs": [
        {
          "components": [
            {
              "internalType": "int256",
              "name": "value",
              "type": "int256"
            }
          ],
          "internalType": "struct FixedPointInt256.FixedPointInt",
          "name": "a",
          "type": "tuple"
        },
        {
          "components": [
            {
              "internalType": "int256",
              "name": "value",
              "type": "int256"
            }
          ],
          "internalType": "struct FixedPointInt256.FixedPointInt",
          "name": "b",
          "type": "tuple"
        }
      ],
      "name": "testMax",
      "outputs": [
        {
          "components": [
            {
              "internalType": "int256",
              "name": "value",
              "type": "int256"
            }
          ],
          "internalType": "struct FixedPointInt256.FixedPointInt",
          "name": "",
          "type": "tuple"
        }
      ],
      "stateMutability": "pure",
      "type": "function"
    },
    {
      "inputs": [
        {
          "components": [
            {
              "internalType": "int256",
              "name": "value",
              "type": "int256"
            }
          ],
          "internalType": "struct FixedPointInt256.FixedPointInt",
          "name": "a",
          "type": "tuple"
        },
        {
          "components": [
            {
              "internalType": "int256",
              "name": "value",
              "type": "int256"
            }
          ],
          "internalType": "struct FixedPointInt256.FixedPointInt",
          "name": "b",
          "type": "tuple"
        }
      ],
      "name": "testMin",
      "outputs": [
        {
          "components": [
            {
              "internalType": "int256",
              "name": "value",
              "type": "int256"
            }
          ],
          "internalType": "struct FixedPointInt256.FixedPointInt",
          "name": "",
          "type": "tuple"
        }
      ],
      "stateMutability": "pure",
      "type": "function"
    },
    {
      "inputs": [
        {
          "components": [
            {
              "internalType": "int256",
              "name": "value",
              "type": "int256"
            }
          ],
          "internalType": "struct FixedPointInt256.FixedPointInt",
          "name": "a",
          "type": "tuple"
        },
        {
          "components": [
            {
              "internalType": "int256",
              "name": "value",
              "type": "int256"
            }
          ],
          "internalType": "struct FixedPointInt256.FixedPointInt",
          "name": "b",
          "type": "tuple"
        }
      ],
      "name": "testMul",
      "outputs": [
        {
          "components": [
            {
              "internalType": "int256",
              "name": "value",
              "type": "int256"
            }
          ],
          "internalType": "struct FixedPointInt256.FixedPointInt",
          "name": "",
          "type": "tuple"
        }
      ],
      "stateMutability": "pure",
      "type": "function"
    },
    {
      "inputs": [
        {
          "components": [
            {
              "internalType": "int256",
              "name": "value",
              "type": "int256"
            }
          ],
          "internalType": "struct FixedPointInt256.FixedPointInt",
          "name": "a",
          "type": "tuple"
        },
        {
          "components": [
            {
              "internalType": "int256",
              "name": "value",
              "type": "int256"
            }
          ],
          "internalType": "struct FixedPointInt256.FixedPointInt",
          "name": "b",
          "type": "tuple"
        }
      ],
      "name": "testSub",
      "outputs": [
        {
          "components": [
            {
              "internalType": "int256",
              "name": "value",
              "type": "int256"
            }
          ],
          "internalType": "struct FixedPointInt256.FixedPointInt",
          "name": "",
          "type": "tuple"
        }
      ],
      "stateMutability": "pure",
      "type": "function"
    }
  ],
  "bytecode": "0x608060405234801561001057600080fd5b50610bbb806100206000396000f3fe608060405234801561001057600080fd5b50600436106100b45760003560e01c80639e66c670116100715780639e66c670146101d9578063aec27bb714610209578063c325f86614610239578063d493105314610269578063d6ff0a9f14610299578063eab39de7146102c9576100b4565b80631c604bd6146100b95780632284f80c146100e95780634a3b852514610119578063746398161461014957806385f547ff146101795780638cd1332a146101a9575b600080fd5b6100d360048036038101906100ce91906108dc565b6102f9565b6040516100e09190610a84565b60405180910390f35b61010360048036038101906100fe91906108dc565b610316565b6040516101109190610aff565b60405180910390f35b610133600480360381019061012e91906108dc565b610339565b6040516101409190610a84565b60405180910390f35b610163600480360381019061015e91906108dc565b610356565b6040516101709190610aff565b60405180910390f35b610193600480360381019061018e91906108dc565b610379565b6040516101a09190610aff565b60405180910390f35b6101c360048036038101906101be91906108dc565b61039c565b6040516101d09190610a84565b60405180910390f35b6101f360048036038101906101ee91906108dc565b6103b9565b6040516102009190610a84565b60405180910390f35b610223600480360381019061021e91906108dc565b6103d6565b6040516102309190610a84565b60405180910390f35b610253600480360381019061024e91906108dc565b6103f3565b6040516102609190610aff565b60405180910390f35b610283600480360381019061027e91906108b3565b610416565b6040516102909190610aff565b60405180910390f35b6102b360048036038101906102ae91906108dc565b61042e565b6040516102c09190610aff565b60405180910390f35b6102e360048036038101906102de91906108dc565b610448565b6040516102f09190610aff565b60405180910390f35b600061030e828461046290919063ffffffff16565b905092915050565b61031e610853565b610331828461047890919063ffffffff16565b905092915050565b600061034e82846104b190919063ffffffff16565b905092915050565b61035e610853565b61037182846104c790919063ffffffff16565b905092915050565b610381610853565b610394828461051590919063ffffffff16565b905092915050565b60006103b1828461056390919063ffffffff16565b905092915050565b60006103ce828461057890919063ffffffff16565b905092915050565b60006103eb828461058d90919063ffffffff16565b905092915050565b6103fb610853565b61040e82846105a290919063ffffffff16565b905092915050565b61041e610853565b610427826105db565b9050919050565b610436610853565b6104408383610617565b905092915050565b610450610853565b61045a838361063e565b905092915050565b6000816000015183600001511215905092915050565b610480610853565b60405180602001604052806104a68460000151866000015161066590919063ffffffff16565b815250905092915050565b6000816000015183600001511315905092915050565b6104cf610853565b604051806020016040528083600001516105026b033b2e3c9fd0803ce800000087600001516106dd90919063ffffffff16565b8161050957fe5b05815250905092915050565b61051d610853565b60405180602001604052806b033b2e3c9fd0803ce8000000610550856000015187600001516106dd90919063ffffffff16565b8161055757fe5b05815250905092915050565b60008160000151836000015113905092915050565b60008160000151836000015112905092915050565b60008160000151836000015114905092915050565b6105aa610853565b60405180602001604052806105d0846000015186600001516107db90919063ffffffff16565b815250905092915050565b6105e3610853565b604051806020016040528061060d6b033b2e3c9fd0803ce8000000856106dd90919063ffffffff16565b8152509050919050565b61061f610853565b81600001518360000151136106345781610636565b825b905092915050565b610646610853565b816000015183600001511261065b578161065d565b825b905092915050565b60008082840190506000831215801561067e5750838112155b80610694575060008312801561069357508381125b5b6106d3576040517f08c379a00000000000000000000000000000000000000000000000000000000081526004016106ca90610a9f565b60405180910390fd5b8091505092915050565b6000808314156106f057600090506107d5565b7fffffffffffffffffffffffffffffffffffffffffffffffffffffffffffffffff8314801561073e57507f800000000000000000000000000000000000000000000000000000000000000082145b1561077e576040517f08c379a000000000000000000000000000000000000000000000000000000000815260040161077590610abf565b60405180910390fd5b600082840290508284828161078f57fe5b05146107d0576040517f08c379a00000000000000000000000000000000000000000000000000000000081526004016107c790610abf565b60405180910390fd5b809150505b92915050565b6000808284039050600083121580156107f45750838113155b8061080a575060008312801561080957508381135b5b610849576040517f08c379a000000000000000000000000000000000000000000000000000000000815260040161084090610adf565b60405180910390fd5b8091505092915050565b6040518060200160405280600081525090565b60008135905061087581610b6e565b92915050565b60006020828403121561088d57600080fd5b6108976020610b1a565b905060006108a784828501610866565b60008301525092915050565b6000602082840312156108c557600080fd5b60006108d384828501610866565b91505092915050565b600080604083850312156108ef57600080fd5b60006108fd8582860161087b565b925050602061090e8582860161087b565b9150509250929050565b61092181610b58565b82525050565b61093081610b64565b82525050565b6000610943602183610b47565b91507f5369676e6564536166654d6174683a206164646974696f6e206f766572666c6f60008301527f77000000000000000000000000000000000000000000000000000000000000006020830152604082019050919050565b60006109a9602783610b47565b91507f5369676e6564536166654d6174683a206d756c7469706c69636174696f6e206f60008301527f766572666c6f77000000000000000000000000000000000000000000000000006020830152604082019050919050565b6000610a0f602483610b47565b91507f5369676e6564536166654d6174683a207375627472616374696f6e206f76657260008301527f666c6f77000000000000000000000000000000000000000000000000000000006020830152604082019050919050565b602082016000820151610a7e6000850182610927565b50505050565b6000602082019050610a996000830184610918565b92915050565b60006020820190508181036000830152610ab881610936565b9050919050565b60006020820190508181036000830152610ad88161099c565b9050919050565b60006020820190508181036000830152610af881610a02565b9050919050565b6000602082019050610b146000830184610a68565b92915050565b6000604051905081810181811067ffffffffffffffff82111715610b3d57600080fd5b8060405250919050565b600082825260208201905092915050565b60008115159050919050565b6000819050919050565b610b7781610b64565b8114610b8257600080fd5b5056fea2646970667358221220a6d6dda7d068aad5cc94726802e0b4111b8a4a3418242805c360f6dc986ca1b764736f6c634300060a0033",
  "linkReferences": {},
  "deployedLinkReferences": {}
}