{
  "_format": "hh-sol-artifact-1",
  "contractName": "PayableProxyController",
  "sourceName": "contracts/Gamma/external/proxies/PayableProxyController.sol",
  "abi": [
    {
      "inputs": [
        {
          "internalType": "address",
          "name": "_controller",
          "type": "address"
        },
        {
          "internalType": "address",
          "name": "_marginPool",
          "type": "address"
        },
        {
          "internalType": "address payable",
          "name": "_weth",
          "type": "address"
        }
      ],
      "stateMutability": "nonpayable",
      "type": "constructor"
    },
    {
      "stateMutability": "payable",
      "type": "fallback"
    },
    {
      "inputs": [],
      "name": "controller",
      "outputs": [
        {
          "internalType": "contract Controller",
          "name": "",
          "type": "address"
        }
      ],
      "stateMutability": "view",
      "type": "function"
    },
    {
      "inputs": [
        {
          "components": [
            {
              "internalType": "enum Actions.ActionType",
              "name": "actionType",
              "type": "uint8"
            },
            {
              "internalType": "address",
              "name": "owner",
              "type": "address"
            },
            {
              "internalType": "address",
              "name": "secondAddress",
              "type": "address"
            },
            {
              "internalType": "address",
              "name": "asset",
              "type": "address"
            },
            {
              "internalType": "uint256",
              "name": "vaultId",
              "type": "uint256"
            },
            {
              "internalType": "uint256",
              "name": "amount",
              "type": "uint256"
            },
            {
              "internalType": "uint256",
              "name": "index",
              "type": "uint256"
            },
            {
              "internalType": "bytes",
              "name": "data",
              "type": "bytes"
            }
          ],
          "internalType": "struct Actions.ActionArgs[]",
          "name": "_actions",
          "type": "tuple[]"
        },
        {
          "internalType": "address payable",
          "name": "_sendEthTo",
          "type": "address"
        }
      ],
      "name": "operate",
      "outputs": [],
      "stateMutability": "payable",
      "type": "function"
    },
    {
      "inputs": [],
      "name": "weth",
      "outputs": [
        {
          "internalType": "contract WETH9",
          "name": "",
          "type": "address"
        }
      ],
      "stateMutability": "view",
      "type": "function"
    }
  ],
  "bytecode": "0x60806040523480156200001157600080fd5b50604051620025843803806200258483398181016040528101906200003791906200054a565b600160008190555082600260006101000a81548173ffffffffffffffffffffffffffffffffffffffff021916908373ffffffffffffffffffffffffffffffffffffffff16021790555080600160006101000a81548173ffffffffffffffffffffffffffffffffffffffff021916908373ffffffffffffffffffffffffffffffffffffffff16021790555062000135827fffffffffffffffffffffffffffffffffffffffffffffffffffffffffffffffff600160009054906101000a900473ffffffffffffffffffffffffffffffffffffffff1673ffffffffffffffffffffffffffffffffffffffff166200013e60201b620006ef179092919060201c565b505050620009e0565b6000811480620001de575060008373ffffffffffffffffffffffffffffffffffffffff1663dd62ed3e30856040518363ffffffff1660e01b815260040162000188929190620007bd565b60206040518083038186803b158015620001a157600080fd5b505afa158015620001b6573d6000803e3d6000fd5b505050506040513d601f19601f82011682018060405250810190620001dc9190620005cc565b145b62000220576040517f08c379a000000000000000000000000000000000000000000000000000000000815260040162000217906200087f565b60405180910390fd5b620002ab8363095ea7b360e01b848460405160240162000242929190620007ea565b604051602081830303815290604052907bffffffffffffffffffffffffffffffffffffffffffffffffffffffff19166020820180517bffffffffffffffffffffffffffffffffffffffffffffffffffffffff8381831617835250505050620002b060201b60201c565b505050565b606062000319826040518060400160405280602081526020017f5361666545524332303a206c6f772d6c6576656c2063616c6c206661696c65648152508573ffffffffffffffffffffffffffffffffffffffff166200038460201b6200084d179092919060201c565b90506000815111156200037f57808060200190518101906200033c9190620005a0565b6200037e576040517f08c379a000000000000000000000000000000000000000000000000000000000815260040162000375906200085d565b60405180910390fd5b5b505050565b60606200039b8484600085620003a460201b60201c565b90509392505050565b6060620003b785620004db60201b60201c565b620003f9576040517f08c379a0000000000000000000000000000000000000000000000000000000008152600401620003f0906200083b565b60405180910390fd5b600060608673ffffffffffffffffffffffffffffffffffffffff168587604051620004259190620007a4565b60006040518083038185875af1925050503d806000811462000464576040519150601f19603f3d011682016040523d82523d6000602084013e62000469565b606091505b5091509150811562000480578092505050620004d3565b600081511115620004945780518082602001fd5b836040517f08c379a0000000000000000000000000000000000000000000000000000000008152600401620004ca919062000817565b60405180910390fd5b949350505050565b600080823b905060008111915050919050565b600081519050620004ff8162000978565b92915050565b600081519050620005168162000992565b92915050565b6000815190506200052d81620009ac565b92915050565b6000815190506200054481620009c6565b92915050565b6000806000606084860312156200056057600080fd5b60006200057086828701620004ee565b93505060206200058386828701620004ee565b9250506040620005968682870162000505565b9150509250925092565b600060208284031215620005b357600080fd5b6000620005c3848285016200051c565b91505092915050565b600060208284031215620005df57600080fd5b6000620005ef8482850162000533565b91505092915050565b6200060381620008d3565b82525050565b60006200061682620008a1565b620006228185620008b7565b93506200063481856020860162000931565b80840191505092915050565b60006200064d82620008ac565b620006598185620008c2565b93506200066b81856020860162000931565b620006768162000967565b840191505092915050565b600062000690601d83620008c2565b91507f416464726573733a2063616c6c20746f206e6f6e2d636f6e74726163740000006000830152602082019050919050565b6000620006d2602a83620008c2565b91507f5361666545524332303a204552433230206f7065726174696f6e20646964206e60008301527f6f742073756363656564000000000000000000000000000000000000000000006020830152604082019050919050565b60006200073a603683620008c2565b91507f5361666545524332303a20617070726f76652066726f6d206e6f6e2d7a65726f60008301527f20746f206e6f6e2d7a65726f20616c6c6f77616e6365000000000000000000006020830152604082019050919050565b6200079e8162000927565b82525050565b6000620007b2828462000609565b915081905092915050565b6000604082019050620007d46000830185620005f8565b620007e36020830184620005f8565b9392505050565b6000604082019050620008016000830185620005f8565b62000810602083018462000793565b9392505050565b6000602082019050818103600083015262000833818462000640565b905092915050565b60006020820190508181036000830152620008568162000681565b9050919050565b600060208201905081810360008301526200087881620006c3565b9050919050565b600060208201905081810360008301526200089a816200072b565b9050919050565b600081519050919050565b600081519050919050565b600081905092915050565b600082825260208201905092915050565b6000620008e08262000907565b9050919050565b6000620008f48262000907565b9050919050565b60008115159050919050565b600073ffffffffffffffffffffffffffffffffffffffff82169050919050565b6000819050919050565b60005b838110156200095157808201518184015260208101905062000934565b8381111562000961576000848401525b50505050565b6000601f19601f8301169050919050565b6200098381620008d3565b81146200098f57600080fd5b50565b6200099d81620008e7565b8114620009a957600080fd5b50565b620009b781620008fb565b8114620009c357600080fd5b50565b620009d18162000927565b8114620009dd57600080fd5b50565b611b9480620009f06000396000f3fe6080604052600436106100385760003560e01c80633fc8cef3146100cb578063dbde2927146100f6578063f77c47911461011257610039565b5b600160009054906101000a900473ffffffffffffffffffffffffffffffffffffffff1673ffffffffffffffffffffffffffffffffffffffff163373ffffffffffffffffffffffffffffffffffffffff16146100c9576040517f08c379a00000000000000000000000000000000000000000000000000000000081526004016100c0906117dd565b60405180910390fd5b005b3480156100d757600080fd5b506100e061013d565b6040516100ed9190611700565b60405180910390f35b610110600480360381019061010b9190610f89565b610163565b005b34801561011e57600080fd5b506101276106c9565b60405161013491906116e5565b60405180910390f35b600160009054906101000a900473ffffffffffffffffffffffffffffffffffffffff1681565b600260005414156101a9576040517f08c379a00000000000000000000000000000000000000000000000000000000081526004016101a09061183d565b60405180910390fd5b60026000819055506000341461023d57600160009054906101000a900473ffffffffffffffffffffffffffffffffffffffff1673ffffffffffffffffffffffffffffffffffffffff1663d0e30db0346040518263ffffffff1660e01b81526004016000604051808303818588803b15801561022357600080fd5b505af1158015610237573d6000803e3d6000fd5b50505050505b60008090505b825181101561045057610254610cd3565b83828151811061026057fe5b60200260200101519050600073ffffffffffffffffffffffffffffffffffffffff16816020015173ffffffffffffffffffffffffffffffffffffffff16146103cd57806020015173ffffffffffffffffffffffffffffffffffffffff163373ffffffffffffffffffffffffffffffffffffffff16148061038d5750600260009054906101000a900473ffffffffffffffffffffffffffffffffffffffff1673ffffffffffffffffffffffffffffffffffffffff1663b6363cf28260200151336040518363ffffffff1660e01b815260040161033c929190611671565b60206040518083038186803b15801561035457600080fd5b505afa158015610368573d6000803e3d6000fd5b505050506040513d601f19601f8201168201806040525081019061038c9190610fdd565b5b6103cc576040517f08c379a00000000000000000000000000000000000000000000000000000000081526004016103c3906117bd565b60405180910390fd5b5b6009600a8111156103da57fe5b8160000151600a8111156103ea57fe5b141561044257610441816040015134600160009054906101000a900473ffffffffffffffffffffffffffffffffffffffff1673ffffffffffffffffffffffffffffffffffffffff166108659092919063ffffffff16565b5b508080600101915050610243565b50600260009054906101000a900473ffffffffffffffffffffffffffffffffffffffff1673ffffffffffffffffffffffffffffffffffffffff1663b617f0c6836040518263ffffffff1660e01b81526004016104ac91906116c3565b600060405180830381600087803b1580156104c657600080fd5b505af11580156104da573d6000803e3d6000fd5b505050506000600160009054906101000a900473ffffffffffffffffffffffffffffffffffffffff1673ffffffffffffffffffffffffffffffffffffffff166370a08231306040518263ffffffff1660e01b815260040161053b919061162d565b60206040518083038186803b15801561055357600080fd5b505afa158015610567573d6000803e3d6000fd5b505050506040513d601f19601f8201168201806040525081019061058b9190611006565b9050600081146106bc57600073ffffffffffffffffffffffffffffffffffffffff168273ffffffffffffffffffffffffffffffffffffffff161415610605576040517f08c379a00000000000000000000000000000000000000000000000000000000081526004016105fc9061179d565b60405180910390fd5b600160009054906101000a900473ffffffffffffffffffffffffffffffffffffffff1673ffffffffffffffffffffffffffffffffffffffff16632e1a7d4d826040518263ffffffff1660e01b8152600401610660919061187d565b600060405180830381600087803b15801561067a57600080fd5b505af115801561068e573d6000803e3d6000fd5b505050506106bb818373ffffffffffffffffffffffffffffffffffffffff1661098d90919063ffffffff16565b5b5060016000819055505050565b600260009054906101000a900473ffffffffffffffffffffffffffffffffffffffff1681565b6000811480610788575060008373ffffffffffffffffffffffffffffffffffffffff1663dd62ed3e30856040518363ffffffff1660e01b8152600401610736929190611648565b60206040518083038186803b15801561074e57600080fd5b505afa158015610762573d6000803e3d6000fd5b505050506040513d601f19601f820116820180604052508101906107869190611006565b145b6107c7576040517f08c379a00000000000000000000000000000000000000000000000000000000081526004016107be9061185d565b60405180910390fd5b6108488363095ea7b360e01b84846040516024016107e692919061169a565b604051602081830303815290604052907bffffffffffffffffffffffffffffffffffffffffffffffffffffffff19166020820180517bffffffffffffffffffffffffffffffffffffffffffffffffffffffff8381831617835250505050610a81565b505050565b606061085c8484600085610b48565b90509392505050565b6000610904828573ffffffffffffffffffffffffffffffffffffffff1663dd62ed3e30876040518363ffffffff1660e01b81526004016108a6929190611648565b60206040518083038186803b1580156108be57600080fd5b505afa1580156108d2573d6000803e3d6000fd5b505050506040513d601f19601f820116820180604052508101906108f69190611006565b610c6b90919063ffffffff16565b90506109878463095ea7b360e01b858460405160240161092592919061169a565b604051602081830303815290604052907bffffffffffffffffffffffffffffffffffffffffffffffffffffffff19166020820180517bffffffffffffffffffffffffffffffffffffffffffffffffffffffff8381831617835250505050610a81565b50505050565b804710156109d0576040517f08c379a00000000000000000000000000000000000000000000000000000000081526004016109c79061177d565b60405180910390fd5b60008273ffffffffffffffffffffffffffffffffffffffff16826040516109f690611618565b60006040518083038185875af1925050503d8060008114610a33576040519150601f19603f3d011682016040523d82523d6000602084013e610a38565b606091505b5050905080610a7c576040517f08c379a0000000000000000000000000000000000000000000000000000000008152600401610a739061175d565b60405180910390fd5b505050565b6060610ae3826040518060400160405280602081526020017f5361666545524332303a206c6f772d6c6576656c2063616c6c206661696c65648152508573ffffffffffffffffffffffffffffffffffffffff1661084d9092919063ffffffff16565b9050600081511115610b435780806020019051810190610b039190610fdd565b610b42576040517f08c379a0000000000000000000000000000000000000000000000000000000008152600401610b399061181d565b60405180910390fd5b5b505050565b6060610b5385610cc0565b610b92576040517f08c379a0000000000000000000000000000000000000000000000000000000008152600401610b89906117fd565b60405180910390fd5b600060608673ffffffffffffffffffffffffffffffffffffffff168587604051610bbc9190611601565b60006040518083038185875af1925050503d8060008114610bf9576040519150601f19603f3d011682016040523d82523d6000602084013e610bfe565b606091505b50915091508115610c13578092505050610c63565b600081511115610c265780518082602001fd5b836040517f08c379a0000000000000000000000000000000000000000000000000000000008152600401610c5a919061171b565b60405180910390fd5b949350505050565b600080828401905083811015610cb6576040517f08c379a0000000000000000000000000000000000000000000000000000000008152600401610cad9061173d565b60405180910390fd5b8091505092915050565b600080823b905060008111915050919050565b6040518061010001604052806000600a811115610cec57fe5b8152602001600073ffffffffffffffffffffffffffffffffffffffff168152602001600073ffffffffffffffffffffffffffffffffffffffff168152602001600073ffffffffffffffffffffffffffffffffffffffff168152602001600081526020016000815260200160008152602001606081525090565b600081359050610d7481611af2565b92915050565b600081359050610d8981611b09565b92915050565b600082601f830112610da057600080fd5b8135610db3610dae826118c5565b611898565b9150818183526020840193506020810190508360005b83811015610df95781358601610ddf8882610e81565b845260208401935060208301925050600181019050610dc9565b5050505092915050565b600081519050610e1281611b20565b92915050565b600082601f830112610e2957600080fd5b8135610e3c610e37826118ed565b611898565b91508082526020830160208301858383011115610e5857600080fd5b610e63838284611a92565b50505092915050565b600081359050610e7b81611b37565b92915050565b60006101008284031215610e9457600080fd5b610e9f610100611898565b90506000610eaf84828501610e6c565b6000830152506020610ec384828501610d65565b6020830152506040610ed784828501610d65565b6040830152506060610eeb84828501610d65565b6060830152506080610eff84828501610f5f565b60808301525060a0610f1384828501610f5f565b60a08301525060c0610f2784828501610f5f565b60c08301525060e082013567ffffffffffffffff811115610f4757600080fd5b610f5384828501610e18565b60e08301525092915050565b600081359050610f6e81611b47565b92915050565b600081519050610f8381611b47565b92915050565b60008060408385031215610f9c57600080fd5b600083013567ffffffffffffffff811115610fb657600080fd5b610fc285828601610d8f565b9250506020610fd385828601610d7a565b9150509250929050565b600060208284031215610fef57600080fd5b6000610ffd84828501610e03565b91505092915050565b60006020828403121561101857600080fd5b600061102684828501610f74565b91505092915050565b600061103b8383611533565b905092915050565b61104c81611a02565b82525050565b61105b81611995565b82525050565b61106a81611995565b82525050565b600061107b82611929565b6110858185611957565b93508360208202850161109785611919565b8060005b858110156110d357848403895281516110b4858261102f565b94506110bf8361194a565b925060208a0199505060018101905061109b565b50829750879550505050505092915050565b60006110f082611934565b6110fa8185611968565b935061110a818560208601611aa1565b61111381611ad4565b840191505092915050565b600061112982611934565b6111338185611979565b9350611143818560208601611aa1565b80840191505092915050565b61115881611a14565b82525050565b61116781611a38565b82525050565b61117681611a5c565b82525050565b60006111878261193f565b6111918185611984565b93506111a1818560208601611aa1565b6111aa81611ad4565b840191505092915050565b60006111c2601b83611984565b91507f536166654d6174683a206164646974696f6e206f766572666c6f7700000000006000830152602082019050919050565b6000611202603a83611984565b91507f416464726573733a20756e61626c6520746f2073656e642076616c75652c207260008301527f6563697069656e74206d617920686176652072657665727465640000000000006020830152604082019050919050565b6000611268601d83611984565b91507f416464726573733a20696e73756666696369656e742062616c616e63650000006000830152602082019050919050565b60006112a8603783611984565b91507f50617961626c6550726f7879436f6e74726f6c6c65723a2063616e6e6f74207360008301527f656e642045544820746f2061646472657373207a65726f0000000000000000006020830152604082019050919050565b600061130e602e83611984565b91507f50617961626c6550726f7879436f6e74726f6c6c65723a2063616e6e6f74206560008301527f78656375746520616374696f6e200000000000000000000000000000000000006020830152604082019050919050565b6000611374602a83611984565b91507f50617961626c6550726f7879436f6e74726f6c6c65723a2043616e6e6f74207260008301527f65636569766520455448000000000000000000000000000000000000000000006020830152604082019050919050565b60006113da600083611979565b9150600082019050919050565b60006113f4601d83611984565b91507f416464726573733a2063616c6c20746f206e6f6e2d636f6e74726163740000006000830152602082019050919050565b6000611434602a83611984565b91507f5361666545524332303a204552433230206f7065726174696f6e20646964206e60008301527f6f742073756363656564000000000000000000000000000000000000000000006020830152604082019050919050565b600061149a601f83611984565b91507f5265656e7472616e637947756172643a207265656e7472616e742063616c6c006000830152602082019050919050565b60006114da603683611984565b91507f5361666545524332303a20617070726f76652066726f6d206e6f6e2d7a65726f60008301527f20746f206e6f6e2d7a65726f20616c6c6f77616e6365000000000000000000006020830152604082019050919050565b60006101008301600083015161154c600086018261116d565b50602083015161155f6020860182611052565b5060408301516115726040860182611052565b5060608301516115856060860182611052565b50608083015161159860808601826115e3565b5060a08301516115ab60a08601826115e3565b5060c08301516115be60c08601826115e3565b5060e083015184820360e08601526115d682826110e5565b9150508091505092915050565b6115ec816119f8565b82525050565b6115fb816119f8565b82525050565b600061160d828461111e565b915081905092915050565b6000611623826113cd565b9150819050919050565b60006020820190506116426000830184611043565b92915050565b600060408201905061165d6000830185611061565b61166a6020830184611061565b9392505050565b60006040820190506116866000830185611061565b6116936020830184611043565b9392505050565b60006040820190506116af6000830185611061565b6116bc60208301846115f2565b9392505050565b600060208201905081810360008301526116dd8184611070565b905092915050565b60006020820190506116fa600083018461114f565b92915050565b6000602082019050611715600083018461115e565b92915050565b60006020820190508181036000830152611735818461117c565b905092915050565b60006020820190508181036000830152611756816111b5565b9050919050565b60006020820190508181036000830152611776816111f5565b9050919050565b600060208201905081810360008301526117968161125b565b9050919050565b600060208201905081810360008301526117b68161129b565b9050919050565b600060208201905081810360008301526117d681611301565b9050919050565b600060208201905081810360008301526117f681611367565b9050919050565b60006020820190508181036000830152611816816113e7565b9050919050565b6000602082019050818103600083015261183681611427565b9050919050565b600060208201905081810360008301526118568161148d565b9050919050565b60006020820190508181036000830152611876816114cd565b9050919050565b600060208201905061189260008301846115f2565b92915050565b6000604051905081810181811067ffffffffffffffff821117156118bb57600080fd5b8060405250919050565b600067ffffffffffffffff8211156118dc57600080fd5b602082029050602081019050919050565b600067ffffffffffffffff82111561190457600080fd5b601f19601f8301169050602081019050919050565b6000819050602082019050919050565b600081519050919050565b600081519050919050565b600081519050919050565b6000602082019050919050565b600082825260208201905092915050565b600082825260208201905092915050565b600081905092915050565b600082825260208201905092915050565b60006119a0826119d8565b9050919050565b60006119b2826119d8565b9050919050565b60008115159050919050565b60008190506119d382611ae5565b919050565b600073ffffffffffffffffffffffffffffffffffffffff82169050919050565b6000819050919050565b6000611a0d82611a6e565b9050919050565b6000611a1f82611a26565b9050919050565b6000611a31826119d8565b9050919050565b6000611a4382611a4a565b9050919050565b6000611a55826119d8565b9050919050565b6000611a67826119c5565b9050919050565b6000611a7982611a80565b9050919050565b6000611a8b826119d8565b9050919050565b82818337600083830152505050565b60005b83811015611abf578082015181840152602081019050611aa4565b83811115611ace576000848401525b50505050565b6000601f19601f8301169050919050565b600b8110611aef57fe5b50565b611afb81611995565b8114611b0657600080fd5b50565b611b12816119a7565b8114611b1d57600080fd5b50565b611b29816119b9565b8114611b3457600080fd5b50565b600b8110611b4457600080fd5b50565b611b50816119f8565b8114611b5b57600080fd5b5056fea2646970667358221220bb2bb6a8723d6397a5bd4d6f21ce58a06ecbf641e8d2f942e5e57e056590936664736f6c634300060a0033",
  "linkReferences": {},
  "deployedLinkReferences": {}
}