{
  "_format": "hh-sol-artifact-1",
  "contractName": "FlashUnwrap",
  "sourceName": "contracts/Gamma/tests/FlashUnwrap.sol",
  "abi": [
    {
      "inputs": [
        {
          "internalType": "address payable",
          "name": "weth",
          "type": "address"
        }
      ],
      "stateMutability": "nonpayable",
      "type": "constructor"
    },
    {
      "anonymous": false,
      "inputs": [
        {
          "indexed": false,
          "internalType": "address",
          "name": "to",
          "type": "address"
        },
        {
          "indexed": false,
          "internalType": "uint256",
          "name": "amount",
          "type": "uint256"
        }
      ],
      "name": "UnwrappedETH",
      "type": "event"
    },
    {
      "anonymous": false,
      "inputs": [
        {
          "indexed": true,
          "internalType": "address",
          "name": "to",
          "type": "address"
        },
        {
          "indexed": false,
          "internalType": "uint256",
          "name": "amount",
          "type": "uint256"
        }
      ],
      "name": "WrappedETH",
      "type": "event"
    },
    {
      "inputs": [],
      "name": "WETH",
      "outputs": [
        {
          "internalType": "contract WETH9",
          "name": "",
          "type": "address"
        }
      ],
      "stateMutability": "view",
      "type": "function"
    },
    {
      "inputs": [
        {
          "internalType": "address payable",
          "name": "_sender",
          "type": "address"
        },
        {
          "internalType": "bytes",
          "name": "_data",
          "type": "bytes"
        }
      ],
      "name": "callFunction",
      "outputs": [],
      "stateMutability": "nonpayable",
      "type": "function"
    },
    {
      "stateMutability": "payable",
      "type": "receive"
    }
  ],
  "bytecode": "0x608060405234801561001057600080fd5b506040516108573803806108578339818101604052810190610032919061008d565b806000806101000a81548173ffffffffffffffffffffffffffffffffffffffff021916908373ffffffffffffffffffffffffffffffffffffffff160217905550506100ff565b600081519050610087816100e8565b92915050565b60006020828403121561009f57600080fd5b60006100ad84828501610078565b91505092915050565b60006100c1826100c8565b9050919050565b600073ffffffffffffffffffffffffffffffffffffffff82169050919050565b6100f1816100b6565b81146100fc57600080fd5b50565b6107498061010e6000396000f3fe60806040526004361061002d5760003560e01c80639c23da5014610039578063ad5c46481461006257610034565b3661003457005b600080fd5b34801561004557600080fd5b50610060600480360381019061005b91906103c4565b61008d565b005b34801561006e57600080fd5b506100776102c1565b604051610084919061055d565b60405180910390f35b60208151146100d1576040517f08c379a00000000000000000000000000000000000000000000000000000000081526004016100c890610578565b60405180910390fd5b6100d96102e6565b818060200190518101906100ed9190610441565b90506000809054906101000a900473ffffffffffffffffffffffffffffffffffffffff1673ffffffffffffffffffffffffffffffffffffffff166323b872dd843084600001516040518463ffffffff1660e01b8152600401610151939291906104fd565b602060405180830381600087803b15801561016b57600080fd5b505af115801561017f573d6000803e3d6000fd5b505050506040513d601f19601f820116820180604052508101906101a39190610418565b506000809054906101000a900473ffffffffffffffffffffffffffffffffffffffff1673ffffffffffffffffffffffffffffffffffffffff16632e1a7d4d82600001516040518263ffffffff1660e01b81526004016102029190610598565b600060405180830381600087803b15801561021c57600080fd5b505af1158015610230573d6000803e3d6000fd5b505050508273ffffffffffffffffffffffffffffffffffffffff166108fc82600001519081150290604051600060405180830381858888f1935050505015801561027e573d6000803e3d6000fd5b507f6faea7d16ca41ff2745533919e5496e9f1d5f318b5dfa1dbd623a7a9b665c4488382600001516040516102b4929190610534565b60405180910390a1505050565b6000809054906101000a900473ffffffffffffffffffffffffffffffffffffffff1681565b6040518060200160405280600081525090565b600081359050610308816106ce565b92915050565b60008151905061031d816106e5565b92915050565b600082601f83011261033457600080fd5b8135610347610342826105e0565b6105b3565b9150808252602083016020830185838301111561036357600080fd5b61036e8382846106bf565b50505092915050565b60006020828403121561038957600080fd5b61039360206105b3565b905060006103a3848285016103af565b60008301525092915050565b6000815190506103be816106fc565b92915050565b600080604083850312156103d757600080fd5b60006103e5858286016102f9565b925050602083013567ffffffffffffffff81111561040257600080fd5b61040e85828601610323565b9150509250929050565b60006020828403121561042a57600080fd5b60006104388482850161030e565b91505092915050565b60006020828403121561045357600080fd5b600061046184828501610377565b91505092915050565b61047381610665565b82525050565b61048281610677565b82525050565b6000610495602a8361060c565b91507f466c617368556e777261703a2063616e6e6f742070617273652043616c6c467560008301527f6e6374696f6e44617461000000000000000000000000000000000000000000006020830152604082019050919050565b6104f78161065b565b82525050565b6000606082019050610512600083018661046a565b61051f602083018561046a565b61052c60408301846104ee565b949350505050565b6000604082019050610549600083018561046a565b61055660208301846104ee565b9392505050565b60006020820190506105726000830184610479565b92915050565b6000602082019050818103600083015261059181610488565b9050919050565b60006020820190506105ad60008301846104ee565b92915050565b6000604051905081810181811067ffffffffffffffff821117156105d657600080fd5b8060405250919050565b600067ffffffffffffffff8211156105f757600080fd5b601f19601f8301169050602081019050919050565b600082825260208201905092915050565b60006106288261063b565b9050919050565b60008115159050919050565b600073ffffffffffffffffffffffffffffffffffffffff82169050919050565b6000819050919050565b60006106708261069b565b9050919050565b600061068282610689565b9050919050565b60006106948261063b565b9050919050565b60006106a6826106ad565b9050919050565b60006106b88261063b565b9050919050565b82818337600083830152505050565b6106d78161061d565b81146106e257600080fd5b50565b6106ee8161062f565b81146106f957600080fd5b50565b6107058161065b565b811461071057600080fd5b5056fea264697066735822122085182468ddae8ada717111f9078ff6163994d29e4bd7356ac2605ea2ec1bd99f64736f6c634300060a0033",
  "linkReferences": {},
  "deployedLinkReferences": {}
}