{
  "_format": "hh-sol-artifact-1",
  "contractName": "SignedConverterTester",
  "sourceName": "contracts/Gamma/tests/SignedConverterTester.sol",
  "abi": [
    {
      "inputs": [
        {
          "internalType": "int256",
          "name": "a",
          "type": "int256"
        }
      ],
      "name": "testFromInt",
      "outputs": [
        {
          "internalType": "uint256",
          "name": "",
          "type": "uint256"
        }
      ],
      "stateMutability": "pure",
      "type": "function"
    },
    {
      "inputs": [
        {
          "internalType": "uint256",
          "name": "a",
          "type": "uint256"
        }
      ],
      "name": "testFromUint",
      "outputs": [
        {
          "internalType": "int256",
          "name": "",
          "type": "int256"
        }
      ],
      "stateMutability": "pure",
      "type": "function"
    }
  ],
  "bytecode": "0x608060405234801561001057600080fd5b50610328806100206000396000f3fe608060405234801561001057600080fd5b50600436106100365760003560e01c8063395413431461003b57806389e616bb1461006b575b600080fd5b61005560048036038101906100509190610173565b61009b565b6040516100629190610284565b60405180910390f35b6100856004803603810190610080919061019c565b6100ad565b6040516100929190610249565b60405180910390f35b60006100a6826100bf565b9050919050565b60006100b8826100dd565b9050919050565b6000808212156100d4578160000390506100d8565b8190505b919050565b60007f80000000000000000000000000000000000000000000000000000000000000008210610141576040517f08c379a000000000000000000000000000000000000000000000000000000000815260040161013890610264565b60405180910390fd5b819050919050565b600081359050610158816102c4565b92915050565b60008135905061016d816102db565b92915050565b60006020828403121561018557600080fd5b600061019384828501610149565b91505092915050565b6000602082840312156101ae57600080fd5b60006101bc8482850161015e565b91505092915050565b6101ce816102b0565b82525050565b60006101e160228361029f565b91507f4669786564506f696e74496e743235363a206f7574206f6620696e742072616e60008301527f67650000000000000000000000000000000000000000000000000000000000006020830152604082019050919050565b610243816102ba565b82525050565b600060208201905061025e60008301846101c5565b92915050565b6000602082019050818103600083015261027d816101d4565b9050919050565b6000602082019050610299600083018461023a565b92915050565b600082825260208201905092915050565b6000819050919050565b6000819050919050565b6102cd816102b0565b81146102d857600080fd5b50565b6102e4816102ba565b81146102ef57600080fd5b5056fea264697066735822122063557c12b31fd58a10ecf4525329159d4d07bb50506c18e52a31daba949da99464736f6c634300060a0033",
  "linkReferences": {},
  "deployedLinkReferences": {}
}